:020000040800F2
:10000000F00C002081020008BD020008BF020008B9
:10001000C1020008C3020008C50200080000000079
:10002000000000000000000000000000C7020008FF
:10003000C902000800000000CB020008CD02000841
:10004000CF020008CF020008CF020008CF0200084C
:10005000CF020008CF020008CF020008CF0200083C
:10006000CF020008CF020008CF020008CF0200082C
:10007000CF020008CF020008CF020008CF0200081C
:10008000CF020008CF020008CF020008CF0200080C
:10009000CF020008CF020008CF020008CF020008FC
:1000A000CF020008CF020008CF020008CF020008EC
:1000B000CF020008CF020008CF020008CF020008DC
:1000C000CF020008CF020008CF020008CF020008CC
:1000D000CF020008CF020008CF020008CF020008BC
:1000E000CF020008CF020008CF02000800F002F89B
:1000F00000F0B6F814A696E8000CB244B344DA4512
:1001000001D100F0ADF8BAE80F000FA696E8300074
:10011000A5EB040504EB0607AAEB0704A7F101070A
:100120004FEA15154FEA3414A4F10104AC4201D38F
:1001300000F096F813F0010F18BFFB1A43F001030B
:1001400000F001F8DBE71847505000007050000045
:100150000A4410F8014B14F00F0508BF10F8015BBA
:10016000240908BF10F8014B6D1E05D010F8013BA3
:100170006D1E01F8013BF9D1641E03D0641E01F825
:10018000015BFBD19142E4D370470000704700004F
:100190000023002400250026103A28BF78C1FBD890
:1001A000520728BF30C148BF0B6070476E2900F06E
:1001B0008F81702900F0E382662904F0CB856529E0
:1001C00004F0C885672904F0C585612904F0C48559
:1001D00003681B0A28BF41F08001692900F03C81B7
:1001E000642900F03981752900F036816F2900F00B
:1001F0007182782900F0AF82E92900F00B82E429AE
:1002000000F00882F52900F00582EF2900F06E82E7
:10021000F82900F0AE820368DB0928BF41F08001B5
:10022000632901F01B83732901F02083E32901F086
:100230002B83F32901F03083002070471FB501F0B4
:10024000FDFF04000020002103F0EEFC401C606074
:100250000020002103F0D2FCE0601FBD10B510BDEE
:1002600001F0BEFF1146FFF7E9FF02F009FC02F0C2
:10027000AFF803B4FFF7F2FF03BC02F027FB000066
:100280004FF000004FF000014FF000024FF000036C
:100290004FF000044FF000054FF000064FF000074C
:1002A0004FF000084FF000094FF0000A4FF0000B2C
:1002B0004FF0000C0948804709480047FEE7FEE779
:1002C000FEE7FEE7FEE7FEE7FEE7FEE7FEE7FEE706
:1002D00004480549034A054B70470000B928000847
:1002E000ED000008F0040020F00C0020F0040020D5
:1002F000704700000FB4044910B503AA029800F03B
:1003000019F910BC5DF814FB600400200FB41CB593
:10031000084B06AA7B4469460090059800F0F1F866
:1003200004460020694600F0FFF820461CBC5DF83A
:1003300014FB0000110200000FB400B58DB010A92D
:10034000099000910B904FF0FF300A9000200C9024
:10035000064878440690064878446A4607900F9904
:1003600009A800F0A3FC0DB05DF814FB77090000AC
:100370008F090000704770477047704710B500F054
:100380002BFE006810BD10B5044600F025FE046089
:1003900010BD70B5044685690068C10601D53026D8
:1003A00000E02026C00707D070BDD4E90121304607
:1003B0009047206A401C20626D1EF6D570BD70B556
:1003C000044685690078C00707D170BDD4E90121D2
:1003D00020209047206A401C20626D1EF6D570BD1B
:1003E00009684A0501D540B27047C905FCD500B27D
:1003F000704709684A0501D5C0B27047C905FCD5E8
:1004000080B2704770B50C460546012A05D02878A1
:10041000800600D5EA69002302E0012305E05B1CA9
:10042000934202D2E05C0028F9D1A869E618C01A0C
:10043000A861286A184428622846FFF7AAFF04E04A
:10044000D5E9012114F8010B9047B442F8D32846AE
:10045000FFF7B5FF70BD00002DE9F041064600240E
:1004600010687529314616A510D0FFF7B9FF00288E
:1004700002DA404213A507E031688A0701D512A5C8
:1004800002E0490704D511A5012401E0FFF7B1FFFF
:1004900000210A2206F1240709E0B0FBF2FCB0FBC0
:1004A000F2F302FB1C00303078541846491C002837
:1004B000F3D123462A463046BDE8F04100F0DEBDC8
:1004C000000000002D0000002B00000020000000B4
:1004D00011680268006A530501D508700AE0D30567
:1004E00001D5088006E0130603D5C217C1E9000252
:1004F00000E008600120704701694A1C0261087829
:10050000704700B58FB0CDE9013100210591054953
:100510007944CDE903101146684600F03BF90FB06D
:1005200000BD0000E5FFFFFF0A6802F8010B0A604A
:1005300070470000074B70B50D467B44FFF7E1FFA5
:100540000446284601F0FFFD10B14FF0FF3070BDAA
:10055000204670BDDF2400002DE9FF5F15468A4666
:100560000446DFF8AC80F8440027D8E900103E4686
:10057000CDE9001010E03AF816106A4602A801F022
:1005800006FE411C07D02178890603D5E269391897
:1005900091420DD80744761C2078800602D5E06988
:1005A000B84205DDAE42E6DB3AF816000028E2D19B
:1005B000A069C01BA0612046FFF7EBFED8E9001040
:1005C000CDE90010002017E03AF818106A4602A89A
:1005D00001F0DDFDB0F1FF3F81460BD000250DF1AC
:1005E000080B05E0D4E901211BF8050090476D1CBC
:1005F0004D45F7D308F10100B0428046E4DB206AA4
:10060000384420622046FFF7DAFEBDE8FF9F000075
:100610003E4900002DE9F0418046D21D22F007023C
:100620000025D2E90002F52915A614D0011E72F1A9
:10063000000106DA0023D0EB030063EB020211A6EF
:1006400008E0D8F800108B0701D50FA602E0490793
:1006500001D50EA601251146002408F1240704E067
:1006600000F0BEFC30323A55641C50EA0102F7D16A
:100670002B46324621464046BDE8F04100F0FEBC24
:10068000000000002D0000002B00000020000000F2
:1006900030B4002100F1240408E002F00705D2087C
:1006A000303542EA4372DB086554491C52EA0305BF
:1006B000F3D10468002310A2250708D504F0200414
:1006C0000C4304D0C46901230CA2641EC46130BC75
:1006D00000F0D4BC10B5044621461068FFF789FE2F
:1006E00002462046BDE810400023D1E7D21D22F08B
:1006F0000701D1E90023CBE7000000003000000033
:10070000F0B40D460188090502D5214C7C4402E075
:100710001F4C7C440E34002100F1240608E002F056
:100720000F071209E75D42EA03721B097754491C5F
:1007300052EA0307F3D102780023120704D5702D83
:1007400006D009B1022311342246F0BC00F096BC59
:1007500001231034F8E770B504460D4621461068B1
:10076000FFF747FE024629462046BDE870400023B9
:10077000C6E7D21D22F00703D3E90023C0E70368D0
:10078000126843F0200303600823C3610023B7E726
:10079000A04700002DE9F05F894604464FF0000AAB
:1007A000DFF874B1FB44C0F820A02046E168884718
:1007B000002874D0252806D0D4E901219047206A6A
:1007C000401C2062F1E700265F462046E16888472A
:1007D0002028054607DB312D05D2781910F8200CAA
:1007E00008B10643F1E7B00701D526F00406C4F8C6
:1007F0001CA00027C4F818A02A2D09D0284603F011
:100800002CF838B304EB8708303DC8F8185019E0CD
:1008100059F8041B204604EB87029161E168884780
:10082000012F054618D1E069002820DA26F02006BD
:100830001DE0D8F8180000EB800005EB40003038D0
:10084000C8F818002046E1688847054603F005F817
:100850000028EED1012F0AD02E2D08D12046E168C4
:1008600088477F1C0546022F46F02006C4DBA0699E
:10087000002803DA404246F00106A061F00701D0EB
:1008800026F010066C2D0BD0682D09D04C2D39D0D8
:100890006A2D35D0742D35D07A2D33D016E038E05E
:1008A000E1682F4620468847B842054609D16C2F9B
:1008B00026D04FF48060E16806432046884705460D
:1008C00004E06C2F1AD04FF4807006430DB3A5F1ED
:1008D0004100192802D8203546F400664A462946C8
:1008E000204626604E46FFF761FC80B101280BD000
:1008F000F61D26F0070000F1080956E74020E4E75E
:100900008020D8E70020D6E706F104094DE7284605
:1009100052E7206ABDE8F09F304700002DE9FF4F05
:100920001C4691464FF0FF3581B000218A4688462B
:10093000D4E90167A16902986D1C8847216A834642
:1009400088470028F6D1BBF1FF3F0CD0002F26F4DA
:10095000C0661ADD700615D5BBF12B0F0AD0BBF1AE
:100960002D0F0FD104E04FF0FF3005B0BDE8F08F40
:1009700046F48066A16902986D1C88477F1E8346F5
:10098000002F02DDBBF1300F03D0B9F1000F2AD0E8
:1009900025E0A1696D1C02987F1E46F40076884709
:1009A000002F834605DDBBF1780F06D0BBF1580F51
:1009B00003D0B9F1000F10D011E0B9F1000F02D04F
:1009C000B9F1100F0BD1A1696D1C02987F1E26F49E
:1009D000007688478346102000E0082081464FEAD1
:1009E000E970009017E00A20F8E74346AAFB0928BF
:1009F000DDF800C07F1E03FB098046F4007605F198
:100A000001050AFB0C0112EB0B0A029841EBEB7893
:100A1000A16988478346002F06DD4946584600F005
:100A20003FFF5FEA000BE0D5E16902988847B00517
:100A300002D46FF0010098E7F00718D1700610D5C6
:100A40005146700505D50023D1EB030163EB080285
:100A500000E042462068031D23600068C0E90012E0
:100A600005E02068011D21600068C0E900A8284653
:100A70007BE72DE9FF5F1D464FF0FF3B91464FF0AE
:100A800000085F46D5E90146A96901987F1C88479F
:100A9000296A824688470028F6D1BAF1FF3F0CD078
:100AA000002E24F4C06419DD600614D5BAF12B0FB2
:100AB00009D0BAF12D0F0ED103E0584604B0BDE8BD
:100AC000F09F44F48064A96901987F1C8847761ED2
:100AD0008246002E02DDBAF1300F03D0B9F1000FCB
:100AE00026D032E0A969761E01987F1C44F4007478
:100AF0008847002E824605DDBAF1780F06D0BAF19C
:100B0000580F03D0B9F1000F10D01EE0B9F1000F5B
:100B100002D0B9F1100F18D1A969761E01987F1C77
:100B200024F4007488478246102002E0082000E088
:100B30000A20814609E0A96908FB0908761E019888
:100B40007F1C44F4007488478246002E05DD494628
:100B5000504600F0A5FE0028EDDAE96901988847C3
:100B6000A00502D46FF00100A8E7E00725D16006D8
:100B700013D5600502D5C8F1000000E040462968A1
:100B80000A1D2A600968220501D5087015E02207B0
:100B900001D5088011E008600FE02868011D296078
:100BA0000068210502D580F8008006E0210702D503
:100BB000A0F8008001E0C0F8008038467EE72DE90B
:100BC000FF5F4FF000089946144646469169D2E906
:100BD00001A7DDF838B001988847054659EA0B00AF
:100BE00005D009E0A1690198761C88470546216A6D
:100BF000284688470028F5D1681C03D05FEACA70F0
:100C000005D015E04FF0FF3004B0BDE8F09F20683C
:100C1000011D2160D0F800800AE05FEACA7001D1AE
:100C200008F8015BA169761C01987F1E884705467C
:100C3000002F1ADD681C18D0B9F1000F0DD0E8178D
:100C400005EBD060421120F01F0059F822102A1A3B
:100C5000012090400142E0D107E0BBF1000FDCD160
:100C60002846216A88470028D7D0E169019888473B
:100C7000BBF1000F07D1002E05DD5FEACA7002D17B
:100C8000002188F80010A068B84203DDBBF1000F16
:100C900003D017B16FF00100B6E73046B4E70000AB
:100CA000026811441378016018467047D160054905
:100CB000794451610449794411620021116111465E
:100CC00000F0FCBDEDFFFFFFB1030000426842B140
:100CD000016811F8013B23B1521EC0E90012184609
:100CE00070470121C160881E704742685AB1C368CD
:100CF000016843B983688B4205D0491E521CC0E984
:100D00000012002070474FF0FF3070472DE9FF4F71
:100D10004FF000089A461446C146464683B0D2E9D1
:100D200001B7CDF80080CDF8048091690498884718
:100D3000109905465AEA010005D009E0A169049816
:100D4000761C88470546216A284688470028F5D141
:100D5000681C03D05FEACB7005D02AE04FF0FF306B
:100D600007B0BDE8F08F2068011D2160D0F8008039
:100D70001FE002A86A46E9B201F0E9F9411C07D078
:100D8000801C09D04FF000095FEACB7007D00AE061
:100D9000E169049888473EE04FF0010904E0BDF89E
:100DA000081028F8021B7F1EA1690498761C88474A
:100DB0000546002F1ADD681C18D0BAF1000F0DD0BF
:100DC000E81705EBD060421120F01F005AF82210FE
:100DD0002A1A012090400142CBD107E01098002848
:100DE000C7D12846216A88470028C2D0E169049803
:100DF0008847B9F1000F0ED1109830B9002E04DDEC
:100E00005FEACB7001D1A8F80000A068B84202DD0B
:100E1000109818B117B16FF00100A1E730469FE7B5
:100E20002DE9FF4F4FF000089B461446454683B01E
:100E3000D2E90196CDF80080CDF804809169DDF803
:100E400048A00498884707465BEA0A0005D009E0F5
:100E5000A16904986D1C88470746216A384688476F
:100E60000028F5D1781C03D05FEAC97005D01BE0DB
:100E70004FF0FF3007B0BDE8F08F2068011D216002
:100E8000D0F8008010E05FEAC97007D16A4640469A
:100E9000B9B201F07CF9411C31D08044A1696D1CCC
:100EA0000498761E88470746002E14DD781C12D061
:100EB000BBF1000007D03B46DDE9101201F034F928
:100EC0000028E0D107E0BAF1000FDCD13846216AF2
:100ED00088470028D7D0E16904988847BAF1000F05
:100EE00006D1002D04DD5FEAC97001D188F8000049
:100EF000A068B04203DDBAF1000F03D016B16FF065
:100F00000100B7E72846B5E72DE9FF5F9B46144689
:100F100000273D469169D2E90196DDF840A001988D
:100F2000884780465BEA0A0005D009E0A16901987C
:100F30006D1C88478046216A404688470028F5D1C5
:100F4000B8F1FF3F03D05FEAC97005D014E04FF05D
:100F5000FF3004B0BDE8F09F2068011D21600768E4
:100F60000AE05FEAC97001D127F8028BA1696D1C04
:100F70000198761E88478046002E15DDB8F1FF3FA8
:100F800012D0BBF1000007D04346DDE90E1201F09C
:100F9000CBF80028E5D107E0BAF1000FE1D14046D7
:100FA000216A88470028DCD0E16901988847BAF1B6
:100FB000000F05D1002D03DD5FEAC97000D1388034
:100FC000A068B04203DDBAF1000F03D016B16FF094
:100FD0000100BEE72846BCE7004870470004002037
:100FE00030B5B0F10A0271F100034FEA900E4EEAFB
:100FF000817EB0EB0E0061EB91014FEA101E4EEACC
:10100000017E10EB0E0041EB11114FEA102E4EEA5B
:10101000016E10EB0E0041EB11214FEA104E4EEA2B
:10102000014E10EB0E0041EB1141401841F100015F
:101030004FEAD00040EA41704FEAD1014FEA810403
:1010400044EA907410EB800544EB01046D1944EB05
:101050000404521BA3414FF0000348BF0A3200D5DD
:1010600030BD401C41F1000130BD10B5044601F017
:10107000DDF80068005D00F0010010BD2DE9F047CB
:101080000D4699469246044600F1240801688806F8
:1010900004D5E06921F01001216000E00120A842A0
:1010A00001DD471B00E00027A1697A1902EB090066
:1010B000081AA0612078C00602D42046FFF769F91B
:1010C000002608E0D4E901211AF806009047206ABA
:1010D000401C761C20624E45F4DB2078C0060AD501
:1010E0002046FFF756F906E0D4E901213020904769
:1010F000206A401C2062381EA7F10107F4DC07E0DB
:10110000D4E9012118F805009047206A401C2062AC
:10111000281EA5F10105F3DC2046FFF750F92078E1
:10112000000602D50220BDE8F0870120FBE72DE98B
:10113000FF4F0C461E464FF0FF378BB0D2E900013F
:10114000DDF860800A908A46C1F30A5505B93D462C
:10115000002108464FF00000BAF1000F00F44000F3
:1011600005DA00EB80004FF4400101EA50004FEA3D
:101170009059B9F1010F00DDB9460A9850EA4A00CA
:101180000ED044F61050A5F2FF3545432F14B8F1A8
:10119000000F1ED07542291E1EDDC9F100021CE0A1
:1011A000B8F1010F4FF0000001D0302103E0F2430D
:1011B00005E02154401CB042FBDB304600220021F8
:1011C00021540B99C1F80880C1E900200FB0BDE897
:1011D000F08FBD1B6D1CDEE74A4600DA694206A8A7
:1011E00001F084F806AB93E8070003AB83E807003F
:1011F00050460A9901F00AFE8DE80700A0F500505C
:101200001F3800900398002D0ADD42F21F014A4664
:101210000844002303A90390684602F0B5F809E0EA
:10122000A0F500504A461F38002303A903906846E2
:1012300002F0D4F88DE807000004000C03D04FF052
:10124000FF30410800E01046B8F1000F03D0002243
:10125000009215461EE0751E05D4FFF7C1FE303220
:1012600062556D1EF9D5B3460122084302D0002213
:101270007F1C04E02078302801D100227F1E002A44
:10128000099784D01DE0112D07DAFFF7A9FE30324F
:1012900062556D1C50EA0102F5D1084302D0009856
:1012A000C8B10EE00021681E05E0235C625C635457
:1012B0002254401E491C8142F7DBAB46A81B401E4E
:1012C0000990002004F80B000B98099AC0F80880D8
:1012D000C0E9002B7AE711264FF0000857E72DE907
:1012E000F04F88460446D21D22F0070191B0D1E9A3
:1012F0000001CDE90A0102F0BDF902460B98C00FCA
:1013000001D02D2007E02068810701D52B2002E0C5
:10131000202101EAC000032A099001D0072A05DB39
:1013200003464146204600F0A1FF0BE120788006ED
:1013300001D5E06900E00620B8F1650F814606D0CE
:10134000B8F1660F18D0B8F1670F70D131E0002006
:10135000B9F1110F009001DB112301E009F1010344
:101360000AAA01A90CA8FFF7E2FEDDE90C7000262D
:1013700009F10105834647E001204B4600904FF0FC
:1013800000470AAA01A90CA8FFF7D1FEDDE90DB0BC
:101390000C995D46002610B909F101000D18B9EB52
:1013A000050003D4C0F1FF3609F10105A5EB0900E2
:1013B0002BE0B9F1010F01DA4FF001090020B9F17A
:1013C000110F0090484601DD112300E003460AAAF0
:1013D00001A90CA8FFF7ABFEDDE90C704D46002615
:1013E0008346207800070AD4AB4500DA5D4601A8A1
:1013F000012D04DD411911F8011C302907D04F459A
:1014000002DA17F1040F04DA012082460FE06D1EA4
:10141000EEE7002F02DCED1B3E4403E0781CA842FF
:1014200000DD7D1CB81B00F1010A4FF00047207859
:10143000000703D4AA4501DB4FF0FF3A0021B7F1C2
:10144000004F0DF143088DF8431024D002202B23C8
:10145000002F01DA7F422D230A21021EA0F1010094
:1014600000DC5FB197FBF1FC97FBF1F201FB1C7C08
:1014700017460CF1300C08F801CDEEE7A8F1010099
:1014800003702188090501D5452100E06521A0F1FF
:10149000010800F8011C09980FA9A1EB0807FF1D1E
:1014A00000B10120411901EBEA70A1693844081A22
:1014B000401EA0612078C00602D42046FEF769FFD6
:1014C000099828B1D4E901219047206A401C206284
:1014D0002078C00622D52046FEF75BFF1EE0002ED6
:1014E00004DBB34502DD01A8805D00E03020D4E9D3
:1014F00001219047206A401C2062761CAAF101005D
:101500005FEA000A0AD100F099FEC0680168405CF9
:10151000D4E901219047206A401C2062281EA5F1D1
:101520000105DCDC07E0D4E9012118F8010B904744
:10153000206A401C2062381EA7F10107F3DC204618
:10154000FEF73DFF032011B041E600002DE9F04F0A
:1015500004460D46D21D22F0070089B0D0E900975D
:101560004846394602F086F80246F80F01D02D238E
:1015700007E02068810701D52B2302E0202101EA42
:10158000C0038DF820300BB1012000E00020032AB9
:10159000824601D0072A04DB2946204600F066FE79
:1015A0003FE12078800601D40D2500E0E569C7F30E
:1015B0000A560D2D49DA00214FEA175B08464FF015
:1015C0000000002F00F4400007DA00EB80004FF429
:1015D000400100EBD07001EA60008115012901DDB6
:1015E0004FF0FF3100224FEA850CBCF1180F06D3F3
:1015F0001346ACF118004FF08052C24003E04FF4A4
:10160000801323FA0CF30CF10C0CBCF1200F04D363
:10161000ACF1200C09FA0CF001E007FA0CF00029FB
:101620004FF0004801DD18B90FE00ED140450CD352
:1016300019EB02095F4121B9404502D19F4329EAD4
:101640000209BBEB175F00D0761C2088000502D58D
:101650007B48784402E07A487844193808AA302355
:1016600002F80A30037C0AF10101002E0AF1020A95
:1016700053546A4602DC4FF0300101E04FF0310173
:101680004FF001088DF8001002D0A6F2FF3603E0FB
:1016900059EA470100D06B4E002D02DC2178090782
:1016A00004D54FF002082E218DF80110C446002108
:1016B0000BE0C7F303433F01C35C491C6D1E02F8F6
:1016C0000830052908F1010801DA002DF1DC0021BC
:1016D0000CE000EB1973491C1B786D1E082902F8F9
:1016E00008304FEA091908F1010801DA002DF0DC91
:1016F00021688B0602D516E0A8F10108E04505DD5A
:1017000002EB080313F8013C302BF5D0B8F1000FC1
:1017100009DD02EB080313F8013C2E2B03D1090766
:1017200001D4A8F10108002D05DD3E2102F80810C2
:101730006D1E08F10108407C002E02F8080008F137
:10174000010804DA2D20764202F8080002E02B207E
:1017500002F808000A214FF47A70864208F1010865
:101760000BDB96FBF0F3303302F8083096FBF0F316
:1017700008F1010800FB136601E0642E0CDB642015
:1017800096FBF0F3303302F8083096FBF0F308F1E3
:10179000010800FB136601E00A2E06DB96FBF1F060
:1017A000303002F8080008F1010896FBF1F001FB67
:1017B0001060303002F80800A16908F1010808EB58
:1017C000050202EB0A00081AA0612078C00602D4C4
:1017D0002046FEF7DEFD216A08AE01EB0A0020621A
:1017E00004E0D4E9012116F8010B9047BAF1010A8F
:1017F000F7D22078C00602D52046FEF7CAFD6E4615
:1018000009E016F8010B3E280FD0D4E901219047DA
:10181000206A401C2062B8F10108F2D22046FEF78F
:10182000CEFD09B00320BDE8F08F206A2844206275
:1018300003E0D4E90121302090476D1EEBD3F8E797
:10184000A638000002FCFFFF10B5436913B1AFF3E7
:10185000008001E0FEF7D6FD012010BD127800F1F6
:1018600024010A7000224A700122EDE711684FF04E
:10187000FF32E9E710B5436913B1AFF3008001E02F
:10188000FEF76AFE012010BD128800F12401828457
:101890000022C2840122EDE711684FF0FF32E9E730
:1018A0003A2800D2303820F02002412A01D3A2F198
:1018B0003700884201D34FF0FF3070472DE9F34FD6
:1018C0004FF0000A0C4656468DB001200C9001F1F5
:1018D0000C000B9062690B9801219047051E2DD0DA
:1018E000252D2CD0216A8847C0B162690B9801214F
:1018F0009047216A88470028F7D16269411E0B98FA
:10190000904700E0761CA1690D988847216A8847B6
:101910000028F7D1E1690D988847DBE7A1690D98A8
:101920008847A842074601D1761CD3E7E1690D98A4
:1019300088477F1C02D1BAF1000F6FD06BE162695A
:101940000B9800273D46394690472A2804D1626902
:101950000B98012190470125DFF8D08262690B982E
:1019600001219047A0F130010A290AD24745E5DC60
:1019700007EB870100EB4107303FDFD445F010054E
:10198000ECE7E90601D46FF000476C280AD04C2838
:1019900014D0682815D06A280DD074281CD07A2855
:1019A0001AD01DE062690B98012190476C2802D083
:1019B00045F0040514E045F002050DE045F0200572
:1019C0000AE062690B9801219047682802D045F02F
:1019D000080505E045F4006562690B980121904710
:1019E000C4E9015765283DD019DC58287AD00CDCB1
:1019F000452837D004DC252826D041289ED131E067
:101A000046282FD0472899D12CE05B2877D0612831
:101A100028D063287CD0642823D15AE0F6E06F28D0
:101A200048D008DC66281DD067281BD0692821D043
:101A30006E2816D127E0702845D0732868D0752805
:101A400047D078280DD14DE0A1690D988847252809
:101A500005463FF469AFE1690D9888476D1C3FF476
:101A60006AAFD8E00D9923466A466FF0010003F093
:101A7000D5F9C5E045F0400023464FF00002606014
:101A8000A80736D43EE0E8077FF447AF2068011D81
:101A900021600068290501D506701BE7290701D5DB
:101AA000068017E7A90703D5F117C0E9006111E720
:101AB00006600FE745F0400023464FF008026060E3
:101AC000A80716D41EE040F60E0125EA010060606A
:101AD00016E045F0400023464FF00A026060A80778
:101AE00007D40FE045F040006060A80708D5234602
:101AF00010220D996FF00100FEF710FF80E007E063
:101B0000102223460D996FF00100FEF7B2FF77E037
:101B10004FF0000963284F46C8464B46CB4602D0DB
:101B20005B2806D038E0E80601D40120A060012738
:101B300032E06269D4F80CB00B98012190475E281E
:101B400007D14FF0010949466269D4F80CB00B98EF
:101B50009047216939B900210A4603AB43F8212097
:101B6000491C0829FADBD8B3216949B308F10108F7
:101B700062690B98012190475D28F4D1B9F1000FFB
:101B800009D0002003A951F82020D24341F8202099
:101B9000401C0828F7DB03AB2069002820794FEAB6
:101BA00040701ED05B462246CDF80080CDE90197FB
:101BB0000D9900286FF0010020DAFFF7A5F91FE06A
:101BC000C11703AA00EBD1614B1121F01F0102EBF9
:101BD0008302411A13680120884003431360C7E75A
:101BE00019E00D99224600286FF00100009702DAF3
:101BF000FFF78CF804E0FEF7E2FF01E0FFF710F9D1
:101C000000280ADA401C06D10C9820B14FF0FF30B2
:101C10000FB0BDE8F08F5046FAE7E90701D10AF1AD
:101C2000010A064400200C9054E60000CCCCCC0CF9
:101C30002DE9FF4F06468BB00878FF2806D0491CD7
:101C40002D2805D000244FF0000908E000200CE00A
:101C50000124F8E709EB8903491C00EB43090878E4
:101C6000FF28F7D114B1C9F1000081461078002592
:101C70002C46AA4629462D2801D02B2804D1521CD7
:101C80002D2813D0002082468B461078FF280FD0D5
:101C90004FF0000C0A21521CA5FB017804FB0181C6
:101CA00005FB0C11C5194BEB0104EEE70120EAE737
:101CB000002108464FF00000BAF1000F02D000EBFF
:101CC00080004008C0F38157012F01DD4FF0FF373E
:101CD0000E9955EA040009EB01080BD04FF00209F8
:101CE00018F5FA7F16DA4FEACA70002F706008DD27
:101CF000012007E04FEACA70C6E900B00FB0BDE8A6
:101D0000F08F00203060FFF767F9C0F800901821CD
:101D1000084616E0B8F5FA7F18DD002F02DAF7481A
:101D2000784401E0F6487844D0E90010C6E9001094
:101D300040EACA707060FFF74FF9C0F800901421B4
:101D400008460FB0BDE8F04F03F001B80021084687
:101D50004FF00000B8F10001099002DAC7F100026B
:101D600000E03A4601DAC8F1000106A800F0BEFA28
:101D700006AB93E8070003AB83E8070044F23E009C
:101D80005BEA04010090584604D144F21E012C463F
:101D90005D460091210C0904014306D100992404F9
:101DA00044EA15442D041039009104F07F410143A9
:101DB00006D10099240244EA15642D0208390091E5
:101DC00004F07041014306D10099240144EA1574DE
:101DD0002D01091F009104F04041014306D10099F3
:101DE000A40044EA9574AD00891E009104F00041FE
:101DF000084304D100986D196441401E00904FF0D3
:101E000001033A466846B8F1000FCDE9014503A940
:101E100002DD01F0F8FA01E001F0CBFABAF1000FAF
:101E200004460D4601D084F00044002108464FF0DE
:101E30000000099940F2FF77484010F00C0F07D1DD
:101E400024F00040284303D0C4F30A50B84212D112
:101E5000FFF7C2F8C0F80090C4F30A50B8420AD1A4
:101E6000A8487844D0E90010C6E9001004F0004109
:101E70000843706042E7C6E900543FE72DE9FF4F91
:101E80001F464FF0000A4FF0FF38454691B0D7E9A2
:101E90000146CDF83CA000F0D1F9C0680168405C73
:101EA0001090B96912986D1C8847396A8146884735
:101EB0000028F6D1B9F1FF3F0AD0002E24F4D064F7
:101EC00011DDB9F12B0F08D0B9F12D0F0BD102E0C4
:101ED000404615B013E744F48064B96912986D1C4C
:101EE0008847761E8146600504A901D52D2000E0B3
:101EF0002B20002E01F1010B0DF130088DF81000A0
:101F00003FDDB9F1690F08D0B9F1490F05D0B9F13A
:101F10006E0F02D0B9F14E0F1CD13B4601A80095BF
:101F200080E85002DDE912126FF0020002F07AFF41
:101F3000C11CCED10EE0B96912986D1C884781464C
:101F40001398761E44F4007405600F98401C002E10
:101F50000F9016DDB9F1300FEDD0B9F1780F02D046
:101F6000B9F1580F0DD10F9801280AD13B46CDE9A0
:101F70000054DDE91212001F029602F051FFC11C4D
:101F8000A7D1109989453ED144F0800406E0139909
:101F9000681CAAF1010A44F400740860B9696D1C58
:101FA0001298761E884730288146F0D02BE0109991
:101FB000894505D1200603D4761E44F0800418E03C
:101FC000484601F04AFC08B3761E0DF12302934502
:101FD000A9F1300044F4007406D20BF8010B20067E
:101FE00007D5AAF1010003E0200602D40AF101009E
:101FF0008246A00502D51399681C0860B969129839
:102000006D1C88478146002ED1DC53E0002E51DD47
:10201000B9F1650F02D0B9F1450F4BD1A00549D5F3
:10202000B9696D1C1298761E24F440748847002EFE
:1020300081460CDD2B2804D0B9F12D0F07D144F4D3
:102040008074B96912986D1C8847761E8146E00538
:1020500001D52D2100E02B2108F8011BCDF80080CF
:1020600021E0761E0DF13901884544F400740CD24C
:10207000A9F1300010F0FF0088F8000002D10099AB
:10208000884509D908F1010806E0E00501D51E4898
:1020900001E042F20F708246B96912986D1C8847C0
:1020A000814613980560002E04DD484601F0D5FBFB
:1020B0000028D6D1F96912988847FF2053468BF83B
:1020C000000088F8000000200A900B9004AA0CA9D8
:1020D0000AA8FFF7ADFDA00502D46FF00100F8E6F5
:1020E00014F0240F12D0E0071CD13868DDE90A1281
:1020F000031D3B600068C0E9001213E09C3400003F
:102100008E34000052330000F1D8FFFF0AA9684660
:1021100001F032FBE00705D13868009A011D3960F3
:10212000006802602846D4E610B508E030F8024B9B
:102130009C4204D10AB1002010BD012010BD491EEF
:10214000F4D2104610BD007B00F080007047F8B557
:1021500016460C46054600F069F8036893F801013D
:10216000012804D0185D78B101202C80F8BDD3F887
:1021700003013246214603F20313C71868460023C1
:10218000B84700992980F8BD4FF0FF30F8BD2DE920
:10219000F04116460C46054600F048F8036893F8EF
:1021A0000101012807D0FF2C12D8185D80B1012051
:1021B0002C70BDE8F081D3F807013246214603F2C6
:1021C0000713C7182846BC46BDE8F0410023604706
:1021D0004FF0FF30EDE7000000487047000400209A
:1021E0007546FFF7F9FFAE4605006946534620F0F5
:1021F0000700854618B020B5FEF76AF8BDE8204014
:102200004FF000064FF000074FF000084FF0000BB2
:10221000AC46ACE8C009ACE8C009ACE8C009ACE821
:10222000C00921F007018D467047000010B500F08D
:1022300005F8001D10BD00BFF119000000487047EF
:1022400020040020B2F120030AD5C2F1200301FAD4
:1022500002F120FA03F341EA030100FA02F07047A9
:1022600000FA03F14FF00000704700002DE9F04143
:102270001F46044603260168072A01F4006004DBB8
:1022800008B116A505E016A503E008B115A500E004
:1022900015A521F010002060A069C01EA0610FB13B
:1022A000401EA0612046FEF774F84FB1D4E9012129
:1022B00038469047206A401C2062C01C206206E01D
:1022C000206AFAE7D4E9012115F8010B9047761E40
:1022D000F8D22046FEF773F8BDE8F0814E414E007B
:1022E0006E616E00494E4600696E66002DE9F0474A
:1022F000814616468AB0354878440DC88DE80D00F1
:1023000032487844801C03AC0DC884E80D0041F6C7
:102310009B300844372190FBF1F290FBF1F5A5F1D9
:10232000800501FB12041B3C02D56442012000E041
:102330000020DFF898A080460027FA44AAF1BE0AE0
:102340000EE0E0070AD03246684607EB470101235A
:102350000AEB810101F042F88DE8070064107F1C50
:10236000002CEED1194F7F44AE3F19E0E80715D09D
:1023700007EB04100DF1180A90E80E008AE80E0031
:10238000C068F04201D1981908903246012306A98D
:1023900003A801F023F803AB83E807006D10641C69
:1023A000002DE3D14FF0010332466946B8F1000F2A
:1023B00003A802D000F0E8FF01E001F00FF8C9E93E
:1023C0000001C9F808200AB0BDE8F087902C000091
:1023D00010B50446AFF300802046BDE81040FDF77D
:1023E00048BF00002DE9FF4F1F464FF03C0987B062
:1023F0004FF00042DDE9141001F10108DDF858A0AA
:1024000002EA4050039000200590834605460446AA
:102410000490B969461E08988847AAF1010A0290FB
:10242000BAF1000F3BDD02982E2815D01021FFF7DE
:1024300037FA00282EDB4FF0010B0599014317D026
:10244000B9F1000F0BDB4A46C117FFF7FBFE05434E
:102450000C43A9F1040905E0012004900BE008B148
:1024600045F0010501200590049820B9361D02E0D1
:10247000049800B1361FB969089808F10108884727
:10248000BBF1000FAAF1010A0290C9D00999C1F865
:102490000080C5E70298702808D0502806D0F96956
:1024A00008988847BBF1000F14D04FE0002002903D
:1024B0000120BBF1000F049009D0B969089808F118
:1024C00001088847AAF10109B9F1000F07DCF96991
:1024D000089888476FF001000BB0BDE8F08F2B28FB
:1024E00004D02D280CD14FF0FF300490B969089822
:1024F00008F101088847A9F10109B9F1000FE6DDEB
:10250000411CE4D00A21FFF7CBF90028DFDB029958
:1025100008F1010801EB810100EB41000290B9696B
:10252000089888470A21FFF7BBF9099AA9F1010920
:10253000B9F1000FC2F8008001DD0028E7DAF9697F
:10254000089888470499029800FB016655EA040040
:1025500004D004F04041090002D006E0039898E05E
:10256000A40044EA9574AD00B61E04F000410800D2
:1025700002D16D196441761E159810F0240F03D016
:102580004FF00B095C4803E04FF028096FF07D0025
:102590008246564507DAAAEB06018944B9F1410F94
:1025A00001DD4FF0410901200021A9F10102FFF7EF
:1025B00049FE024628400B462140084301D0012134
:1025C00000E00021501E029143F1FF3128402140DC
:1025D000084301D0012000E000200299834651EA1F
:1025E0000B014FD0002108464FF00000039900F482
:1025F000400039B100EB80004FF4400100EBD07097
:1026000001EA60008015012802DD4FF0FF3000E094
:1026100013D0401C36D0029860B3BBF1000F0CD130
:102620004A4601200021FFF70DFE284021400843C3
:1026300001D0012000E00020E0B101204A46002145
:10264000FFF700FE034640190A4661412D1A8C41EE
:1026500011D3B9F1400F09DD159810F0240F02D005
:10266000AAF1340603E0AAF1170600E0761C002563
:102670004FF0004406E05B1E42F1FF3220EA030502
:1026800021EA0204CAF10100B04206DA1B490398AC
:1026900008430190002000900EE0039AC4F3D32178
:1026A000E80A0A43164940EA44500A433146CDE954
:1026B0000002684601F0C6F8159810F0240F0BD000
:1026C0001598C00715D13868DDE90012031D3B607D
:1026D0000068C0E900120CE002A8694601F04CF85D
:1026E0001598C00705D13868029A011D3960006845
:1026F00002604046F0E6000002FCFFFF0000F07FB1
:102700000000F03F2DE9FF4F92461D4685B04FF087
:102710000041DDE9124BDDE914727F1E01EA4B50E6
:10272000414940F0FF4940EA0108002122F0200021
:102730004928049102D04E2828D04CE03BA0012625
:1027400007C88DE80700A9690698641C88477F1EA2
:10275000014606D41DF8060018B121F0200181427F
:102760000BD0E96906988847032E34D0082E32D062
:102770006FF0010009B0BDE8F08F761C032E01D088
:10278000082EE0D1601CCAF80000DCE7A9690698B1
:10279000641C88477F1E2AD420F02000412826D1BF
:1027A000A9690698641C88477F1E20D420F0200069
:1027B0004E281CD1A9690698641C88477F1E48F4DE
:1027C000002849F48009CAF8004001D4282806D01E
:1027D000E969069888475FEACB7012D022E0A969C0
:1027E0000698641C88477F1E01D4002803DAE96933
:1027F00006988847BCE72928F1D1641CCAF8004034
:10280000E9E71BF0240F07D028680499031D2B600B
:102810000068C0E9001805E02868021D2A60006809
:10282000C0F800902046A5E70000F07F494E4649D9
:102830004E495459000000004FF0013C50F8042B61
:1028400051F8043B9A4221D1A2EB0C03934313EAC3
:10285000CC1317D150F8042B51F8043B9A4215D1F0
:10286000A2EB0C03934313EACC130BD150F8042BC7
:1028700051F8043B9A4209D1A2EB0C03934313EAAB
:10288000CC13DBD04FF00000704700BFD01A01BA64
:10289000B1FA81F101F0180122FA01F0CB40DBB26C
:1028A000C0B2C01AC1F120012CFA01F3D11A914330
:1028B00011EAC311E6D1704780B500F00BF844F679
:1028C000A470C0F60000FDF715FD80BD81B000903A
:1028D00001B0704781B040F20030C4F200000090B7
:1028E0000098006840F20221C2F22501884207D117
:1028F000FFE740F2B441C2F200010120087006E097
:1029000040F2B441C2F2000100200870FFE701B0BC
:102910007047000080B586B0049040F20010C4F209
:102920000000019040F20410C4F20000009000F09A
:102930008BF8039040F2B440C2F200000078E0B996
:10294000FFE70498B0F1FF3F07DCFFE740F2B64134
:10295000C2F2000100200880FFE740F2B641C2F257
:1029600000010A8840F20000C2F20000805C8DF88D
:102970000B000888013008801FE0FFE7019800681D
:102980008006002811D4FFE7049800280CD4FFE744
:1029900000F05AF80399401A0499884204D3FFE7DB
:1029A00000208DF817000DE0E8E7009800688DF82A
:1029B0000B00019900200860FFE79DF80B008DF8DF
:1029C0001700FFE79DF9170006B080BD80B584B001
:1029D0008DF80F0040F20010C4F20000019040F2A8
:1029E0000410C4F20000009000F02EF80290FFE7FF
:1029F000019800684006002809D4FFE740F2B4407F
:102A0000C2F20000007808B9FFE700E0F0E79DF9A6
:102A10000F000099086004B080BD000080B582B04E
:102A2000019000919DF90400FFF7D0FF019802B0DA
:102A300080BD000081B040F20420C4F2000000908C
:102A40000098006801B0704782B040F2B440C2F212
:102A50000000007850B9FFE740F2B840C2F2000031
:102A60000168013101600068019006E04FF080408C
:102A70000090009800680190FFE7019802B070474D
:102A800080B582B000200190FFF724FFFFF7D2FF4E
:102A9000009040F2B440C2F200000278009B45F280
:102AA000A800C0F600002921FDF724FC00F062F91F
:102AB0004FF4FA7000F03EF9FFE700F007F845F236
:102AC0000510C0F60000FDF715FCF6E7B0B5AAB09A
:102AD00044F6B670C0F60000FDF70CFC0420C4F20A
:102AE00000002590259902200860259900200860A3
:102AF00040F20000C2F2000024904FF4806100F028
:102B0000FDF8249945F29410C0F60000FDF7F2FBA1
:102B100024986A4628A9116045F25111C0F60001B7
:102B200029AA0DF19F03FDF707FC01F0B7FF2690DE
:102B30009DF99F002B2829D1FFE729981E9001F0CD
:102B40005DFE2190229128981F9001F057FE0246C9
:102B50001E9823920A461F99209201F07BFE01F0F5
:102B60004DFEDDF880C0219A229B864623980C46B4
:102B70006946CC60C1F808E0C1F804C0086045F2BD
:102B80005D00C0F60000FDF7B5FBB4E09DF99F00C5
:102B90002D2829D1FFE72998189001F02FFE1B90CE
:102BA0001C912898199001F029FE024618981D9250
:102BB0000A4619991A9202F055F801F01FFEDDF845
:102BC00068C01B9A1C9B86461D980C466946CC60C3
:102BD000C1F808E0C1F804C0086045F26800C0F61A
:102BE0000000FDF787FB85E09DF99F002A2829D189
:102BF000FFE72998129001F001FE15901691289890
:102C0000139001F0FBFD0246129817920A461399A1
:102C1000149201F05BFF01F0F1FDDDF850C0159A50
:102C2000169B864617980C466946CC60C1F808E0AA
:102C3000C1F804C0086045F25200C0F60000FDF77C
:102C400059FB56E09DF99F002F2829D1FFE72998CD
:102C50000C9001F0D3FD0F90109128980D9001F089
:102C6000CDFD02460C9811920A460D990E9201F084
:102C700053FE01F0C3FDDDF838C00F9A109B864665
:102C800011980C466946CC60C1F808E0C1F804C050
:102C9000086045F27300C0F60000FDF72BFB27E04B
:102CA000269801F0ABFD08900991299801F0A6FD46
:102CB0000B9007919DF99F000A90289801F09EFDC6
:102CC000DDF81CC0089A099BDDF828E004460B9843
:102CD0000D4669464D610C61C1F808E0C1F804C0B9
:102CE000086045F24010C0F60000FDF703FBFFE767
:102CF000FFE7FFE7FFE72AB0B0BD000080B582B074
:102D00000190ADF802104FF0FF30FFF703FE01997C
:102D10000870FFE70198007848B1FFE7019801309B
:102D200001906420FFF7F6FD01990870F2E702B008
:102D300080BD000080B582B00190019945F2EF009E
:102D4000C0F60000FDF7D6FAFFF77EFE0090FFE721
:102D5000FFF77AFE0099401A0199884201D2FFE7F5
:102D6000F6E745F23600C0F60000FDF7C3FA02B000
:102D700080BD000080B58CB04CF2CA00C3F6F37081
:102D80000B9049F28230C4F22A500A9042F2365037
:102D9000C3F6E170099043F2AF40C3F6107008909B
:102DA0000A980B99089A099B01F014FA079106906A
:102DB000069A079B40F2BC40C2F20000029045F226
:102DC0009301C0F60001FDF7A1FA029945F29410B3
:102DD000C0F600000390FDF78DFA0698079900F001
:102DE00043FD0246029801920A4601990592049118
:102DF000049A059B45F27E01C0F60001FDF786FAB4
:102E000002990398FDF776FA0CB080BD5FEA400C9A
:102E100008BF91F0000F4FEA8C234FEAC12243EA2A
:102E200051514FEA1C5018BF00F5F0404FEA3000F6
:102E300018BF41F000415FEA6C5C00F02980BCF1F2
:102E4000FF3F08BF40F080407047130C06BF1204DC
:102E50004FF0100C4FF0000C130E04BF12020CF1D7
:102E6000080C130F04BF12010CF1040C930F04BFE4
:102E700092000CF1020CD30F04BF52000CF1010CB4
:102E800011464FF00002A0F11F00A0EB0C007047AC
:102E900011F0004F08BF704731F000413FF4D5AF4B
:102EA0000B0C06BF09044FF0100C4FF0000C0B0E7A
:102EB00004BF09020CF1080C0B0F04BF09010CF14F
:102EC000040C8B0F04BF89000CF1020CCB0F04BF64
:102ED00049000CF1010CCCF1200322FA03F341EA82
:102EE000030102FA0CF2A0EB0C0000F101007047A4
:102EF00023F07F4720F07F4C80EA030000F0004081
:102F0000ACEB070303F57C5303F1FF032DE9804984
:102F100009B44FEA144324EA03484FEA154B25EA63
:102F20000B4E0FF2042606EB13273E7803FB0667D1
:102F3000C7F5000707FB06F64FEAD64606F102067C
:102F40004FEA543707FB066CCCF1005C4FEA1C4794
:102F50002CEA074C0CFB06F507FB06F404EB1546C0
:102F60004FEA961649085FEA320234BF00204FF05C
:102F700000404FEAD13706FB07FC4FEA1C4C0CFB24
:102F80000BF7D21B03FB0CF761EB07010CFB0EF7F1
:102F9000B0EB074072EB17420CFB08F734BFA2EB13
:102FA0000742B2EB074261EB17414FEA0C444FEA8C
:102FB000910706FB07FC4FEA1C4C0CFB0BF7B0EB30
:102FC000C74072EB573203FB0CF734BFA2EBC7428A
:102FD000B2EBC74261EB57310CFB0EF7B0EBC70009
:102FE00072EB57720CFB08F734BFA2EBC702B2EBCF
:102FF000C70261EB57714FEA816141EA92114FEAD2
:10300000826242EA90124FEA806004EBCC04039F94
:103010004FEAD13706FB07FC4FEA1C4C0CFB0BF7C1
:10302000D21B03FB0CF761EB07010CFB0EF7B0EBB7
:10303000074072EB17420CFB08F734BFA2EB0742C4
:10304000B2EB074261EB17414FEA8C5504EB9C242D
:103050004FEA910706FB07FC4FEA1C4C0CFB0BF7F1
:10306000B0EBC74072EB573203FB0CF734BFA2EB57
:10307000C742B2EBC74261EB57310CFB0EF7B0EB26
:10308000C70072EB57720CFB08F734BFA2EBC70204
:10309000B2EBC70261EB57714FEA816141EA9211CD
:1030A0004FEA826242EA90124FEA806015EB4C25AB
:1030B00044F100044FEAD13706FB07FC4FEA1C4CF1
:1030C0000CFB0BF7D21B03FB0CF761EB07010CFBAE
:1030D0000EF7B0EB074072EB17420CFB08F734BF5A
:1030E000A2EB0742B2EB074261EB17414FEA813195
:1030F00041EA92414FEA823242EA90424FEA8030FE
:103100004FEA0C7615EB1C1544F1000448EA034322
:103110004EEA0B484FF0000EB2EB080C71EB0307C0
:1031200024BF624639464EEB0E0E4FF0000B0018DE
:10313000524149414BEB0B0BB2EB080C71EB03070F
:103140007BF1000B24BF624639464EEB0E0E4FF06A
:10315000000B0018524149414BEB0B0BB2EB080C32
:1031600071EB03077BF1000B24BF624639464EEB3F
:103170000E0E51EA020718BF46F0010616EB0E7656
:1031800055F1000254F1000103D5BDE88901BDE805
:103190000088BDE88901BDE80048B619524141EBFD
:1031A0000101A3F10103704780807F7E7D7C7B7AE3
:1031B0007978777676757473727171706F6E6E6DE3
:1031C0006C6C6B6A6A696868676666656464636389
:1031D00062616160605F5F5E5E5D5D5C5C5B5B5A0F
:1031E0005A5959585857575656555555545453537C
:1031F00052525251515050504F4F4F4E4E4D4D4DD7
:103200004C4C4C4B4B4B4A4A4A4949494848484721
:10321000474747464646454545444444444343435F
:10322000434242424241414110B546EA06464FEA16
:10323000164646EA42564FEAD22242EA41524FEA45
:10324000D121A3F57053A3F1010300F02FF820F072
:10325000004000F0004700F1020CBCF5006F01EBEC
:103260000050114640EA070000D210BDBAF1000F2D
:103270000AD01CB503B44FF004004FF004014FF026
:1032800000000FBCBDE810404FF00001BBF1010F82
:10329000B9BF04484FF0FF310348002140EA07005E
:1032A00010BD00BFFFFFEF7F0000F07F9C46002BAA
:1032B00030D477002BD04FEA37071CB503B44FF05A
:1032C00010004FF01001BAF1000F06D0BCF1000F52
:1032D000DCBF40F0080040F008014FF000000FBCD8
:1032E000BDE810400BF1010BBBF1010F08BF5FEA15
:1032F000170722BF12F1010211F101014FF0004145
:1033000043F1000300F0004043EA00007047F9D3A6
:103310005708D0E746EA06464FEA164613F1400F33
:103320001FDD13F1200FDFBF16430A4600212033B3
:103330005B42BED0C3F1200746EA06464FEA164676
:1033400002FA07F746EA070622FA03F2C3F120075A
:1033500001FA07F742EA070221FA03F14FF00003EE
:10336000A7E746EA020646EA06464FEA164646EA56
:103370000106BCBF46EA0646360C4FF000034FF08C
:1033800000024FF0000194E72DE9804C70B49A469A
:10339000934691E8380007C831EA400C48BF34EA48
:1033A000430C03D5FFF7A4FDFFF780FFF0BCBDE899
:1033B000008C2DE9804C70B49A46934691E8380011
:1033C00007C831EA400C48BF34EA430C03D5FFF785
:1033D0008FFDFFF729FFF0BCBDE8008C2DE9804C84
:1033E00070B49A46934691E8380007C810F0804FB1
:1033F00008BF13F0804F03D100F01AF8FFF756FF13
:10340000F0BCBDE8008C2DE9804C70B49A46934620
:1034100091E8380007C810F0804F08BF13F0804FC4
:1034200003D100F005F8FFF7FFFEF0BCBDE8008C0B
:1034300020F07F4723F07F4C80EA030000F000403B
:1034400007EB0C03A3F57C53A3F1FE0392F0000FEE
:1034500000F0B38095F0000F00F077802DE901496E
:103460004FEA114021EA00484FEA144624EA064791
:1034700000FB06FC08FB06F607FB08F818EB0648FD
:103480004CEB164C00FB07F718EB07484CEB1740CA
:103490004FEA124B22EA0B4E4FEA154625EA064741
:1034A0000BFB06FC0EFB06F607FB0EFE1EEB064EA4
:1034B0004CEB164C0BFB07F71EEB074E4CEB174B78
:1034C00018EB0B0840F1000018EB0E0B58EB00084E
:1034D00040F100008F1A4FF000014FF000063CBF92
:1034E000C943661B14BFB5EB040C00213CBFC943A4
:1034F000F61B4FEA174427EA04454FEA1C472CEA1B
:10350000074C04FB076205FB07F70CFB05F616EBFF
:10351000074642EB174204FB0CFC16EB0C4642EB51
:103520001C421BEB060658EB020241414EEA8E0E8E
:1035300046EA9E0601D5BDE80189B619524141EB24
:103540000101A3F10103BDE801894FEA144524EA12
:1035500005464FEA114721EA074C05FB07F406FB35
:1035600007F70CFB06F111EB074144EB174405FB91
:103570000CFC11EB0C4144EB1C444FEA124722EACD
:10358000074C05FB07F206FB07F70CFB06F616EBEC
:10359000074642EB174205FB0CFC16EB0C4642EBD0
:1035A0001C456A1854F1000148BF7047B6195241D2
:1035B00041EB0101A3F10103704795F0000F37D0F3
:1035C0004FEA114221EA02464FEA144724EA074C27
:1035D00002FB07F106FB07F70CFB06F414EB0744AC
:1035E00041EB174102FB0CFC14EB0C4441EB1C417A
:1035F0004FEA154725EA074C02FB07F506FB07F7DC
:103600000CFB06F616EB074645EB174502FB0CFCD8
:1036100016EB0C4645EB1C42121951F1000148BF54
:103620007047B619524141EB0101A3F10103704704
:103630004FEA144524EA05464FEA114721EA074CB0
:1036400005FB07F106FB07F70CFB06F212EB07423E
:1036500041EB174105FB0CFC12EB0C4251EB1C41FA
:103660004FF0000648BF7047921841EB0101A3F1EB
:1036700001037047490050EAC12018BF04204A0DD9
:1036800018BF40F0010040F2FF72B2EB515F08BF7B
:1036900040F00200012808BF052070472DE9F041E5
:1036A0004F1E00EBC7010446D1E9000115461E4636
:1036B00037F006020DD02A46334600F08BFD7F1E00
:1036C00004EBC703D3E9002300F0F6FA37F0060253
:1036D000F1D1022F25D0042F13D0062F18BFBDE83B
:1036E000F0812A46334600F075FDD4E90A2300F044
:1036F000E3FA2A46334600F06DFDD4E9082300F0D2
:10370000DBFA2A46334600F065FDD4E9062300F0D3
:10371000D3FA2A46334600F05DFDD4E9042300F0D5
:10372000CBFA2A46334600F055FDD4E9022300F0D7
:10373000C3FA2A46334600F04DFDD4E90023BDE824
:10374000F04100F0B9BA012201F03ABB0022134661
:103750001046114600F06CBB40F2013200204FF0E1
:10376000E04101F02DBB0000024A0020110701F0EA
:1037700027BB000001FDFFFF10B50446D1E90001A1
:1037800000F002F8206010BDF8B504460D466A4608
:1037900000F0A8F900987E30009000281EDC00227E
:1037A00013462046294600F09DFC17D0002140F624
:1037B00008004FF0000006462046294600F04AFA6D
:1037C000044640F6080006EA00014FF0000034F01D
:1037D000004004BF0220FCF7D6FD29E00098FF2836
:1037E00028DB002108464FF0000000F440060022CC
:1037F00013462046294600F0EBFD8CBF002501252D
:103800000220FCF7C0FD4FF0FF4446B1002D0CBF75
:103810004FF400004FF48000B04218BF084C042160
:1038200008464FF00000002D04BF84F00040F8BDB2
:103830002046F8BD20462946BDE8F84000F00ABA07
:10384000FFFF7F7F10B504460A46D4E900031946FE
:1038500000F074F9C4E9000110BD30380A2801D223
:1038600001207047002070472DE9F04D0546DFF834
:10387000388221F000408D4F82B00C46404520DB5D
:10388000A0EB080129430BD08949884201DC10D103
:103890007DB102B028462146BDE8F04DFFF753BF89
:1038A000002CC7BF002001468248394602B0BDE85F
:1038B000F08D0120FCF767FD02B0BDE8F04DFFF789
:1038C00045BF7D49884244DA7C498142A1BF79489D
:1038D0007B4902B0BDE8F08D2A46234610461946C2
:1038E00000F078FC8346024676480E460B460621D9
:1038F0007844FFF7D3FE5A46334600F06BFC074688
:1039000071488A465A46334604217844FFF7C6FE7A
:103910005A46334600F05EFC0022434600F0CCF9E4
:1039200002460B463846514600F082FA2A462346A4
:1039300000F050FC654A664B00F080FD2A462346A5
:1039400000F07CFD02B05B4ABDE8F04D5C4B00F03E
:1039500075BD002C4FF000024BDA46464346284620
:10396000214600F0A9F94FF0FF3201F029FA044690
:10397000024658480D460B4606217844FFF78EFE56
:1039800022462B4600F026FC804653488A462246B3
:103990002B4604217844FFF781FE22462B4600F097
:1039A00019FC0022334600F087F906468B46204674
:1039B000294600F0FDF804460D4632465B46404677
:1039C000514600F035FA22462B4600F003FC3F4AF0
:1039D0003F4B00F025FE22462B4600F06DF90122F8
:1039E00001F0EEF902B03B46BDE8F04D314A00F07F
:1039F00025BD2D4B2846214600F020FD4FF0FF321B
:103A000001F0DEF905460E4600F0D2F800270C461C
:103A100080463A460B4600F04FF982468B463A46BE
:103A200023461046194600F0D5FB2A46334600F0DF
:103A300005FD52465B4600F0FBF9824627488B465F
:103A40002A46334606217844FFF728FE2A463346A5
:103A500000F0C0FBCDE9000121482A46334604218D
:103A60007844FFF71BFE2A46334600F0B3FB0022E2
:103A70000D4B00F021F902460B46DDE9000100F094
:103A8000D7F94246234600F0A5FB52465B4600F0BC
:103A900013F93A46234600F00FF902B00122BDE8BF
:103AA000F04D01F08DB900000000F03FFB2109400E
:103AB0000000F07F182D44540000E03F0000603CFF
:103AC000FB21F93F641500007A150000075C1433F0
:103AD00026A6913CDA140000F01400000E14000039
:103AE0002414000010B5144600222260114A21F06F
:103AF00000439342A8BF10BD53EA000208BF10BDA7
:103B0000B3F5801FA8BF226807DA362201F058F902
:103B10006FF0350221F000432260DFF81CC06FF324
:103B20001E510CEB23531A4441F0FF5141F0005158
:103B3000226010BD0000F07F02FCFFFF2DE9F04184
:103B400006460C4640F2FF75174635EA14502BD056
:103B500000221346304600F0C5FA25D03A463046DA
:103B6000214601F02DF906460C4635EA145010D0D6
:103B700000221346304600F0B5FA15D10220FCF7BA
:103B800002FCFFF7F1FD0A46214662F31E01BDE883
:103B9000F0810220FCF7F7FBFFF7DEFD0A46214625
:103BA00062F31E01BDE8F08130462146BDE8F08198
:103BB0002DE9F04106460F4600F04CFC041E0D4670
:103BC00018BF0120284320F00040C0F17F6000F1C1
:103BD000E040C00F0ED0301C18BF0120384320F049
:103BE0000040C0F17F6000F1E040C00F04BF012041
:103BF000FCF7C9FB20462946BDE8F08110B5002935
:103C00000AD00878002807D005487844FEF714FE4B
:103C1000002801D0002010BD0248784410BD0000EB
:103C2000BE150000B615000010B500290AD00878AE
:103C3000002807D005487844FEF7FEFD002801D093
:103C4000002010BD0248784410BD0000AE150000F1
:103C5000A615000021F0004201F00043A2F16052DD
:103C6000B2F5801F28BFD2F17F6C0BD95FEA001C30
:103C700043EAC20242EB507018BF704728BF20F0E1
:103C800001007047B2F5801FBCBF184670474FEA6D
:103C9000410C1CF5001F02D2084600F0DEBF70B5D3
:103CA00000F042FB00000089FFF7F6BF4FF0004034
:103CB000A0F580007047000010B591EA030F48BFDF
:103CC00083F0004300F1B484841A71EB030C05D235
:103CD000121943EB0C03001B61EB0C014FEA11546A
:103CE000A4EB135CDFF81CE11EEA430F18BF9EEA49
:103CF000445F00F0748021EA045123EA0E0343F488
:103D00008013DCF1200E32D322FA0CFE10EB0E00F1
:103D100023FA0CFE41EB0E01CCF1200E03FA0EFE4D
:103D200010EB0E00CCF1200E51F10001B1F5801F17
:103D300032D201EB045112FA0EF2BDE8104058BF26
:103D40007047401C38BF5FEA420218BF7047002826
:103D500014BF20F0010041F100014FEA410313F5C7
:103D6000001F38BF7047A1F1C04100F02BBB012AF2
:103D700043EB0302ACF1200CDCF11F0E32BF4FF01D
:103D8000000E23FA0CF310EB030041EB0451B4EBEB
:103D9000115FD0D0A1EB045101F58011490801EB6E
:103DA00004515FEA30000ED350F1000038BF12FA20
:103DB0000EFE08D1BDE81040C9E7401C38BF5FEADD
:103DC0004202CAD1C3E7BDE810404FEA410313F5F0
:103DD000001F38BF7047A1F1C04100F0F3BA9EEA5E
:103DE000445F08D011EA5E0FBDE8104004BF01F047
:103DF000004100207047BDE8104070B500F094FA13
:103E000064FBBE3E0000E0FF02494FF0000000F0FE
:103E1000A5BF00BF0000F87F491058BFC1F1404165
:103E20005B1058BFC3F140438B42EFF300807047F3
:103E30002DE9C04130B4DFF8A4C23CEA111418BF28
:103E40003CEA131400F0ED801CEA111481EA03052A
:103E500044EAD57418BF1CEA131500F0C880A4EB1F
:103E6000050404F17F7404F500344FF0004545EA81
:103E7000C12145EAC32341EA505143EA52534FEA74
:103E8000C0204FEAC222994208BF904200F09D80B4
:103E90004FEA13650FF24416765D4FEA134506FBB1
:103EA00005F7C7F1807706FB07F74FEAD737A7FB7F
:103EB00003687642A7FB06CEC8F5803838BFA8F164
:103EC000010807FB08E6A6FB028C4FF0000EE6FB9C
:103ED00003CEDCF1000CCEF1004E38BFAEF1010E86
:103EE000A6FB0C584FF00007E6FB0E87A1FB08C6A7
:103EF000A0FB07CE16EB0E064FF0000545F10005BE
:103F0000E1FB076515F1E04E7EBFA4F580345FEA62
:103F100046066D4116F1800745F100054FEA172767
:103F200047EA05674FEA15254FEA0666A6F1DE4621
:103F3000B6F1805F20D9384605EBC47124F0010C3E
:103F400001EB0C11BCF1FE6F02D8F0BCBDE80081A2
:103F500024425CBF01F5801E9EEAC47F02D4F0BCFF
:103F6000BDE80081244200F13980A1F1C041F0BCDC
:103F7000BDE8004100F026BA4FEAD02040EA4150A7
:103F80004FEAD1214FEAD22242EA43524FEAD323E9
:103F9000A7FB028607FB036605FB02661EEA0E0FFF
:103FA00058BFA6EB0056B6EB00564FEA520E4EEA4B
:103FB000C37E18EB0E0E56EB530EBCD518EB020861
:103FC0005E417F1C55F10005B5E74FF480154FF0B9
:103FD00000074FF000064FF00008ACE701F1C041C8
:103FE00001F000414FF00000F0BCBDE800810CEA98
:103FF000131511EA0C1F00D00CE013EA0C1F00F09F
:1040000026804FF0000081EA030101F00041F0BC7E
:10401000BDE80081F0BCBDE8004181EA030100F089
:10402000D1B9F0BCBDE8004170B500F07DF900BF2A
:10403000097EFC3E00F007B84FF0000081EA030162
:1040400001F00041704781EA030100F0BBB9F0BC08
:10405000BDE8004122494FF000007047FFFDFBF929
:10406000F7F5F4F2F0EEEDEBE9E8E6E4E3E1E0DEAB
:10407000DDDBDAD8D7D5D4D3D1D0CFCDCCCBCAC81D
:10408000C7C6C5C4C2C1C0BFBEBDBCBBBAB9B8B744
:10409000B6B5B4B3B2B1B0AFAEADACABAAA9A8A837
:1040A000A7A6A5A4A3A3A2A1A09F9F9E9D9C9C9B05
:1040B0009A999998979796959594939392919190B0
:1040C0008F8F8E8E8D8C8C8B8B8A89898888878741
:1040D0008685858484838382828181800000FF07B6
:1040E0000000F87F51EA030C17D41CF5801F58BF5D
:1040F000BCF5801F00F10680994218BF704708BFC9
:104100009042704707D711F5801F58BF13F5801FE5
:1041100019D499427047894270471CF5801F08D511
:10412000BCF5801FF7D58B4218BF704708BF82428D
:1041300070474FF4001C1CEB410F38BF1CEB430FC2
:1041400001D28B42704770B500F0EEF8922449001E
:104150004FF000514FF08053FFF75EBE51EA030C61
:1041600017D41CF5801F58BFBCF5801F00F10680D6
:10417000994218BF704708BF9042704707D711F5A2
:10418000801F58BF13F5801F19D499427047894288
:1041900070471CF5801F08D5BCF5801FF7D58B42F2
:1041A00018BF704708BF824270474FF4001C1CEBD9
:1041B000410F38BF1CEB430F01D28B42704770B5E3
:1041C00000F0B2F8922449004FF000514FF08053B4
:1041D000FFF722BE70B5DFF848C11CEA111E1EBFF2
:1041E0001CEA13159EEA0C0F95EA0C0F00F06F8085
:1041F00081EA03044EEAD47EAE4421EA4C1123EA5C
:104200004C1341F4801143F48013AEF17F7EA1FB87
:10421000024CA0FB0365361955EB0C05A1FB034CC2
:104220004CF10003A0FB021C16EB0C06654153F198
:104230000003094218BF46F0010613F4007F0BD1BA
:104240004FEA03314FEA053041EA155140EA165072
:1042500034036FF003020AE04FEAC3214FEAC5209E
:1042600041EA555140EA5650F4026FF0020202EB67
:104270002E4201EB025585EACE710AD05FEA440C6A
:1042800018BF24F0004450F1000041F1000120EA81
:10429000D47040F2FE7C624500D270BDA84214BFCB
:1042A0004FF080444FF04044002E08BF0024BEF180
:1042B000806FA8BFA1F1C041BDE8704080F282804C
:1042C00001F1C04101F000414FF0000070470CEADD
:1042D00013159EEA0C0F18BF95EA0C0F06D081EA61
:1042E000030E4FF000000EF0004170BD00F01CF80E
:1042F0008900013E00F007B800F009B84FEA430C0E
:104300005FEA5C5C08D081EA030100F05BB84FEA29
:10431000410C5FEA5C5CF6D102494FF00000704747
:104320000000FF070000F87F0EF1020E2EF0030ED2
:104330005EF8046B364205D4012A43EB030515F5FC
:10434000001F12D8012841EB010C1CF5001F0CD8EE
:104350000ED14FEAD17C0CEB4C0C0CF1020C15F594
:10436000001F08BF4CEBD37C04E04FF0080C01E0C9
:104370004FEAD37C0CEB4C0526FA05F606F007064F
:10438000B6F1040C06D20EEB860CBDE870404CF082
:10439000010C6047DFE80CF0090B02024FF000410E
:1043A000A1F500214FF0000070BD1946104601280C
:1043B00051EB010418BFD4F5001484BF002001F0B4
:1043C000004170BD0808A0F500114FEA31017047A7
:1043D00053EA010C17D41CF5801F58BFBCF5801F91
:1043E00000F106808B4218BF704708BF82427047B9
:1043F00007D713F5801F58BF11F5801F19D48B42C2
:1044000070479B4270471CF5801F08D5BCF5801F84
:10441000F7D5994218BF704708BF904270474FF4D4
:10442000001C1CEB430F38BF1CEB410F01D299421B
:1044300070470FB40CBC03BCFFF7C1BE10B591EAC6
:10444000030F81F000413FF53FAC83F0004300F0E3
:10445000EFB800002DE9F04101F5801CBCF5001F0C
:10446000C0F2C3804FEA115C21EA0C5141F4801183
:104470000CF1FD0C5FEA5C0C0CF5C07C01D3400034
:104480004941890241EA905187023BA48E0EA45D06
:104490000A0C04FB04F602FB06F6C6F14046A4FB38
:1044A0000662F60D46EA422606FB06F4A4FB01234B
:1044B0005242C3F1404338BF5B1EA6FB02420024B8
:1044C000E6FB0324D20B42EA4446A6FB0623A1FBEB
:1044D00002E2A3FB07E4A4184FF0000252F100022D
:1044E000E3FB01426442C2F1404E38BFAEF1010E1F
:1044F000A6FB04234FF00002E6FB0E32A2FB0346AC
:10450000B6194FF0000454F10004E2FB0264A1FB71
:1045100006E6A4FB07E816EB08064FF0000858F182
:104520000008E4FB01687642C8F1405838BFA8F1A2
:104530000108A2FB06E4A3FB08E52D194FF00004D7
:1045400054F10004E2FB0854A1FB05E6A7FB04E8D4
:1045500018EB06084FF0000656F10006E1FB048652
:1045600018F1200556F10006A80940EA8660B10955
:10457000A8F11B0808F03F08B8F10A0F1CD901EB9D
:104580000C51BDE8F08100BFFCF5EEE8E2DDD8D3C8
:10459000CFCBC7C3C0BDB9B6B4B1AEACA9A7A5A3B4
:1045A000A19F9D9B9A9896959392908F8D8C8B89C5
:1045B0008887868584838281A0FB006800FB01F2E6
:1045C00008EB4208B8EB872807D5341858EB0104EC
:1045D000D5D5401C51F10001D1E7341A78EB010424
:1045E000CDD4401E71F10001C9E75FEA4C0C5FEACF
:1045F0009C5C0DD105D301F000414FF00000BDE8F7
:10460000F081BDE8F04170B5FFF78EFE6DDBFFBEB7
:10461000BDE8F04101494FF0000070470000F87F0D
:1046200010B591EA030F48BF83F000433FF54CAB50
:10463000841A71EB030C07D28CF0004C121943EB77
:104640000C03001B61EB0C014FEA1154A4EB135C4B
:10465000DFF8A4E11EEA430F18BF9EEA445F00F0B2
:10466000B48021EA045123EA6E035242C3EB6E0385
:1046700038BF5B1EDCF1200E25D322FA0CFE10EBB6
:104680000E0043FA0CFE41EB0E01CCF1200E03FAB2
:104690000EFE10EB0E00CCF1200E51F1000129D4DA
:1046A00001EB045112FA0EF2BDE8104058BF7047FA
:1046B000401C1CBFB2F1004F704700280CBF491CC2
:1046C00020F00100704712EB020E43EB030218BF0B
:1046D0004FF0010E4EEA4202ACF1200CDCF11E0E4E
:1046E00056D943FA0CFE10EB0E00CCF11E0E51F120
:1046F000FF31D5D50EF1010E12FA0EFE404141EB0D
:10470000010101EB445C5FEA5C5C10D901EB0451F0
:1047100010EBDE7038BFBEF1004FBDE8104018BF8F
:10472000704700280CBF491C20F00100704734D2AC
:104730004FEAD42C24F4006411F500111BD0B1FA17
:1047400081F20B3AA41AA41ED2F12003914030FA50
:1047500003F31943904001EBCC7101EB0451002CA1
:10476000BDE81040A8BF704701F1C04101F0004111
:104770004FF000007047B0FA80F310FA03F102D155
:10478000BDE810407047E41A173C4805C90AE2E743
:1047900001EB0451BDE81040704749104FEA30006A
:1047A00001EB0451BDE8104002E04FF000017047FA
:1047B0004A0008BF0042F8D0B2F5001F28BF70477A
:1047C00001F000414FF0000070479EEA445F07D0BF
:1047D00011EA5E0FBDE8104004BF002100207047C1
:1047E000BDE8104070B5FFF79FFD00BF40DFF63E0B
:1047F000104683F0004170470000E0FF43004FEA9D
:10480000D30C4FEA3C0C43401FBF40070CF16051F2
:1048100013F0FE4F70471CF0006F03D10CF0004105
:10482000002070470CF0004343EA507040EACC008F
:1048300010B500F0CCF900BF000000924FEA000173
:10484000FFF7C0BD4FF00041A1F500214FF000007F
:104850007047000090EA010F48BF81F0004100F16D
:104860000882421A3CBF801A89184FEAD052A2EB44
:10487000D1534FF07F4C1CEA410F18BF9CEA026FE6
:1048800000F03B804FF0004C4CEA00204CEA012144
:1048900021FA03FC10EB0C0C1ED202F1FF325FEA8E
:1048A0001C2040EBC25038BF70471CF07F0F4FEA0E
:1048B000400C18BFBCF17F4F38BF7047C3F12003D5
:1048C000994008BF20F00100BCF17F4F38BF70470E
:1048D000A0F1C04000F0C1B94FEA3C00000A40EB33
:1048E000C25028BF1CF0FF0F4FEA400CE6D018BFA3
:1048F000BCF17F4F38BF7047EAE79CEA026F05D0F2
:1049000010EA5C0F08BF00F00040704710B500F0DF
:104910005EF900BF64FBBE3E4FF47F0C1CEAD01270
:104920001EBF1CEAD11392EA0C0F93EA0C0F00F0A1
:10493000858090EA010F48BF42F4807240F4000C79
:1049400041F400002CF07F4120F07F4000B5A2EB45
:10495000030281420FF2081CACEB504E9EF800E0BF
:10496000C0F100004FEA4E0E00FB0EFC38BF4900BC
:104970004FEA2C1C0CFB0EF34FEACE1E0EEB635ECF
:104980004FEA112C0EFB0CFC4FEAC1214FEA1C53DD
:1049900000FB031102F5FA024FEA112C0EFB0CFC8E
:1049A0004FEA01314FEADC4C00FB0C1142EB224292
:1049B000C14228BF09184CEB03335DF804EB10EB40
:1049C000410143EBC250B2F57C0F38BF704729D587
:1049D00012F0F00F1CBF00F1C04000F00040704723
:1049E000008182838485868788898B8C8D8E8F91C8
:1049F0009293959697999A9C9D9FA0A2A3A5A7A8EC
:104A0000AAACAEB0B2B3B5B7B9BCBEC0C2C5C7C917
:104A1000CCCED1D4D7D9DCDFE2E6E9ECF0F3F7FA7B
:104A2000FE0000004FEA400C0CF1807CBCF17E4F90
:104A300028BF7047B0F1C04000F00FB90CEAD113A5
:104A400090EA010F48BF42F48072624538BF634567
:104A500007D213F47F0F16D080EA010000F0004067
:104A6000704710B500F0B3F8097EFC3E00F005B8C1
:104A700080EA010000F00040704780EA010000F089
:104A8000004000F0EAB812F47F0F04BF02487047FC
:104A900080EA010000F0E1B80000C07F10F00041A2
:104AA00048BF4042B0FA80F310FA03F2C3F19D030D
:104AB0000BD051EAC35101EB1220530638BF7047A7
:104AC00000F1010008BF20F0010070474FF47F0C97
:104AD0001CEAD0121EBF1CEAD11392EA0C0F93EA13
:104AE0000C0F00F0478090EA010F48BF42F480723B
:104AF0004FF0004C4CEA00204CEA012102EB03028B
:104B0000A0FB0113A2F50002002918BF43F0010326
:104B10005B0028BF4FEA330342EB22425FEA132CCB
:104B20004CEBC2502EBFBCEB436FB2F57C0F70470D
:104B30004FEA036CBCF1004F08BF20F00100B2F552
:104B40007C0F38BF70470BD582F0FF0212F5803F13
:104B5000C8BF704700F1C040D8BF00F000407047A8
:104B600000F5000C5FEA4C0C48BF7047B0F1C04044
:104B700000F073B80CEAD11390EA010F48BF42F479
:104B80008072624538BF634504D280EA010000F0BC
:104B90000040704710B500F01AF800BF8900013ED0
:104BA00000F007B800F009B85FEA410C5FEA1C6C3E
:104BB00008D080EA010000F050B85FEA400C5FEADC
:104BC0001C6CF6D14FF00040A0F5800070470EF14C
:104BD000020E2EF0030E5EF8044B244204D44FEA7A
:104BE0004102B2F17F4F11D84FEA4003B3F17F4F3A
:104BF0000CD80ED14FEAD07C0CEB4C0C0CF1020C13
:104C0000B2F17F4F08BF4CEBD17C04E04FF0080CB1
:104C100001E04FEAD17C0CEB4C0324FA03F404F0DE
:104C20000704B4F1040C06D20EEB840CBDE810406E
:104C30004CF0010C6047DFE80CF0070802024FF06F
:104C40000040A0F5800010BD0846420018BFD2F118
:104C5000807288BF00F0004010BDFF2141EAD050B3
:104C6000C005704790EA010F48BF81F000413FF551
:104C7000F8AD421A04D882F00042A0EB02001144C1
:104C80004FEAD052A2EBD1534FF07F4C1CEA410FB8
:104C900018BF9CEA026F4AD04FF0004C4CEA00204B
:104CA0004CEA012121FA03FCB0EB0C0C0FD412F0FA
:104CB000FE0F36D05FEA4C001DD5001240EBC2500B
:104CC00038BF70471CF03F0F18BF70470BE05FEA1A
:104CD0001C20A2F1010240EBC25038BF70471CF00B
:104CE0007F0F18BF7047C3F12003994014BF401EC7
:104CF00020F0010070474FEA1223800808BF704778
:104D0000B0FA80FCA2EB0C02CCF1280C60FA0CF09B
:104D100093EA122F04BF00EBC25070474FEAC370F2
:104D20007047130A5FEADC1008BF7047F6E79CEA99
:104D3000026F04D010EA5C0F08BF0020704710B566
:104D4000FFF745FF40DFF63E81F0004070474FF02F
:104D500000007047FCF7C3BAFCF7F8BB0CF00F0378
:104D6000092B08BF082000F05F800A2B0BD0082B0E
:104D700018BF704708BF1CF0400F0AD04FF000006A
:104D80004FF0000170471CF0400F18BF4FF000407B
:104D900070471CF0100F08D000F07F4220F07043E5
:104DA00042EAD3014FEA4370704700F0604021F0BF
:104DB0007F4242EA000201F07F4040EA7270704791
:104DC0004FF0FF0C4CF4E06C1CEA11531CBF9CEA42
:104DD000030C9445C2BFDA4201EB02517047002B2D
:104DE0000DD0BCF1000F0FD001F00041002AA4BF8C
:104DF00041F0E04141F07F614FF00000704701F069
:104E000000414FF00000704750EA01334FF09B0C17
:104E100018BF4CF0806C7EF4F7AF7047FDF72EB8EA
:104E2000FDF7E0BAFDF76EBC1CF4801F11D01CF436
:104E3000E02F03D06FEACC31490070474FF040506B
:104E4000EFF3008222F0704242EA000282F300880F
:104E500070474FF000007047555555555555C53FA3
:104E60007D6FEB0312D6D4BF5544880E55C1C93FA0
:104E70003B8F68B52882A4BF88B20175E0EF493F37
:104E800009F7FD0DE13D023F4B2D8A1C273A03C077
:104E9000C88A599CE52A004059018D1B6C06E6BF63
:104EA00082922EB1C5B8B33F0000000000000000A0
:104EB0003031323334353637383941424344454650
:104EC000403058003031323334353637383961624A
:104ED000636465664030780004000008000000004C
:104EE000000000020001000010303132333435364A
:104EF0003738396162636465667870003031323307
:104F0000343536373839414243444546585000001D
:104F100002400000000000A000000000054000006A
:104F2000000000C8000000000C4000000000409C91
:104F300000000000194000000020BCBE000000007E
:104F400034400000BFC91B8E00000004B5400000C3
:104F5000504BCFD06607E2CF010000006C4100004B
:104F60003E8251AADFEEA73401000000D9420000C2
:104F7000DCB5A0E23A301F97FFFFFFFFB445000009
:104F8000FD25A0C8E9A3C14FFFFFFFFFFF3F0000C1
:104F90000000008000000000FF3F000000000080D3
:104FA0000000000053797374656D496E6974206563
:104FB0006E64210D0A00706C6561736520696E7006
:104FC000757420666C6F6174202B2D2A2F3D0D0A9D
:104FD00000706C6561736520696E70757420696E10
:104FE00074202B2D2A2F3D0D0A00706C65617365AE
:104FF00020696E7075742065782E3A32312B333506
:105000003D0D0A0025642F25643D256420252520BB
:1050100025640D0A0025642A25643D25640D0A00D7
:1050200025642B25643D25640D0A0025642D256427
:105030003D25640D0A00736C65657020656E640D16
:105040000A007465737420666C6F61743A25660D8E
:105050000A0025662A25663D25660D0A0025662B71
:1050600025663D25660D0A0025662D25663D2566CB
:105070000D0A0025662F25663D25660D0A0074651C
:10508000737420646F75626C65323A252E31306618
:105090000D0A007465737420646F75626C65313A33
:1050A000252E3134660D0A00736F66745F76657263
:1050B0003A2575206370755F7665723A25752066AE
:1050C0006C6173685F7665723A25780D0A00257801
:1050D0002625783D25780D0A0025785E25783D2522
:1050E000780D0A0025787C25783D25780D0A007317
:1050F0006C656570202575206D7320737461727402
:10510000203E3E20007363616E206F766572210041
:10511000250074657374333A006E6F745F73757035
:10512000706F72743A3C25753E203C25643E3C25E8
:10513000633E3C25643E3D002564256325643D00B7
:10514000723A2566206E6F7420737570706F72747A
:105150003A2566256325663D003C256572726F72AF
:10516000253E003C613A25663E3C623A25663E009B
:105170003C612A623D25663E003C612B623D25660E
:105180003E003C612D623D25663E003C612F623D44
:1051900025663E0025730000F8520008000000203C
:1051A000000400005001000808530008000400201B
:1051B000F008000090010008000000000000F07FEF
:1051C000FFFFFFFFFFFFEF7F1C0000004300000018
:1051D000F8FFFFFF0C0000000E0000000F000000B1
:1051E0002E0000001001000043000000F8FFFFFF48
:1051F00000404040404040404040414141414140EA
:10520000404040404040404040404040404040409E
:10521000400502020202020202020202020202022D
:105220000220202020202020202020020202020232
:10523000020290909090909010101010101010108A
:105240001010101010101010101010100202020296
:1052500002028888888888880808080808080808DA
:1052600008080808080808080808080802020202D6
:1052700040000000000000000000000000000000EE
:10528000000000000000000000000000000000001E
:10529000000000000000000000000000000000000E
:1052A00000000000000000000000000000000000FE
:1052B00000000000000000000000000000000000EE
:1052C00000000000000000000000000000000000DE
:1052D00000000000000000000000000000000000CE
:1052E00000000000000000000000000000000000BE
:1052F000000000000000000007FF31352A32313D78
:0853000001FF01FF01FF310074
:04000005080000ED02
:00000001FF
