:020000040800F2
:10000000300D002081020008BD020008BF02000878
:10001000C1020008C3020008C50200080000000079
:10002000000000000000000000000000C7020008FF
:10003000C902000800000000CB020008CD02000841
:10004000CF020008CF020008CF020008CF0200084C
:10005000CF020008CF020008CF020008CF0200083C
:10006000CF020008CF020008CF020008CF0200082C
:10007000CF020008CF020008CF020008CF0200081C
:10008000CF020008CF020008CF020008CF0200080C
:10009000CF020008CF020008CF020008CF020008FC
:1000A000CF020008CF020008CF020008CF020008EC
:1000B000CF020008CF020008CF020008CF020008DC
:1000C000CF020008CF020008CF020008CF020008CC
:1000D000CF020008CF020008CF020008CF020008BC
:1000E000CF020008CF020008CF02000800F002F89B
:1000F00000F0B6F814A696E8000CB244B344DA4512
:1001000001D100F0ADF8BAE80F000FA696E8300074
:10011000A5EB040504EB0607AAEB0704A7F101070A
:100120004FEA15154FEA3414A4F10104AC4201D38F
:1001300000F096F813F0010F18BFFB1A43F001030B
:1001400000F001F8DBE71847DC5E0000FC5E000011
:100150000A4410F8014B14F00F0508BF10F8015BBA
:10016000240908BF10F8014B6D1E05D010F8013BA3
:100170006D1E01F8013BF9D1641E03D0641E01F825
:10018000015BFBD19142E4D370470000704700004F
:100190000023002400250026103A28BF78C1FBD890
:1001A000520728BF30C148BF0B6070476E2900F06E
:1001B000CF81702900F02383662905F03D846529ED
:1001C00005F03A84672905F03784612905F0368403
:1001D00003681B0A28BF41F08001692900F07C8177
:1001E000642900F07981752900F076816F2900F08B
:1001F000B182782900F0EF82E92900F04B82E429EE
:1002000000F04882F52900F04582EF2900F0AE8227
:10021000F82900F0EE820368DB0928BF41F0800175
:10022000632901F07183732901F07683E32901F0DA
:100230008183F32901F08683002070471FB502F007
:1002400059F804000020002104F090F9401C60607F
:100250000020002104F074F9E0601FBD10B510BD4E
:1002600002F01AF81146FFF7E9FF02F0ADFC02F0C8
:100270000BF903B4FFF7F2FF03BC02F0C5FB00006B
:100280004FF000004FF000014FF000024FF000036C
:100290004FF000044FF000054FF000064FF000074C
:1002A0004FF000084FF000094FF0000A4FF0000B2C
:1002B0004FF0000C0948804709480047FEE7FEE779
:1002C000FEE7FEE7FEE7FEE7FEE7FEE7FEE7FEE706
:1002D00004480549034A054B70470000DD29000822
:1002E000ED00000830050020300D00203005002012
:1002F000704700000FB4044910B503AA029800F03B
:1003000059F910BC5DF814FB780400200FB41CB53B
:10031000084B06AA7B4469460090059800F031F925
:1003200004460020694600F03FF920461CBC5DF8F9
:1003300014FB0000910200000FB400B58DB010A9AD
:10034000099000910B904FF0FF300A9000200C9024
:10035000064878440690064878446A4607900F9904
:1003600009A800F0E3FC0DB05DF814FBF7090000EC
:100370000F0A00000EB5054614460E4613A000F005
:1003800076FE284600F073FE16A000F070FE3046A0
:1003900000F06DFE15A000F06AFE00218DF80B1034
:1003A0000A210DF10A008DF80A1008E094FBF1F221
:1003B00001FB124294FBF1F4303200F8012D002CC5
:1003C000F4DC00F054FE00F047FE00002A2A2A2048
:1003D000617373657274696F6E206661696C6564C0
:1003E0003A2000002C2066696C6520002C206C6986
:1003F0006E652000704770477047704710B500F079
:1004000041FE006810BD10B5044600F03BFE0460DC
:1004100010BD70B5044685690068C10601D5302657
:1004200000E02026C00707D070BDD4E90121304686
:100430009047206A401C20626D1EF6D570BD70B5D5
:10044000044685690078C00707D170BDD4E9012151
:1004500020209047206A401C20626D1EF6D570BD9A
:1004600009684A0501D540B27047C905FCD500B2FC
:10047000704709684A0501D5C0B27047C905FCD567
:1004800080B2704770B50C460546012A05D0287821
:10049000800600D5EA69002302E0012305E05B1C29
:1004A000934202D2E05C0028F9D1A869E618C01A8C
:1004B000A861286A184428622846FFF7AAFF04E0CA
:1004C000D5E9012114F8010B9047B442F8D328462E
:1004D000FFF7B5FF70BD00002DE9F041064600248E
:1004E00010687529314616A510D0FFF7B9FF00280E
:1004F00002DA404213A507E031688A0701D512A548
:1005000002E0490704D511A5012401E0FFF7B1FF7E
:1005100000210A2206F1240709E0B0FBF2FCB0FB3F
:10052000F2F302FB1C00303078541846491C0028B6
:10053000F3D123462A463046BDE8F04100F0F4BD31
:10054000000000002D0000002B0000002000000033
:1005500011680268006A530501D508700AE0D305E6
:1005600001D5088006E0130603D5C217C1E90002D1
:1005700000E008600120704701694A1C02610878A8
:10058000704700B58FB0CDE90131002105910549D3
:100590007944CDE903101146684600F03BF90FB0ED
:1005A00000BD0000E5FFFFFF0A6802F8010B0A60CA
:1005B00070470000074B70B50D467B44FFF7E1FF25
:1005C0000446284601F015FE10B14FF0FF3070BD13
:1005D000204670BDA72500002DE9FF5F15468A461D
:1005E0000446DFF8AC80F8440027D8E900103E4606
:1005F000CDE9001010E03AF816106A4602A801F0A2
:100600001CFE411C07D02178890603D5E269391800
:1006100091420DD80744761C2078800602D5E06907
:10062000B84205DDAE42E6DB3AF816000028E2D11A
:10063000A069C01BA0612046FFF7EBFED8E90010BF
:10064000CDE90010002017E03AF818106A4602A819
:1006500001F0F3FDB0F1FF3F81460BD000250DF115
:10066000080B05E0D4E901211BF8050090476D1C3B
:100670004D45F7D308F10100B0428046E4DB206A23
:10068000384420622046FFF7DAFEBDE8FF9F0000F5
:100690003E5600002DE9F0418046D21D22F00702AF
:1006A0000025D2E90002F52915A614D0011E72F129
:1006B000000106DA0023D0EB030063EB020211A66F
:1006C00008E0D8F800108B0701D50FA602E0490713
:1006D00001D50EA601251146002408F1240704E0E7
:1006E00000F0D4FC30323A55641C50EA0102F7D1D4
:1006F0002B46324621464046BDE8F04100F014BD8D
:10070000000000002D0000002B0000002000000071
:1007100030B4002100F1240408E002F00705D208FB
:10072000303542EA4372DB086554491C52EA03053E
:10073000F3D10468002310A2250708D504F0200493
:100740000C4304D0C46901230CA2641EC46130BCF4
:1007500000F0EABC10B5044621461068FFF789FE98
:1007600002462046BDE810400023D1E7D21D22F00A
:100770000701D1E90023CBE70000000030000000B2
:10078000F0B40D460188090502D5214C7C4402E0F5
:100790001F4C7C440E34002100F1240608E002F0D6
:1007A0000F071209E75D42EA03721B097754491CDF
:1007B00052EA0307F3D102780023120704D5702D03
:1007C00006D009B1022311342246F0BC00F0ACBCC3
:1007D00001231034F8E770B504460D462146106831
:1007E000FFF747FE024629462046BDE87040002339
:1007F000C6E7D21D22F00703D3E90023C0E7036850
:10080000126843F0200303600823C3610023B7E7A5
:10081000A05400002DE9F05F894604464FF0000A1D
:10082000DFF874B1FB44C0F820A02046E168884797
:10083000002874D0252806D0D4E901219047206AE9
:10084000401C2062F1E700265F462046E1688847A9
:100850002028054607DB312D05D2781910F8200C29
:1008600008B10643F1E7B00701D526F00406C4F845
:100870001CA00027C4F818A02A2D09D0284603F090
:1008800020FA38B304EB8708303DC8F8185019E057
:1008900059F8041B204604EB87029161E168884700
:1008A000012F054618D1E069002820DA26F020063D
:1008B0001DE0D8F8180000EB800005EB4000303850
:1008C000C8F818002046E1688847054603F0F9F9A2
:1008D0000028EED1012F0AD02E2D08D12046E16844
:1008E00088477F1C0546022F46F02006C4DBA0691E
:1008F000002803DA404246F00106A061F00701D06B
:1009000026F010066C2D0BD0682D09D04C2D39D057
:100910006A2D35D0742D35D07A2D33D016E038E0DD
:10092000E1682F4620468847B842054609D16C2F1A
:1009300026D04FF48060E16806432046884705468C
:1009400004E06C2F1AD04FF4807006430DB3A5F16C
:100950004100192802D8203546F400664A46294647
:10096000204626604E46FFF721FC80B101280BD0BF
:10097000F61D26F0070000F1080956E74020E4E7DD
:100980008020D8E70020D6E706F104094DE7284685
:1009900052E7206ABDE8F09F305400002DE9FF4F78
:1009A0001C4691464FF0FF3581B000218A468846AB
:1009B000D4E90167A16902986D1C8847216A8346C2
:1009C00088470028F6D1BBF1FF3F0CD0002F26F45A
:1009D000C0661ADD700615D5BBF12B0F0AD0BBF12E
:1009E0002D0F0FD104E04FF0FF3005B0BDE8F08FC0
:1009F00046F48066A16902986D1C88477F1E834675
:100A0000002F02DDBBF1300F03D0B9F1000F2AD067
:100A100025E0A1696D1C02987F1E46F40076884788
:100A2000002F834605DDBBF1780F06D0BBF1580FD0
:100A300003D0B9F1000F10D011E0B9F1000F02D0CE
:100A4000B9F1100F0BD1A1696D1C02987F1E26F41D
:100A5000007688478346102000E0082081464FEA50
:100A6000E970009017E00A20F8E74346AAFB09283E
:100A7000DDF800C07F1E03FB098046F4007605F117
:100A800001050AFB0C0112EB0B0A029841EBEB7813
:100A9000A16988478346002F06DD4946584600F085
:100AA00055FF5FEA000BE0D5E16902988847B00581
:100AB00002D46FF0010098E7F00718D1700610D546
:100AC0005146700505D50023D1EB030163EB080205
:100AD00000E042462068031D23600068C0E9001260
:100AE00005E02068011D21600068C0E900A82846D3
:100AF0007BE72DE9FF5F1D464FF0FF3B91464FF02E
:100B000000085F46D5E90146A96901987F1C88471E
:100B1000296A824688470028F6D1BAF1FF3F0CD0F7
:100B2000002E24F4C06419DD600614D5BAF12B0F31
:100B300009D0BAF12D0F0ED103E0584604B0BDE83C
:100B4000F09F44F48064A96901987F1C8847761E51
:100B50008246002E02DDBAF1300F03D0B9F1000F4A
:100B600026D032E0A969761E01987F1C44F40074F7
:100B70008847002E824605DDBAF1780F06D0BAF11B
:100B8000580F03D0B9F1000F10D01EE0B9F1000FDB
:100B900002D0B9F1100F18D1A969761E01987F1CF7
:100BA00024F4007488478246102002E0082000E008
:100BB0000A20814609E0A96908FB0908761E019808
:100BC0007F1C44F4007488478246002E05DD4946A8
:100BD000504600F0BBFE0028EDDAE969019888472D
:100BE000A00502D46FF00100A8E7E00725D1600658
:100BF00013D5600502D5C8F1000000E04046296821
:100C00000A1D2A600968220501D5087015E022072F
:100C100001D5088011E008600FE02868011D2960F7
:100C20000068210502D580F8008006E0210702D582
:100C3000A0F8008001E0C0F8008038467EE72DE98A
:100C4000FF5F4FF000089946144646469169D2E985
:100C500001A7DDF838B001988847054659EA0B002E
:100C600005D009E0A1690198761C88470546216AEC
:100C7000284688470028F5D1681C03D05FEACA706F
:100C800005D015E04FF0FF3004B0BDE8F09F2068BC
:100C9000011D2160D0F800800AE05FEACA7001D12E
:100CA00008F8015BA169761C01987F1E88470546FC
:100CB000002F1ADD681C18D0B9F1000F0DD0E8170D
:100CC00005EBD060421120F01F0059F822102A1ABB
:100CD000012090400142E0D107E0BBF1000FDCD1E0
:100CE0002846216A88470028D7D0E16901988847BB
:100CF000BBF1000F07D1002E05DD5FEACA7002D1FB
:100D0000002188F80010A068B84203DDBBF1000F95
:100D100003D017B16FF00100B6E73046B4E700002A
:100D2000026811441378016018467047D160054984
:100D300079445161044979441162002111611146DD
:100D400000F012BEEDFFFFFFDD030000426842B17C
:100D5000016811F8013B23B1521EC0E90012184688
:100D600070470121C160881E704742685AB1C3684C
:100D7000016843B983688B4205D0491E521CC0E903
:100D80000012002070474FF0FF3070472DE9FF4FF1
:100D90004FF000089A461446C146464683B0D2E951
:100DA00001B7CDF80080CDF8048091690498884798
:100DB000109905465AEA010005D009E0A169049896
:100DC000761C88470546216A284688470028F5D1C1
:100DD000681C03D05FEACB7005D02AE04FF0FF30EB
:100DE00007B0BDE8F08F2068011D2160D0F80080B9
:100DF0001FE002A86A46E9B201F0FFF9411C07D0E2
:100E0000801C09D04FF000095FEACB7007D00AE0E0
:100E1000E169049888473EE04FF0010904E0BDF81D
:100E2000081028F8021B7F1EA1690498761C8847C9
:100E30000546002F1ADD681C18D0BAF1000F0DD03E
:100E4000E81705EBD060421120F01F005AF822107D
:100E50002A1A012090400142CBD107E010980028C7
:100E6000C7D12846216A88470028C2D0E169049882
:100E70008847B9F1000F0ED1109830B9002E04DD6B
:100E80005FEACB7001D1A8F80000A068B84202DD8B
:100E9000109818B117B16FF00100A1E730469FE735
:100EA0002DE9FF4F4FF000089B461446454683B09E
:100EB000D2E90196CDF80080CDF804809169DDF883
:100EC00048A00498884707465BEA0A0005D009E075
:100ED000A16904986D1C88470746216A38468847EF
:100EE0000028F5D1781C03D05FEAC97005D01BE05B
:100EF0004FF0FF3007B0BDE8F08F2068011D216082
:100F0000D0F8008010E05FEAC97007D16A46404619
:100F1000B9B201F092F9411C31D08044A1696D1C35
:100F20000498761E88470746002E14DD781C12D0E0
:100F3000BBF1000007D03B46DDE9101201F04AF991
:100F40000028E0D107E0BAF1000FDCD13846216A71
:100F500088470028D7D0E16904988847BAF1000F84
:100F600006D1002D04DD5FEAC97001D188F80000C8
:100F7000A068B04203DDBAF1000F03D016B16FF0E4
:100F80000100B7E72846B5E72DE9FF5F9B46144609
:100F900000273D469169D2E90196DDF840A001980D
:100FA000884780465BEA0A0005D009E0A1690198FC
:100FB0006D1C88478046216A404688470028F5D145
:100FC000B8F1FF3F03D05FEAC97005D014E04FF0DD
:100FD000FF3004B0BDE8F09F2068011D2160076864
:100FE0000AE05FEAC97001D127F8028BA1696D1C84
:100FF0000198761E88478046002E15DDB8F1FF3F28
:1010000012D0BBF1000007D04346DDE90E1201F01B
:10101000E1F80028E5D107E0BAF1000FE1D1404640
:10102000216A88470028DCD0E16901988847BAF135
:10103000000F05D1002D03DD5FEAC97000D13880B3
:10104000A068B04203DDBAF1000F03D016B16FF013
:101050000100BEE72846BCE710B5002001F011F9F9
:10106000FFF7FCF8BDE81040012001F0CDBC10B541
:10107000044602E0641C01F0CBFC20780028F9D182
:1010800010BD0000004870471804002030B5B0F1D2
:101090000A0271F100034FEA900E4EEA817EB0EB36
:1010A0000E0061EB91014FEA101E4EEA017E10EB3B
:1010B0000E0041EB11114FEA102E4EEA016E10EBBB
:1010C0000E0041EB11214FEA104E4EEA014E10EB9B
:1010D0000E0041EB1141401841F100014FEAD000F0
:1010E00040EA41704FEAD1014FEA810444EA90742A
:1010F00010EB800544EB01046D1944EB0404521B12
:10110000A3414FF0000348BF0A3200D530BD401C58
:1011100041F1000130BD10B5044601F0E3F800686C
:10112000005D00F0010010BD2DE9F0470D46994625
:101130009246044600F124080168880604D5E06957
:1011400021F01001216000E00120A84201DD471BD1
:1011500000E00027A1697A1902EB0900081AA061D2
:101160002078C00602D42046FFF753F9002608E095
:10117000D4E901211AF806009047206A401C761C29
:1011800020624E45F4DB2078C0060AD52046FFF7E2
:1011900040F906E0D4E9012130209047206A401C44
:1011A0002062381EA7F10107F4DC07E0D4E9012131
:1011B00018F805009047206A401C2062281EA5F1FF
:1011C0000105F3DC2046FFF73AF92078000602D546
:1011D0000220BDE8F0870120FBE72DE9FF4F0C4618
:1011E0001E464FF0FF378BB0D2E90001DDF860807A
:1011F0000A908A46C1F30A5505B93D4600210846C2
:101200004FF00000BAF1000F00F4400005DA00EBE7
:1012100080004FF4400101EA50004FEA9059B9F1C3
:10122000010F00DDB9460A9850EA4A000ED044F694
:101230001050A5F2FF3545432F14B8F1000F1ED012
:101240007542291E1EDDC9F100021CE0B8F1010F34
:101250004FF0000001D0302103E0F24305E02154BB
:10126000401CB042FBDB30460022002121540B9988
:10127000C1F80880C1E900200FB0BDE8F08FBD1BA8
:101280006D1CDEE74A4600DA694206A801F08AF8DA
:1012900006AB93E8070003AB83E8070050460A99C2
:1012A00001F0CAFF8DE80700A0F500501F3800903C
:1012B0000398002D0ADD42F21F014A46084400232C
:1012C00003A90390684602F075FA09E0A0F5005002
:1012D0004A461F38002303A90390684602F094FA97
:1012E0008DE807000004000C03D04FF0FF304108E8
:1012F00000E01046B8F1000F03D00022009215461E
:101300001EE0751E05D4FFF7C1FE303262556D1E1A
:10131000F9D5B3460122084302D000227F1C04E025
:101320002078302801D100227F1E002A099784D01E
:101330001DE0112D07DAFFF7A9FE303262556D1C52
:1013400050EA0102F5D1084302D00098C8B10EE07E
:101350000021681E05E0235C625C63542254401E39
:10136000491C8142F7DBAB46A81B401E09900020B8
:1013700004F80B000B98099AC0F80880C0E9002B0C
:101380007AE711264FF0000857E72DE9F04F88461D
:101390000446D21D22F0070191B0D1E90001CDE948
:1013A0000A0102F07DFB02460B98C00F01D02D20F0
:1013B00007E02068810701D52B2002E0202101EA07
:1013C000C000032A099001D0072A05DB03464146E5
:1013D000204600F0A7FF0BE12078800601D5E069E8
:1013E00000E00620B8F1650F814606D0B8F1660F1F
:1013F00018D0B8F1670F70D131E00020B9F1110FAA
:10140000009001DB112301E009F101030AAA01A9FF
:101410000CA8FFF7E2FEDDE90C70002609F10105DA
:10142000834647E001204B4600904FF000470AAA50
:1014300001A90CA8FFF7D1FEDDE90DB00C995D46BE
:10144000002610B909F101000D18B9EB050003D40D
:10145000C0F1FF3609F10105A5EB09002BE0B9F158
:10146000010F01DA4FF001090020B9F1110F0090CE
:10147000484601DD112300E003460AAA01A90CA891
:10148000FFF7ABFEDDE90C704D4600268346207861
:1014900000070AD4AB4500DA5D4601A8012D04DD42
:1014A000411911F8011C302907D04F4502DA17F114
:1014B000040F04DA012082460FE06D1EEEE7002FD4
:1014C00002DCED1B3E4403E0781CA84200DD7D1CDD
:1014D000B81B00F1010A4FF000472078000703D441
:1014E000AA4501DB4FF0FF3A0021B7F1004F0DF1A3
:1014F00043088DF8431024D002202B23002F01DA5B
:101500007F422D230A21021EA0F1010000DC5FB101
:1015100097FBF1FC97FBF1F201FB1C7C17460CF1E9
:10152000300C08F801CDEEE7A8F101000370218826
:10153000090501D5452100E06521A0F1010800F869
:10154000011C09980FA9A1EB0807FF1D00B101209C
:10155000411901EBEA70A1693844081A401EA061E4
:101560002078C00602D42046FEF753FF099828B120
:10157000D4E901219047206A401C20622078C006EF
:1015800022D52046FEF745FF1EE0002E04DBB345C2
:1015900002DD01A8805D00E03020D4E90121904700
:1015A000206A401C2062761CAAF101005FEA000A52
:1015B0000AD100F09FFEC0680168405CD4E90121B7
:1015C0009047206A401C2062281EA5F10105DCDC42
:1015D00007E0D4E9012118F8010B9047206A401C6C
:1015E0002062381EA7F10107F3DC2046FEF727FF33
:1015F000032011B041E600002DE9F04F04460D46EE
:10160000D21D22F0070089B0D0E90097484639463C
:1016100002F046FA0246F80F01D02D2307E02068B9
:10162000810701D52B2302E0202101EAC0038DF8B8
:1016300020300BB1012000E00020032A824601D0B7
:10164000072A04DB2946204600F06CFE3FE12078A3
:10165000800601D40D2500E0E569C7F30A560D2D7B
:1016600049DA00214FEA175B08464FF00000002FCF
:1016700000F4400007DA00EB80004FF4400100EB7B
:10168000D07001EA60008115012901DD4FF0FF31C2
:1016900000224FEA850CBCF1180F06D31346ACF1BB
:1016A00018004FF08052C24003E04FF4801323FA39
:1016B0000CF30CF10C0CBCF1200F04D3ACF1200C9A
:1016C00009FA0CF001E007FA0CF000294FF000488D
:1016D00001DD18B90FE00ED140450CD319EB02091A
:1016E0005F4121B9404502D19F4329EA0209BBEB82
:1016F000175F00D0761C2088000502D57B4878440F
:1017000002E07A487844193808AA302302F80A30EF
:10171000037C0AF10101002E0AF1020A53546A46C1
:1017200002DC4FF0300101E04FF031014FF00108D1
:101730008DF8001002D0A6F2FF3603E059EA470107
:1017400000D06B4E002D02DC2178090704D54FF044
:1017500002082E218DF80110C44600210BE0C7F3CA
:1017600003433F01C35C491C6D1E02F80830052984
:1017700008F1010801DA002DF1DC00210CE000EB9A
:101780001973491C1B786D1E082902F808304FEAAE
:10179000091908F1010801DA002DF0DC21688B0637
:1017A00002D516E0A8F10108E04505DD02EB0803CB
:1017B00013F8013C302BF5D0B8F1000F09DD02EB36
:1017C000080313F8013C2E2B03D1090701D4A8F11B
:1017D0000108002D05DD3E2102F808106D1E08F1FC
:1017E0000108407C002E02F8080008F1010804DA24
:1017F0002D20764202F8080002E02B2002F80800B3
:101800000A214FF47A70864208F101080BDB96FB3F
:10181000F0F3303302F8083096FBF0F308F10108DA
:1018200000FB136601E0642E0CDB642096FBF0F3F2
:10183000303302F8083096FBF0F308F1010800FBA2
:10184000136601E00A2E06DB96FBF1F0303002F859
:10185000080008F1010896FBF1F001FB1060303040
:1018600002F80800A16908F1010808EB050202EB83
:101870000A00081AA0612078C00602D42046FEF7AC
:10188000C8FD216A08AE01EB0A00206204E0D4E939
:10189000012116F8010B9047BAF1010AF7D220781E
:1018A000C00602D52046FEF7B4FD6E4609E016F8E4
:1018B000010B3E280FD0D4E901219047206A401C3B
:1018C0002062B8F10108F2D22046FEF7B8FD09B057
:1018D0000320BDE8F08F206A2844206203E0D4E9A9
:1018E0000121302090476D1EEBD3F8E77A450000C8
:1018F00002FCFFFF10B5436913B1AFF3008001E0B4
:10190000FEF7C0FD012010BD127800F124010A701D
:1019100000224A700122EDE711684FF0FF32E9E73B
:1019200010B5436913B1AFF3008001E0FEF754FE38
:10193000012010BD128800F1240182840022C2849B
:101940000122EDE711684FF0FF32E9E73A2800D2B3
:10195000303820F02002412A01D3A2F1370088421A
:1019600001D34FF0FF3070472DE9F34F4FF0000ADD
:101970000C4656468DB001200C9001F10C000B90E6
:1019800062690B9801219047051E2DD0252D2CD082
:10199000216A8847C0B162690B9801219047216A8A
:1019A00088470028F7D16269411E0B98904700E0F4
:1019B000761CA1690D988847216A88470028F7D1CD
:1019C000E1690D988847DBE7A1690D988847A8422F
:1019D000074601D1761CD3E7E1690D9888477F1C43
:1019E00002D1BAF1000F6FD06BE162690B9800274A
:1019F0003D46394690472A2804D162690B98012157
:101A000090470125DFF8D08262690B980121904749
:101A1000A0F130010A290AD24745E5DC07EB87012E
:101A200000EB4107303FDFD445F01005ECE7E90655
:101A300001D46FF000476C280AD04C2814D06828D5
:101A400015D06A280DD074281CD07A281AD01DE031
:101A500062690B98012190476C2802D045F004057B
:101A600014E045F002050DE045F020050AE062694A
:101A70000B9801219047682802D045F0080505E041
:101A800045F4006562690B9801219047C4E901574C
:101A900065283DD019DC58287AD00CDC452837D091
:101AA00004DC252826D041289ED131E046282FD0BD
:101AB000472899D12CE05B2877D0612828D063286B
:101AC0007CD0642823D15AE0F6E06F2848D008DCA7
:101AD00066281DD067281BD0692821D06E2816D112
:101AE00027E0702845D0732868D0752847D078281B
:101AF0000DD14DE0A1690D988847252805463FF492
:101B000069AFE1690D9888476D1C3FF46AAFD8E072
:101B10000D9923466A466FF0010004F017F8C5E0FE
:101B200045F0400023464FF000026060A80736D41D
:101B30003EE0E8077FF447AF2068011D21600068A0
:101B4000290501D506701BE7290701D5068017E78F
:101B5000A90703D5F117C0E9006111E706600FE797
:101B600045F0400023464FF008026060A80716D4F5
:101B70001EE040F60E0125EA0100606016E045F027
:101B8000400023464FF00A026060A80707D40FE028
:101B900045F040006060A80708D5234610220D9943
:101BA0006FF00100FEF7FAFE80E007E01022234606
:101BB0000D996FF00100FEF79CFF77E04FF00009F0
:101BC00063284F46C8464B46CB4602D05B2806D01A
:101BD00038E0E80601D40120A060012732E0626904
:101BE000D4F80CB00B98012190475E2807D14FF034
:101BF000010949466269D4F80CB00B9890472169F5
:101C000039B900210A4603AB43F82120491C0829B1
:101C1000FADBD8B3216949B308F1010862690B986E
:101C2000012190475D28F4D1B9F1000F09D00020BF
:101C300003A951F82020D24341F82020401C082855
:101C4000F7DB03AB2069002820794FEA40701ED0F3
:101C50005B462246CDF80080CDE901970D9900281A
:101C60006FF0010020DAFFF78FF91FE0C11703AA18
:101C700000EBD1614B1121F01F0102EB8302411AED
:101C800013680120884003431360C7E719E00D99EA
:101C9000224600286FF00100009702DAFFF776F87D
:101CA00004E0FEF7CCFF01E0FFF7FAF800280ADABB
:101CB000401C06D10C9820B14FF0FF300FB0BDE8AA
:101CC000F08F5046FAE7E90701D10AF1010A06440C
:101CD00000200C9054E60000CCCCCC0C2DE9FF4F3A
:101CE00006468BB00878FF2806D0491C2D2805D061
:101CF00000244FF0000908E000200CE00124F8E780
:101D000009EB8903491C00EB43090878FF28F7D148
:101D100014B1C9F100008146107800252C46AA466E
:101D200029462D2801D02B2804D1521C2D2813D050
:101D3000002082468B461078FF280FD04FF0000C11
:101D40000A21521CA5FB017804FB018105FB0C1143
:101D5000C5194BEB0104EEE70120EAE70021084634
:101D60004FF00000BAF1000F02D000EB80004008F5
:101D7000C0F38157012F01DD4FF0FF370E9955EA6F
:101D8000040009EB01080BD04FF0020918F5FA7FA7
:101D900016DA4FEACA70002F706008DD012007E0F4
:101DA0004FEACA70C6E900B00FB0BDE8F08F00205E
:101DB0003060FFF767F9C0F800901821084616E078
:101DC000B8F5FA7F18DD002F02DAF748784401E011
:101DD000F6487844D0E90010C6E9001040EACA701D
:101DE0007060FFF74FF9C0F80090142108460FB05B
:101DF000BDE8F04F03F01DBE002108464FF0000083
:101E0000B8F10001099002DAC7F1000200E03A4699
:101E100001DAC8F1000106A800F0C4FA06AB93E8A5
:101E2000070003AB83E8070044F23E005BEA0401CD
:101E30000090584604D144F21E012C465D460091A4
:101E4000210C0904014306D10099240444EA1544F5
:101E50002D041039009104F07F41014306D100990F
:101E6000240244EA15642D020839009104F07041FF
:101E7000014306D10099240144EA15742D01091F7C
:101E8000009104F04041014306D10099A40044EAC6
:101E90009574AD00891E009104F00041084304D1FF
:101EA00000986D196441401E00904FF001033A46BE
:101EB0006846B8F1000FCDE9014503A902DD01F044
:101EC000B8FC01E001F08BFCBAF1000F04460D46AE
:101ED00001D084F00044002108464FF00000099929
:101EE00040F2FF77484010F00C0F07D124F000407B
:101EF000284303D0C4F30A50B84212D1FFF7C2F806
:101F0000C0F80090C4F30A50B8420AD1A8487844F7
:101F1000D0E90010C6E9001004F0004108437060E9
:101F200042E7C6E900543FE72DE9FF4F1F464FF057
:101F3000000A4FF0FF38454691B0D7E90146CDF889
:101F40003CA000F0D7F9C0680168405C1090B96906
:101F500012986D1C8847396A814688470028F6D157
:101F6000B9F1FF3F0AD0002E24F4D06411DDB9F19D
:101F70002B0F08D0B9F12D0F0BD102E0404615B060
:101F800013E744F48064B96912986D1C8847761E83
:101F90008146600504A901D52D2000E02B20002EEC
:101FA00001F1010B0DF130088DF810003FDDB9F1A2
:101FB000690F08D0B9F1490F05D0B9F16E0F02D001
:101FC000B9F14E0F1CD13B4601A8009580E85002A4
:101FD000DDE912126FF0020003F0BCFDC11CCED18E
:101FE0000EE0B96912986D1C884781461398761ED9
:101FF00044F4007405600F98401C002E0F9016DD0D
:10200000B9F1300FEDD0B9F1780F02D0B9F1580F16
:102010000DD10F9801280AD13B46CDE90054DDE9E6
:102020001212001F029603F093FDC11CA7D1109954
:1020300089453ED144F0800406E01399681CAAF15A
:10204000010A44F400740860B9696D1C1298761E88
:10205000884730288146F0D02BE01099894505D17A
:10206000200603D4761E44F0800418E0484601F0B0
:1020700028FE08B3761E0DF123029345A9F1300026
:1020800044F4007406D20BF8010B200607D5AAF120
:10209000010003E0200602D40AF101008246A005F7
:1020A00002D51399681C0860B96912986D1C88479D
:1020B0008146002ED1DC53E0002E51DDB9F1650FD1
:1020C00002D0B9F1450F4BD1A00549D5B9696D1CB6
:1020D0001298761E24F440748847002E81460CDD49
:1020E0002B2804D0B9F12D0F07D144F48074B969BD
:1020F00012986D1C8847761E8146E00501D52D217A
:1021000000E02B2108F8011BCDF8008021E0761EAD
:102110000DF13901884544F400740CD2A9F1300066
:1021200010F0FF0088F8000002D10099884509D915
:1021300008F1010806E0E00501D51E4801E042F281
:102140000F708246B96912986D1C884781461398B2
:102150000560002E04DD484601F0B3FD0028D6D10D
:10216000F96912988847FF2053468BF8000088F8D9
:10217000000000200A900B9004AA0CA90AA8FFF7FF
:10218000ADFDA00502D46FF00100F8E614F0240FB5
:1021900012D0E0071CD13868DDE90A12031D3B604C
:1021A0000068C0E9001213E07C4200006E420000AB
:1021B00032410000F1D8FFFF0AA9684601F010FD86
:1021C000E00705D13868009A011D39600068026097
:1021D0002846D4E610B508E030F8024B9C4204D102
:1021E0000AB1002010BD012010BD491EF4D21046D6
:1021F00010BD007B00F080007047F8B516460C4615
:10220000054600F06FF8036893F80101012804D037
:10221000185D78B101202C80F8BDD3F80301324657
:10222000214603F20313C71868460023B8470099F4
:102230002980F8BD4FF0FF30F8BD2DE9F04116467A
:102240000C46054600F04EF8036893F8010101289A
:1022500007D0FF2C12D8185D80B101202C70BDE88A
:10226000F081D3F807013246214603F20713C7185D
:102270002846BC46BDE8F041002360474FF0FF30E0
:10228000EDE710B500F00EF9BDE8104000F005B91B
:1022900000487047180400207546FFF7F9FFAE4666
:1022A00005006946534620F00700854618B020B562
:1022B000FEF70EF8BDE820404FF000064FF0000793
:1022C0004FF000084FF0000BAC46ACE8C009ACE89A
:1022D000C009ACE8C009ACE8C00921F007018D468F
:1022E0007047000010B500F005F8001D10BD00BFDC
:1022F0007D2200000048704738040020B2F120031E
:102300000AD5C2F1200301FA02F120FA03F341EAEF
:10231000030100FA02F0704700FA03F14FF00000E9
:10232000704700002DE9F0411F460446032601686E
:10233000072A01F4006004DB08B116A505E016A524
:1023400003E008B115A500E015A521F010002060FC
:10235000A069C01EA0610FB1401EA0612046FEF71B
:1023600058F84FB1D4E9012138469047206A401C03
:102370002062C01C206206E0206AFAE7D4E901214D
:1023800015F8010B9047761EF8D22046FEF757F855
:10239000BDE8F0814E414E006E616E00494E460030
:1023A000696E66002DE9F047814616468AB03548C9
:1023B00078440DC88DE80D0032487844801C03AC89
:1023C0000DC884E80D0041F69B300844372190FB8E
:1023D000F1F290FBF1F5A5F1800501FB12041B3C25
:1023E00002D56442012000E00020DFF898A080467A
:1023F0000027FA44AAF1BE0A0EE0E0070AD03246EE
:10240000684607EB470101230AEB810101F0FCF963
:102410008DE8070064107F1C002CEED1194F7F441B
:10242000AE3F19E0E80715D007EB04100DF1180ACC
:1024300090E80E008AE80E00C068F04201D19819B9
:1024400008903246012306A903A801F0DDF903AB89
:1024500083E807006D10641C002DE3D14FF00103E9
:1024600032466946B8F1000F03A802D001F0A2F984
:1024700001E001F0C9F9C9E90001C9F808200AB072
:10248000BDE8F0875839000010B50446AFF300806E
:102490002046BDE81040FDF7ECBE002801D000F05A
:1024A000B3BA704710B5002102A000F03DFA012038
:1024B00010BD0000534947414252543A2041626ED8
:1024C0006F726D616C207465726D696E6174696F95
:1024D0006E0000002DE9FF4F1F464FF03C0987B00A
:1024E0004FF00042DDE9141001F10108DDF858A0B9
:1024F00002EA4050039000200590834605460446BA
:102500000490B969461E08988847AAF1010A02900A
:10251000BAF1000F3BDD02982E2815D01021FFF7ED
:1025200015FA00282EDB4FF0010B0599014317D057
:10253000B9F1000F0BDB4A46C117FFF7DFFE054379
:102540000C43A9F1040905E0012004900BE008B157
:1025500045F0010501200590049820B9361D02E0E0
:10256000049800B1361FB969089808F10108884736
:10257000BBF1000FAAF1010A0290C9D00999C1F874
:102580000080C5E70298702808D0502806D0F96965
:1025900008988847BBF1000F14D04FE0002002904C
:1025A0000120BBF1000F049009D0B969089808F127
:1025B00001088847AAF10109B9F1000F07DCF969A0
:1025C000089888476FF001000BB0BDE8F08F2B280A
:1025D00004D02D280CD14FF0FF300490B969089831
:1025E00008F101088847A9F10109B9F1000FE6DDFA
:1025F000411CE4D00A21FFF7A9F90028DFDB02998A
:1026000008F1010801EB810100EB41000290B9697A
:10261000089888470A21FFF799F9099AA9F1010951
:10262000B9F1000FC2F8008001DD0028E7DAF9698E
:10263000089888470499029800FB016655EA04004F
:1026400004D004F04041090002D006E0039898E06D
:10265000A40044EA9574AD00B61E04F000410800E1
:1026600002D16D196441761E159810F0240F03D025
:102670004FF00B095C4803E04FF028096FF07D0034
:102680008246564507DAAAEB06018944B9F1410FA3
:1026900001DD4FF0410901200021A9F10102FFF7FE
:1026A0002DFE024628400B462140084301D001215F
:1026B00000E00021501E029143F1FF3128402140EB
:1026C000084301D0012000E000200299834651EA2E
:1026D0000B014FD0002108464FF00000039900F491
:1026E000400039B100EB80004FF4400100EBD070A6
:1026F00001EA60008015012802DD4FF0FF3000E0A4
:1027000013D0401C36D0029860B3BBF1000F0CD13F
:102710004A4601200021FFF7F1FD284021400843EF
:1027200001D0012000E00020E0B101204A46002154
:10273000FFF7E4FD034640190A4661412D1A8C411A
:1027400011D3B9F1400F09DD159810F0240F02D014
:10275000AAF1340603E0AAF1170600E0761C002572
:102760004FF0004406E05B1E42F1FF3220EA030511
:1027700021EA0204CAF10100B04206DA1B490398BB
:1027800008430190002000900EE0039AC4F3D32187
:10279000E80A0A43164940EA44500A433146CDE963
:1027A0000002684601F082FA159810F0240F0BD051
:1027B0001598C00715D13868DDE90012031D3B608C
:1027C0000068C0E900120CE002A8694601F008FAAE
:1027D0001598C00705D13868029A011D3960006854
:1027E00002604046F0E6000002FCFFFF0000F07FC0
:1027F0000000F03F2DE9FF4F92461D4685B04FF097
:102800000041DDE9124BDDE914727F1E01EA4B50F5
:10281000414940F0FF4940EA0108002122F0200030
:102820004928049102D04E2828D04CE03BA0012634
:1028300007C88DE80700A9690698641C88477F1EB1
:10284000014606D41DF8060018B121F0200181428E
:102850000BD0E96906988847032E34D0082E32D071
:102860006FF0010009B0BDE8F08F761C032E01D097
:10287000082EE0D1601CCAF80000DCE7A9690698C0
:10288000641C88477F1E2AD420F02000412826D1CE
:10289000A9690698641C88477F1E20D420F0200078
:1028A0004E281CD1A9690698641C88477F1E48F4ED
:1028B000002849F48009CAF8004001D4282806D02D
:1028C000E969069888475FEACB7012D022E0A969CF
:1028D0000698641C88477F1E01D4002803DAE96942
:1028E00006988847BCE72928F1D1641CCAF8004043
:1028F000E9E71BF0240F07D028680499031D2B601B
:102900000068C0E9001805E02868021D2A60006818
:10291000C0F800902046A5E70000F07F494E4649E8
:102920004E4954590000000070B505460C460A2077
:1029300000E06D1C00F06CF835B128780028F8D163
:1029400002E0641C00F064F814B120780028F8D18B
:10295000BDE870400A2000F05BB800004FF0013C79
:1029600050F8042B51F8043B9A4221D1A2EB0C03FE
:10297000934313EACC1317D150F8042B51F8043BBE
:102980009A4215D1A2EB0C03934313EACC130BD15B
:1029900050F8042B51F8043B9A4209D1A2EB0C03E6
:1029A000934313EACC13DBD04FF00000704700BF15
:1029B000D01A01BAB1FA81F101F0180122FA01F03E
:1029C000CB40DBB2C0B2C01AC1F120012CFA01F336
:1029D000D11A914311EAC311E6D1704780B582B094
:1029E0004EF21000CEF2000001900199086820F02C
:1029F0000100086000F012F845F62450C0F600000F
:102A0000FDF778FC02B080BD81B0009001B0704746
:102A100081B00090009801B07047000081B040F292
:102A20000030C4F2000000900098006840F20221DB
:102A3000C2F22501884207D1FFE740F2CC41C2F241
:102A400000010120087006E040F2CC41C2F2000112
:102A500000200870FFE701B07047000080B586B025
:102A6000049040F20010C4F20000019040F2041003
:102A7000C4F20000009000F08BF8039040F2CC40CC
:102A8000C2F200000078E0B9FFE70498B0F1FF3F20
:102A900007DCFFE740F2D841C2F2000100200880C5
:102AA000FFE740F2D841C2F200010A8840F200007C
:102AB000C2F20000805C8DF80B00088801300880AD
:102AC0001FE0FFE7019800688006002811D4FFE7A7
:102AD000049800280CD4FFE700F05AF80399401A34
:102AE0000499884204D3FFE700208DF817000DE019
:102AF000E8E7009800688DF80B0001990020086055
:102B0000FFE79DF80B008DF81700FFE79DF9170010
:102B100006B080BD80B584B08DF80F0040F2001083
:102B2000C4F20000019040F20410C4F200000090D2
:102B300000F02EF80290FFE7019800684006002898
:102B400009D4FFE740F2CC40C2F20000007808B997
:102B5000FFE700E0F0E79DF90F000099086004B07E
:102B600080BD000080B582B0019000919DF9040005
:102B7000FFF7D0FF019802B080BD000081B040F2A5
:102B80000420C4F2000000900098006801B0704773
:102B900082B040F2CC40C2F20000007850B9FFE7AA
:102BA00040F2DC40C2F200000168013101600068BF
:102BB000019006E04FF0804000900098006801907E
:102BC000FFE7019802B0704780B584B00020029002
:102BD0000390FFF723FFFFF7D1FF014640F2D040FB
:102BE000C2F20000016040F2CC41C2F200010A785A
:102BF000036845F67960C0F600002921FDF77AFBED
:102C000000F062FA00F072F94FF4FA7000F04EF939
:102C1000029840F2D441C2F200010860FFE740F29E
:102C2000D441C2F20001019108680130086000F04F
:102C300009F80198016845F6D260C0F60000FDF77A
:102C400059FBECE7B0B5AAB045F63550C0F6000028
:102C5000FDF750FB0420C4F20000259025990220C6
:102C6000086025990020086040F20000C2F20000D0
:102C700024904FF4806100F0FDF8249946F2200082
:102C8000C0F60000FDF736FB24986A4628A91160BB
:102C900045F68971C0F6000129AA0DF19F03FDF7E1
:102CA0004BFB02F073FC26909DF99F002B2829D145
:102CB000FFE729981E9002F07FFA21902291289830
:102CC0001F9002F079FA02461E9823920A461F9935
:102CD000209202F09DFA02F06FFADDF880C0219A8E
:102CE000229B864623980C466946CC60C1F808E0D2
:102CF000C1F804C0086045F64760C0F60000FDF763
:102D0000F9FAB4E09DF99F002D2829D1FFE7299811
:102D1000189002F051FA1B901C912898199002F01B
:102D20004BFA024618981D920A4619991A9202F017
:102D30000BFE02F041FADDF868C01B9A1C9B864628
:102D40001D980C466946CC60C1F808E0C1F804C083
:102D5000086045F65160C0F60000FDF7CBFA85E04B
:102D60009DF99F002A2829D1FFE72998129002F0A7
:102D700023FA159016912898139002F01DFA024636
:102D8000129817920A461399149202F07FFC02F0EF
:102D900013FADDF850C0159A169B864617980C4614
:102DA0006946CC60C1F808E0C1F804C0086045F687
:102DB0003D60C0F60000FDF79DFA56E09DF99F00CA
:102DC0002F2829D1FFE729980C9002F0F5F90F90F0
:102DD000109128980D9002F0EFF902460C9811928C
:102DE0000A460D990E9202F0DBFA02F0E5F9DDF8E1
:102DF00038C00F9A109B864611980C466946CC60E5
:102E0000C1F808E0C1F804C0086045F65B60C0F690
:102E10000000FDF76FFA27E0269802F0CDF9089040
:102E20000991299802F0C8F90B9007919DF99F002C
:102E30000A90289802F0C0F9DDF81CC0089A099B96
:102E4000DDF828E004460B980D4669464D610C619B
:102E5000C1F808E0C1F804C0086045F67870C0F613
:102E60000000FDF747FAFFE7FFE7FFE7FFE72AB0BB
:102E7000B0BD000080B582B00190ADF802104FF0F7
:102E8000FF30FFF7EBFD01990870FFE7019800782C
:102E900048B1FFE70198013001906420FFF7DEFDA3
:102EA00001990870F2E702B080BD000080B582B0E1
:102EB0000190019945F6BC60C0F60000FDF71AFAD2
:102EC000FFF766FE0090FFE7FFF762FE0099401AE9
:102ED0000199884201D2FFE7F6E745F63260C0F675
:102EE0000000FDF707FA02B080BD000080B586B093
:102EF00040F20041C2F200010868496840F208430C
:102F0000C2F200031A685B6801F042FE03900A46B1
:102F1000039940F2E840C2F200000590426001606F
:102F20000268436840F2F040C2F20000049045F6A7
:102F30006561C0F60001FDF7E9F9049946F2200049
:102F4000C0F60000FDF7D6F90599086849684FF208
:102F5000E462CBF2C25242F6C723C3F6E57302F035
:102F6000BFF908B1FFE70BE045F6E860C0F60000E6
:102F700045F6CC71C0F600014FF4BD72FDF7FAF9C9
:102F800040F2E840C2F20000029045F68050C0F6E0
:102F90000000FDF7AFF940F20041C2F200010868FD
:102FA000496840F20843C2F200031A685B6801F006
:102FB000E1FB0A4602994A600860086849683922BC
:102FC000CFF209624CF28563C3F6DB7302F088F935
:102FD00008B1FFE70BE045F60070C0F6000045F6CB
:102FE000CC71C0F600014FF4BF72FDF7C3F940F297
:102FF000E840C2F20000019045F6A150C0F6000082
:10300000FDF778F901990868496801F02DF80A463A
:1030100040F2E041C2F200014A6008600868496875
:103020004DF28B42CCF259524BF61633C3F6DC7399
:1030300002F056F908B1FFE70BE045F61970C0F64B
:10304000000045F6CC71C0F600014FF4C172FDF7E7
:1030500091F940F2E040C2F20000009045F6C25003
:10306000C0F60000FDF746F940F2E841C2F2000167
:103070000868496800F02CFE0A4600994A6008601A
:10308000086849684BF2F672CAF2ED224FF2353306
:10309000C3F6F17302F024F908B1FFE70BE045F63F
:1030A0003270C0F6000045F6CC71C0F6000140F267
:1030B0008712FDF75FF945F6E350C0F60000FDF713
:1030C00019F906B080BD000080B584B000200390DF
:1030D00040F21040C2F20000006840F21441C2F217
:1030E0000001096802F0D2FA014640F22850C2F20B
:1030F0000000016000684BF2D171C3F6F95102F093
:1031000019F908B1FFE70BE045F6DF70C0F60000E3
:1031100045F6CC71C0F600014FF4B072FDF72AF904
:1031200040F22850C2F20000029045F69150C0F6DD
:103130000000FDF7DFF840F21040C2F20000006826
:1031400040F21441C2F20001096802F029F9014677
:103150000298016000684FF0785102F0EBF808B176
:10316000FFE70BE046F20200C0F6000045F6CC7126
:10317000C0F600014FF4B272FDF7FCF840F228509F
:10318000C2F20000019045F6B250C0F60000FDF713
:10319000B1F80198006801F09FF8014640F2245010
:1031A000C2F200000160006845F2F051C3F6006110
:1031B00002F0C0F808B1FFE70BE046F20E00C0F6DF
:1031C000000045F6CC71C0F600014FF4B472FDF773
:1031D000D1F840F22450C2F20000009045F6D350DE
:1031E000C0F60000FDF786F840F22850C2F2000059
:1031F000006800F0ABFE014600980160006840F2F4
:103200001D51C3F6B97102F095F808B1FFE70BE064
:1032100045F6F170C0F6000045F6CC71C0F600012D
:103220004FF4B672FDF7A6F845F6F450C0F600006C
:10323000FDF760F804B080BD5FEA400C08BF91F074
:10324000000F4FEA8C234FEAC12243EA51514FEA63
:103250001C5018BF00F5F0404FEA300018BF41F095
:1032600000415FEA6C5C00F02980BCF1FF3F08BFC1
:1032700040F080407047130C06BF12044FF0100C52
:103280004FF0000C130E04BF12020CF1080C130FC8
:1032900004BF12010CF1040C930F04BF92000CF157
:1032A000020CD30F04BF52000CF1010C11464FF079
:1032B0000002A0F11F00A0EB0C00704711F0004FBE
:1032C00008BF704731F000413FF4D5AF0B0C06BF8B
:1032D00009044FF0100C4FF0000C0B0E04BF090254
:1032E0000CF1080C0B0F04BF09010CF1040C8B0F3F
:1032F00004BF89000CF1020CCB0F04BF49000CF194
:10330000010CCCF1200322FA03F341EA030102FA93
:103310000CF2A0EB0C0000F10100704723F07F4796
:1033200020F07F4C80EA030000F00040ACEB070384
:1033300003F57C5303F1FF032DE9804909B44FEAFB
:10334000144324EA03484FEA154B25EA0B4E0FF2CB
:10335000042606EB13273E7803FB0667C7F5000734
:1033600007FB06F64FEAD64606F102064FEA543747
:1033700007FB066CCCF1005C4FEA1C472CEA074CBB
:103380000CFB06F507FB06F404EB15464FEA961610
:1033900049085FEA320234BF00204FF000404FEA94
:1033A000D13706FB07FC4FEA1C4C0CFB0BF7D21B7A
:1033B00003FB0CF761EB07010CFB0EF7B0EB0740CA
:1033C00072EB17420CFB08F734BFA2EB0742B2EBDB
:1033D000074261EB17414FEA0C444FEA910706FBA5
:1033E00007FC4FEA1C4C0CFB0BF7B0EBC74072EB31
:1033F000573203FB0CF734BFA2EBC742B2EBC74214
:1034000061EB57310CFB0EF7B0EBC70072EB577254
:103410000CFB08F734BFA2EBC702B2EBC70261EBAB
:1034200057714FEA816141EA92114FEA826242EAA2
:1034300090124FEA806004EBCC04039F4FEAD1372F
:1034400006FB07FC4FEA1C4C0CFB0BF7D21B03FBE3
:103450000CF761EB07010CFB0EF7B0EB074072EBCA
:1034600017420CFB08F734BFA2EB0742B2EB07424E
:1034700061EB17414FEA8C5504EB9C244FEA91070E
:1034800006FB07FC4FEA1C4C0CFB0BF7B0EBC740EC
:1034900072EB573203FB0CF734BFA2EBC742B2EB1F
:1034A000C74261EB57310CFB0EF7B0EBC70072EB74
:1034B00057720CFB08F734BFA2EBC702B2EBC7028E
:1034C00061EB57714FEA816141EA92114FEA8262E2
:1034D00042EA90124FEA806015EB4C2544F100045B
:1034E0004FEAD13706FB07FC4FEA1C4C0CFB0BF7ED
:1034F000D21B03FB0CF761EB07010CFB0EF7B0EBE3
:10350000074072EB17420CFB08F734BFA2EB0742EF
:10351000B2EB074261EB17414FEA813141EA924138
:103520004FEA823242EA90424FEA80304FEA0C760C
:1035300015EB1C1544F1000448EA03434EEA0B481E
:103540004FF0000EB2EB080C71EB030724BF62468C
:1035500039464EEB0E0E4FF0000B00185241494118
:103560004BEB0B0BB2EB080C71EB03077BF1000B81
:1035700024BF624639464EEB0E0E4FF0000B00188A
:10358000524149414BEB0B0BB2EB080C71EB0307BB
:103590007BF1000B24BF624639464EEB0E0E51EA1A
:1035A000020718BF46F0010616EB0E7655F1000231
:1035B00054F1000103D5BDE88901BDE80088BDE8EC
:1035C0008901BDE80048B619524141EB0101A3F160
:1035D0000103704780807F7E7D7C7B7A7978777667
:1035E00076757473727171706F6E6E6D6C6C6B6AE0
:1035F0006A6968686766666564646363626161607E
:10360000605F5F5E5E5D5D5C5C5B5B5A5A595958FA
:103610005857575656555555545453535252525164
:10362000515050504F4F4F4E4E4D4D4D4C4C4C4BBA
:103630004B4B4A4A4A494949484848474747474601
:10364000464645454544444444434343434242423D
:103650004241414110B546EA06464FEA164646EA5F
:1036600042564FEAD22242EA41524FEAD121A3F513
:103670007053A3F1010300F02FF820F0004000F098
:10368000004700F1020CBCF5006F01EB0050114641
:1036900040EA070000D210BDBAF1000F0AD01CB5F5
:1036A00003B44FF004004FF004014FF000000FBCD2
:1036B000BDE810404FF00001BBF1010FB9BF044855
:1036C0004FF0FF310348002140EA070010BD00BF62
:1036D000FFFFEF7F0000F07F9C46002B30D4770087
:1036E0002BD04FEA37071CB503B44FF010004FF052
:1036F0001001BAF1000F06D0BCF1000FDCBF40F0A2
:10370000080040F008014FF000000FBCBDE8104079
:103710000BF1010BBBF1010F08BF5FEA170722BFD6
:1037200012F1010211F101014FF0004143F10003D8
:1037300000F0004043EA00007047F9D35708D0E793
:1037400046EA06464FEA164613F1400F1FDD13F115
:10375000200FDFBF16430A46002120335B42BED054
:10376000C3F1200746EA06464FEA164602FA07F773
:1037700046EA070622FA03F2C3F1200701FA07F727
:1037800042EA070221FA03F14FF00003A7E746EAF5
:10379000020646EA06464FEA164646EA0106BCBF5E
:1037A00046EA0646360C4FF000034FF000024FF099
:1037B000000194E72DE9804C70B49A46934691E855
:1037C000380007C831EA400C48BF34EA430C03D53F
:1037D000FFF7A4FDFFF780FFF0BCBDE8008C2DE9EA
:1037E000804C70B49A46934691E8380007C831EA95
:1037F000400C48BF34EA430C03D5FFF78FFDFFF7B9
:1038000029FFF0BCBDE8008C2DE9804C70B49A46CD
:10381000934691E8380007C810F0804F08BF13F0B6
:10382000804F03D100F01AF8FFF756FFF0BCBDE857
:10383000008C2DE9804C70B49A46934691E838008C
:1038400007C810F0804F08BF13F0804F03D100F07D
:1038500005F8FFF7FFFEF0BCBDE8008C20F07F47C5
:1038600023F07F4C80EA030000F0004007EB0C03DC
:10387000A3F57C53A3F1FE0392F0000F00F0B38098
:1038800095F0000F00F077802DE901494FEA1140D3
:1038900021EA00484FEA144624EA064700FB06FCEA
:1038A00008FB06F607FB08F818EB06484CEB164C2D
:1038B00000FB07F718EB07484CEB17404FEA124B99
:1038C00022EA0B4E4FEA154625EA06470BFB06FC9B
:1038D0000EFB06F607FB0EFE1EEB064E4CEB164CDF
:1038E0000BFB07F71EEB074E4CEB174B18EB0B08C7
:1038F00040F1000018EB0E0B58EB000840F10000FF
:103900008F1A4FF000014FF000063CBFC943661B01
:1039100014BFB5EB040C00213CBFC943F61B4FEAB2
:10392000174427EA04454FEA1C472CEA074C04FBDE
:10393000076205FB07F70CFB05F616EB074642EBA3
:10394000174204FB0CFC16EB0C4642EB1C421BEB33
:10395000060658EB020241414EEA8E0E46EA9E06EA
:1039600001D5BDE80189B619524141EB0101A3F12E
:103970000103BDE801894FEA144524EA05464FEAF0
:10398000114721EA074C05FB07F406FB07F70CFB80
:1039900006F111EB074144EB174405FB0CFC11EB5E
:1039A0000C4144EB1C444FEA124722EA074C05FB4A
:1039B00007F206FB07F70CFB06F616EB074642EB91
:1039C000174205FB0CFC16EB0C4642EB1C456A1833
:1039D00054F1000148BF7047B619524141EB010153
:1039E000A3F10103704795F0000F37D04FEA114261
:1039F00021EA02464FEA144724EA074C02FB07F18A
:103A000006FB07F70CFB06F414EB074441EB1741E8
:103A100002FB0CFC14EB0C4441EB1C414FEA154734
:103A200025EA074C02FB07F506FB07F70CFB06F639
:103A300016EB074645EB174502FB0CFC16EB0C4654
:103A400045EB1C42121951F1000148BF7047B619ED
:103A5000524141EB0101A3F1010370474FEA1445C4
:103A600024EA05464FEA114721EA074C05FB07F116
:103A700006FB07F70CFB06F212EB074241EB17417E
:103A800005FB0CFC12EB0C4251EB1C414FF0000605
:103A900048BF7047921841EB0101A3F10103704741
:103AA000490050EAC12018BF04204A0D18BF40F059
:103AB000010040F2FF72B2EB515F08BF40F002001C
:103AC000012808BF052070474100080218BF0420E4
:103AD0000A0E18BF40F001004FF07F4232EA0101A8
:103AE00008BF40F00200012808BF052070472DE9FB
:103AF000F0414F1E00EBC7010446D1E90001154615
:103B00001E4637F006020DD02A46334601F040F833
:103B10007F1E04EBC703D3E9002300F06FFD37F0ED
:103B20000602F1D1022F25D0042F13D0062F18BF83
:103B3000BDE8F0812A46334601F02AF8D4E90A2389
:103B400000F05CFD2A46334601F022F8D4E9082350
:103B500000F054FD2A46334601F01AF8D4E9062352
:103B600000F04CFD2A46334601F012F8D4E9042354
:103B700000F044FD2A46334601F00AF8D4E9022356
:103B800000F03CFD2A46334601F002F8D4E9002358
:103B9000BDE8F04100F032BD012201F083BF0022F8
:103BA00013461046114600F0E5BD40F201320020F8
:103BB0004FF0E04101F076BF024A0020110701F00A
:103BC00071BF000001FDFFFF012101F099BF00213D
:103BD000084601F0E5BB6FF05E01080701F090BFF9
:103BE00010B50446D1E9000100F002F8206010BDD4
:103BF000F8B504460D466A4600F000FC00987E3099
:103C0000009000281EDC002213462046294600F0C2
:103C10000BFF17D0002140F608004FF000000646C9
:103C20002046294600F0B8FC044640F6080006EAA3
:103C300000014FF0000034F0004004BF0220FCF708
:103C4000E2FB29E00098FF2828DB002108464FF01E
:103C5000000000F44006002213462046294601F0E9
:103C600095F88CBF002501250220FCF7CCFB4FF016
:103C7000FF4446B1002D0CBF4FF400004FF480000C
:103C8000B04218BF084C042108464FF00000002D38
:103C900004BF84F00040F8BD2046F8BD2046294608
:103CA000BDE8F84000F078BCFFFF7F7F10B5044608
:103CB0000A46D4E90003194600F0CCFBC4E9000130
:103CC00010BD30380A2801D201207047002070470B
:103CD0002DE9F04D0546DFF8388221F000408D4F88
:103CE00082B00C46404520DBA0EB080129430BD0F5
:103CF0008949884201DC10D17DB102B028462146B5
:103D0000BDE8F04DFFF748BF002CC7BF00200146BB
:103D10008248394602B0BDE8F08D0120FCF773FB04
:103D200002B0BDE8F04DFFF73ABF7D49884244DA62
:103D30007C498142A1BF79487B4902B0BDE8F08D42
:103D40002A4623461046194600F022FF83460246C3
:103D500076480E460B4606217844FFF7C8FE5A46C1
:103D6000334600F015FF074671488A465A463346E7
:103D700004217844FFF7BBFE5A46334600F008FFA3
:103D80000022434600F03AFC02460B4638465146B4
:103D900000F0F0FC2A46234600F0FAFE654A664B26
:103DA00001F02AF82A46234601F026F802B05B4AC1
:103DB000BDE8F04D5C4B01F01FB8002C4FF0000245
:103DC0004BDA464643462846214600F017FC4FF0A2
:103DD000FF3201F067FE0446024658480D460B4686
:103DE00006217844FFF783FE22462B4600F0D0FEE2
:103DF000804653488A4622462B4604217844FFF7E2
:103E000076FE22462B4600F0C3FE0022334600F029
:103E1000F5FB06468B462046294600F055FB044636
:103E20000D4632465B464046514600F0A3FC224612
:103E30002B4600F0ADFE3F4A3F4B01F0CFF8224643
:103E40002B4600F0DBFB012201F02CFE02B03B46CA
:103E5000BDE8F04D314A00F0CFBF2D4B284621463A
:103E600000F0CAFF4FF0FF3201F01CFE05460E467F
:103E700000F02AFB00270C4680463A460B4600F02D
:103E8000BDFB82468B463A4623461046194600F053
:103E90007FFE2A46334600F0AFFF52465B4600F0F5
:103EA00069FC824627488B462A46334606217844D9
:103EB000FFF71DFE2A46334600F06AFECDE90001F9
:103EC00021482A46334604217844FFF710FE2A464B
:103ED000334600F05DFE00220D4B00F08FFB0246E2
:103EE0000B46DDE9000100F045FC4246234600F0A8
:103EF0004FFE52465B4600F081FB3A46234600F0F7
:103F00007DFB02B00122BDE8F04D01F0CBBD000009
:103F10000000F03FFB2109400000F07F182D4454C1
:103F20000000E03F0000603CFB21F93F2C1E000038
:103F3000421E0000075C143326A6913CA21D00001F
:103F4000B81D0000D61C0000EC1C00002DE9F0415B
:103F500004464FF01A4000EB4400B0F1C85F204621
:103F600055D84FF0FC41B1EB440F1CD224F0004077
:103F70004FF07E5101F056FC4FF0FF3101F0C0FDD3
:103F8000054600F0C7FA14F0004F1DBF2C4F2D4E10
:103F900080F00040002708BF3E464FF0404101F04E
:103FA00075FB044605E0284F284E014601F06EFBE4
:103FB00005462749284601F069FB264901F028F902
:103FC000294601F063FB244901F022F9294601F05A
:103FD0005DFB224901F01CF9294601F057FB2049FD
:103FE00001F016F980462946204601F04FFB414674
:103FF00001F04CFB05463146204601F013FC2946F2
:1040000001F0A2FC3946BDE8F04101F001B94FF0E2
:10401000CC41B1EB440F84BF1248BDE8F0814FF0B2
:104020007F41B1EB440F03D2BDE8F041FFF7CCBDB7
:104030000120FCF7E8F9BDE8F041FFF7C8BD00003A
:104040000000494022AA7D3A0000C93F22AAFD395A
:1040500024FE1C3DC78AD83C1E67383D1B93993D02
:10406000AFAA2A3EDB0FC93F2DE9F04D8D4F21F05D
:10407000004A86B005460C46BA452ADBAAEB070083
:1040800028430AD08848824501DC1AD1CDB106B058
:104090002846BDE8F04DFFF77FBD844A844B284693
:1040A00000F076FD07460E46824A834B284621469D
:1040B00000F06EFD06B03A463346BDE8F04D00F024
:1040C0009DBA0120FCF79FF906B0BDE8F04DFFF75F
:1040D00066BD7A48824542DABAF1795F0BDA284642
:1040E000FFF7DEFC042808BFFFF766FD284606B090
:1040F0002146BDE8F08D2A460B46104600F048FDEB
:10410000834602466E480E460B4606217844FFF76A
:10411000EEFC5A46334600F03BFD804669488A462D
:104120005A46334604217844FFF7E1FC5A463346A9
:1041300000F02EFD00223B4600F060FA02460B46DE
:104140004046514600F016FB2A46234600F020FD6B
:1041500006B02A462346BDE8F04D00F04FBA284687
:1041600024F0004100223D463B4600F045FE4FF062
:10417000FF3201F097FC0646024653480F460B46B5
:1041800006217844FFF7B3FC32463B4600F000FDC1
:10419000CDE900014D4832463B4604217844FFF703
:1041A000A6FC32463B4600F0F3FC00222B4600F012
:1041B00025FA834602913046394600F085F980465B
:1041C00043480D46504517DCDDE900015A46029B85
:1041D00000F0D0FA42462B4600F0DAFC42462B466D
:1041E00000F00CFA012201F05DFC304A304B00F087
:1041F000F5FE304A304B4CE04FF0000A52460B4679
:10420000404600F0FBF9CDE9031052462B4610461C
:10421000194600F0BDFC32463B4600F0EDFDDDE9FD
:10422000033200F0A7FA06460F46DDE900015A46C0
:10423000029B00F09FFA83460091012230463946E6
:1042400001F030FC194A1A4B00F0D6FD06460F4625
:1042500001224046294601F025FC5A46009B00F009
:1042600097FC32463B4600F0B9FE06460F46012257
:104270005046294601F016FC0E4DDFF858802A46BC
:10428000434600F0B9FD32463B4600F0B5FD2A46F4
:10429000434600F0B1FD002CD8BF81F0004106B0CC
:1042A000BDE8F08D0000F03F0000F07F075C1433A4
:1042B00026A6913C182D4454FB21F93F0000E03F15
:1042C000C81A0000DE1A0000521A0000681A000026
:1042D0003333EF3FFB21E93F2DE9F04104464FF036
:1042E0000E4000EB4400B0F1506F204655D84FF01F
:1042F000FC41B1EB440F1CD224F000404FF07E5142
:1043000001F090FA4FF0FF3101F0FAFB054600F0A2
:1043100001F914F0004F1DBF2F4F304E80F00040C8
:104320002F4F08BF2F4E4FF0404101F0AFF9044628
:1043300005E000273E46014601F0A8F905462A4956
:10434000284601F0A3F9294900F062FF294601F04F
:104350009DF9274900F05CFF294601F097F92549AE
:1043600000F056FF294601F091F9234900F050FF73
:1043700080462946204601F089F9414601F086F938
:1043800005463146204600F043FF294600F040FF35
:104390003946BDE8F04100F03BBF4FF0E441B1EBDE
:1043A000440F08D9FFF790FB042808BFFFF713FC60
:1043B0002046BDE8F0814FF07F41B1EB440F03D2BE
:1043C000BDE8F041FFF700BC0120FCF71CF8BDE898
:1043D000F041FFF7FCBB00000000C9BF22AAFDB9F5
:1043E0000000C93F22AAFD3924FE1C3DC78AD83CE3
:1043F0001E67383D1B93993DAFAA2A3E10B514465F
:1044000000222260114A21F000439342A8BF10BD50
:1044100053EA000208BF10BDB3F5801FA8BF226891
:1044200007DA362201F03EFB6FF0350221F000433F
:104430002260DFF81CC06FF31E510CEB23531A44AB
:1044400041F0FF5141F00051226010BD0000F07FAB
:1044500002FCFFFF2DE9F04106460C4640F2FF75D5
:10446000174635EA14502BD000221346304600F090
:10447000DBFA25D03A463046214601F013FB0646CA
:104480000C4635EA145010D000221346304600F096
:10449000CBFA15D10220FBF7B6FFFFF78DFB0A46DA
:1044A000214662F31E01BDE8F0810220FBF7ABFF5D
:1044B000FFF77BFB0A46214662F31E01BDE8F0814F
:1044C00030462146BDE8F0812DE9F04106460F4611
:1044D00000F09EFC041E0D4618BF0120284320F06A
:1044E0000040C0F17F6000F1E040C00F0ED0301CF2
:1044F00018BF0120384320F00040C0F17F6000F178
:10450000E040C00F04BF0120FBF77DFF2046294695
:10451000BDE8F08170B5054601F08EF9044620F043
:104520000040C0F1FF40C00F08D025F00040C0F1AE
:10453000FF40C00F04BF0120FBF765FF204670BDA0
:1045400010B500290AD00878002807D0054878441B
:10455000FEF704FA002801D0002010BD024878447C
:1045600010BD0000061B0000FE1A000010B5002957
:104570000AD00878002807D005487844FEF7EEF9FD
:10458000002801D0002010BD0248784410BD000072
:10459000F61A0000EE1A000021F0004201F000437C
:1045A000A2F16052B2F5801F28BFD2F17F6C0BD907
:1045B0005FEA001C43EAC20242EB507018BF70472A
:1045C00028BF20F001007047B2F5801FBCBF18461D
:1045D00070474FEA410C1CF5001F02D2084601F05B
:1045E0001CB970B500F07EFB00000089FFF7F6BF34
:1045F0004FF00040A0F580007047000010B591EA30
:10460000030F48BF83F0004300F1F084841A71EB7C
:10461000030C05D2121943EB0C03001B61EB0C01D8
:104620004FEA1154A4EB135CDFF81CE11EEA430FC0
:1046300018BF9EEA445F00F0748021EA045123EA27
:104640000E0343F48013DCF1200E32D322FA0CFE69
:1046500010EB0E0023FA0CFE41EB0E01CCF1200E04
:1046600003FA0EFE10EB0E00CCF1200E51F100010A
:10467000B1F5801F32D201EB045112FA0EF2BDE8FF
:10468000104058BF7047401C38BF5FEA420218BF55
:104690007047002814BF20F0010041F100014FEAEB
:1046A000410313F5001F38BF7047A1F1C04100F06E
:1046B00067BB012A43EB0302ACF1200CDCF11F0EB7
:1046C00032BF4FF0000E23FA0CF310EB030041EB66
:1046D0000451B4EB115FD0D0A1EB045101F580116E
:1046E000490801EB04515FEA30000ED350F100009D
:1046F00038BF12FA0EFE08D1BDE81040C9E7401CD1
:1047000038BF5FEA4202CAD1C3E7BDE810404FEAB2
:10471000410313F5001F38BF7047A1F1C04100F0FD
:104720002FBB9EEA445F08D011EA5E0FBDE810403F
:1047300004BF01F0004100207047BDE8104070B593
:1047400000F0D0FA64FBBE3E0000E0FF02494FF0EB
:10475000000001F075B900BF0000F87F491058BF94
:10476000C1F140415B1058BFC3F140438B42EFF3AE
:10477000008070472DE9C04130B4DFF8A4C23CEAA4
:10478000111418BF3CEA131400F0ED801CEA111458
:1047900081EA030544EAD57418BF1CEA131500F03A
:1047A000C880A4EB050404F17F7404F500344FF0D5
:1047B000004545EAC12145EAC32341EA505143EA95
:1047C00052534FEAC0204FEAC222994208BF90429A
:1047D00000F09D804FEA13650FF24416765D4FEAB4
:1047E000134506FB05F7C7F1807706FB07F74FEA8D
:1047F000D737A7FB03687642A7FB06CEC8F58038FB
:1048000038BFA8F1010807FB08E6A6FB028C4FF0B1
:10481000000EE6FB03CEDCF1000CCEF1004E38BFFB
:10482000AEF1010EA6FB0C584FF00007E6FB0E8719
:10483000A1FB08C6A0FB07CE16EB0E064FF0000545
:1048400045F10005E1FB076515F1E04E7EBFA4F5DB
:1048500080345FEA46066D4116F1800745F1000598
:104860004FEA172747EA05674FEA15254FEA06661C
:10487000A6F1DE46B6F1805F20D9384605EBC4715B
:1048800024F0010C01EB0C11BCF1FE6F02D8F0BC5E
:10489000BDE8008124425CBF01F5801E9EEAC47F12
:1048A00002D4F0BCBDE80081244200F13980A1F1BE
:1048B000C041F0BCBDE8004100F062BA4FEAD02030
:1048C00040EA41504FEAD1214FEAD22242EA435214
:1048D0004FEAD323A7FB028607FB036605FB0266AC
:1048E0001EEA0E0F58BFA6EB0056B6EB00564FEA75
:1048F000520E4EEAC37E18EB0E0E56EB530EBCD58D
:1049000018EB02085E417F1C55F10005B5E74FF436
:1049100080154FF000074FF000064FF00008ACE79D
:1049200001F1C04101F000414FF00000F0BCBDE8D2
:1049300000810CEA131511EA0C1F00D00CE013EAF9
:104940000C1F00F026804FF0000081EA030101F007
:104950000041F0BCBDE80081F0BCBDE8004181EA47
:10496000030100F00DBAF0BCBDE8004170B500F0E5
:10497000B9F900BF097EFC3E00F007B84FF0000017
:1049800081EA030101F00041704781EA030100F070
:10499000F7B9F0BCBDE8004122494FF00000704774
:1049A000FFFDFBF9F7F5F4F2F0EEEDEBE9E8E6E4F4
:1049B000E3E1E0DEDDDBDAD8D7D5D4D3D1D0CFCD7B
:1049C000CCCBCAC8C7C6C5C4C2C1C0BFBEBDBCBBB4
:1049D000BAB9B8B7B6B5B4B3B2B1B0AFAEADACABAF
:1049E000AAA9A8A8A7A6A5A4A3A3A2A1A09F9F9E89
:1049F0009D9C9C9B9A99999897979695959493933B
:104A0000929191908F8F8E8E8D8C8C8B8B8A8989D1
:104A10008888878786858584848383828281818054
:104A20000000FF070000F87F51EA030C17D41CF5C3
:104A3000801F58BFBCF5801F00F10680994218BF47
:104A4000704708BF9042704707D711F5801F58BFC5
:104A500013F5801F19D499427047894270471CF59D
:104A6000801F08D5BCF5801FF7D58B4218BF704753
:104A700008BF824270474FF4001C1CEB410F38BF47
:104A80001CEB430F01D28B42704770B500F02AF93E
:104A9000922449004FF000514FF08053FFF75EBE63
:104AA00051EA030C17D41CF5801F58BFBCF5801FBA
:104AB00000F10680994218BF704708BF90427047C6
:104AC00007D711F5801F58BF13F5801F19D49942DD
:104AD0007047894270471CF5801F08D5BCF5801FC0
:104AE000F7D58B4218BF704708BF824270474FF41A
:104AF000001C1CEB410F38BF1CEB430F01D28B4253
:104B0000704770B500F0EEF8922449004FF08051E4
:104B10004FF00053FFF722BE51EA030C17D41CF5E7
:104B2000801F58BFBCF5801F00F10680994218BF56
:104B3000704708BF9042704707D711F5801F58BFD4
:104B400013F5801F19D499427047894270471CF5AC
:104B5000801F08D5BCF5801FF7D58B4218BF704762
:104B600008BF824270474FF4001C1CEB410F38BF56
:104B70001CEB430F01D28B42704770B500F0B2F8C6
:104B8000922449004FF000514FF08053FFF7E6BDEB
:104B900070B5DFF848C11CEA111E1EBF1CEA1315D0
:104BA0009EEA0C0F95EA0C0F00F06F8081EA030477
:104BB0004EEAD47EAE4421EA4C1123EA4C1341F470
:104BC000801143F48013AEF17F7EA1FB024CA0FB69
:104BD0000365361955EB0C05A1FB034C4CF10003A2
:104BE000A0FB021C16EB0C06654153F100030942C1
:104BF00018BF46F0010613F4007F0BD14FEA0331D2
:104C00004FEA053041EA155140EA165034036FF07F
:104C100003020AE04FEAC3214FEAC52041EA555199
:104C200040EA5650F4026FF0020202EB2E4201EB12
:104C3000025585EACE710AD05FEA440C18BF24F011
:104C4000004450F1000041F1000120EAD47040F22C
:104C5000FE7C624500D270BDA84214BF4FF0804474
:104C60004FF04044002E08BF0024BEF1806FA8BF63
:104C7000A1F1C041BDE8704080F2828001F1C041E5
:104C800001F000414FF0000070470CEA13159EEA56
:104C90000C0F18BF95EA0C0F06D081EA030E4FF0F7
:104CA00000000EF0004170BD00F01CF88900013ECC
:104CB00000F007B800F009B84FEA430C5FEA5C5C0B
:104CC00008D081EA030100F05BB84FEA410C5FEACB
:104CD0005C5CF6D102494FF0000070470000FF070E
:104CE0000000F87F0EF1020E2EF0030E5EF8046B4A
:104CF000364205D4012A43EB030515F5001F12D8EF
:104D0000012841EB010C1CF5001F0CD80ED14FEA15
:104D1000D17C0CEB4C0C0CF1020C15F5001F08BFFC
:104D20004CEBD37C04E04FF0080C01E04FEAD37C5D
:104D30000CEB4C0526FA05F606F00706B6F1040C56
:104D400006D20EEB860CBDE870404CF0010C6047BB
:104D5000DFE80CF0090B02024FF00041A1F5002141
:104D60004FF0000070BD19461046012851EB0104B8
:104D700018BFD4F5001484BF002001F0004170BDBD
:104D80000808A0F500114FEA3101704753EA010C01
:104D900017D41CF5801F58BFBCF5801F00F106809A
:104DA0008B4218BF704708BF8242704707D713F580
:104DB000801F58BF11F5801F19D48B4270479B424A
:104DC00070471CF5801F08D5BCF5801FF7D59942A8
:104DD00018BF704708BF904270474FF4001C1CEB8F
:104DE000430F38BF1CEB410F01D2994270470FB4FB
:104DF0000CBC03BCFFF7C1BE10B591EA030F81F0F4
:104E000000413FF503AC83F0004300F0EFB8000031
:104E10002DE9F04101F5801CBCF5001FC0F2C380F4
:104E20004FEA115C21EA0C5141F480110CF1FD0CA8
:104E30005FEA5C0C0CF5C07C01D34000494189025B
:104E400041EA905187023BA48E0EA45D0A0C04FB3C
:104E500004F602FB06F6C6F14046A4FB0662F60D18
:104E600046EA422606FB06F4A4FB01235242C3F1A4
:104E7000404338BF5B1EA6FB02420024E6FB03242E
:104E8000D20B42EA4446A6FB0623A1FB02E2A3FBA7
:104E900007E4A4184FF0000252F10002E3FB0142C4
:104EA0006442C2F1404E38BFAEF1010EA6FB0423AE
:104EB0004FF00002E6FB0E32A2FB0346B6194FF09C
:104EC000000454F10004E2FB0264A1FB06E6A4FB2B
:104ED00007E816EB08064FF0000858F10008E4FB5D
:104EE00001687642C8F1405838BFA8F10108A2FB1A
:104EF00006E4A3FB08E52D194FF0000454F100046B
:104F0000E2FB0854A1FB05E6A7FB04E818EB060842
:104F10004FF0000656F10006E1FB048618F120056B
:104F200056F10006A80940EA8660B109A8F11B08FD
:104F300008F03F08B8F10A0F1CD901EB0C51BDE88D
:104F4000F08100BFFCF5EEE8E2DDD8D3CFCBC7C3DC
:104F5000C0BDB9B6B4B1AEACA9A7A5A3A19F9D9B96
:104F60009A9896959392908F8D8C8B898887868559
:104F700084838281A0FB006800FB01F208EB4208F9
:104F8000B8EB872807D5341858EB0104D5D5401C59
:104F900051F10001D1E7341A78EB0104CDD4401E61
:104FA00071F10001C9E75FEA4C0C5FEA9C5C0DD12E
:104FB00005D301F000414FF00000BDE8F081BDE8ED
:104FC000F04170B5FFF78EFE6DDBFFBEBDE8F0412E
:104FD00001494FF0000070470000F87F10B591EADA
:104FE000030F48BF83F000433FF510AB841A71EB09
:104FF000030C07D28CF0004C121943EB0C03001B7E
:1050000061EB0C014FEA1154A4EB135CDFF8A4E14F
:105010001EEA430F18BF9EEA445F00F0B48021EA05
:10502000045123EA6E035242C3EB6E0338BF5B1E8A
:10503000DCF1200E25D322FA0CFE10EB0E0043FA11
:105040000CFE41EB0E01CCF1200E03FA0EFE10EB2C
:105050000E00CCF1200E51F1000129D401EB0451D6
:1050600012FA0EF2BDE8104058BF7047401C1CBF3A
:10507000B2F1004F704700280CBF491C20F001001E
:10508000704712EB020E43EB030218BF4FF0010E04
:105090004EEA4202ACF1200CDCF11E0E56D943FA66
:1050A0000CFE10EB0E00CCF11E0E51F1FF31D5D5E8
:1050B0000EF1010E12FA0EFE404141EB010101EB2F
:1050C000445C5FEA5C5C10D901EB045110EBDE70CC
:1050D00038BFBEF1004FBDE8104018BF7047002830
:1050E0000CBF491C20F00100704734D24FEAD42C89
:1050F00024F4006411F500111BD0B1FA81F20B3ACF
:10510000A41AA41ED2F12003914030FA03F31943EC
:10511000904001EBCC7101EB0451002CBDE8104034
:10512000A8BF704701F1C04101F000414FF00000FD
:105130007047B0FA80F310FA03F102D1BDE81040D5
:105140007047E41A173C4805C90AE2E701EB04512D
:10515000BDE81040704749104FEA300001EB0451A0
:10516000BDE8104002E04FF0000170474A0008BF60
:105170000042F8D0B2F5001F28BF704701F000418F
:105180004FF0000070479EEA445F07D011EA5E0FBF
:10519000BDE8104004BF002100207047BDE810406A
:1051A00070B5FFF79FFD00BF40DFF63E104683F06D
:1051B000004170470000E0FF43004FEAD30C4FEA84
:1051C0003C0C43401FBF40070CF1605113F0FE4FF1
:1051D00070471CF0006F03D10CF0004100207047B5
:1051E0000CF0004343EA507040EACC0010B500F0E8
:1051F000CEFA00BF000000924FEA0001FFF7C0BDE9
:105200004FF00041A1F500214FF000007047000071
:1052100090EA010F48BF81F0004100F19C83421ADF
:105220003CBF801A89184FEAD052A2EBD1534FF0FD
:105230007F4C1CEA410F18BF9CEA026F00F03B80D4
:105240004FF0004C4CEA00204CEA012121FA03FC0B
:1052500010EB0C0C1ED202F1FF325FEA1C2040EB77
:10526000C25038BF70471CF07F0F4FEA400C18BF88
:10527000BCF17F4F38BF7047C3F12003994008BF8E
:1052800020F00100BCF17F4F38BF7047A0F1C04053
:1052900000F0C3BA4FEA3C00000A40EBC25028BFFE
:1052A0001CF0FF0F4FEA400CE6D018BFBCF17F4F57
:1052B00038BF7047EAE79CEA026F05D010EA5C0F3E
:1052C00008BF00F00040704710B500F060FA00BF62
:1052D00064FBBE3E014800F0B3BB00BF0000C07FCE
:1052E00010B5FFF7A1FB0CBF0120002010BD10B5C9
:1052F000FFF79AFB14BF0120002010BD10B5FFF787
:10530000CFFB8CBF0120002010BD10B5FFF7C8FBFC
:105310002CBF0120002010BD10B5FFF7FDFB94BF8E
:105320000120002010BD10B5FFF7F6FB34BF0120AF
:10533000002010BD10B500F0F5F80CBF01200020D2
:1053400010BD10B500F0EEF814BF0120002010BD14
:1053500010B500F033F98CBF0120002010BD10B54E
:1053600000F02CF92CBF0120002010BD10B500F07A
:1053700059F994BF0120002010BD10B500F052F97A
:1053800034BF0120002010BD401058BFC0F1404084
:10539000491058BFC1F140418142EFF3008070478E
:1053A0004FF47F0C1CEAD0121EBF1CEAD11392EA04
:1053B0000C0F93EA0C0F00F0858090EA010F48BFB4
:1053C00042F4807240F4000C41F400002CF07F4164
:1053D00020F07F4000B5A2EB030281420FF2081CCF
:1053E000ACEB504E9EF800E0C0F100004FEA4E0ECC
:1053F00000FB0EFC38BF49004FEA2C1C0CFB0EF3DF
:105400004FEACE1E0EEB635E4FEA112C0EFB0CFC36
:105410004FEAC1214FEA1C5300FB031102F5FA02C7
:105420004FEA112C0EFB0CFC4FEA01314FEADC4C29
:1054300000FB0C1142EB2242C14228BF09184CEB81
:1054400003335DF804EB10EB410143EBC250B2F5BE
:105450007C0F38BF704729D512F0F00F1CBF00F148
:10546000C04000F0004070470081828384858687B9
:1054700088898B8C8D8E8F919293959697999A9C13
:105480009D9FA0A2A3A5A7A8AAACAEB0B2B3B5B782
:10549000B9BCBEC0C2C5C7C9CCCED1D4D7D9DCDF58
:1054A000E2E6E9ECF0F3F7FAFE0000004FEA400C08
:1054B0000CF1807CBCF17E4F28BF7047B0F1C0403A
:1054C00000F0ABB90CEAD11390EA010F48BF42F4E7
:1054D0008072624538BF634507D213F47F0F16D040
:1054E00080EA010000F00040704710B500F04FF96D
:1054F000097EFC3E00F005B880EA010000F00040A3
:10550000704780EA010000F0004000F086B912F414
:105510007F0F04BF0248704780EA010000F07DB9A8
:105520000000C07F50EA010C00F113801CF5000F51
:1055300058BFBCF5000F01D48842704707D710F55B
:10554000000F58BF11F5000F15D4884270478942EB
:1055500070471CF5000F04D5BCF5000FF7D581424C
:1055600070474FF0807C1CEB400F38BF1CEB410FA5
:1055700001D28142704710B500F009F99224490028
:105580004FF000504FF08051FFF7FEBE10F0004189
:1055900048BF4042B0FA80F310FA03F2C3F19D0312
:1055A0000BD051EAC35101EB1220530638BF7047AC
:1055B00000F1010008BF20F00100704750EA010C23
:1055C00000F113801CF5000F58BFBCF5000F01D48B
:1055D0008842704707D710F5000F58BF11F5000F2C
:1055E00015D488427047894270471CF5000F04D5D6
:1055F000BCF5000FF7D5814270474FF0807C1CEB63
:10560000400F38BF1CEB410F01D28142704710B5EB
:1056100000F0BDF8922449004FF080504FF0005147
:10562000FFF7B2BE50EA010C00F113801CF5000F29
:1056300058BFBCF5000F01D48842704707D710F55A
:10564000000F58BF11F5000F15D4884270478942EA
:1056500070471CF5000F04D5BCF5000FF7D581424B
:1056600070474FF0807C1CEB400F38BF1CEB410FA4
:1056700001D28142704710B500F089F892244900A8
:105680004FF000504FF08051FFF77EBE4FF47F0C7B
:105690001CEAD0121EBF1CEAD11392EA0C0F93EA47
:1056A0000C0F00F0478090EA010F48BF42F480726F
:1056B0004FF0004C4CEA00204CEA012102EB0302BF
:1056C000A0FB0113A2F50002002918BF43F001035B
:1056D0005B0028BF4FEA330342EB22425FEA132C00
:1056E0004CEBC2502EBFBCEB436FB2F57C0F704742
:1056F0004FEA036CBCF1004F08BF20F00100B2F587
:105700007C0F38BF70470BD582F0FF0212F5803F47
:10571000C8BF704700F1C040D8BF00F000407047DC
:1057200000F5000C5FEA4C0C48BF7047B0F1C04078
:1057300000F073B80CEAD11390EA010F48BF42F4AD
:105740008072624538BF634504D280EA010000F0F0
:105750000040704710B500F01AF800BF8900013E04
:1057600000F007B800F009B85FEA410C5FEA1C6C72
:1057700008D080EA010000F050B85FEA400C5FEA10
:105780001C6CF6D14FF00040A0F5800070470EF180
:10579000020E2EF0030E5EF8044B244204D44FEAAE
:1057A0004102B2F17F4F11D84FEA4003B3F17F4F6E
:1057B0000CD80ED14FEAD07C0CEB4C0C0CF1020C47
:1057C000B2F17F4F08BF4CEBD17C04E04FF0080CE6
:1057D00001E04FEAD17C0CEB4C0324FA03F404F013
:1057E0000704B4F1040C06D20EEB840CBDE81040A3
:1057F0004CF0010C6047DFE80CF0070802024FF0A4
:105800000040A0F5800010BD0846420018BFD2F14C
:10581000807288BF00F0004010BDFF2141EAD050E7
:10582000C005704780F0004090EA010F7FF5F7ACAB
:1058300081F0004100F08FB84FEAD051002988BFB5
:10584000D1F1FF0240F275804FEA002040F00040A5
:1058500070B501F17D01490838BF40080EA2430E22
:10586000D25C040C02FB02F304FB03F3C3F14043DC
:10587000A3FB0254ED0D45EA442202FB02F3A0FB18
:1058800003546D42C4F1404438BF641EA2FB053589
:105890000023E2FB0453EA0B42EA4342A0FB02323C
:1058A00012F14004E409A2F1210303F07F031F2B4E
:1058B00032D904EBC15070BDFEFAF7F3F0ECE9E623
:1058C000E4E1DEDCD9D7D4D2D0CECCCAC8C6C4C2BB
:1058D000C1BFBDBCBAB9B7B6B4B3B2B0AFAEACAB72
:1058E000AAA9A8A7A6A4A3A2A1A09F9E9E9D9C9B97
:1058F0009A999897979695949393929190908F8E6A
:105900008E8D8C8C8B8A8A89898887878686858408
:10591000848383828281818004FB04F6B6EB004697
:1059200003D5E64248BF641CC3E7A64258BF641CC7
:10593000BFE711F0FF0F02D100F00040704710B533
:10594000FFF725FF7FDBFFBE90EA010F48BF81F024
:1059500000413FF564AC421A04D882F00042A0EB4B
:10596000020011444FEAD052A2EBD1534FF07F4CCA
:105970001CEA410F18BF9CEA026F4AD04FF0004C5E
:105980004CEA00204CEA012121FA03FCB0EB0C0C9C
:105990000FD412F0FE0F36D05FEA4C001DD5001276
:1059A00040EBC25038BF70471CF03F0F18BF704724
:1059B0000BE05FEA1C20A2F1010240EBC25038BFAD
:1059C00070471CF07F0F18BF7047C3F12003994048
:1059D00014BF401E20F0010070474FEA12238008D8
:1059E00008BF7047B0FA80FCA2EB0C02CCF1280C87
:1059F00060FA0CF093EA122F04BF00EBC25070471C
:105A00004FEAC3707047130A5FEADC1008BF7047A3
:105A1000F6E79CEA026F04D010EA5C0F08BF002092
:105A2000704710B5FFF7B3FE40DFF63E81F000404F
:105A300070474FF000007047FBF7A7BCFBF7DCBDD9
:105A40000CF00F03092B08BF082000F085800A2BFB
:105A50000BD0082B18BF704708BF1CF0400F0AD0AE
:105A60004FF000004FF0000170471CF0400F18BFCE
:105A70004FF0004070471CF0100F08D000F07F423C
:105A800020F0704342EAD3014FEA4370704700F0C0
:105A9000604021F07F4242EA000201F07F4040EA8C
:105AA000727070474FF0FF0C4CF4E06C1CEA11531D
:105AB0001CBF9CEA030C9445C2BFDA4201EB0251C1
:105AC0007047002B0DD0BCF1000F0FD001F000414A
:105AD000002AA4BF41F0E04141F07F614FF0000097
