:020000040800F2
:10000000C8080020DD010008190200081B020008D2
:100010001D0200081F020008210200080000000065
:1000200000000000000000000000000023020008A3
:10003000250200080000000027020008290200082D
:100040002B0200082B0200082B0200082B020008DC
:100050002B0200082B0200082B0200082B020008CC
:100060002B0200082B0200082B0200082B020008BC
:100070002B0200082B0200082B0200082B020008AC
:100080002B0200082B0200082B0200082B0200089C
:100090002B0200082B0200082B0200082B0200088C
:1000A0002B0200082B0200082B0200082B0200087C
:1000B0002B0200082B0200082B0200082B0200086C
:1000C0002B0200082B0200082B0200082B0200085C
:1000D0002B0200082B0200082B0200082B0200084C
:1000E0002B0200082B0200082B02000800F002F887
:1000F00000F064F814A696E8000CB244B344DA4564
:1001000001D100F05BF8BAE80F000FA696E83000C6
:10011000A5EB040504EB0607AAEB0704A7F101070A
:100120004FEA15154FEA3414A4F10104AC4201D38F
:1001300000F044F813F0010F18BFFB1A43F001035D
:1001400000F001F8DBE718471065000020650000AB
:10015000704700000023002400250026103A28BF25
:1001600078C1FBD8520728BF30C148BF0B60704729
:10017000662905F05185642900F0F880752900F0A2
:10018000F580782900F02E81632900F031847329ED
:1001900000F03684002070471FB500F0A9F9040074
:1001A0000020002104F002FE401C606000200021BD
:1001B00004F012FEE0601FBD10B510BD00F0B0FDF0
:1001C0001146FFF7E9FF00F087FE00F0CEFD03B413
:1001D000FFF7F2FF03BC00F02FFE00004FF000001D
:1001E0004FF000014FF000024FF000034FF0000409
:1001F0004FF000054FF000064FF000074FF00008E9
:100200004FF000094FF0000A4FF0000B4FF0000CC8
:100210000948804709480047FEE7FEE7FEE7FEE79A
:10022000FEE7FEE7FEE7FEE7FEE7FEE704480549D6
:10023000034A054B70470000ED0D0008ED00000873
:10024000C8000020C8080020C80000207047000037
:1002500010B500F04DF9001D10BD00BF514B00005E
:1002600010B50446FFF7F4FF0068005DC00602D534
:1002700004F1200010BD204610BD10B50446FFF764
:10028000E7FF0068005D000704D5DF2C02D0A4F171
:10029000200010BD204610BD0FB4044910B503AABC
:1002A000029800F0B1FB10BC5DF814FB6000002068
:1002B0002DE9F0410E460446002020622046E16808
:1002C000884730B3252805D0D4E901219047206A1A
:1002D000401CF2E7E168204600278847050018D057
:1002E000A5F14100192802D820354FF400673246A5
:1002F000294620462760FFF73BFF40B1012804D084
:10030000F61D26F007060836D8E7361DD6E728463C
:10031000DAE7206ABDE8F08170B50C460546012A8F
:1003200005D02878800600D5EA69002302E0012381
:1003300005E05B1C934202D2E05C0028F9D1A86979
:10034000E618C01AA861286A184428622846AFF344
:10035000008004E0D5E9012114F8010B9047B44274
:10036000F8D32846AFF3008070BD00002DE9F041BE
:100370000646002410687529314616A510D0AFF343
:100380000080002802DA404213A507E031688A079E
:1003900001D512A502E0490704D511A5012401E009
:1003A000AFF3008000210A2206F1240709E0B0FB28
:1003B000F2FCB0FBF2F302FB1C003030785418461C
:1003C000491C0028F3D123462A463046BDE8F041B7
:1003D00000F09DB8000000002D0000002B00000080
:1003E0002000000070B504460D4621461068AFF3AA
:1003F00000802188090502D50F4A7A4402E00E4A9E
:100400007A440E32002104F1240305E000F00F06C7
:100410000009965D5E54491C0028F7D1207800231E
:10042000000704D5702D02D009B1022311322046F5
:10043000BDE8704000F06BB80E59000010B50446DE
:1004400003E000F019FD401C09D014F8010B054928
:100450000028F6D1BDE810400A2000F00DBD4FF095
:10046000FF3010BD600000200EB5054614460E4654
:1004700013A000F0E6FA284600F0E3FA16A000F018
:10048000E0FA304600F0DDFA15A000F0DAFA0021BB
:100490008DF80B100A210DF10A008DF80A1008E002
:1004A00094FBF1F201FB124294FBF1F4303200F8BC
:1004B000012D002CF4DC00F0C4FA00F0B7FA0000C3
:1004C0002A2A2A20617373657274696F6E206661CF
:1004D000696C65643A2000002C2066696C65200018
:1004E0002C206C696E65200070477047704770471C
:1004F000004870472000002010B500F0B1FA0068F5
:1005000010BD10B5044600F0ABFA046010BD2DE933
:10051000F0470D4699469246044600F124080168CA
:10052000880604D5E06921F01001216000E0012077
:10053000A84201DD471B00E00027A1697A1902EB00
:100540000900081AA0612078C00602D42046AFF343
:100550000080002608E0D4E901211AF8060090473F
:10056000206A401C761C20624E45F4DB2078C006D1
:100570000AD52046AFF3008006E0D4E901213020FF
:100580009047206A401C2062381EA7F10107F4DC66
:1005900007E0D4E9012118F805009047206A401CC3
:1005A0002062281EA5F10105F3DC2046AFF3008090
:1005B0002078000602D50220BDE8F0870120FBE785
:1005C0002DE9FF4F0C461E464FF0FF378BB0D2E9A6
:1005D0000001DDF860800A908A46C1F30A5505B92A
:1005E0003D46002108464FF00000BAF1000F00F42C
:1005F000400005DA00EB80004FF4400101EA5000B2
:100600004FEA9059B9F1010F00DDB9460A9850EA56
:100610004A000ED044F61050A5F2FF3545432F1482
:10062000B8F1000F1ED07542291E1EDDC9F100026F
:100630001CE0B8F1010F4FF0000001D0302103E0C1
:10064000F24305E02154401CB042FBDB304600225F
:10065000002121540B99C1F80880C1E900200FB096
:10066000BDE8F08FBD1B6D1CDEE74A4600DA69422B
:1006700006A800F097FA06AB93E8070003AB83E8FF
:10068000070050460A9901F0BFF88DE80700A0F571
:1006900000501F3800900398002D0ADD42F21F0120
:1006A0004A460844002303A90390684601F028FB4A
:1006B00009E0A0F500504A461F38002303A9039023
:1006C000684601F032FB8DE807000004000C03D0FF
:1006D0004FF0FF30410800E01046B8F1000F03D0A2
:1006E0000022009215461EE0751E05D400F0BCF9EC
:1006F000303262556D1EF9D5B3460122084302D04F
:1007000000227F1C04E02078302801D100227F1EC7
:10071000002A099784D01DE0112D07DA00F0A4F912
:10072000303262556D1C50EA0102F5D1084302D007
:100730000098C8B10EE00021681E05E0235C625CF1
:1007400063542254401E491C8142F7DBAB46A81B70
:10075000401E0990002004F80B000B98099AC0F87D
:100760000880C0E9002B7AE711264FF0000857E710
:100770002DE9F04F88460446D21D22F0070191B0C2
:10078000D1E90001CDE90A0101F006FC02460B980F
:10079000C00F01D02D2007E02068810701D52B2054
:1007A00002E0202101EAC000032A099001D0072AB3
:1007B00005DB03464146204600F0B4F90BE1207802
:1007C000800601D5E06900E00620B8F1650F81469A
:1007D00006D0B8F1660F18D0B8F1670F70D131E0CC
:1007E0000020B9F1110F009001DB112301E009F1A4
:1007F00001030AAA01A90CA8FFF7E2FEDDE90C70CB
:10080000002609F10105834647E001204B46009090
:100810004FF000470AAA01A90CA8FFF7D1FEDDE9B5
:100820000DB00C995D46002610B909F101000D18B4
:10083000B9EB050003D4C0F1FF3609F10105A5EBC2
:1008400009002BE0B9F1010F01DA4FF00109002096
:10085000B9F1110F0090484601DD112300E0034675
:100860000AAA01A90CA8FFF7ABFEDDE90C704D4602
:1008700000268346207800070AD4AB4500DA5D469F
:1008800001A8012D04DD411911F8011C302907D000
:100890004F4502DA17F1040F04DA012082460FE017
:1008A0006D1EEEE7002F02DCED1B3E4403E0781CDA
:1008B000A84200DD7D1CB81B00F1010A4FF0004783
:1008C0002078000703D4AA4501DB4FF0FF3A00214E
:1008D000B7F1004F0DF143088DF8431024D00220EA
:1008E0002B23002F01DA7F422D230A21021EA0F1C3
:1008F000010000DC5FB197FBF1FC97FBF1F201FB1B
:100900001C7C17460CF1300C08F801CDEEE7A8F17D
:10091000010003702188090501D5452100E065210A
:10092000A0F1010800F8011C09980FA9A1EB080724
:10093000FF1D00B10120411901EBEA70A1693844A3
:10094000081A401EA0612078C00602D42046AFF3EA
:100950000080099828B1D4E901219047206A401C01
:1009600020622078C00622D52046AFF300801EE02A
:10097000002E04DBB34502DD01A8805D00E03020DD
:10098000D4E901219047206A401C2062761CAAF11C
:1009900001005FEA000A0AD1FFF7AAFDC0680168FA
:1009A000405CD4E901219047206A401C2062281E47
:1009B000A5F10105DCDC07E0D4E9012118F8010B01
:1009C0009047206A401C2062381EA7F10107F3DC23
:1009D0002046AFF30080032011B041E610B5436913
:1009E00013B1AFF3008001E0FFF796FC012010BDCA
:1009F000127800F124010A7000224A700122EDE70A
:100A000011684FF0FF32E9E7074B70B50D467B44A4
:100A100000F075F80446284600F036F910B14FF0A2
:100A2000FF3070BD204670BD6704000010B5002087
:100A300000F02EF9FFF7C0FBBDE81040012000F0E8
:100A4000FBB910B5044602E0641C00F0F7F9207809
:100A50000028F9D110BD00000048704700000020B8
:100A6000004870470000002030B5B0F10A0271F173
:100A700000034FEA900E4EEA817EB0EB0E0061EB70
:100A800091014FEA101E4EEA017E10EB0E0041EB81
:100A900011114FEA102E4EEA016E10EB0E0041EBE1
:100AA00011214FEA104E4EEA014E10EB0E0041EBC1
:100AB0001141401841F100014FEAD00040EA417075
:100AC0004FEAD1014FEA810444EA907410EB8005AB
:100AD00044EB01046D1944EB0404521BA3414FF095
:100AE000000348BF0A3200D530BD401C41F100016F
:100AF00030BD000001694A1C02610878704700B5EA
:100B00008FB0CDE901310021059105497944CDE946
:100B1000031011466846FFF7CBFB0FB000BD000085
:100B2000E5FFFFFF2DE9F0411F460446032601685B
:100B3000072A01F4006004DB08B116A505E016A53C
:100B400003E008B115A500E015A521F01000206014
:100B5000A069C01EA0610FB1401EA0612046AFF386
:100B600000804FB1D4E9012138469047206A401CEB
:100B70002062C01C206206E0206AFAE7D4E9012165
:100B800015F8010B9047761EF8D22046AFF300808F
:100B9000BDE8F0814E414E006E616E00494E460048
:100BA000696E66002DE9F047814616468AB03548E1
:100BB00078440DC88DE80D0032487844801C03ACA1
:100BC0000DC884E80D0041F69B300844372190FBA6
:100BD000F1F290FBF1F5A5F1800501FB12041B3C3D
:100BE00002D56442012000E00020DFF898A0804692
:100BF0000027FA44AAF1BE0A0EE0E0070AD0324606
:100C0000684607EB470101230AEB810101F08DF8EB
:100C10008DE8070064107F1C002CEED1194F7F4433
:100C2000AE3F19E0E80715D007EB04100DF1180AE4
:100C300090E80E008AE80E00C068F04201D19819D1
:100C400008903246012306A903A801F06EF803AB11
:100C500083E807006D10641C002DE3D14FF0010301
:100C600032466946B8F1000F03A802D001F048F8F7
:100C700001E001F05AF8C9E90001C9F808200AB0FA
:100C8000BDE8F08718560000007B00F08000704738
:100C900010B500F079F8BDE8104000F06FB8000022
:100CA0004FF0013C50F8042B51F8043B9A4221D1FB
:100CB000A2EB0C03934313EACC1317D150F8042B87
:100CC00051F8043B9A4215D1A2EB0C03934313EA6B
:100CD000CC130BD150F8042B51F8043B9A4209D1A4
:100CE000A2EB0C03934313EACC13DBD04FF00000CC
:100CF000704700BFD01A01BAB1FA81F101F01801B2
:100D000022FA01F0CB40DBB2C0B2C01AC1F120011F
:100D10002CFA01F3D11A914311EAC311E6D17047BD
:100D20007546FFF799FEAE4605006946534620F02A
:100D30000700854618B020B5FFF778FABDE82040D7
:100D40004FF000064FF000074FF000084FF0000B87
:100D5000AC46ACE8C009ACE8C009ACE8C009ACE8F6
:100D6000C00921F007018D46704710B50446AFF366
:100D700000802046BDE81040FFF729BA002801D0C6
:100D800000F05AB87047000010B5002102A000F032
:100D900013F8012010BD0000534947414252543A14
:100DA0002041626E6F726D616C207465726D696E48
:100DB0006174696F6E00000070B505460C460A202C
:100DC00000E06D1C00F03AF835B128780028F8D121
:100DD00002E0641C00F032F814B120780028F8D149
:100DE000BDE870400A2000F029B800004EF2100063
:100DF000CEF20000016840F2B40221F0010101606E
:100E000040F20030C4F2000000684FF6FE51CDF60B
:100E1000DA710844B0FA80F04109C2F2000202A07F
:100E20001170FFF70BBB00BF53797374656D496E8A
:100E3000697420656E6421007047000040F2B401BF
:100E4000C2F20001097819B14FF08042126806E041
:100E500040F2BC02C2F2000213680133136040F298
:100E60000012C4F2000200BF136811B113F0400376
:100E7000FAD041B25160704740F2B401C2F20001B1
:100E8000097819B14FF08042126806E040F2BC02C6
:100E9000C2F2000213680133136040F20012C4F280
:100EA000000200BF136811B113F04003FAD041B241
:100EB0005160704740F2B400C2F20000007818B1EF
:100EC0004FF080400068704740F2BC01C2F2000160
:100ED000086801300860704740F20420C4F2000046
:100EE000D0F8FC104FF6FE52CDF6DA721144B1FA8A
:100EF00081F14A0940F2B401C2F200010A700368AC
:100F000008A02E21FFF7C8F900F054F800F066F8A9
:100F100000F06CF9642000F027F80CA00DA18D22E0
:100F2000FFF7A2FA736F66745F7665723A257520D3
:100F30006370755F7665723A257520666C617368BB
:100F40005F7665723A25780A00000000313D3D3039
:100F5000000000002E2E2F2E2E2F55736572732F3A
:100F60006D61696E2E630000B0B5044608A021468D
:100F7000FFF792F9FFF79EFF054600BFFFF79AFFC4
:100F8000401BA042FAD308A0BDE8B040FFF756BA14
:100F9000736C656570202575206D732073746172A4
:100FA00074203E3E20000000736C65657020656E05
:100FB0006400000040F2B801C2F2000141F2850273
:100FC00001A00A60FFF73ABA74657374206269740D
:100FD000206669656C64204F4B00000080B5FFF708
:100FE00037F9006890F8371011F0380F3AD090F8C0
:100FF000421011F0980F40D0817A490648D590F8F8
:10100000351020294FD190F87A1011F0BA0F52D034
:1010100090F87610090759D590F8401011F03E0F5E
:101020005FD090F82E10890763D590F82010C9077B
:1010300067D090F85610C9066BD590F8460080EA44
:10104000800000066DD55620FFF70AF9762870D18A
:101050007620FFF712F9562873D14CA0BDE88040E6
:10106000FFF71AB946F2E41046F22621C0F6000056
:10107000C0F600011922FFF7F7F946F2F11046F227
:101080002621C0F60000C0F600011A22FFF7ECF995
:1010900046F2FE1046F22621C0F60000C0F600011E
:1010A0001B22FFF7E1F946F226212AA0C0F6000133
:1010B0001C22FFF7D9F946F2192046F22621C0F684
:1010C0000000C0F600011D22FFF7CEF946F20C2009
:1010D00046F22621C0F60000C0F600011E22FFF7EE
:1010E000C3F946F226213DA0C0F600011F22FFF7FA
:1010F000BBF946F2262135A0C0F600012022FFF7F9
:10110000B3F946F226212DA0C0F600012122FFF7F7
:10111000ABF946F2262125A0C0F600012222FFF7F6
:10112000A3F946F226211DA0C0F600012322FFF7F5
:101130009BF946F226210BA0C0F600012422FFF7FE
:1011400093F946F226210CA0C0F600012522FFF7F4
:101150008BF900BF6973646967697428273527298B
:10116000000000002776273D3D746F6C6F77657235
:1011700028275627290000002756273D3D746F7504
:1011800070706572282776272900000074657374D3
:10119000206374797065204F4B2100006973786477
:1011A00069676974282746272900000069737570EC
:1011B0007065722827562729000000006973737034
:1011C0006163652827202729000000006973707576
:1011D0006E637428272E272900000000697370723F
:1011E000696E7428274027290000000010B540F2DE
:1011F000C00442F6C7204FF2E461C2F20004C3F615
:10120000E570CBF2C251C4E900100FF26450FFF751
:1012100015F94CF285603921C3F6DB70CFF2096114
:10122000C4E900100FF25C50FFF708F9D4E900019F
:1012300001F0FEFC4BF2F6724FF23533CAF2ED22AA
:10124000C3F6F17304F0BEFC002800F0BB810FF27E
:101250006050FFF7F3F8D4E9000101F027FE4DF2EA
:101260008B424BF61633CCF25952C3F6DC7304F0C2
:10127000A9FC002800F0AE810FF26450FFF7DEF801
:10128000D4E9000101F04AFF4FF69A3243F2A0433D
:10129000CBF6ED12C3F6DA7304F094FC002800F0EC
:1012A000A1810FF25050FFF7C9F8D4E9000169227B
:1012B0004CF20453C8F26F12C3F6F37302F03EF817
:1012C0004AF67A1249F62B63C5F6C442C3F6D573C3
:1012D00004F078FC002800F0908146F2EA30C0F675
:1012E0000000FFF7ABF8D4E9000102F063F943F224
:1012F000980240F68E03C4F2DA62C3F6ED7304F08E
:1013000061FC002800F0848146F20150C0F6000024
:10131000FFF794F8D4E9000102F09AF945F6266245
:1013200048F2D473CCF61F72C3F6F17304F04AFC92
:10133000002800F0788146F26240C0F60000FFF716
:101340007DF8D4E9000103F06BFB4EF6BF524EF678
:101350006713CEF66372C3F6DA7304F033FC002829
:1013600000F06C8146F29D40C0F60000FFF766F881
:10137000D4E9000103F0A4FB48F255724AF2D87395
:10138000C4F23322C3F6DC7304F01CFC002800F026
:10139000608146F24E40C0F60000FFF74FF8D4E9F6
:1013A000000103F067FC4CF698024AF65A13C2F6A5
:1013B000C632C3F6DD7304F005FC002800F054814A
:1013C00046F28A40C0F60000FFF738F8D4E9000181
:1013D00003F082FC4CF6357242F25A73CAF6306260
:1013E000C3F6DA7304F0EEFB002800F0488146F201
:1013F0003A40C0F60000FFF721F8D4E9000102F0FE
:10140000C5F943F6FB724BF2CA13CDF6AC72C3F6C4
:10141000F87304F0D7FB002800F03C8146F2B0409E
:10142000C0F60000FFF70AF8D4E90001192202F023
:10143000A7FB39224CF28563CFF20962C4F26B1329
:1014400004F0C0FB002800F0308146F2C340C0F633
:101450000000FEF7F3FFD4E9000102F0CBFB47F2F6
:1014600048324BF21A63C7F23532CBF6EA7304F016
:10147000A9FB002800F0248146F22740C0F60000B6
:10148000FEF7DCFFD4E9000102F062FD49F2FC72D4
:1014900043F28033C4F29D62CBF6D77304F092FB23
:1014A000002800F0188146F2D530C0F60000FEF7A3
:1014B000C5FFD4E9000102460B4602F0BBFD4BF626
:1014C0008D4244F26D63CEF28F22C3F6E67304F0D0
:1014D00079FB002800F00A8146F21340C0F60000B4
:1014E000FEF7ACFFD4E9000103F09EFB47F2950242
:1014F00041F2BB43C1F20262C3F6E57304F062FB42
:10150000002800F0FE8046F21450C0F60000FEF7FE
:1015100095FFD4E9000101F0DFFF0023C3F6F0736B
:10152000002204F04FFB002800F0F68046F27640DF
:10153000C0F60000FEF782FFD4E9000139224CF228
:10154000856321F00041CFF20962C3F6DB7304F03A
:1015500039FB002800F0EB8046F2ED40C0F60000B9
:10156000FEF76CFFD4E9000102F052FA00220023DA
:1015700004F028FB002800F0E58046F2D840C0F6D1
:101580000000FEF75BFFD4E900014BF20323C3F632
:1015900097734FF0005202F0A9FA40F290324EF2E7
:1015A0002743C2F29002C3F6917304F00BFB0028AC
:1015B00000F0D38046F2FF30C0F60000BDE81040D6
:1015C000FEF73CBF46F2285173A0C0F60001782216
:1015D000FEF74AFF46F228517AA0C0F600017C22AD
:1015E000FEF742FF46F28F3046F22851C0F6000067
:1015F000C0F600018022FEF737FF46F2B32046F224
:101600002851C0F60000C0F600018422FEF72CFF2E
:1016100046F2682046F22851C0F60000C0F60001EC
:101620008822FEF721FF46F2512046F22851C0F6EB
:101630000000C0F600018C22FEF716FF46F2FB20E8
:1016400046F22851C0F60000C0F600019022FEF7D5
:101650000BFF46F2763046F22851C0F60000C0F685
:1016600000019422FEF700FF46F2CB2046F22851FB
:10167000C0F60000C0F600019822FEF7F5FE46F223
:10168000143046F22851C0F60000C0F600019C223A
:10169000FEF7EAFE46F2E42046F22851C0F60000CA
:1016A000C0F60001A022FEF7DFFE46F2BD3046F292
:1016B0002851C0F60000C0F60001A422FEF7D4FEB7
:1016C00046F22C3046F22851C0F60000C0F6000168
:1016D000A822FEF7C9FE46F2453046F22851C0F670
:1016E0000000C0F60001AC22FEF7BEFE46F25E30FE
:1016F00046F22851C0F60000C0F60001B022FEF705
:10170000B3FE46F2A63046F22851C0F60000C0F6FD
:101710000001B422FEF7A8FE46F2482046F2285106
:10172000C0F60000C0F60001B822FEF79DFE46F2AA
:101730009A2046F22851C0F60000C0F60001BC22F3
:10174000FEF792FE46F23F2046F22851C0F6000016
:10175000C0F60001C022FEF787FE46F2802046F266
:101760002851C0F60000C0F60001C422FEF77CFE3E
:101770007465737420646F75626C65202A204F4B0A
:10178000000000007465737420646F75626C6520DE
:101790002F204F4B00000000645F633D3D312E3130
:1017A0003231383737333233353730303538380027
:1017B0007465737420646F75626C652061636F7308
:1017C000204F4B00645F633D3D302E343438393157
:1017D0003930303332323438333739360000000094
:1017E0007465737420646F75626C65206173696ED3
:1017F000204F4B007465737420646F75626C6520B4
:101800006174616E204F4B005FEA400C08BF91F09D
:10181000000F4FEA8C234FEAC12243EA51514FEAAD
:101820001C5018BF00F5F0404FEA300018BF41F0DF
:1018300000415FEA6C5C00F02980BCF1FF3F08BF0B
:1018400040F080407047130C06BF12044FF0100C9C
:101850004FF0000C130E04BF12020CF1080C130F12
:1018600004BF12010CF1040C930F04BF92000CF1A1
:10187000020CD30F04BF52000CF1010C11464FF0C3
:101880000002A0F11F00A0EB0C00704711F0004F08
:1018900008BF704731F000413FF4D5AF0B0C06BFD5
:1018A00009044FF0100C4FF0000C0B0E04BF09029E
:1018B0000CF1080C0B0F04BF09010CF1040C8B0F89
:1018C00004BF89000CF1020CCB0F04BF49000CF1DE
:1018D000010CCCF1200322FA03F341EA030102FADE
:1018E0000CF2A0EB0C0000F10100704723F07F47E1
:1018F00020F07F4C80EA030000F00040ACEB0703CF
:1019000003F57C5303F1FF032DE9804909B44FEA45
:10191000144324EA03484FEA154B25EA0B4E0FF215
:10192000042606EB13273E7803FB0667C7F500077E
:1019300007FB06F64FEAD64606F102064FEA543791
:1019400007FB066CCCF1005C4FEA1C472CEA074C05
:101950000CFB06F507FB06F404EB15464FEA96165A
:1019600049085FEA320234BF00204FF000404FEADE
:10197000D13706FB07FC4FEA1C4C0CFB0BF7D21BC4
:1019800003FB0CF761EB07010CFB0EF7B0EB074014
:1019900072EB17420CFB08F734BFA2EB0742B2EB25
:1019A000074261EB17414FEA0C444FEA910706FBEF
:1019B00007FC4FEA1C4C0CFB0BF7B0EBC74072EB7B
:1019C000573203FB0CF734BFA2EBC742B2EBC7425E
:1019D00061EB57310CFB0EF7B0EBC70072EB57729F
:1019E0000CFB08F734BFA2EBC702B2EBC70261EBF6
:1019F00057714FEA816141EA92114FEA826242EAED
:101A000090124FEA806004EBCC04039F4FEAD13779
:101A100006FB07FC4FEA1C4C0CFB0BF7D21B03FB2D
:101A20000CF761EB07010CFB0EF7B0EB074072EB14
:101A300017420CFB08F734BFA2EB0742B2EB074298
:101A400061EB17414FEA8C5504EB9C244FEA910758
:101A500006FB07FC4FEA1C4C0CFB0BF7B0EBC74036
:101A600072EB573203FB0CF734BFA2EBC742B2EB69
:101A7000C74261EB57310CFB0EF7B0EBC70072EBBE
:101A800057720CFB08F734BFA2EBC702B2EBC702D8
:101A900061EB57714FEA816141EA92114FEA82622C
:101AA00042EA90124FEA806015EB4C2544F10004A5
:101AB0004FEAD13706FB07FC4FEA1C4C0CFB0BF737
:101AC000D21B03FB0CF761EB07010CFB0EF7B0EB2D
:101AD000074072EB17420CFB08F734BFA2EB07423A
:101AE000B2EB074261EB17414FEA813141EA924183
:101AF0004FEA823242EA90424FEA80304FEA0C7657
:101B000015EB1C1544F1000448EA03434EEA0B4868
:101B10004FF0000EB2EB080C71EB030724BF6246D6
:101B200039464EEB0E0E4FF0000B00185241494162
:101B30004BEB0B0BB2EB080C71EB03077BF1000BCB
:101B400024BF624639464EEB0E0E4FF0000B0018D4
:101B5000524149414BEB0B0BB2EB080C71EB030705
:101B60007BF1000B24BF624639464EEB0E0E51EA64
:101B7000020718BF46F0010616EB0E7655F100027B
:101B800054F1000103D5BDE88901BDE80088BDE836
:101B90008901BDE80048B619524141EB0101A3F1AA
:101BA0000103704780807F7E7D7C7B7A79787776B1
:101BB00076757473727171706F6E6E6D6C6C6B6A2A
:101BC0006A696868676666656464636362616160C8
:101BD000605F5F5E5E5D5D5C5C5B5B5A5A59595845
:101BE00058575756565555555454535352525251AF
:101BF000515050504F4F4F4E4E4D4D4D4C4C4C4B05
:101C00004B4B4A4A4A49494948484847474747464B
:101C10004646454545444444444343434342424287
:101C2000424141419C46002B30D477002BD04FEAF3
:101C300037071CB503B44FF010004FF01001BAF194
:101C4000000F06D0BCF1000FDCBF40F0080040F0F0
:101C500008014FF000000FBCBDE810400BF1010B74
:101C6000BBF1010F08BF5FEA170722BF12F10102A3
:101C700011F101014FF0004143F1000300F0004079
:101C800043EA00007047F9D35708D0E746EA064612
:101C90004FEA164613F1400F1FDD13F1200FDFBF8F
:101CA00016430A46002120335B42BED0C3F1200711
:101CB00046EA06464FEA164602FA07F746EA0706DC
:101CC00022FA03F2C3F1200701FA07F742EA0702FA
:101CD00021FA03F14FF00003A7E746EA020646EABD
:101CE00006464FEA164646EA0106BCBF46EA0646E5
:101CF000360C4FF000034FF000024FF0000194E764
:101D00002DE9804C70B49A46934691E8380007C894
:101D100031EA400C48BF34EA430C03D5FFF7E6FD37
:101D2000FFF780FFF0BCBDE8008C2DE9804C70B45B
:101D30009A46934691E8380007C810F0804F08BFD4
:101D400013F0804F03D100F005F8FFF76BFFF0BCF4
:101D5000BDE8008C20F07F4723F07F4C80EA030031
:101D600000F0004007EB0C03A3F57C53A3F1FE0346
:101D700092F0000F00F0B38095F0000F00F0778034
:101D80002DE901494FEA114021EA00484FEA144683
:101D900024EA064700FB06FC08FB06F607FB08F8EA
:101DA00018EB06484CEB164C00FB07F718EB0748FE
:101DB0004CEB17404FEA124B22EA0B4E4FEA154606
:101DC00025EA06470BFB06FC0EFB06F607FB0EFE9C
:101DD0001EEB064E4CEB164C0BFB07F71EEB074EAB
:101DE0004CEB174B18EB0B0840F1000018EB0E0BF7
:101DF00058EB000840F100008F1A4FF000014FF03F
:101E000000063CBFC943661B14BFB5EB040C0021A0
:101E10003CBFC943F61B4FEA174427EA04454FEA83
:101E20001C472CEA074C04FB076205FB07F70CFB79
:101E300005F616EB074642EB174204FB0CFC16EBCB
:101E40000C4642EB1C421BEB060658EB02024141DA
:101E50004EEA8E0E46EA9E0601D5BDE80189B61906
:101E6000524141EB0101A3F10103BDE801894FEAB1
:101E7000144524EA05464FEA114721EA074C05FBC1
:101E800007F406FB07F70CFB06F111EB074144EBE7
:101E9000174405FB0CFC11EB0C4144EB1C444FEACE
:101EA000124722EA074C05FB07F206FB07F70CFB7B
:101EB00006F616EB074642EB174205FB0CFC16EB49
:101EC0000C4642EB1C456A1854F1000148BF7047AC
:101ED000B619524141EB0101A3F10103704795F09E
:101EE000000F37D04FEA114221EA02464FEA144769
:101EF00024EA074C02FB07F106FB07F70CFB06F48C
:101F000014EB074441EB174102FB0CFC14EB0C44AF
:101F100041EB1C414FEA154725EA074C02FB07F548
:101F200006FB07F70CFB06F616EB074645EB1745D5
:101F300002FB0CFC16EB0C4645EB1C42121951F14E
:101F4000000148BF7047B619524141EB0101A3F1AE
:101F5000010370474FEA144524EA05464FEA11474A
:101F600021EA074C05FB07F106FB07F70CFB06F21D
:101F700012EB074241EB174105FB0CFC12EB0C4244
:101F800051EB1C414FF0000648BF7047921841EBDF
:101F90000101A3F101037047490050EAC12018BFB5
:101FA00004204A0D18BF40F0010040F2FF72B2EB6E
:101FB000515F08BF40F00200012808BF05207047AC
:101FC0002DE9F74F144694B00021C4E90211159988
:101FD000079121F00045C9498D4206DC1599C4E9F5
:101FE000000117B00020BDE8F08FC549DFF814A349
:101FF000A9423CDD0799C44E0029C44FC44A159933
:10200000534619DD03F0F0FC554506D0C14AC24BDA
:1020100003F0EAFCC4E900010AE04FF0D352BE4BE2
:1020200003F0E2FC32463B4603F0DEFCC4E900016B
:1020300017B00120BDE8F08F02F0E4FE554506D050
:10204000B44AB54B02F0DEFEC4E900010AE04FF0ED
:10205000D352B14B02F0D6FE32463B4602F0D2FEDE
:10206000C4E9000117B04FF0FF30BDE8F08FAB4975
:10207000A942159978DB21F0004183468846A84A99
:10208000A84B03F0E3F90022A74B02F0BBFE03F0DC
:102090000BF9099003F037F906460F469C4A534660
:1020A00003F0D4F943465A4603F0ACFB80468A4617
:1020B000984A994B3046394603F0C8F92A0D012554
:1020C0000B924246534603F09DFB032DC4E90001E9
:1020D00039D00B98C1F30A51401A05EB451111395B
:1020E000814230DA9148C346784400EB0510CDF8C0
:1020F0000CA00C90D0E900233046394603F0A6F935
:1021000002460B46049106905846039903F06CFC76
:1021100080468A4602460B465846039903F064FC03
:10212000049B069A03F060FC83460C9803913946A1
:10213000D0E90223304603F089F95A46039B03F0A5
:1021400053FC6D1CBDE707980028A2BF099817B083
:10215000BDE8F08F616881F000416160099817B0B7
:102160004042BDE8F08FFFE784461598C1F31301A4
:10217000C0F30A50A0F2F5304FEA601800F01F06D5
:10218000C6F12000139000200690079041F4801EB5
:1021900005206D4676B1664A08EB00017A4452F894
:1021A000213002EB8101B3404A68139922FA01F110
:1021B000194305E05F4908EB0002794451F8221009
:1021C000A1FB0E27A1FB0C131A449A4234BF012332
:1021D000002303EB070A05EB8003D3E901B70F44A3
:1021E0008F4234BF0121002193448B4411B19345A8
:1021F00002D903E0934501D2012100E00021C3E9A7
:1022000001B7514445F82010011EA0F10100C1DCC6
:102210000298059F00F10050800F12900298DDE9AE
:102220000356800003F06FF8834628460D9103F0B3
:1022300081F86FF01D0203F023FDCDE90E01304659
:1022400003F078F86FF03D0203F01AFD80468A46ED
:10225000384603F06FF86FF05D0203F011FD07469A
:1022600042465346119102F0CDFDDDE90E2302F006
:10227000C9FD5A460D9B02F0C5FD00250E465A4683
:1022800028460D9B03F0B0FBDDE90E2303F0ACFB09
:102290004246534603F0A8FB3A46119B03F0B2FABC
:1022A000DFF898A0244A534603F0D0F80746884642
:1022B000234A244B3146284603F0C8F83A464346A1
:1022C00002F0A0FD074688464FF0A842534631462B
:1022D000284603F0BBF83A46434602F093FD159AB0
:1022E00012F0004F04D0129A81F000415242129233
:1022F000C4E90001129817B0BDE8F08FFB21E93F57
:102300007CD90240FB21F93F7370032E8A19A33B4D
:10231000000040543163621A61B4D03DFB21394161
:1023200083C8C96D305FE43F0000E03F0C3F000010
:10233000883E00006A3E0000182D4454FB21F93D00
:102340003326A611460B113C2DE9FF4D21F0004824
:1023500007460C46B8F1795F08DA02F0A5FF0028BD
:1023600001BF0020324904B0BDE8F08D3A46234653
:102370001046194603F06AF8054602462D480E46F7
:102380000B460621784400F05DF82A46334603F0F8
:102390005DF8DDE9022382468B463846214603F08C
:1023A00055F804460F4652465B462846314603F030
:1023B0004DF822463B4603F017FB07468A464FF08E
:1023C000FF322846314603F05BFC1B4A90450ADA8F
:1023D0003A46534603F008FB04B00022BDE8F04D36
:1023E000134B03F00FBA154A4245A8BFA8F50015D4
:1023F0004FF00004B8BF124D22462B4603F0F4FA0A
:102400000646884622462B460020094903F0ECFA8E
:1024100004460D463A4653463046414603F0E4FA38
:1024200004B022462B46BDE8F04D03F0EBB90000A6
:102430000000F03F103C00003333D33F0000E93F81
:102440000000D23F2DE9F0414F1E00EBC7010446CA
:10245000D1E9000115461E4637F006020DD02A4686
:10246000334602F0F3FF7F1E04EBC703D3E90023DA
:1024700002F0C8FC37F00602F1D1022F25D0042F5C
:1024800013D0062F18BFBDE8F0812A46334602F06C
:10249000DDFFD4E90A2302F0B5FC2A46334602F0F8
:1024A000D5FFD4E9082302F0ADFC2A46334602F0FA
:1024B000CDFFD4E9062302F0A5FC2A46334602F0FC
:1024C000C5FFD4E9042302F09DFC2A46334602F0FE
:1024D000BDFFD4E9022302F095FC2A46334602F000
:1024E000B5FFD4E90023BDE8F04102F08BBC000049
:1024F0002DE9FF4D054621F0004084B00C46B0F1B7
:10250000795F0BDA2846FFF747FD042808BF00F083
:10251000C1F9284608B02146BDE8F08D2A460B4691
:10252000104602F093FF06460F462A46234602F065
:102530008DFF804626488A4632463B460521784430
:10254000FFF780FF83461098029160B3214A224B27
:102550004046514602F07AFFCDE900015A46404616
:102560005146029B02F072FF82468846DDE9060171
:102570004FF0FF3203F084FB5246434603F034FA37
:1025800032463B4602F062FFDDE9062303F02CFAF7
:10259000DDE9002303F028FA08B02A462346BDE807
:1025A000F04D03F02FB90B465A463046394602F03B
:1025B0004DFF084A084B02F025FC4246534602F004
:1025C00045FF08B02A462346BDE8F04D02F01ABC8C
:1025D000863B0000495555555555C5BF2DE9F04D71
:1025E00004468CB0904821F00047164698460D46A8
:1025F0000991874206DA2046294602F055FE002856
:1026000000F0AE808948B8421CDC09980028BCBFA5
:1026100085F0004588F00048854A864B20462946CB
:1026200003F0F0F804460D4632464346824883499B
:1026300003F0DAF922462B4602F0E4FB00260446BA
:102640000D46B04622462B461046194602F0FEFEC5
:102650008B46824602460B4602F0F8FE0246089080
:1026600077480B46009106217844FFF7EBFECDE951
:102670000310744806217844009B089AFFF7E2FE95
:1026800052465B4602F0E2FECDE9051052465B463B
:102690002046294602F0DAFE07910090DDE903109A
:1026A000DDE9053202F0AEFB079B009A02F0CEFE98
:1026B0003246434602F0A6FB52465B4602F0C6FE97
:1026C0003246434602F09EFB80460E465E4A5F4B12
:1026D0000799009802F0BAFE4246334602F092FB98
:1026E00082468B4622462B4602F08CFB80464F48A2
:1026F0000E46B84214985BDC02F005FE07464246DF
:102700003346059102F07EFBCDE901104246334687
:102710001046194602F09AFEDDE9013202F02EFC65
:1027200052465B4603F060F922462B4603F06AF8F6
:10273000012203F0A5FA3A46059B03F063F804462C
:102740000D460998022101EAA070C0F1010002F0D3
:10275000DAFD0CB022462B46BDE8F04D02F076BE05
:102760001498401C384320430BD01498012812D0F1
:102770000CB022462B46BDE8F04D0020344902F053
:10278000FDBB0CB025F000432246BDE8F04D002013
:10279000304902F0F3BB20462946FFF7FDFB042831
:1027A00008BF00F077F820460CB02946BDE8F08D50
:1027B000012802BF40460CB0BDE8F08D00270B4653
:1027C0003A462046294603F01DF852465B4603F080
:1027D00019F804460D464246334600201C4902F0D3
:1027E000CDFB83463A4688463346104602F02EFE1D
:1027F0000022184B02F006FB06468A4622462B466C
:102800003846414602F022FE3246534602F0FAFABA
:102810005A46434602F01AFE0CB03A464346BDE81B
:10282000F04D02F0EFBA00000000303E2894E53F82
:10283000182D4454FB21E93F075C143326A6813C44
:10284000843A0000A63A0000635555555555D53FCA
:102850000000F0BF0000F03F00221346104601497F
:1028600002F08CBB0000F03F012203F009BA02F035
:10287000C9BA002213461046114602F07FBB40F24F
:10288000013200204FF0E04103F0FAB902460B4656
:1028900002F0DCBD024A0020110703F0F1B900008C
:1028A00001FDFFFF2DE9F04D0546C94821F0004626
:1028B00086B00C4601F00047864235D3C54BB34283
:1028C00026D8C548864215D3C6F31300284306D040
:1028D00006B028462146BDE8F04DFFF7C5BF27B931
:1028E00006B028462146BDE8F08D06B00020BB4961
:1028F000BDE8F08DBA4A2846214602F04DFF07D2C6
:102900000220FDF7FEFD06B0BDE8F04DFFF7B7BFB2
:1029100057B1B44AB44B2846214602F073FA00225C
:10292000134602F057FDE0D3B048864240F2CC8017
:10293000AF48DFF8C0A2DFF8C0B2B04217D95246A4
:102940005B46284621464FB102F05CFA82468B4630
:10295000AA4FDFF8AC824FF0FF362FE003F044F8C7
:1029600082468B46A54FDFF89C82012626E0A64AC8
:10297000A64B2846214602F069FD002F4FF00002C9
:1029800014BFA34BA34B02F03DFA02F08DFC0646A8
:1029900002F0B9FC0746884652465B4602F056FDF7
:1029A0002A46234602F02EFF82468B46934A954BD9
:1029B0003846414602F04AFD074688463A464346B5
:1029C0005046594603F010F805460C4652465B4601
:1029D00002F018FF3A46434603F006F8CDE902013B
:1029E0004FF0FF322846214603F04AF982468B46D3
:1029F0002A46234602F02AFD0746024686488846B4
:102A00000B4605217844FFF71DFD3A46434602F088
:102A10001DFD0022814B02F0F5F952465B46CDE9DF
:102A2000000102F013FD00227D4B02F0EBFE834615
:102A30008A462A46234602F009FD0022794B02F01D
:102A4000E1FECDE90401DDE900015A46534602F0FA
:102A5000CBFFDDE9042302F091FA3A46434602F047
:102A6000F5FCE6B3DDE9022302F0BEFF2A46234669
:102A700002F0ECFCDDE9022302F0B6FF3A464346E1
:102A800002F0B2FFDFF88CA107468846B6F1FF3F9F
:102A900039D0012E48D016F1020F01DD382E6CDD41
:102AA0000B463A462846214602F0ACFE5B4C00221B
:102AB000234602F0A7FE06B001EB06512346BDE80F
:102AC000F04D002202F090BF5748B04298BF002658
:102AD00086D928462146FFF75FFA042800E003E084
:102AE00008BFFFF7D7FEFBE62A46234602F0AEFCFE
:102AF0003A46434602F078FF06B02A462346BDE830
:102B0000F04D02F07FBE0B463A462846214602F0C1
:102B10006BFF4FF0FF3203F0B3F806B05346BDE849
:102B2000F04D002202F060BF0022404B28462146B3
:102B300002F050FC11D2002253462846214602F0F2
:102B400061F93A46434602F05DFE06B00022BDE858
:102B5000F04D4FF0404302F079BC3A4643462846D8
:102B6000214602F041FF012203F08AF806B000225C
:102B7000BDE8F04D294B02F045B94FF0000A142E84
:102B800011DA4FF40010F040C0F17F6B0B460BF1EF
:102B9000405B3A462846214602F034FE52465B46E8
:102BA00002F030FE0FE040F2FF30801B030552467A
:102BB000384602F027F92A46234602F023FE002277
:102BC000164B02F01FF906B001EB0651BDE8F08D7F
:102BD0007A684340422E86400000F07F0000F0BF3C
:102BE000EF39FAFE59F3F8C21F6EA501422ED63F07
:102BF000B2A2F03F0000E0FE422EE63F763C79357F
:102C0000EF39EABDEF39EA3DFE822B654715F73F04
:102C10000000E0BF0000E03FC03500000000F03FD2
:102C200000000840000018400000903C0000D0BFA9
:102C30002DE9F04D0546DFF8388221F000408D4F38
:102C400082B00C46404520DBA0EB080129430BD0A5
:102C50008949884201DC10D17DB102B02846214665
:102C6000BDE8F04DFFF700BE002CC7BF00200146B5
:102C70008248394602B0BDE8F08D0120FDF741FCE5
:102C800002B0BDE8F04DFFF7F4BD7D49884244DA5B
:102C90007C498142A1BF79487B4902B0BDE8F08DF3
:102CA0002A4623461046194602F0D0FB83460246C8
:102CB00076480E460B4606217844FFF7C3FB5A467A
:102CC000334602F0C3FB074671488A465A463346EC
:102CD00004217844FFF7B6FB5A46334602F0B6FBB0
:102CE0000022434602F08EF802460B463846514613
:102CF00002F044F92A46234602F0A8FB654A664BD7
:102D000002F080FD2A46234602F07CFD02B05B4AB9
:102D1000BDE8F04D5C4B02F075BD002C4FF0000299
:102D20004BDA464643462846214602F06BF84FF000
:102D3000FF3202F0A5FF0446024658480D460B46F6
:102D400006217844FFF77EFB22462B4602F07EFBED
:102D5000804653488A4622462B4604217844FFF792
:102D600071FB22462B4602F071FB0022334602F033
:102D700049F806468B462046294601F055FF044691
:102D80000D4632465B464046514602F0F7F8224671
:102D90002B4602F05BFB3F4A3F4B02F025FE2246EA
:102DA0002B4602F02FF8012202F06AFF02B03B46E8
:102DB000BDE8F04D314A02F025BD2D4B2846214695
:102DC00002F020FD4FF0FF3202F05AFF05460E469A
:102DD00001F02AFF00270C4680463A460B4602F0D7
:102DE00011F882468B463A4623461046194602F0B1
:102DF0002DFB2A46334602F005FD52465B4602F0A3
:102E0000BDF8824627488B462A4633460621784439
:102E1000FFF718FB2A46334602F018FBCDE9000104
:102E200021482A46334604217844FFF70BFB2A4603
:102E3000334602F00BFB00220D4B01F0E3FF02468C
:102E40000B46DDE9000102F099F84246234602F004
:102E5000FDFA52465B4601F0D5FF3A46234601F0A3
:102E6000D1FF02B00122BDE8F04D02F009BF000021
:102E70000000F03FFB2109400000F07F182D445472
:102E80000000E03F0000603CFB21F93F7C30000087
:102E900092300000075C143326A6913CF22F00000C
:102EA00008300000262F00003C2F00002DE9F04DD7
:102EB0008D4F21F0004A86B005460C46BA452ADB04
:102EC000AAEB070028430AD08848824501DC1AD1C2
:102ED000CDB106B02846BDE8F04DFFF7C5BC844A29
:102EE000844B284602F0B2FA07460E46824A834BCC
:102EF0002846214602F0AAFA06B03A463346BDE813
:102F0000F04D01F07FBF0120FDF7FBFA06B0BDE8F0
:102F1000F04DFFF7AEBC7A48824542DABAF1795FEC
:102F20000BDA2846FFF738F8042808BFFFF7B2FC91
:102F3000284606B02146BDE8F08D2A460B461046CD
:102F400002F084FA834602466E480E460B4606217E
:102F50007844FFF777FA5A46334602F077FA80460C
:102F600069488A465A46334604217844FFF76AFA8C
:102F70005A46334602F06AFA00223B4601F042FF0D
:102F800002460B464046514601F0F8FF2A462346CA
:102F900002F05CFA06B02A462346BDE8F04D01F087
:102FA00031BF284624F0004100223D463B4602F056
:102FB00029FC4FF0FF3202F063FE064602465348FA
:102FC0000F460B4606217844FFF73CFA32463B4653
:102FD00002F03CFACDE900014D4832463B4604215F
:102FE0007844FFF72FFA32463B4602F02FFA0022D0
:102FF0002B4601F007FF834602913046394601F027
:1030000013FE804643480D46504517DCDDE90001BC
:103010005A46029B01F0B2FF42462B4602F016FAD6
:1030200042462B4601F0EEFE012202F029FE304A14
:10303000304B02F0D9FC304A304B4CE04FF0000AE4
:1030400052460B46404601F0DDFECDE903105246E4
:103050002B461046194602F0F9F932463B4602F07B
:10306000D1FBDDE9033201F089FF06460F46DDE9B9
:1030700000015A46029B01F081FF83460091012224
:103080003046394602F0FCFD194A1A4B02F0BAFBF1
:1030900006460F4601224046294602F0F1FD5A46F7
:1030A000009B02F0D3F932463B4602F09DFC0646F7
:1030B0000F4601225046294602F0E2FD0E4DDFF890
:1030C00058802A46434602F09DFB32463B4602F0BA
:1030D00099FB2A46434602F095FB002CD8BF81F0AD
:1030E000004106B0BDE8F08D0000F03F0000F07F29
:1030F000075C143326A6913C182D4454FB21F93F5C
:103100000000E03F342E00004A2E0000BE2D0000DB
:10311000D42D00003333EF3FFB21E93F2DE9F84F79
:1031200004460D4621F0004000917349814211DCB4
:103130007249884201DC06D12CB120462946BDE8FF
:10314000F84FFFF791BB6E48002DCCBF6D496E491B
:10315000BDE8F88F6D49814211DD6D498142D8BFCC
:103160004FF0FF366DDD20462946FEF715FF042897
:1031700008BFFFF78FFB20462946BDE8F88F654959
:10318000654F25F00045814233DD6449814219DDF8
:10319000002632464FF080432046294601F032FE99
:1031A00080468A4601222046294602F069FD002217
:1031B0003B4602F019FC4246534601F0DFFE04464E
:1031C0000D463EE001260022BA463B4620462946EF
:1031D00001F018FE80460F4600225346204629463D
:1031E00002F002FC42463B4601F0C8FE04460D4692
:1031F00027E04B4981421BDDDFF828A1022600228F
:1032000053462046294602F021F900223B4601F0B0
:10321000F9FD80460F46002253462046294602F01B
:10322000E3FB42463B4601F0A9FE04460D4608E09A
:10323000032622462B4600203B4901F09FFE044610
:103240000D4622462B461046194602F0FFF88B46E3
:10325000824602460B4602F0F9F80746024633481A
:1032600088460B4606217844FFF7ECF852465B4649
:1032700002F0ECF882462E488B463A46434605213A
:103280007844FFF7DFF83A46434602F0DFF802469B
:103290000B46002E504659460CDA01F0B3FD22468B
:1032A0002B4602F0D3F801B022462B46BDE8F04F82
:1032B00002F0A8BA01F0A6FD22462B4602F0C6F89D
:1032C0001C4A7A4402EBC603D3E9002302F08CFBCC
:1032D00022462B4602F088FB174A7A4402EBC603CB
:1032E000D3E9002302F08EFA009A002AB8BF81F0D9
:1032F0000041BDE8F88F0000000010440000F07F9E
:10330000182D4454FB21F93FFB21F9BF0000DC3F9D
:103310000000203E0000F33F0000F03F0000E63FC9
:10332000008003400000F83F0000F0BFD62B0000F3
:10333000942B0000322B0000FA2A00002DE9F04DFA
:103340009446CCF1000423F000464CEA0404594FA3
:1033500046EAD4749A46884621F00042BC4206D818
:10336000454240EA050442EAD474BC4204D9BDE8AF
:10337000F04D6246FFF77BBAAAF14055A5F17F6593
:1033800055EA0C040BD0022404EAAA744A4DDFF873
:103390002CE144EAD87452EA000B04D00CE0BDE8FA
:1033A000F04DFFF7BBBE002C14BF012CBDE8F08D23
:1033B000022C30D0032C32D056EA0C0B0AD0BE427D
:1033C00020D1BA4209D126F0804622F0804233460D
:1033D000114617E000291ADB25E0DFF8E4B0FB44D2
:1033E000002C04BFDBE90001BDE8F08D012C02BF19
:1033F000DBE9000181F00041BDE8F08D022C0AD02C
:10340000032C0CD0BA4212D1B8F1000F0BDA2A48C3
:103410002C49BDE8F08D28462B49BDE8F08D2846A3
:103420007146BDE8F08D24482849BDE8F08D921B17
:1034300012153C2AC4BF204F244E10DCBAF1000FF5
:10344000BEBF12F13C0F00273E4608DB624601F08A
:1034500095FD21F00041FFF761FE07460E4694B14D
:10346000012C08BF86F000460DD0194A194B022CDA
:103470003846314615D002F0B7FA2A46BDE8F04D7D
:10348000114B02F0B1BA002213463846314601F022
:10349000CFFE04BF0220FDF734F838463146BDE8C0
:1034A000F08D02F0A1FA2A46BDE8F04D064B02F07D
:1034B000A9B900000000F07F182D4454FB2109C079
:1034C0000E2C0000FB21F9BFFB210940FB21F93F35
:1034D000075C143326A6A13C2DE9F041C1F30A5242
:1034E000A2F2FF362F4A304B0D460446142E2FDA37
:1034F000002E12DA01F086FC0022134602F04CF98D
:103500004CD2002DBCBF4FF00045002446DB55EAED
:10351000040018BF254D19D140E0DFF894C02CFA03
:1035200006F705EA070C5CEA040C08BFBDE8F08169
:1035300001F068FC0022134602F02EF92ED2002D75
:1035400003DD4FF48010F0400544BD43002425E026
:10355000332EC8BFBDE8F081A6F1140C4FF0FF3741
:1035600027FA0CF73C4208BFBDE8F08102F04AF9A7
:103570000022134602F010F910D2002D0DDD142E9A
:1035800008BF6D1C09D0C6F13400012101FA00F01A
:103590002044A04238BF6D1C0446BC432946204647
:1035A000BDE8F0819C7500883CE4377E0000F03F68
:1035B000FFFF0F0000B5244B21F0004287B09A4274
:1035C000DCBF0022134629DD204B9A4208D140B9C6
:1035D0004FF00100FCF795FFFFF74BF907B000BD76
:1035E00003DBFFF741F907B000BD02AAFEF7E8FCD4
:1035F00010F0030104BF0DF1080C9CE80F000DD082
:10360000012001290ED0022914D00DF1080C0090E0
:103610009CE80F00FEF76CFF07B000BDFEF794FEBC
:1036200007B000BD0DF1080C00909CE80F00FEF7FC
:103630005FFF05E00DF1080C9CE80F00FEF784FE2B
:1036400007B081F0004100BDFB21E93F0000F07FA1
:103650002DE9F341019820F000444348844206DB01
:10366000DDE9000102B0BDE8F041FFF70FB9DDE987
:1036700000013E4A21F00041944224DAFFF712F99A
:103680003B4F05460E4600223B4601F0BBFBB4F122
:10369000725FBCBF02B0BDE8F081012202F0F0FA17
:1036A000044688462A4633461046194601F0CEFEA7
:1036B0002246434601F062FC02B03B46BDE8F041C1
:1036C000002201F09FBB2B4A944218DA00F05EF80A
:1036D00004460D4602460B460020274901F04EFCE9
:1036E0000F4606464FF0FF322046294602F0C8FA40
:1036F00002B032463B46BDE8F04101F083BB1F4AB1
:10370000944208DA00F042F802B04FF0FF32BDE810
:10371000F04102F0B5BA1A4A7A441A4B1268520FB5
:103720009C425DF8222003DB15D1174B9A4212D838
:103730004FF0FF3202F0A4FA00F028F804460D46DC
:103740004FF0FF3202F09CFA02B022462B46BDE851
:10375000F04101F07BBE0220FCF7D3FE02B0BDE8D1
:10376000F041FFF78CB800000000F07F432ED63FF9
:103770000000F03F000036400000E03F422E86404F
:1037800054270000CE3386407DF8B98F2DE9F04DE7
:10379000894BCE0F21F0004784B005460C469F426E
:1037A00030D38648874211D3C7F31300284305D08E
:1037B00004B02846BDE8F04DFFF756B8002E1ABFFA
:1037C00000200146284604B0BDE8F08D7C4A28461A
:1037D00001F0E2FF07D20220FCF793FE04B0BDE83F
:1037E000F04DFFF74CB8774A774B2846214601F059
:1037F000F1FD07D20220FCF784FE04B0BDE8F04DD5
:10380000FFF748B87148B84248D27148874215D28C
:103810007048784400EBC6002146D0E900232846D2
:1038200002F0E2F8CDE900016B48784400EBC600F5
:10383000D0E900ABC6F10100861B26E0674A684B61
:103840002846214601F002FE664A7A4402EBC6038E
:10385000D3E9002301F0D6FA01F026FD064601F077
:1038600052FD07468846604A604B01F0EFFD2A464C
:10387000234601F0C7FFCDE900015D4A5D4B3846A4
:10388000414601F0E3FD82468B46DDE900015246E8
:103890005B4602F0A9F805460C4618E056488742F8
:1038A00014D2564A564B2846214601F0ABFA554EE3
:1038B0000022334601F070FF08D204B03346284698
:1038C0002146BDE8F04D002201F09CBA00262A46B0
:1038D00023461046194601F0B9FD804602464A4883
:1038E0000F460B4605217844FEF7ACFD42463B46A9
:1038F00001F0ACFD2A46234601F084FF07468846C6
:10390000E6B302460B4600204FF0804102F06CF80F
:10391000CDE902013A4643462846214601F096FD8C
:10392000DDE9022301F02AFB52465B4601F06AFF03
:10393000DDE9002302F058F80022324B01F062FF6B
:103940006FF47F729642A2BF01EB065104B0BDE84E
:10395000F08D4FF07A5202EB065211442B4A02F0DE
:103960008FF904460D46FEF717FB042808BFFEF743
:1039700091FF204604B02946BDE8F08DFFE7002204
:103980004FF0804302F030F882460E463A464346F6
:103990002846214601F05AFD5246334601F0EEFA20
:1039A0002A46234602F020F804B00022BDE8F04D7C
:1039B000144B01F027BF0000422E86400000F07F2C
:1039C000EF39FAFE51302DD5104987C0422ED63F2F
:1039D000B2A2F03F722600006A260000FE822B652C
:1039E0004715F73F2A2600000000E0FE422EE63F82
:1039F000763C7935EF39EA3D0000303E9C75008811
:103A00003CE4377E0000F03FBE25000018FCFFFFBD
:103A10002DE9F041C1F30A52A2F2FF362F4A304B92
:103A20000D460446142E2FDA002E12DA01F0EAF9C0
:103A30000022134601F0B0FE4CD2002DA4BF00249A
:103A4000254647DA25F00040204318BF254D41D0D8
:103A500018E0DFF894C02CFA06F705EA070C5CEAD8
:103A6000040C08BFBDE8F08101F0CCF90022134638
:103A700001F092FE2ED2002D03DA4FF48010F040B8
:103A80000544BD43002425E0332EC8BFBDE8F081C6
:103A9000A6F1140C4FF0FF3727FA0CF73C4208BF91
:103AA000BDE8F08101F0AEFE0022134601F074FE85
:103AB00010D2002D0DDA142E08BF6D1C09D0C6F1EE
:103AC0003400012101FA00F02044A04238BF6D1CEF
:103AD0000446BC4329462046BDE8F0819C75008819
:103AE0003CE4377E0000F0BFFFFF0F0070B51446C6
:103AF0001D460E46002814BF01210021314321F04C
:103B00000041C1F17F6101F1E041C90F16D1002CE4
:103B100014BF01210021294321F00041C1F17F613F
:103B200001F1E041C90F09D11449B1EB460F08BFBB
:103B300000281CD0690008BF002C18D0314601F0C5
:103B40007DFD024640F2FF7030EA11500DD0F017B3
:103B5000B0EBE17F09D0084665F31E0084460B46B2
:103B60002046614601F04EFE0246104670BD01201F
:103B7000FCF7C7FCBDE87040FEF77BBE0000E0FF2D
:103B80002DE9F04106460C4640F2FF75174635EA2E
:103B900014502BD000221346304601F049FB25D0AB
:103BA0003A463046214602F06BF806460C4635EAA6
:103BB000145010D000221346304601F039FB15D1C5
:103BC0000220FCF79EFCFEF765FE0A46214662F3E2
:103BD0001E01BDE8F0810220FCF793FCFEF74FFECA
:103BE0000A46214662F31E01BDE8F08130462146B7
:103BF000BDE8F0812DE9F04DC84A002490B0914213
:103C000005DA21F00043934201D805D120B110B06C
:103C1000BDE8F04DFEF728BEB1F5801F1BDA53EA70
:103C2000000209D0002911DA0120FCF76AFC10B06B
:103C3000BDE8F04DFEF71DBE0220FCF762FCFEF76A
:103C40000BFE10B081F00041BDE8F08D6FF035043F
:103C5000362202F015F804EB2152C1F31308B049E3
:103C6000A2F2FF33414401F4801282F07F6103EB42
:103C7000225281F04051009241EA08010022A94BF2
:103C800001F0B2FE044608F10200A74EC0F3130093
:103C90000D467E44032867D2D6E90023204601F072
:103CA000C7FA1ED10098002802BFD6E9000110B063
:103CB000BDE8F08D01F027FB07460C469B4A9C4B64
:103CC00001F0C4FB06460D469A4A9B4B38462146F6
:103CD00001F0BCFB10B032462B46BDE8F04D01F0C0
:103CE00091B84FF05532954B2046294601F0AEFB76
:103CF0000022934B01F086FD06460F4622462B46D6
:103D00001046194601F0A2FB32463B4601F09EFBED
:103D1000064600980F46F0B101F0F5FA80468A4653
:103D2000824A834B01F092FB32463B4601F06AFD2A
:103D300022462B4601F058FE05460C467D4A7E4B36
:103D40004046514601F082FB10B02A462346BDE8AA
:103D5000F04D01F049BE0B4610B0324620462946D0
:103D6000BDE8F04D01F040BE00224FF080432046F8
:103D700001F048F802460B462046294601F0FEF8BD
:103D800006460F46009801F0BEFACDE9040132461E
:103D90003B461046394601F059FB0C9069480C9A95
:103DA0004044019009910B46104601F04FFB8246BA
:103DB000024665488B46C8F151080B4608F5D728DE
:103DC00003217844FEF73EFB52465B4601F03EFB82
:103DD0000A905E480D9152465B4604217844FEF7F6
:103DE00031FB099B0C9A01F031FB844601980D9B35
:103DF00040EA080860460A9A01F004F883460891F0
:103E0000B8F1000F4EDD4FF0FF322046294601F099
:103E100037FF22462B4601F019FB804600988A4660
:103E200060B3DDE90401414A414B01F00FFB099108
:103E300000905A4640465146089B00F0E3FF324648
:103E40003B4601F003FB099B009A00F0DBFF424672
:103E5000534601F0D7FC22462B4601F0C5FD04462F
:103E60000D46DDE90401334A334B01F0EFFA10B09F
:103E700022462B46BDE8F04D01F0B6BD5A464046FD
:103E8000089B00F0BFFF32463B4601F0DFFA424696
:103E9000534601F0B7FC10B022462B46BDE8F04D6A
:103EA00001F0B0BC009840B3DDE904011F4A204B8B
:103EB00001F0CCFA80468A465A4620462946089B9D
:103EC00001F092FD32463B4601F0C0FA42465346AD
:103ED00001F08AFD22462B4601F086FD04460D4680
:103EE000DDE90401134A144B01F0B0FA10B0224688
:103EF0002B46BDE8F04D01F077BD0B465A462046F3
:103F0000294601F071FD32463B4601F09FFA10B0A0
:103F100022462B46BDE8F04D01F074BC0000F07F56
:103F2000645F09000000F03F5A230000763C7935B9
:103F3000EF39EA3D0000E0FE422EE63F5555D53F01
:103F40000000E03F86EBF9FF0A2100000821000095
:103F50002DE9F041044630480025814205DA21F080
:103F60000042824201D805D124B12046BDE8F0418B
:103F7000FEF77ABCB1F5801F1BDA52EA040008D0C4
:103F800000290FDA0120FCF7BCFABDE8F041FEF78A
:103F900070BC0220FCF7B5FAFEF75EFC81F0004130
:103FA000BDE8F0816FF035053622204601F068FE4D
:103FB000044605EB2150A0F2FF32D00F40F2FF3350
:103FC0001B1A0D4663F31F55104401F09CF9064679
:103FD0000F4629462046FFF70DFE104A104B01F010
:103FE00035FA04460D460F4A0F4B3046394601F06C
:103FF0002DFA22462B4600F005FF05460C460B4ADB
:104000000B4B3046394601F021FA2A462346BDE8DB
:10401000F04100F0F7BE00000000F07F0EE526152D
:104020007BCBDB3F362BF111F3FE593D00609F50F7
:104030001344D33F2DE9F04D1D460C4694B017466E
:1040400021F0004123F00043002814BF4FF0010C81
:104050004FF0000C0CEB440CFB4A0CEB02064FEA51
:10406000620C66452BD33E0018BF012606EB4506C1
:104070001644F64A964222D3F54A53EA070C02D078
:10408000944205D148B914B000201146BDE8F08D26
:10409000002808BF4FF0000C01D04FF0010C0CEBD2
:1040A000440212F5001F0AD8002F14BF4FF0010C74
:1040B0004FF0000C0CEB450212F5001F07D914B0AD
:1040C0003A462B462146BDE8F04DFEF7D0BB002214
:1040D000DFF880A3002CB8BF534526DADFF878C399
:1040E0006345A8BF022220DADFF864C39C451CDCCC
:1040F000DFF868C30CEB235CBCF1140F08DDCCF1D6
:10410000340627FA06FC0CFA06F6BE420DD108E08A
:104110005FB9CCF1140623FA06FC0CFA06F69E42AF
:1041200003D10CF00102C2F1020251EA000C19D1D4
:10413000002D17DA002C18BF022A01D0012A07D05F
:104140000220FCF7DEF914B0BDE8F04DFEF784BBA9
:104150000220FCF7D6F9FEF77FFB14B081F0004196
:10416000BDE8F08DB7F1000C6CD1534525D104F1B9
:10417000804212F5801201BF00280020B44914B01B
:1041800008BFBDE8F08DB248884207DC002DA1BF12
:104190006046294614B0BDE8F08D07E0002DBFBF92
:1041A000604685F0004114B0BDE8F08DAC4979441B
:1041B000D1E9000114B0BDE8F08DDFF894C2634589
:1041C00025D1002D1FDA19B1514512D1D8B909E016
:1041D000002840F0F6829F4A214614B062F31E0187
:1041E000BDE8F08D0020214614B060F31E01BDE84B
:1041F000F08D08DA14B02346BDE8F04D02460020E9
:10420000614600F0BBBE14B02146BDE8F08D5145BB
:1042100018DAB5F1804F0DD0A5F1005CBCF1FF5C60
:1042200010D1B4F1000C0DDB14B06146BDE8F04DC7
:1042300000F0FABC234614B00246BDE8F04D194622
:1042400001F004B9060024F0004C3BD1D9B151452E
:1042500033D1002C06DD002DA1BF0020514614B043
:10426000BDE8F08D002C01DD002D1BDB002C13DAE6
:10427000002D11DB012A4FF0000014BF7549794968
:1042800014B0BDE8F08D022A18BF002C0AD0012A14
:1042900008D1002C06DA0AE0002CB8BF002D11DA94
:1042A000012A04D0002014B00146BDE8F08D14B0FE
:1042B00000204FF00041BDE8F08DA1F14050B0F179
:1042C0007F601AD0012000EBE47050EA020421D094
:1042D0005F4C521E4FF0000B104304BF4FF0000B19
:1042E000614C624883427DDD614A6248934229DD28
:1042F000884217DB002D2FDB41E0002C00DA4AB1A9
:10430000022A0CBF01204FF0FF3014B0BDE8F04D81
:1043100000F0F9BF0120FCF7F4F814B0BDE8F04D4F
:10432000FEF7A7BA4A4A8A420CDC002D14DC0220B0
:10433000FCF7E7F8FEF7AEFA61F31E0414B021466D
:10434000BDE8F08D814202DA002D18DA04E0404B1E
:10435000994220DD002D12DD0220FCF7D2F8FEF795
:104360008EFA05460E46002253465846214601F075
:104370006DF814B066F31E012846BDE8F08D0220EA
:10438000FCF7BFF8FEF786FA0A46214614B062F33E
:104390001E01BDE8F08D00223046614601F024FB8D
:1043A000064688466FF0010201F06AFC4FF0553274
:1043B000314B01F027FA3246434601F047F800221C
:1043C0002E4B01F01FFA8A463246434602901046B1
:1043D000194601F03BF85346029A01F037F882463D
:1043E000324600E054E0059143464FF0C040244976
:1043F00001F02CF8CDE90C01224A214B50460599D9
:1044000001F024F8824601911F4A204B3046414674
:1044100001F01CF85246019B01F0E6FA82460B4679
:1044200002460991DDE90C0100F0ECFCDDE90C230A
:1044300000268846304601F0D7FA5246099B01F023
:10444000E1F9024600F07EB9FFFF1F00FFFF0F00F9
:104450000000F03F0000F07F0000404301FCFFFF40
:104460003E1E00000000F0FF0000F0BF0000E04131
:104470000000F043FFFFEF3F5555D53F0000E03F00
:104480004715F73FFE822B6544DF5DF80BAE543EC7
:104490000020B1F5801F07DA35223046614601F071
:1044A000EFFB06466FF0340000EB2150A0F2FF3026
:1044B0000190C1F3130040F07F6141F0405102913F
:1044C000FE498842D8BF002004DDFD498142C8BFB3
:1044D000012001DD0F9008E000200F900198401CA2
:1044E00001900298A0F5801002900299F548784456
:1044F00005910F9900EBC1001290D0E900233046DE
:10450000059901F071FACDE90C011298D0E9002368
:104510003046059900F076FC02460B460020EA4939
:1045200000F02CFD0B46CDE908010246DDE90C0147
:1045300000F08CFF0A90E5488A464FF00008784466
:104540000299006810904FF0005040EA61010F9806
:1045500001EB804000F5002112981191D0E9002371
:10456000109801F041FA3246059B01F04BF94246A2
:10457000534600F06BFFDDE91023064603914046E9
:10458000514600F063FFDDE90C2301F03BF93246B0
:10459000039B01F029FADDE9082300F057FF03919E
:1045A0000A9A129053461046194600F04FFF0646ED
:1045B0000246C7480B46029106217844FDF742FFA8
:1045C000029B3246059108901046194600F03EFFC6
:1045D000059B089A00F03AFF06460991534640466B
:1045E00019460A9A00F00EFC039B129A00F02EFF67
:1045F0003246099B00F006FCCDE9080142465346CD
:104600001046194600F022FF02460B460291049024
:104610000020B04900F0F6FBDDE9082300F0F2FBD2
:104620000E464246AB4B404601F0DEF9029B049A2F
:1046300001F0DAF9DDE9082301F0E4F842460491DB
:10464000029033461046514600F000FFCDE90C01C0
:1046500053460A9A0499029800F0F8FE82460091A7
:10466000334642460399129800F0F0FE5246009BF2
:1046700000F0C8FB82460B4602460991DDE90C01B9
:1046800000F0C0FBDDE90C2300268846304601F02F
:10469000ABF95246099B01F0B5F8CDE90801434654
:1046A00032464FF060408C4900F0D0FE82460491C3
:1046B000DDE90801894A884B00F0C8FE02910090AC
:1046C000434632468648874900F0C0FE029B009A66
:1046D00000F098FB844B7B440F9A03EBC203D3E9B1
:1046E000002300F08FFB00900291019800F00BFE78
:1046F0000E9003915046029B009A049900F082FBB1
:104700007A4A7A440F9B02EBC3030993D3E900234F
:1047100000F078FB039B0E9A00F074FB884630464D
:10472000039B0E9A01F060F9099BD3E9002301F085
:104730005BF95246049B01F057F9029B009A01F085
:1047400061F8024600200B4602903846294600F0E8
:104750007DFE824603912B4638461946029A01F0A7
:1047600043F93246434600F071FE5246039B00F087
:1047700049FB07468A46324643462946029800F0DE
:1047800065FE05460E463A46534600F03BFB584A46
:104790008846914221DBA8EB020353EA000210D1C4
:1047A0002A46334601F020F9CDE90310514A524B15
:1047B0003846514600F026FBDDE9033200F0ECFFFD
:1047C00021D20220FBF79DFEFEF759F80A4621464A
:1047D00014B062F31E01BDE8F08D484B28F0004292
:1047E0009A4210D3464A08EB020353EA00027FF4D0
:1047F000C6AD2A46334601F0F7F83A46534600F074
:10480000CBFF7FF6BCAD0022019228F000403D496D
:104810003D4A01EB2051824223DA481C4FF48011BB
:1048200021FA00F04044394AC0F30A517A44384B27
:10483000A1F2FF31CB4020EA0303C0F3130040F4A0
:104840008010C1F11401C84012680190B8F1000F46
:10485000BCBF404201902846314601F0C5F80546EC
:104860000E462A4633463846514600F0CBFA4FF002
:1048700000084246274B4046039100F0E7FDCDE992
:104880000C01254A254B4046039900F0DFFD0291BB
:1048900000902A4633464046039901F0A5F83A466F
:1048A000534600F0AFFF1E4A1E4B00F0CFFD029BA7
:1048B000009A00F0A7FA0746884635E08E98030074
:1048C0007AB60B00161A00000000F03FAE1A000086
:1048D0007A1900000000084009C7EE3FFD033ADCEA
:1048E000F5015B14E02F3EBE4E18000012180000C8
:1048F00000009040FE822B654715973C00CC90400D
:1049000000346F3F01FCFFFF0000E03FC0170000D4
:10491000FFFF0F00432EE63F396CA80C615C20BE00
:10492000EF39FAFE422EE63F02460B46DDE90C0166
:1049300000F068FADDE90C2305460E4601F054F854
:104940003A46434600F05EFF07462A463346059145
:104950001046194600F07AFD824602462E488846E7
:104960000B4605217844FDF76DFD5246434600F0A5
:104970006DFD2A46334600F045FF80468A463A469A
:1049800028463146059B00F061FD3A46059B00F044
:1049900039FA0591009000224FF08043404651467D
:1049A00001F022F807460391424653462846314615
:1049B00000F04CFD3A46039B00F0E0FA059B009A9C
:1049C00001F012F82A46334601F00EF80022134B8C
:1049D00000F018FF054601980E4601EB005108153E
:1049E000002810DC28463146019A01F049F9FDF70C
:1049F000D3FA042808BFFDF74DFF28463146019A37
:104A000001F03EF905460B4614B02A4658462146A9
:104A1000BDE8F04D00F01ABD001600000000F03FA8
:104A200000B5254B21F0004287B09A4203DC0022FA
:104A3000134600922BE0214B9A4208D140B94FF027
:104A40000100FBF75EFDFDF714FF07B000BD03DBBF
:104A5000FDF70AFF07B000BD02AAFDF7B1FA10F09A
:104A600003014FF001000DD0012914D002291AD002
:104A70000DF1080C9CE80F00FDF766FC07B081F013
:104A8000004100BD0DF1080C00909CE80F00FDF7FF
:104A90002FFD07B000BD0DF1080C9CE80F00FDF7DD
:104AA00053FC07B000BD0DF1080C00909CE80F000E
:104AB000FDF71EFDE2E70000FB21E93F0000F07F6B
:104AC0002DE9F3474E49019820F00048884506DB60
:104AD000DDE9000102B0BDE8F047FDF7C5BE0024E6
:104AE000484D0028BCBF0024474D484ADDE900017D
:104AF00021F0004190454ADA454A90450BDA019988
:104B0000FDF74AFA042808BFFDF7C4FEDDE90001FD
:104B100002B0BDE8F087FDF7C5FE3E4B06460F46E6
:104B200098454FF000021FDA00F06CF98246884683
:104B300032463B461046194600F088FC5246434632
:104B400000F01CFA80468A4601223046394601F0C0
:104B500097F84246534600F047FF02B022462B46E4
:104B6000BDE8F04700F072BC00F04CF902460B467D
:104B70003046394600F002FA32463B4600F042F930
:104B800002B022462B46BDE8F04700F05FBC224A47
:104B9000904508DAFEF7FAFD02B022462B46BDE842
:104BA000F04700F053BC1D4A7A441D4B1268520F67
:104BB00098455DF8222003DB15D11A4B9A4212D892
:104BC0004FF0FF3201F05CF8FEF7E0FD06460F46BD
:104BD00022462B4600F03AFC02B032463B46BDE886
:104BE000F04700F033BC0220FBF78BFCFDF747FEDB
:104BF0000A46019902B062F31E01BDE8F087000089
:104C00000000F07F0000E03F0000E0BF0000364001
:104C10000000303E0000F03F422E8640E4130000CA
:104C2000CE3386407DF8B98F2DE9F04106460F4618
:104C300000F0F4FD041E0D4618BF0120284320F0AB
:104C40000040C0F17F6000F1E040C00F0ED0301C8A
:104C500018BF0120384320F00040C0F17F6000F110
:104C6000E040C00F04BF0120FBF74BFC2046294663
:104C7000BDE8F08110B5164B21F00042012486B04A
:104C80009A4203DC0022134600941CE0114B9A4226
:104C900008D140B94FF00100FBF733FCFDF7E9FD07
:104CA00006B010BD03DBFDF7DFFD06B010BD02AAA4
:104CB000FDF786F900F00100A4EB40000DF1080CAF
:104CC00000909CE80F00FDF789FC06B010BD0000C5
:104CD000FB21E93F0000F07F2DE9F0410546304817
:104CE00021F000420C460E4682420DDB08BF002D2B
:104CF00004D02846BDE8F041FDF7B6BD294A0020A2
:104D000062F31E01BDE8F08127488242A4BF002063
:104D100024493EDAB2F1725F0ADA2846FDF73CF91F
:104D2000042808BFFDF7B6FD28462146BDE8F081FE
:104D30001C4F26F000412846974215DC012200F066
:104D40009FFFFDF7AFFD00224FF0804300F05AF8BF
:104D500002460B4600204FF0804100F00FF9002280
:104D60003B4600F04FFD14E000224FF0404300F0BE
:104D70006DFBFDF797FD04460D4600224FF0804382
:104D800000F040F80B46024685F00041204600F056
:104D9000F5F8002EB8BF81F00041BDE8F0810000B9
:104DA0000000F07F0000F03F0000364010B5002901
:104DB0000AD00878002807D005487844FBF770FF30
:104DC000002801D0002010BD0248784410BD00002A
:104DD000AE180000A618000010B500290AD0087807
:104DE000002807D005487844FBF75AFF002801D077
:104DF000002010BD0248784410BD00009219000048
:104E00008A19000010B591EA030F48BF83F00043F0
:104E100000F1F285841A71EB030C05D2121943EBF1
:104E20000C03001B61EB0C014FEA1154A4EB135C63
:104E3000DFF81CE11EEA430F18BF9EEA445F00F052
:104E4000748021EA045123EA0E0343F48013DCF159
:104E5000200E32D322FA0CFE10EB0E0023FA0CFEC9
:104E600041EB0E01CCF1200E03FA0EFE10EB0E000A
:104E7000CCF1200E51F10001B1F5801F32D201EBCF
:104E8000045112FA0EF2BDE8104058BF7047401CA2
:104E900038BF5FEA420218BF7047002814BF20F0F5
:104EA000010041F100014FEA410313F5001F38BF33
:104EB0007047A1F1C04100F069BC012A43EB030235
:104EC000ACF1200CDCF11F0E32BF4FF0000E23FAC4
:104ED0000CF310EB030041EB0451B4EB115FD0D0A5
:104EE000A1EB045101F58011490801EB04515FEA7F
:104EF00030000ED350F1000038BF12FA0EFE08D178
:104F0000BDE81040C9E7401C38BF5FEA4202CAD181
:104F1000C3E7BDE810404FEA410313F5001F38BF57
:104F20007047A1F1C04100F031BC9EEA445F08D057
:104F300011EA5E0FBDE8104004BF01F000410020FF
:104F40007047BDE8104070B500F02AFB64FBBE3E20
:104F50000000E0FF02494FF0000000F05FBE00BF1C
:104F60000000F87F491058BFC1F140415B1058BFA5
:104F7000C3F140438B42EFF3008070472DE9C041FD
:104F800030B4DFF8A4C23CEA111418BF3CEA131491
:104F900000F0ED801CEA111481EA030544EAD5749F
:104FA00018BF1CEA131500F0C880A4EB050404F137
:104FB0007F7404F500344FF0004545EAC12145EA0D
:104FC000C32341EA505143EA52534FEAC0204FEA0B
:104FD000C222994208BF904200F09D804FEA1365BB
:104FE0000FF24416765D4FEA134506FB05F7C7F14D
:104FF000807706FB07F74FEAD737A7FB03687642AF
:10500000A7FB06CEC8F5803838BFA8F1010807FB1A
:1050100008E6A6FB028C4FF0000EE6FB03CEDCF1A7
:10502000000CCEF1004E38BFAEF1010EA6FB0C58BD
:105030004FF00007E6FB0E87A1FB08C6A0FB07CEDA
:1050400016EB0E064FF0000545F10005E1FB076584
:1050500015F1E04E7EBFA4F580345FEA46066D414F
:1050600016F1800745F100054FEA172747EA056763
:105070004FEA15254FEA0666A6F1DE46B6F1805FD7
:1050800020D9384605EBC47124F0010C01EB0C115A
:10509000BCF1FE6F02D8F0BCBDE8008124425CBFC9
:1050A00001F5801E9EEAC47F02D4F0BCBDE80081F9
:1050B000244200F13980A1F1C041F0BCBDE80041BB
:1050C00000F064BB4FEAD02040EA41504FEAD121C2
:1050D0004FEAD22242EA43524FEAD323A7FB028689
:1050E00007FB036605FB02661EEA0E0F58BFA6EB20
:1050F0000056B6EB00564FEA520E4EEAC37E18EB4E
:105100000E0E56EB530EBCD518EB02085E417F1C09
:1051100055F10005B5E74FF480154FF000074FF04B
:1051200000064FF00008ACE701F1C04101F000417A
:105130004FF00000F0BCBDE800810CEA131511EA45
:105140000C1F00D00CE013EA0C1F00F026804FF07B
:10515000000081EA030101F00041F0BCBDE80081DC
:10516000F0BCBDE8004181EA030100F00FBBF0BCD8
:10517000BDE8004170B500F013FA00BF097EFC3EA7
:1051800000F007B84FF0000081EA030101F0004190
:10519000704781EA030100F0F9BAF0BCBDE80041B4
:1051A00022494FF000007047FFFDFBF9F7F5F4F2DC
:1051B000F0EEEDEBE9E8E6E4E3E1E0DEDDDBDAD8B2
:1051C000D7D5D4D3D1D0CFCDCCCBCAC8C7C6C5C410
:1051D000C2C1C0BFBEBDBCBBBAB9B8B7B6B5B4B327
:1051E000B2B1B0AFAEADACABAAA9A8A8A7A6A5A412
:1051F000A3A3A2A1A09F9F9E9D9C9C9B9A999998D6
:105200009797969595949393929191908F8F8E8E78
:105210008D8C8C8B8B8A8989888887878685858405
:1052200084838382828181800000FF070000F87FF1
:1052300051EA030C17D41CF5801F58BFBCF5801F22
:1052400000F10680994218BF704708BF904270472E
:1052500007D711F5801F58BF13F5801F19D4994245
:105260007047894270471CF5801F08D5BCF5801F28
:10527000F7D58B4218BF704708BF824270474FF482
:10528000001C1CEB410F38BF1CEB430F01D28B42BB
:10529000704770B500F084F9922449004FF0005136
:1052A0004FF08053FFF75EBE4FEA41034FEA53537E
:1052B000A3F58063D3F11E03C8BFD3F1210C0CDD2D
:1052C0004FF0004242EAC12242EA505232FA03FC55
:1052D0008CEAE17CACEBE1707047102BC4BF00207E
:1052E000704703F5787CBCF1FF3F04D06FF00042BB
:1052F00082EA2100704770B500F052F9499224808B
:1053000000207047F2E710F0004248BF4042B0FA78
:1053100080F310FA03F10AD0C3F11D0303F5806393
:1053200002EB03524FEA415002EBD12170474FF09C
:1053300000007047B0FA80F310FA03F10AD0C3F10D
:105340001D0303F580634FEA03524FEA415002EB1D
:10535000D12170474FF000007047000051EA030C64
:1053600017D41CF5801F58BFBCF5801F00F10680C4
:10537000994218BF704708BF9042704707D711F590
:10538000801F58BF13F5801F19D499427047894276
:1053900070471CF5801F08D5BCF5801FF7D58B42E0
:1053A00018BF704708BF824270474FF4001C1CEBC7
:1053B000410F38BF1CEB430F01D28B42704770B5D1
:1053C00000F0EEF8922449004FF080514FF0005366
:1053D000FFF7C8BD51EA030C17D41CF5801F58BF56
:1053E000BCF5801F00F10680994218BF704708BFC6
:1053F0009042704707D711F5801F58BF13F5801FE3
:1054000019D499427047894270471CF5801F08D50E
:10541000BCF5801FF7D58B4218BF704708BF82428A
:1054200070474FF4001C1CEB410F38BF1CEB430FBF
:1054300001D28B42704770B500F0B2F89224490057
:105440004FF000514FF08053FFF78CBD70B5DFF87F
:1054500048C11CEA111E1EBF1CEA13159EEA0C0F60
:1054600095EA0C0F00F06F8081EA03044EEAD47EC7
:10547000AE4421EA4C1123EA4C1341F4801143F469
:105480008013AEF17F7EA1FB024CA0FB03653619B1
:1054900055EB0C05A1FB034C4CF10003A0FB021CD7
:1054A00016EB0C06654153F10003094218BF46F0A4
:1054B000010613F4007F0BD14FEA03314FEA0530A8
:1054C00041EA155140EA165034036FF003020AE036
:1054D0004FEAC3214FEAC52041EA555140EA5650F0
:1054E000F4026FF0020202EB2E4201EB025585EA54
:1054F000CE710AD05FEA440C18BF24F0004450F18A
:10550000000041F1000120EAD47040F2FE7C6245C7
:1055100000D270BDA84214BF4FF080444FF0404409
:10552000002E08BF0024BEF1806FA8BFA1F1C041CA
:10553000BDE8704080F22A8101F1C04101F00041D4
:105540004FF0000070470CEA13159EEA0C0F18BFCD
:1055500095EA0C0F06D081EA030E4FF000000EF022
:10556000004170BD00F01CF88900013E00F007B852
:1055700000F009B84FEA430C5FEA5C5C08D081EAAE
:10558000030100F003B94FEA410C5FEA5C5CF6D11D
:1055900002494FF0000070470000FF070000F87F4D
:1055A0000EF1020E2EF0030E5EF8046B364205D4A7
:1055B000012A43EB030515F5001F12D8012841EB22
:1055C000010C1CF5001F0CD80ED14FEAD17C0CEB5E
:1055D0004C0C0CF1020C15F5001F08BF4CEBD37CF2
:1055E00004E04FF0080C01E04FEAD37C0CEB4C05D3
:1055F00026FA05F606F00706B6F1040C06D20EEB05
:10560000860CBDE870404CF0010C6047DFE80CF000
:10561000090B02024FF00041A1F500214FF00000FC
:1056200070BD19461046012851EB010418BFD4F58E
:10563000001484BF002001F0004170BD70B5DFF898
:1056400044C13CEA111418BF3CEA131500F08F80E6
:1056500011F1004F0CEA11141CEA131568BF45F054
:10566000050518BF11EA0C1F00F0798021EA4C11E2
:1056700023EA4C1341F4801143F480132E46A5F520
:105680008035AC423DDDA4F58036801A994109D5BC
:105690004042C1F1000134BFB1F10101B1F100019B
:1056A00085F0010511F4F01F08D011F4801FE8D136
:1056B000400041EB0101A4F58034F6E721F0004100
:1056C000B1FA81F6202E04BFB0FA80FE0EF120065A
:1056D000A6F10B06A4EB0644B6F1200E0CD2C6F1DF
:1056E000200E01FA06F120FA0EF641EA0601CEF18B
:1056F000200600FA06F003E000FA0EF14FF0000079
:10570000BFE750EA410E23D04FEA244EBEEB254FAF
:105710000FDB994208BF904204D00AD3520043EBFA
:105720000303B0E74FEA1646B6EB144F08BF85F007
:105730000105B4F5803401EB041181EAC57100DB89
:1057400070BD01F1C04101F000414FF0000070BD9B
:105750004FEA45714FF0000001F0004170BD1CEAB6
:10576000131F09D04FF0000001F0004170BDFFF79A
:1057700017FF00BFEDFFFF3EBDE8704002494FF04C
:10578000000070470000FF070000F87F0808A0F540
:1057900000114FEA3101704753EA010C17D41CF590
:1057A000801F58BFBCF5801F00F106808B4218BFD8
:1057B000704708BF8242704707D713F5801F58BF54
:1057C00011F5801F19D48B4270479B4270471CF51E
:1057D000801F08D5BCF5801FF7D5994218BF7047C8
:1057E00008BF904270474FF4001C1CEB430F38BFBA
:1057F0001CEB410F01D2994270470FB40CBC03BCA3
:10580000FFF719BE10B591EA030F81F000413FF593
:1058100001AB83F0004300F0EFB800002DE9F04148
:1058200001F5801CBCF5001FC0F2C3804FEA115C7B
:1058300021EA0C5141F480110CF1FD0C5FEA5C0C83
:105840000CF5C07C01D340004941890241EA9051E6
:1058500087023BA48E0EA45D0A0C04FB04F602FB37
:1058600006F6C6F14046A4FB0662F60D46EA42265D
:1058700006FB06F4A4FB01235242C3F1404338BFA8
:105880005B1EA6FB02420024E6FB0324D20B42EA85
:105890004446A6FB0623A1FB02E2A3FB07E4A418EF
:1058A0004FF0000252F10002E3FB01426442C2F1F8
:1058B000404E38BFAEF1010EA6FB04234FF00002AC
:1058C000E6FB0E32A2FB0346B6194FF0000454F17A
:1058D0000004E2FB0264A1FB06E6A4FB07E816EB6A
:1058E00008064FF0000858F10008E4FB0168764212
:1058F000C8F1405838BFA8F10108A2FB06E4A3FB99
:1059000008E52D194FF0000454F10004E2FB08549F
:10591000A1FB05E6A7FB04E818EB06084FF000061C
:1059200056F10006E1FB048618F1200556F1000649
:10593000A80940EA8660B109A8F11B0808F03F08F1
:10594000B8F10A0F1CD901EB0C51BDE8F08100BF82
:10595000FCF5EEE8E2DDD8D3CFCBC7C3C0BDB9B606
:10596000B4B1AEACA9A7A5A3A19F9D9B9A9896950B
:105970009392908F8D8C8B89888786858483828192
:10598000A0FB006800FB01F208EB4208B8EB872897
:1059900007D5341858EB0104D5D5401C51F100014E
:1059A000D1E7341A78EB0104CDD4401E71F1000127
:1059B000C9E75FEA4C0C5FEA9C5C0DD105D301F0AE
:1059C00000414FF00000BDE8F081BDE8F04170B546
:1059D000FFF7E6FD6DDBFFBEBDE8F04101494FF08A
:1059E000000070470000F87F10B591EA030F48BF30
:1059F00083F000433FF50EAA841A71EB030C07D223
:105A00008CF0004C121943EB0C03001B61EB0C01F2
:105A10004FEA1154A4EB135CDFF8A4E11EEA430F34
:105A200018BF9EEA445F00F0B48021EA045123EAE3
:105A30006E035242C3EB6E0338BF5B1EDCF1200ED7
:105A400025D322FA0CFE10EB0E0043FA0CFE41EBBC
:105A50000E01CCF1200E03FA0EFE10EB0E00CCF17D
:105A6000200E51F1000129D401EB045112FA0EF27B
:105A7000BDE8104058BF7047401C1CBFB2F1004F3A
:105A8000704700280CBF491C20F00100704712EB42
:105A9000020E43EB030218BF4FF0010E4EEA420222
:105AA000ACF1200CDCF11E0E56D943FA0CFE10EBC3
:105AB0000E00CCF11E0E51F1FF31D5D50EF1010EC5
:105AC00012FA0EFE404141EB010101EB445C5FEA3A
:105AD0005C5C10D901EB045110EBDE7038BFBEF1F5
