:020000040800F2
:10000000F8080020610200089D0200089F02000815
:10001000A1020008A3020008A502000800000000D9
:10002000000000000000000000000000A70200081F
:10003000A902000800000000AB020008AD020008A1
:10004000AF020008AF020008AF020008AF020008CC
:10005000AF020008AF020008AF020008AF020008BC
:10006000AF020008AF020008AF020008AF020008AC
:10007000AF020008AF020008AF020008AF0200089C
:10008000AF020008AF020008AF020008AF0200088C
:10009000AF020008AF020008AF020008AF0200087C
:1000A000AF020008AF020008AF020008AF0200086C
:1000B000AF020008AF020008AF020008AF0200085C
:1000C000AF020008AF020008AF020008AF0200084C
:1000D000AF020008AF020008AF020008AF0200083C
:1000E000AF020008AF020008AF02000800F002F8FB
:1000F00000F0A6F814A696E8000CB244B344DA4522
:1001000001D100F09DF8BAE80F000FA696E8300084
:10011000A5EB040504EB0607AAEB0704A7F101070A
:100120004FEA15154FEA3414A4F10104AC4201D38F
:1001300000F086F813F0010F18BFFB1A43F001031B
:1001400000F001F8DBE7184704710000247100009B
:10015000103A24BF78C878C1FAD8520724BF30C8F3
:1001600030C144BF04680C60704700007047000055
:100170000023002400250026103A28BF78C1FBD8B0
:10018000520728BF30C148BF0B6070476E2900F08E
:100190009B81702900F0D182662906F0C88265290A
:1001A00006F0C582672906F0C282612906F0C18285
:1001B00003681B0A28BF41F08001692900F04881CB
:1001C000642900F04581752900F042816F2900F013
:1001D0005F82782900F09D82E92900F0F981E42905
:1001E00000F0F681F52900F0F381EF2900F05C8240
:1001F000F82900F09C820368DB0928BF41F08001E8
:10020000632900F0CF87732900F0D487E32900F039
:10021000DF87F32900F0E487002070471FB501F065
:1002200045F804000020002104F016FE401C606028
:100230000020002104F0FAFDE0601FBD10B510BDE4
:1002400001F006F81146FFF7E9FF01F003FA01F0AB
:10025000E3F803B4FFF7F2FF03BC01F073F9000009
:100260004FF000004FF000014FF000024FF000038C
:100270004FF000044FF000054FF000064FF000076C
:100280004FF000084FF000094FF0000A4FF0000B4C
:100290004FF0000C0948804709480047FEE7FEE799
:1002A000FEE7FEE7FEE7FEE7FEE7FEE7FEE7FEE726
:1002B00004480549034A054B70470000191500081A
:1002C000ED000008F8000020F8080020F8000020E9
:1002D000704700000FB4044910B503AA029800F05B
:1002E00007F910BC5DF814FB780000200EB5054638
:1002F00014460E4613A000F0FAFA284600F0F7FA6A
:1003000016A000F0F4FA304600F0F1FA15A000F063
:10031000EEFA00218DF80B100A210DF10A008DF87C
:100320000A1008E094FBF1F201FB124294FBF1F495
:10033000303200F8012D002CF4DC00F0D8FA00F087
:10034000CBFA00002A2A2A20617373657274696FE0
:100350006E206661696C65643A2000002C20666935
:100360006C6520002C206C696E652000704770471A
:100370007047704710B500F0C5FA006810BD10B5A1
:10038000044600F0BFFA046010BD70B504468569EC
:100390000068C10601D5302600E02026C00707D03E
:1003A00070BDD4E9012130469047206A401C20628C
:1003B0006D1EF6D570BD70B5044685690078C0071E
:1003C00007D170BDD4E9012120209047206A401C4C
:1003D00020626D1EF6D570BD09684A0501D540B290
:1003E0007047C905FCD500B2704709684A0501D5B8
:1003F000C0B27047C905FCD580B2704770B50C46D5
:100400000546012A05D02878800600D5EA69002330
:1004100002E0012305E05B1C934202D2E05C00286D
:10042000F9D1A869E618C01AA861286A1844286298
:100430002846FFF7AAFF04E0D5E9012114F8010BD3
:100440009047B442F8D32846FFF7B5FF70BD0000CF
:100450002DE9F0410646002410687529314616A59D
:1004600010D0FFF7B9FF002802DA404213A507E0D9
:1004700031688A0701D512A502E0490704D511A504
:10048000012401E0FFF7B1FF00210A2206F1240751
:1004900009E0B0FBF2FCB0FBF2F302FB1C003030D1
:1004A00078541846491C0028F3D123462A46304682
:1004B000BDE8F04100F06FBA000000002D00000020
:1004C0002B0000002000000011680268006A53053C
:1004D00001D508700AE0D30501D5088006E01306AF
:1004E00003D5C217C1E9000200E00860012070478F
:1004F000074B70B50D467B4400F037FE0446284696
:1005000000F072FE10B14FF0FF3070BD204670BD9C
:10051000F71000002DE9FF5F15468A460446DFF814
:10052000AC80F8440027D8E900103E46CDE9001021
:1005300010E03AF816106A4602A800F059FE411C75
:1005400007D02178890603D5E269391891420DD880
:100550000744761C2078800602D5E069B84205DDA4
:10056000AE42E6DB3AF816000028E2D1A069C01BD3
:10057000A0612046FFF709FFD8E90010CDE900107F
:10058000002017E03AF818106A4602A800F030FE82
:10059000B0F1FF3F81460BD000250DF1080B05E0BF
:1005A000D4E901211BF8050090476D1C4D45F7D398
:1005B00008F10100B0428046E4DB206A3844206242
:1005C0002046FFF7F8FEBDE8FF9F000042660000EE
:1005D0002DE9F0418046D21D22F007020025D2E924
:1005E0000002F52915A614D0011E72F1000106DAE9
:1005F0000023D0EB030063EB020211A608E0D8F859
:1006000000108B0701D50FA602E0490701D50EA601
:1006100001251146002408F1240704E000F076F9D2
:1006200030323A55641C50EA0102F7D12B4632466B
:1006300021464046BDE8F04100F0ADB900000000A1
:100640002D0000002B0000002000000030B400212D
:1006500000F1240408E002F00705D208303542EA30
:100660004372DB086554491C52EA0305F3D1046860
:10067000002310A2250708D504F020040C4304D061
:10068000C46901230CA2641EC46130BC00F083B9AC
:1006900010B5044621461068FFF7A7FE0246204623
:1006A000BDE810400023D1E7D21D22F00701D1E9B7
:1006B0000023CBE70000000030000000F0B40D463E
:1006C0000188090502D5214C7C4402E01F4C7C4482
:1006D0000E34002100F1240608E002F00F07120991
:1006E000E75D42EA03721B097754491C52EA03078B
:1006F000F3D102780023120704D5702D06D009B17A
:10070000022311342246F0BC00F045B90123103415
:10071000F8E770B504460D4621461068FFF765FE00
:10072000024629462046BDE870400023C6E7D21D98
:1007300022F00703D3E90023C0E70368126843F0FF
:10074000200303600823C3610023B7E7A46400000B
:100750002DE9F05F894604464FF0000ADFF874B1D6
:10076000FB44C0F820A02046E1688847002874D0E8
:10077000252806D0D4E901219047206A401C206238
:10078000F1E700265F462046E168884720280546B5
:1007900007DB312D05D2781910F8200C08B106437B
:1007A000F1E7B00701D526F00406C4F81CA0002725
:1007B000C4F818A02A2D09D0284602F08BFB38B3C4
:1007C00004EB8708303DC8F8185019E059F8041BAD
:1007D000204604EB87029161E1688847012F0546B6
:1007E00018D1E069002820DA26F020061DE0D8F8AC
:1007F000180000EB800005EB40003038C8F8180006
:100800002046E1688847054602F064FB0028EED1E7
:10081000012F0AD02E2D08D12046E16888477F1C81
:100820000546022F46F02006C4DBA069002803DA43
:10083000404246F00106A061F00701D026F0100604
:100840006C2D0BD0682D09D04C2D39D06A2D35D0A8
:10085000742D35D07A2D33D016E038E0E1682F467C
:1008600020468847B842054609D16C2F26D04FF460
:100870008060E168064320468847054604E06C2F07
:100880001AD04FF4807006430DB3A5F1410019282A
:1008900002D8203546F400664A462946204626609E
:1008A0004E46FFF773FC80B101280BD0F61D26F0F1
:1008B000070000F1080956E74020E4E78020D8E768
:1008C0000020D6E706F104094DE7284652E7206AE2
:1008D000BDE8F09F3464000010B5002000F0ACFCCF
:1008E000FFF7ACFCBDE81040012000F02BBE10B5B6
:1008F000044602E0641C00F029FE20780028F9D1AB
:1009000010BD0000004870471800002030B5B0F15D
:100910000A0271F100034FEA900E4EEA817EB0EBBD
:100920000E0061EB91014FEA101E4EEA017E10EBC2
:100930000E0041EB11114FEA102E4EEA016E10EB42
:100940000E0041EB11214FEA104E4EEA014E10EB22
:100950000E0041EB1141401841F100014FEAD00077
:1009600040EA41704FEAD1014FEA810444EA9074B1
:1009700010EB800544EB01046D1944EB0404521B99
:10098000A3414FF0000348BF0A3200D530BD401CE0
:1009900041F1000130BD2DE9F0470D4699469246E0
:1009A000044600F124080168880604D5E06921F0B6
:1009B0001001216000E00120A84201DD471B00E09A
:1009C0000027A1697A1902EB0900081AA0612078B2
:1009D000C00602D42046FFF7D8FC002608E0D4E980
:1009E00001211AF806009047206A401C761C2062FC
:1009F0004E45F4DB2078C0060AD52046FFF7C5FC3B
:100A000006E0D4E9012130209047206A401C206292
:100A1000381EA7F10107F4DC07E0D4E9012118F83A
:100A200005009047206A401C2062281EA5F10105A0
:100A3000F3DC2046FFF7BFFC2078000602D5022039
:100A4000BDE8F0870120FBE72DE9FF4F0C461E466D
:100A50004FF0FF378BB0D2E90001DDF860800A90DB
:100A60008A46C1F30A5505B93D46002108464FF0B4
:100A70000000BAF1000F00F4400005DA00EB80003E
:100A80004FF4400101EA50004FEA9059B9F1010FCB
:100A900000DDB9460A9850EA4A000ED044F61050DC
:100AA000A5F2FF3545432F14B8F1000F1ED0754253
:100AB000291E1EDDC9F100021CE0B8F1010F4FF044
:100AC000000001D0302103E0F24305E02154401C36
:100AD000B042FBDB30460022002121540B99C1F8C3
:100AE0000880C1E900200FB0BDE8F08FBD1B6D1C70
:100AF000DEE74A4600DA694206A800F01BFC06ABB6
:100B000093E8070003AB83E8070050460A9901F019
:100B1000ABF98DE80700A0F500501F38009003984E
:100B2000002D0ADD42F21F014A460844002303A9B2
:100B30000390684601F014FC09E0A0F500504A4615
:100B40001F38002303A90390684601F01EFC8DE8BE
:100B500007000004000C03D04FF0FF30410800E014
:100B60001046B8F1000F03D00022009215461EE097
:100B7000751E05D4FFF7CAFE303262556D1EF9D5D9
:100B8000B3460122084302D000227F1C04E02078F3
:100B9000302801D100227F1E002A099784D01DE051
:100BA000112D07DAFFF7B2FE303262556D1C50EAA4
:100BB0000102F5D1084302D00098C8B10EE000212F
:100BC000681E05E0235C625C63542254401E491C8D
:100BD0008142F7DBAB46A81B401E0990002004F8B9
:100BE0000B000B98099AC0F80880C0E9002B7AE73F
:100BF00011264FF0000857E72DE9F04F88460446CC
:100C0000D21D22F0070191B0D1E90001CDE90A011E
:100C100001F0F2FC02460B98C00F01D02D2007E036
:100C20002068810701D52B2002E0202101EAC000C5
:100C3000032A099001D0072A05DB034641462046D6
:100C400000F038FB0BE12078800601D5E06900E078
:100C50000620B8F1650F814606D0B8F1660F18D0AE
:100C6000B8F1670F70D131E00020B9F1110F009099
:100C700001DB112301E009F101030AAA01A90CA873
:100C8000FFF7E2FEDDE90C70002609F1010583465D
:100C900047E001204B4600904FF000470AAA01A907
:100CA0000CA8FFF7D1FEDDE90DB00C995D460026DA
:100CB00010B909F101000D18B9EB050003D4C0F11A
:100CC000FF3609F10105A5EB09002BE0B9F1010F91
:100CD00001DA4FF001090020B9F1110F00904846E8
:100CE00001DD112300E003460AAA01A90CA8FFF7C1
:100CF000ABFEDDE90C704D460026834620780007E8
:100D00000AD4AB4500DA5D4601A8012D04DD411986
:100D100011F8011C302907D04F4502DA17F1040FF2
:100D200004DA012082460FE06D1EEEE7002F02DCA0
:100D3000ED1B3E4403E0781CA84200DD7D1CB81B7F
:100D400000F1010A4FF000472078000703D4AA45BC
:100D500001DB4FF0FF3A0021B7F1004F0DF14308DE
:100D60008DF8431024D002202B23002F01DA7F427C
:100D70002D230A21021EA0F1010000DC5FB197FBC8
:100D8000F1FC97FBF1F201FB1C7C17460CF1300CD7
:100D900008F801CDEEE7A8F10100037021880905EC
:100DA00001D5452100E06521A0F1010800F8011CF2
:100DB00009980FA9A1EB0807FF1D00B101204119F7
:100DC00001EBEA70A1693844081A401EA06120783E
:100DD000C00602D42046FFF7D8FA099828B1D4E912
:100DE00001219047206A401C20622078C00622D54D
:100DF0002046FFF7CAFA1EE0002E04DBB34502DDF1
:100E000001A8805D00E03020D4E901219047206AEC
:100E1000401C2062761CAAF101005FEA000A0AD198
:100E200000F044FAC0680168405CD4E901219047B1
:100E3000206A401C2062281EA5F10105DCDC07E0C9
:100E4000D4E9012118F8010B9047206A401C206268
:100E5000381EA7F10107F3DC2046FFF7ACFA0320A8
:100E600011B041E62DE9F04F04460D46D21D22F0A7
:100E7000070089B0D0E900974846394601F0BCFB2D
:100E80000246F80F01D02D2307E02068810701D525
:100E90002B2302E0202101EAC0038DF820300BB1A2
:100EA000012000E00020032A824601D0072A04DB4B
:100EB0002946204600F0FEF93FE12078800601D463
:100EC0000D2500E0E569C7F30A560D2D49DA00212A
:100ED0004FEA175B08464FF00000002F00F4400077
:100EE00007DA00EB80004FF4400100EBD07001EA1C
:100EF00060008115012901DD4FF0FF3100224FEA2A
:100F0000850CBCF1180F06D31346ACF118004FF056
:100F10008052C24003E04FF4801323FA0CF30CF12B
:100F20000C0CBCF1200F04D3ACF1200C09FA0CF02E
:100F300001E007FA0CF000294FF0004801DD18B974
:100F40000FE00ED140450CD319EB02095F4121B9E6
:100F5000404502D19F4329EA0209BBEB175F00D04D
:100F6000761C2088000502D57B48784402E07A4848
:100F70007844193808AA302302F80A30037C0AF1B1
:100F80000101002E0AF1020A53546A4602DC4FF0B6
:100F9000300101E04FF031014FF001088DF80010F1
:100FA00002D0A6F2FF3603E059EA470100D06B4EAB
:100FB000002D02DC2178090704D54FF002082E210C
:100FC0008DF80110C44600210BE0C7F303433F0135
:100FD000C35C491C6D1E02F80830052908F10108A0
:100FE00001DA002DF1DC00210CE000EB1973491C43
:100FF0001B786D1E082902F808304FEA091908F11C
:10100000010801DA002DF0DC21688B0602D516E01C
:10101000A8F10108E04505DD02EB080313F8013CE7
:10102000302BF5D0B8F1000F09DD02EB080313F8FF
:10103000013C2E2B03D1090701D4A8F10108002D92
:1010400005DD3E2102F808106D1E08F10108407C04
:10105000002E02F8080008F1010804DA2D2076427B
:1010600002F8080002E02B2002F808000A214FF4E1
:101070007A70864208F101080BDB96FBF0F33033FF
:1010800002F8083096FBF0F308F1010800FB136644
:1010900001E0642E0CDB642096FBF0F3303302F8A1
:1010A000083096FBF0F308F1010800FB136601E03D
:1010B0000A2E06DB96FBF1F0303002F8080008F14A
:1010C000010896FBF1F001FB1060303002F80800D7
:1010D000A16908F1010808EB050202EB0A00081AF1
:1010E000A0612078C00602D42046FFF74EF9216A9D
:1010F00008AE01EB0A00206204E0D4E9012116F8F1
:10110000010B9047BAF1010AF7D22078C00602D548
:101110002046FFF73AF96E4609E016F8010B3E2823
:101120000FD0D4E901219047206A401C2062B8F119
:101130000108F2D22046FFF73EF909B00320BDE8CE
:10114000F08F206A2844206203E0D4E90121302096
:1011500090476D1EEBD3F8E7AD5D000002FCFFFF8A
:1011600001694A1C02610878704700B58FB0CDE96B
:1011700001310021059105497944CDE9031011465B
:101180006846FFF7E5FA0FB000BD0000E5FFFFFF7E
:1011900010B5436913B1AFF3008001E0FFF72EF9FA
:1011A000012010BD127800F124010A7000224A705B
:1011B0000122EDE711684FF0FF32E9E710B543690E
:1011C00013B1AFF3008001E0FFF7A4F9012010BDD7
:1011D000128800F1240182840022C2840122EDE7FA
:1011E00011684FF0FF32E9E7007B00F080007047A4
:1011F0002DE9F04116460C46054600F04FF803680D
:1012000093F80101012807D0FF2C12D8185D80B196
:1012100001202C70BDE8F081D3F807013246214649
:1012200003F20713C7182846BC46BDE8F041002367
:1012300060474FF0FF30EDE710B500F0FBF8BDE878
:10124000104000F0F2B8000000487047180000207D
:101250007546FFF7F9FFAE4605006946534620F094
:101260000700854618B020B5FFF722F8BDE82040FA
:101270004FF000064FF000074FF000084FF0000B52
:10128000AC46ACE8C009ACE8C009ACE8C009ACE8C1
:10129000C00921F007018D467047000010B500F02D
:1012A00005F8001D10BD00BFB13B000000487047AD
:1012B000380000202DE9F0411F460446032601684E
:1012C000072A01F4006004DB08B116A505E016A5A5
:1012D00003E008B115A500E015A521F0100020607D
:1012E000A069C01EA0610FB1401EA0612046FFF79B
:1012F0004CF84FB1D4E9012138469047206A401C90
:101300002062C01C206206E0206AFAE7D4E90121CD
:1013100015F8010B9047761EF8D22046FFF74BF8E0
:10132000BDE8F0814E414E006E616E00494E4600B0
:10133000696E66002DE9F047814616468AB0354849
:1013400078440DC88DE80D0032487844801C03AC09
:101350000DC884E80D0041F69B300844372190FB0E
:10136000F1F290FBF1F5A5F1800501FB12041B3CA5
:1013700002D56442012000E00020DFF898A08046FA
:101380000027FA44AAF1BE0A0EE0E0070AD032466E
:10139000684607EB470101230AEB810100F0F5FFE6
:1013A0008DE8070064107F1C002CEED1194F7F449C
:1013B000AE3F19E0E80715D007EB04100DF1180A4D
:1013C00090E80E008AE80E00C068F04201D198193A
:1013D00008903246012306A903A800F0D6FF03AB0C
:1013E00083E807006D10641C002DE3D14FF001036A
:1013F00032466946B8F1000F03A802D000F0B0FFF2
:1014000001E000F0C2FFC9E90001C9F808200AB0F4
:10141000BDE8F087685A000010B50446AFF30080BD
:101420002046BDE81040FEF714BF002801D000F0B0
:1014300089B8704710B5002102A000F013F8012010
:1014400010BD0000534947414252543A2041626E58
:101450006F726D616C207465726D696E6174696F15
:101460006E00000070B505460C460A2000E06D1CB9
:1014700000F06CF835B128780028F8D102E0641C3F
:1014800000F064F814B120780028F8D1BDE870406D
:101490000A2000F05BB800004FF0013C50F8042B2C
:1014A00051F8043B9A4221D1A2EB0C03934313EA77
:1014B000CC1317D150F8042B51F8043B9A4215D1A4
:1014C000A2EB0C03934313EACC130BD150F8042B7B
:1014D00051F8043B9A4209D1A2EB0C03934313EA5F
:1014E000CC13DBD04FF00000704700BFD01A01BA18
:1014F000B1FA81F101F0180122FA01F0CB40DBB220
:10150000C0B2C01AC1F120012CFA01F3D11A9143E3
:1015100011EAC311E6D1704780B582B04EF21000D7
:10152000CEF2000001900199086820F001000860E7
:1015300000F016F846F6C450C0F60000FEF7CAFEEA
:1015400002B080BD81B0009001B0704780B582B01C
:1015500001909DF9040000F023F8019802B080BDCD
:1015600081B040F20030C4F20000009000980068A2
:1015700040F20221C2F22501884207D1FFE740F282
:10158000CC01C2F200010120087006E040F2CC015B
:10159000C2F2000100200870FFE701B070470000B0
:1015A00080B584B08DF80F0040F20010C4F2000046
:1015B000019040F20410C4F20000009000F02EF8F8
:1015C0000290FFE7019800684006002809D4FFE771
:1015D00040F2CC00C2F20000007808B9FFE700E05A
:1015E000F0E79DF90F000099086004B080BD00008D
:1015F00080B582B0019000919DF90400FFF7D0FF03
:10160000019802B080BD000081B040F20420C4F215
:10161000000000900098006801B0704782B040F26E
:10162000CC00C2F20000007850B9FFE740F2D800C9
:10163000C2F200000168013101600068019006E01B
:101640004FF080400090009800680190FFE70198FB
:1016500002B0704780B582B0002000900190FFF783
:101660007FFFFFF7D1FF014640F2D000C2F2000039
:10167000016040F2CC01C2F200010A78036846F62C
:10168000FA70C0F600002C21FEF724FE00F038FAB4
:1016900000F034F8642000F011F8009840F2D40112
:1016A000C2F20001086047F25300C0F6000047F2A2
:1016B0008C11C0F60001ED22FEF718FE80B582B055
:1016C0000190019947F23D00C0F60000FEF702FECE
:1016D000FFF7A4FF0090FFE7FFF7A0FF0099401A73
:1016E0000199884201D2FFE7F6E746F6C770C0F6D7
:1016F0000000FEF7EFFD02B080BD000080B58AB0AB
:1017000040F20001C2F200010868496840F2080393
:10171000C2F200031A685B6803F00AFF0A4640F24F
:10172000E801C2F200014A600860086849684FF2A7
:10173000E462CBF2C25242F6C723C3F6E57304F06B
:1017400047FB08B1FFE70AE047F25800C0F6000087
:1017500047F28C11C0F60001A622FEF7C7FD40F249
:10176000E800C2F20000099046F60760C0F60000EB
:10177000FEF7B0FD40F20001C2F2000108684968BE
:1017800040F20803C2F200031A685B6803F068FCC9
:101790000A4609994A600860086849683922CFF208
:1017A00009624CF28563C3F6DB7304F011FB08B1E8
:1017B000FFE70AE047F28A00C0F6000047F28C110A
:1017C000C0F60001AA22FEF791FD40F2E800C2F245
:1017D0000000089046F62A60C0F60000FEF77AFD89
:1017E000089908684968192202F08EF90A4640F201
:1017F000E001C2F200014A600860086849683922C5
:10180000CFF209624CF28563C4F26B1304F0E0FA84
:1018100008B1FFE70AE047F23410C0F6000047F2D3
:101820008C11C0F60001AE22FEF760FD40F2E00030
:10183000C2F20000079046F66F70C0F60000FEF797
:1018400049FD40F2E801C2F20001086849684FF022
:1018500000524BF20323C3F6977302F0D5F80A4601
:1018600007994A6008600868496840F29032C2F2FD
:1018700090024EF22743C3F6917304F0A9FA08B11F
:10188000FFE70AE047F27000C0F6000047F28C1153
:10189000C0F60001B222FEF729FD40F2E000C2F2DC
:1018A0000000069046F64D60C0F60000FEF712FDFF
:1018B00040F2E801C2F200010868496801F0DEFC6C
:1018C0000A4606994A600860086849684DF28B42EA
:1018D000CCF259524BF61633C3F6DC7304F078FAA7
:1018E00008B1FFE70AE047F2BC00C0F6000047F28B
:1018F0008C11C0F60001B622FEF7F8FC40F2E000C1
:10190000C2F20000059046F64670C0F60000FEF7F1
:10191000E1FC40F2E801C2F200010868496801F008
:10192000E1FA0A4605994A600860086849684BF27E
:10193000F672CAF2ED224FF23533C3F6F17304F0BA
:1019400047FA08B1FFE70AE047F21C10C0F60000B2
:1019500047F28C11C0F60001BA22FEF7C7FC40F234
:10196000E000C2F20000049046F68470C0F6000069
:10197000FEF7B0FC40F2E801C2F2000108684968D5
:1019800003F068F90A4604994A60086008684968E3
:101990004CF69802C2F6C6324AF65A13C3F6DD7305
:1019A00004F016FA08B1FFE70AE047F2A300C0F618
:1019B000000047F28C11C0F60001BE22FEF796FC33
:1019C00040F2E000C2F20000039046F63270C0F62A
:1019D0000000FEF77FFC40F2E801C2F20001086857
:1019E000496801F015FE0A4603994A6008600868D4
:1019F000496843F6FB72CDF6AC724BF2CA13C3F6DC
:101A0000F87304F0E5F908B1FFE70AE047F2D50002
:101A1000C0F6000047F28C11C0F60001C222FEF7AA
:101A200065FC40F2E000C2F20000029046F65B70F6
:101A3000C0F60000FEF74EFC40F2E800C2F20000E3
:101A4000026843681046194602F0C2F80A46029935
:101A50004A600860086849684BF68D42CEF28F22D2
:101A600044F26D63C3F6E67304F0B2F908B1FFE720
:101A70000AE047F2EC00C0F6000047F28C11C0F615
:101A80000001C622FEF732FC40F2E000C2F2000084
:101A9000019046F60970C0F60000FEF71BFC40F20C
:101AA000E801C2F200010868496803F0EBF903F0AD
:101AB000BBF804F0F9F80A4601994A600860086822
:101AC00049684FF0005241F2BB43C3F6E57304F09E
:101AD0007FF908B1FFE70AE047F20410C0F6000002
:101AE00047F28C11C0F60001CA22FEF7FFFB46F652
:101AF000DE60C0F60000FEF7EDFB0AB080BD00001E
:101B000080B58AB00020099040F21000C2F20000B7
:101B1000006840F21401C2F20001096804F088FB79
:101B2000014640F2F400C2F20000016000684BF28E
:101B3000D171C3F6F95104F075F908B1FFE70AE075
:101B400047F2D310C0F6000047F28C11C0F6000136
:101B50007622FEF7CBFB40F2F400C2F200000890C0
:101B600046F61960C0F60000FEF7B4FB40F2100024
:101B7000C2F20000006840F21401C2F200010968DC
:101B800004F086F901460898016000684FF078512A
:101B900004F048F908B1FFE70AE047F20720C0F671
:101BA000000047F28C11C0F600017A22FEF79EFB7E
:101BB00040F2F400C2F20000079046F63C60C0F626
:101BC0000000FEF787FB07980068192101F0D6FF97
:101BD000014640F2F000C2F20000016000684FF0E0
:101BE000954104F01FF908B1FFE70AE047F29F10A2
:101BF000C0F6000047F28C11C0F600017E22FEF70D
:101C000075FB40F2F000C2F20000069046F6B360A9
:101C1000C0F60000FEF75EFB40F2F400C2F20000E6
:101C2000006849F21901C3F6BD4101F037FF0146D2
:101C300006980160006845F60671C3F6184104F085
:101C4000F1F808B1FFE70AE047F2AF10C0F6000074
:101C500047F28C11C0F600018222FEF747FB40F2EA
:101C6000F000C2F20000059046F66160C0F6000088
:101C7000FEF730FB40F2F400C2F20000006801F011
:101C800035FC014605980160006845F2F051C3F645
:101C9000006104F0C7F808B1FFE70AE047F2252029
:101CA000C0F6000047F28C11C0F600018622FEF754
:101CB0001DFB40F2F000C2F20000049046F68A607C
:101CC000C0F60000FEF706FB40F2F400C2F200008E
:101CD000006801F045FA014604980160006840F28E
:101CE0001D51C3F6B97104F09DF808B1FFE70AE091
:101CF00047F2F610C0F6000047F28C11C0F6000162
:101D00008A22FEF7F3FA40F2F000C2F200000390DC
:101D100046F6C960C0F60000FEF7DCFA40F2F400B7
:101D2000C2F20000006802F0C7FF0146039801609C
:101D300000684AF6BD31C3F6006104F073F808B1DB
:101D4000FFE70AE047F2C210C0F6000047F28C112C
:101D5000C0F600018E22FEF7C9FA40F2F000C2F28E
:101D60000000029046F67660C0F60000FEF7B2FA78
:101D700040F2F400C2F20000006801F08BFD014661
:101D800002980160006840F60231C3F6917104F0D8
:101D900049F808B1FFE70AE047F2E510C0F6000095
:101DA00047F28C11C0F600019222FEF79FFA40F232
:101DB000F000C2F20000019046F69F60C0F60000FD
:101DC000FEF788FA40F2F400C2F20000016808460B
:101DD00002F0F4FB014601980160006846F22A71A6
:101DE000C3F6457104F01EF808B1FFE70AE047F2B8
:101DF0003720C0F6000047F28C11C0F60001962291
:101E0000FEF774FA40F2F000C2F20000009046F6CD
:101E10001E70C0F60000FEF75DFA40F2F400C2F258
:101E20000000006802F000FF0146009801600068B1
:101E300040F2F341C3F6B56103F0F4FF08B1FFE7E8
:101E40000AE047F21320C0F6000047F28C11C0F6FA
:101E500000019A22FEF74AFA46F6F460C0F6000046
:101E6000FEF738FA0AB080BD5FEA400C08BF91F077
:101E7000000F4FEA8C234FEAC12243EA51514FEA47
:101E80001C5018BF00F5F0404FEA300018BF41F079
:101E900000415FEA6C5C00F02980BCF1FF3F08BFA5
:101EA00040F080407047130C06BF12044FF0100C36
:101EB0004FF0000C130E04BF12020CF1080C130FAC
:101EC00004BF12010CF1040C930F04BF92000CF13B
:101ED000020CD30F04BF52000CF1010C11464FF05D
:101EE0000002A0F11F00A0EB0C00704711F0004FA2
:101EF00008BF704731F000413FF4D5AF0B0C06BF6F
:101F000009044FF0100C4FF0000C0B0E04BF090237
:101F10000CF1080C0B0F04BF09010CF1040C8B0F22
:101F200004BF89000CF1020CCB0F04BF49000CF177
:101F3000010CCCF1200322FA03F341EA030102FA77
:101F40000CF2A0EB0C0000F10100704723F07F477A
:101F500020F07F4C80EA030000F00040ACEB070368
:101F600003F57C5303F1FF032DE9804909B44FEADF
:101F7000144324EA03484FEA154B25EA0B4E0FF2AF
:101F8000042606EB13273E7803FB0667C7F5000718
:101F900007FB06F64FEAD64606F102064FEA54372B
:101FA00007FB066CCCF1005C4FEA1C472CEA074C9F
:101FB0000CFB06F507FB06F404EB15464FEA9616F4
:101FC00049085FEA320234BF00204FF000404FEA78
:101FD000D13706FB07FC4FEA1C4C0CFB0BF7D21B5E
:101FE00003FB0CF761EB07010CFB0EF7B0EB0740AE
:101FF00072EB17420CFB08F734BFA2EB0742B2EBBF
:10200000074261EB17414FEA0C444FEA910706FB88
:1020100007FC4FEA1C4C0CFB0BF7B0EBC74072EB14
:10202000573203FB0CF734BFA2EBC742B2EBC742F7
:1020300061EB57310CFB0EF7B0EBC70072EB577238
:102040000CFB08F734BFA2EBC702B2EBC70261EB8F
:1020500057714FEA816141EA92114FEA826242EA86
:1020600090124FEA806004EBCC04039F4FEAD13713
:1020700006FB07FC4FEA1C4C0CFB0BF7D21B03FBC7
:102080000CF761EB07010CFB0EF7B0EB074072EBAE
:1020900017420CFB08F734BFA2EB0742B2EB074232
:1020A00061EB17414FEA8C5504EB9C244FEA9107F2
:1020B00006FB07FC4FEA1C4C0CFB0BF7B0EBC740D0
:1020C00072EB573203FB0CF734BFA2EBC742B2EB03
:1020D000C74261EB57310CFB0EF7B0EBC70072EB58
:1020E00057720CFB08F734BFA2EBC702B2EBC70272
:1020F00061EB57714FEA816141EA92114FEA8262C6
:1021000042EA90124FEA806015EB4C2544F100043E
:102110004FEAD13706FB07FC4FEA1C4C0CFB0BF7D0
:10212000D21B03FB0CF761EB07010CFB0EF7B0EBC6
:10213000074072EB17420CFB08F734BFA2EB0742D3
:10214000B2EB074261EB17414FEA813141EA92411C
:102150004FEA823242EA90424FEA80304FEA0C76F0
:1021600015EB1C1544F1000448EA03434EEA0B4802
:102170004FF0000EB2EB080C71EB030724BF624670
:1021800039464EEB0E0E4FF0000B001852414941FC
:102190004BEB0B0BB2EB080C71EB03077BF1000B65
:1021A00024BF624639464EEB0E0E4FF0000B00186E
:1021B000524149414BEB0B0BB2EB080C71EB03079F
:1021C0007BF1000B24BF624639464EEB0E0E51EAFE
:1021D000020718BF46F0010616EB0E7655F1000215
:1021E00054F1000103D5BDE88901BDE80088BDE8D0
:1021F0008901BDE80048B619524141EB0101A3F144
:102200000103704780807F7E7D7C7B7A797877764A
:1022100076757473727171706F6E6E6D6C6C6B6AC3
:102220006A69686867666665646463636261616061
:10223000605F5F5E5E5D5D5C5C5B5B5A5A595958DE
:102240005857575656555555545453535252525148
:10225000515050504F4F4F4E4E4D4D4D4C4C4C4B9E
:102260004B4B4A4A4A4949494848484747474746E5
:102270004646454545444444444343434342424221
:10228000424141419C46002B30D477002BD04FEA8D
:1022900037071CB503B44FF010004FF01001BAF12E
:1022A000000F06D0BCF1000FDCBF40F0080040F08A
:1022B00008014FF000000FBCBDE810400BF1010B0E
:1022C000BBF1010F08BF5FEA170722BF12F101023D
:1022D00011F101014FF0004143F1000300F0004013
:1022E00043EA00007047F9D35708D0E746EA0646AC
:1022F0004FEA164613F1400F1FDD13F1200FDFBF29
:1023000016430A46002120335B42BED0C3F12007AA
:1023100046EA06464FEA164602FA07F746EA070675
:1023200022FA03F2C3F1200701FA07F742EA070293
:1023300021FA03F14FF00003A7E746EA020646EA56
:1023400006464FEA164646EA0106BCBF46EA06467E
:10235000360C4FF000034FF000024FF0000194E7FD
:102360002DE9804C70B49A46934691E8380007C82E
:1023700031EA400C48BF34EA430C03D5FFF7E6FDD1
:10238000FFF780FFF0BCBDE8008C2DE9804C70B4F5
:102390009A46934691E8380007C810F0804F08BF6E
:1023A00013F0804F03D100F005F8FFF76BFFF0BC8E
:1023B000BDE8008C20F07F4723F07F4C80EA0300CB
:1023C00000F0004007EB0C03A3F57C53A3F1FE03E0
:1023D00092F0000F00F0B38095F0000F00F07780CE
:1023E0002DE901494FEA114021EA00484FEA14461D
:1023F00024EA064700FB06FC08FB06F607FB08F884
:1024000018EB06484CEB164C00FB07F718EB074897
:102410004CEB17404FEA124B22EA0B4E4FEA15469F
:1024200025EA06470BFB06FC0EFB06F607FB0EFE35
:102430001EEB064E4CEB164C0BFB07F71EEB074E44
:102440004CEB174B18EB0B0840F1000018EB0E0B90
:1024500058EB000840F100008F1A4FF000014FF0D8
:1024600000063CBFC943661B14BFB5EB040C00213A
:102470003CBFC943F61B4FEA174427EA04454FEA1D
:102480001C472CEA074C04FB076205FB07F70CFB13
:1024900005F616EB074642EB174204FB0CFC16EB65
:1024A0000C4642EB1C421BEB060658EB0202414174
:1024B0004EEA8E0E46EA9E0601D5BDE80189B619A0
:1024C000524141EB0101A3F10103BDE801894FEA4B
:1024D000144524EA05464FEA114721EA074C05FB5B
:1024E00007F406FB07F70CFB06F111EB074144EB81
:1024F000174405FB0CFC11EB0C4144EB1C444FEA68
:10250000124722EA074C05FB07F206FB07F70CFB14
:1025100006F616EB074642EB174205FB0CFC16EBE2
:102520000C4642EB1C456A1854F1000148BF704745
:10253000B619524141EB0101A3F10103704795F037
:10254000000F37D04FEA114221EA02464FEA144702
:1025500024EA074C02FB07F106FB07F70CFB06F425
:1025600014EB074441EB174102FB0CFC14EB0C4449
:1025700041EB1C414FEA154725EA074C02FB07F5E2
:1025800006FB07F70CFB06F616EB074645EB17456F
:1025900002FB0CFC16EB0C4645EB1C42121951F1E8
:1025A000000148BF7047B619524141EB0101A3F148
:1025B000010370474FEA144524EA05464FEA1147E4
:1025C00021EA074C05FB07F106FB07F70CFB06F2B7
:1025D00012EB074241EB174105FB0CFC12EB0C42DE
:1025E00051EB1C414FF0000648BF7047921841EB79
:1025F0000101A3F101037047490050EAC12018BF4F
:1026000004204A0D18BF40F0010040F2FF72B2EB07
:10261000515F08BF40F00200012808BF0520704745
:102620004100080218BF04200A0E18BF40F0010044
:102630004FF07F4232EA010108BF40F0020001285A
:1026400008BF0520704700002DE9F74F144694B0ED
:102650000021C4E902111599079121F00045C949EB
:102660008D4206DC1599C4E9000117B00020BDE8D1
:10267000F08FC549DFF814A3A9423CDD0799C44E89
:102680000029C44FC44A1599534619DD03F01EFAB8
:10269000554506D0C14AC24B03F018FAC4E90001FF
:1026A0000AE04FF0D352BE4B03F010FA32463B46DD
:1026B00003F00CFAC4E9000117B00120BDE8F08F67
:1026C00002F012FC554506D0B44AB54B02F00CFCA2
:1026D000C4E900010AE04FF0D352B14B02F004FC10
:1026E00032463B4602F000FCC4E9000117B04FF04F
:1026F000FF30BDE8F08FAB49A942159978DB21F096
:10270000004183468846A84AA84B02F011FF0022E8
:10271000A74B02F0E9FB02F039FE099002F065FEDA
:1027200006460F469C4A534602F002FF43465A466D
:1027300003F0DAF880468A46984A994B3046394683
:1027400002F0F6FE2A0D01250B924246534603F095
:10275000CBF8032DC4E9000139D00B98C1F30A511D
:10276000401A05EB45111139814230DA9148C346D0
:10277000784400EB0510CDF80CA00C90D0E90023B4
:102780003046394602F0D4FE02460B4604910690CC
:102790005846039903F09AF980468A4602460B464A
:1027A0005846039903F092F9049B069A03F08EF9B8
:1027B00083460C9803913946D0E90223304602F053
:1027C000B7FE5A46039B03F081F96D1CBDE70798DD
:1027D0000028A2BF099817B0BDE8F08F616881F0AA
:1027E00000416160099817B04042BDE8F08FFFE7F3
:1027F00084461598C1F31301C0F30A50A0F2F530D6
:102800004FEA601800F01F06C6F120001390002068
:102810000690079041F4801E05206D4676B1664A09
:1028200008EB00017A4452F8213002EB8101B340F9
:102830004A68139922FA01F1194305E05F4908EB50
:102840000002794451F82210A1FB0E27A1FB0C13C2
:102850001A449A4234BF0123002303EB070A05EB15
:102860008003D3E901B70F448F4234BF0121002117
:1028700093448B4411B1934502D903E0934501D2AF
:10288000012100E00021C3E901B7514445F82010BF
:10289000011EA0F10100C1DC0298059F00F100506B
:1028A000800F12900298DDE90356800002F09DFD32
:1028B000834628460D9102F0AFFD6FF01D0203F034
:1028C0006CFFCDE90E01304602F0A6FD6FF03D022F
:1028D00003F063FF80468A46384602F09DFD6FF0A4
:1028E0005D0203F05AFF074642465346119102F03B
:1028F000FBFADDE90E2302F0F7FA5A460D9B02F0CF
:10290000F3FA00250E465A4628460D9B03F0DEF8E2
:10291000DDE90E2303F0DAF84246534603F0D6F819
:102920003A46119B02F0E0FFDFF898A0244A534694
:1029300002F0FEFD07468846234A244B31462846CE
:1029400002F0F6FD3A46434602F0CEFA07468846C4
:102950004FF0A84253463146284602F0E9FD3A4678
:10296000434602F0C1FA159A12F0004F04D0129AB1
:1029700081F0004152421292C4E90001129817B04E
:10298000BDE8F08FFB21E93F7CD90240FB21F93FF4
:102990007370032E8A19A33B000040543163621AFE
:1029A00061B4D03DFB21394183C8C96D305FE43F3C
:1029B0000000E03F44440000C0430000A243000088
:1029C000182D4454FB21F93D3326A611460B113C2A
:1029D0002DE9F0414F1E00EBC7010446D1E900018B
:1029E00015461E4637F006020DD02A46334602F041
:1029F0009FFD7F1E04EBC703D3E9002302F074FAA6
:102A000037F00602F1D1022F25D0042F13D0062F64
:102A100018BFBDE8F0812A46334602F089FDD4E9AB
:102A20000A2302F061FA2A46334602F081FDD4E916
:102A3000082302F059FA2A46334602F079FDD4E918
:102A4000062302F051FA2A46334602F071FDD4E91A
:102A5000042302F049FA2A46334602F069FDD4E91C
:102A6000022302F041FA2A46334602F061FDD4E91E
:102A70000023BDE8F04102F037BA00002DE9F04D27
:102A800004468CB0904821F00047164698460D4603
:102A90000991874206DA2046294602F077FC002891
:102AA00000F0AE808948B8421CDC09980028BCBF01
:102AB00085F0004588F00048854A864B2046294627
:102AC00002F012FF04460D463246434682488349CF
:102AD00002F0FCFF22462B4602F006FA00260446CE
:102AE0000D46B04622462B461046194602F020FD00
:102AF0008B46824602460B4602F01AFD02460890BB
:102B000077480B46009106217844FFF761FFCDE935
:102B10000310744806217844009B089AFFF758FF79
:102B200052465B4602F004FDCDE9051052465B4675
:102B30002046294602F0FCFC07910090DDE90310D5
:102B4000DDE9053202F0D0F9079B009A02F0F0FCB3
:102B50003246434602F0C8F952465B4602F0E8FCB2
:102B60003246434602F0C0F980460E465E4A5F4B4D
:102B70000799009802F0DCFC4246334602F0B4F9B3
:102B800082468B4622462B4602F0AEF980464F48DD
:102B90000E46B84214985BDC02F027FC074642461A
:102BA0003346059102F0A0F9CDE9011042463346C3
:102BB0001046194602F0BCFCDDE9013202F050FA81
:102BC00052465B4602F082FF22462B4602F08CFE04
:102BD000012203F0E2FD3A46059B02F085FE044621
:102BE0000D460998022101EAA070C0F1010002F02F
:102BF000FCFB0CB022462B46BDE8F04D02F098BC21
:102C00001498401C384320430BD01498012812D04C
:102C10000CB022462B46BDE8F04D0020344902F0AE
:102C20001FBA0CB025F000432246BDE8F04D00204D
:102C3000304902F015BA20462946FFF7DDFC04288A
:102C400008BF00F073F820460CB02946BDE8F08DAF
:102C5000012802BF40460CB0BDE8F08D00270B46AE
:102C60003A462046294602F03FFE52465B4602F0B5
:102C70003BFE04460D464246334600201C4902F006
:102C8000EFF983463A4688463346104602F050FC38
:102C90000022184B02F028F906468A4622462B46A7
:102CA0003846414602F044FC3246534602F01CF9D5
:102CB0005A46434602F03CFC0CB03A464346BDE857
:102CC000F04D02F011B900000000303E2894E53FBD
:102CD000182D4454FB21E93F075C143326A6813CA0
:102CE0009C410000BE410000635555555555D53FE8
:102CF0000000F0BF0000F03F0022134610460149DB
:102D000002F0AEB90000F03F012203F046BD02F030
:102D1000EBB8002213461046114602F0A1B940F26A
:102D2000013200204FF0E04103F037BD024A00209D
:102D3000110703F032BD000001FDFFFF00214FF03D
:102D40007E5003F0A5B8012103F055BD02F0D8BFB5
:102D50000021084603F09CB861214FF0E04003F0E9
:102D60004ABD6FF05E01080703F045BD2DE9F04D47
:102D70000D4614464FF07F41B1EB440F9EBF4FF01C
:102D8000FF312960BDE8F08D4FF0004040EA04219A
:102D9000C4F3C750783810F01F024A4B4FEA601C4A
:102DA000C2F120067B44C4F3C750A0F178004FEA7B
:102DB000601003EB800053F82C3008BFD0E901C647
:102DC00012D0D0F804C093402CFA06F73B43876832
:102DD0000CFA02FC27FA06F8C06807FA02F2F04083
:102DE0004CEA080C42EA0006A3FB0132ACFB01C02E
:102DF000A6FB016101EB0C068E4234BF4FF0010CC3
:102E00004FF0000CC1186144BCF1000F02D08142A8
:102E100002D903E0814201D2012000E000201044E9
:102E200000F120024FEA92188006CA0C40EA4230B4
:102E30004F03C5F8008003F067F98246384603F077
:102E40007BF96FF0120103F0D6FC0746304603F021
:102E500073F96FF0250103F0CEFC834639465046E6
:102E600002F04EFF594602F04BFF00F500666FF38B
:102E70000B065146304603F0E5FB394603F0E2FB12
:102E8000594603F04DFB104903F0D2F907460F49AC
:102E9000304603F0CDF9394602F032FF07460C49BF
:102EA000304603F0C5F9394602F02AFF14F0004F0E
:102EB00008BFBDE8F08DC8F1805180F00040296066
:102EC000BDE8F08DDC3E0000DB0FC92F22AAFD29F2
:102ED0000000C92F30380A2801D201207047002095
:102EE000704700002DE9F04D0546DFF8388221F0EB
:102EF00000408D4F82B00C46404520DBA0EB08011E
:102F000029430BD08949884201DC10D17DB102B040
:102F100028462146BDE8F04DFFF7F6BE002CC7BF9E
:102F2000002001468248394602B0BDE8F08D0120FC
:102F3000FDF725FA02B0BDE8F04DFFF7EABE7D4986
:102F4000884244DA7C498142A1BF79487B4902B07A
:102F5000BDE8F08D2A4623461046194602F0E8FAED
:102F60008346024676480E460B4606217844FFF714
:102F70002FFD5A46334602F0DBFA074671488A466F
:102F80005A46334604217844FFF722FD5A46334619
:102F900002F0CEFA0022434601F0A6FF02460B469D
:102FA0003846514602F05CF82A46234602F0C0FA41
:102FB000654A664B02F098FC2A46234602F094FCD0
:102FC00002B05B4ABDE8F04D5C4B02F08DBC002CBA
:102FD0004FF000024BDA464643462846214601F0B0
:102FE00083FF4FF0FF3203F0D8FB044602465848F7
:102FF0000D460B4606217844FFF7EAFC22462B4695
:1030000002F096FA804653488A4622462B4604210F
:103010007844FFF7DDFC22462B4602F089FA0022B5
:10302000334601F061FF06468B462046294601F0F3
:10303000D5FD04460D4632465B464046514602F0F9
:103040000FF822462B4602F073FA3F4A3F4B02F03C
:103050003DFD22462B4601F047FF012203F09DFB78
:1030600002B03B46BDE8F04D314A02F03DBC2D4B6D
:103070002846214602F038FC4FF0FF3203F08DFB6A
:1030800005460E4601F0AAFD00270C4680463A464A
:103090000B4601F029FF82468B463A4623461046EE
:1030A000194602F045FA2A46334602F01DFC524604
:1030B0005B4601F0D5FF824627488B462A463346B9
:1030C00006217844FFF784FC2A46334602F030FAA2
:1030D000CDE9000121482A46334604217844FFF710
:1030E00077FC2A46334602F023FA00220D4B01F00A
:1030F000FBFE02460B46DDE9000101F0B1FF42464E
:10310000234602F015FA52465B4601F0EDFE3A46C0
:10311000234601F0E9FE02B00122BDE8F04D03F0C4
:103120003CBB00000000F03FFB2109400000F07FA5
:10313000182D44540000E03F0000603CFB21F93FA3
:10314000083900001E390000075C143326A6913CA4
:103150007E38000094380000B2370000C837000005
:103160002DE9F04104464FF01A4000EB4400B0F165
:10317000C85F204655D84FF0FC41B1EB440F1CD23C
:1031800024F000404FF07E5103F0CAF94FF0FF31B8
:1031900003F031FB054601F047FD14F0004F1DBF61
:1031A0002C4F2D4E80F00040002708BF3E464FF0C8
:1031B000404103F03DF8044605E0284F284E014603
:1031C00003F036F805462749284603F031F826492A
:1031D00002F096FD294603F02BF8244902F090FDF9
:1031E000294603F025F8224902F08AFD294603F01A
:1031F0001FF8204902F084FD80462946204603F04E
:1032000017F8414603F014F805463146204603F00E
:1032100087F9294603F016FA3946BDE8F04102F075
:103220006FBD4FF0CC41B1EB440F84BF1248BDE8F5
:10323000F0814FF07F41B1EB440F03D2BDE8F04184
:10324000FFF781BD0120FDF79AF8BDE8F041FFF7D7
:103250007FBD00000000494022AA7D3A0000C93F1E
:1032600022AAFD3924FE1C3DC78AD83C1E67383D82
:103270001B93993DAFAA2A3EDB0FC93F2DE9F04DC4
:103280008D4F21F0004A86B005460C46BA452ADB30
:10329000AAEB070028430AD08848824501DC1AD1EE
:1032A000CDB106B02846BDE8F04DFFF72DBD844AEC
:1032B000844B284602F03CF907460E46824A834B6F
:1032C0002846214602F034F906B03A463346BDE8B6
:1032D000F04D01F009BE0120FDF751F806B0BDE840
:1032E000F04DFFF716BD7A48824542DABAF1795FB0
:1032F0000BDA2846FFF780F9042808BFFFF716FD10
:10330000284606B02146BDE8F08D2A460B461046F9
:1033100002F00EF9834602466E480E460B46062121
:103320007844FFF755FB5A46334602F001F98046D0
:1033300069488A465A46334604217844FFF748FBD9
:103340005A46334602F0F4F800223B4601F0CCFD29
:1033500002460B464046514601F082FE2A4623466D
:1033600002F0E6F806B02A462346BDE8F04D01F02B
:10337000BBBD284624F0004100223D463B4602F0FA
:10338000B3FA4FF0FF3203F008FA064602465348FC
:103390000F460B4606217844FFF71AFB32463B46A0
:1033A00002F0C6F8CDE900014D4832463B46042103
:1033B0007844FFF70DFB32463B4602F0B9F8002295
:1033C0002B4601F091FD834602913046394601F0CB
:1033D00005FC804643480D46504517DCDDE90001F9
:1033E0005A46029B01F03CFE42462B4602F0A0F8F2
:1033F00042462B4601F078FD012203F0CEF9304A17
:10340000304B02F063FB304A304B4CE04FF0000A87
:1034100052460B46404601F067FDCDE90310524687
:103420002B461046194602F083F832463B4602F01E
:103430005BFADDE9033201F013FE06460F46DDE9D3
:1034400000015A46029B01F00BFE834600910122C7
:103450003046394603F0A1F9194A1A4B02F044FAF2
:1034600006460F4601224046294603F096F95A4681
:10347000009B02F05DF832463B4602F027FB064611
:103480000F4601225046294603F087F90E4DDFF81A
:1034900058802A46434602F027FA32463B4602F05D
:1034A00023FA2A46434602F01FFA002CD8BF81F0C7
:1034B000004106B0BDE8F08D0000F03F0000F07F55
:1034C000075C143326A6913C182D4454FB21F93F88
:1034D0000000E03FA4350000BA3500002E350000A2
:1034E000443500003333EF3FFB21E93F2DE9F04144
:1034F00004464FF00E4000EB4400B0F1506F204600
:1035000055D84FF0FC41B1EB440F1CD224F00040E1
:103510004FF07E5103F004F84FF0FF3103F06BF9E8
:10352000054601F081FB14F0004F1DBF2F4F304EB8
:1035300080F000402F4F08BF2F4E4FF0404102F067
:1035400077FE044605E000273E46014602F070FE85
:1035500005462A49284602F06BFE294902F0D0FBB5
:10356000294602F065FE274902F0CAFB294602F00F
:103570005FFE254902F0C4FB294602F059FE2349AB
:1035800002F0BEFB80462946204602F051FE41462D
:1035900002F04EFE05463146204602F0B1FB2946B8
:1035A00002F0AEFB3946BDE8F04102F0A9BB4FF096
:1035B000E441B1EB440F08D9FFF732F8042808BF03
:1035C000FFF7CFFB2046BDE8F0814FF07F41B1EB24
:1035D000440F03D2BDE8F041FFF7B5BB0120FCF773
:1035E000CEFEBDE8F041FFF7B3BB00000000C9BF4D
:1035F00022AAFDB90000C93F22AAFD3924FE1C3DC4
:10360000C78AD83C1E67383D1B93993DAFAA2A3E16
:103610002DE9F04D894BCE0F21F0004784B00546CF
:103620000C469F4230D38648874211D3C7F313001C
:10363000284305D004B02846BDE8F04DFFF764BB31
:10364000002E1ABF00200146284604B0BDE8F08DC8
:103650007C4A284602F012F907D20220FCF78FFEBE
:1036600004B0BDE8F04DFFF75ABB774A774B2846C8
:10367000214601F021FF07D20220FCF780FE04B0B2
:10368000BDE8F04DFFF752BB7148B84248D27148CF
:10369000874215D27048784400EBC6002146D0E935
:1036A0000023284602F012FACDE900016B48784465
:1036B00000EBC600D0E900ABC6F10100861B26E096
:1036C000674A684B2846214601F032FF664A7A4431
:1036D00002EBC603D3E9002301F006FC01F056FE1D
:1036E000064601F082FE07468846604A604B01F0BC
:1036F0001FFF2A46234602F0F7F8CDE900015D4A94
:103700005D4B3846414601F013FF82468B46DDE9AA
:10371000000152465B4602F0D9F905460C4618E016
:103720005648874214D2564A564B2846214601F045
:10373000DBFB554E0022334602F0A0F808D204B05D
:10374000334628462146BDE8F04D002201F0CCBBAF
:1037500000262A4623461046194601F0E9FE804617
:1037600002464A480F460B4605217844FFF730F9D8
:1037700042463B4601F0DCFE2A46234602F0B4F8FE
:1037800007468846E6B302460B4600204FF08041CC
:1037900002F09CF9CDE902013A464346284621460B
:1037A00001F0C6FEDDE9022301F05AFC52465B46F9
:1037B00002F09AF8DDE9002302F088F90022324B8A
:1037C00002F092F86FF47F729642A2BF01EB0651AD
:1037D00004B0BDE8F08D4FF07A5202EB065211446E
:1037E0002B4A02F0DAFF04460D46FEF705FF0428D7
:1037F00008BFFFF79BFA204604B02946BDE8F08DCC
:10380000FFE700224FF0804302F060F982460E4647
:103810003A4643462846214601F08AFE5246334640
:1038200001F01EFC2A46234602F050F904B00022A3
:10383000BDE8F04D144B02F057B80000422E864010
:103840000000F07FEF39FAFE51302DD5104987C0C6
:10385000422ED63FB2A2F03F8E32000086320000E8
:10386000FE822B654715F73F463200000000E0FE60
:10387000422EE63F763C7935EF39EA3D0000303E96
:103880009C7500883CE4377E0000F03FDA31000090
:1038900018FCFFFF2DE9F04104464FF019404F4955
:1038A000002500EB440088424AD84D49204602F0EA
:1038B000BFFC02F005FE804602F0E0FB06464949E7
:1038C000404602F0B5FC07464749404602F0B0FCCE
:1038D000214602F025FE394602F0B4FE0446434973
:1038E00002F0A6FC424902F00BFA214602F0A0FCCD
:1038F0006FF0414102F004FA214602F099FC3D4983
:1039000002F0FEF9214602F093FC01463A4806F027
:103910000304784450F8240002F08AFC37497944C3
:1039200051F8241002F0ECF93549794451F824108B
:1039300002F0E6F9B11095BBBDE8F04102F05BBFC3
:103940004FF0FF4131EA040020460AD04FF0CE414B
:10395000B1EB440F0FD9BDE8F0414FF07E5102F0BA
:10396000CFB914F5000F04BF0020BDE8F081BDE819
:10397000F041FFF7E8B92349B1EB440F28BF012517
:1039800093D20220FCF7FBFC14F0004F03D0BDE8FB
:10399000F041FFF7E6B9BDE8F041FFF7DDB902F00D
:1039A0002AFF04000BD0B4F1FF4F0FD0FEF738FE12
:1039B000042808BFFFF7D5F92046BDE8F0810220B2
:1039C000FCF7DDFCBDE8F041FFF7CBB90220FCF7C6
:1039D000D6FCBDE8F041FFF7BFB900000000501E63
:1039E0003BAAB840F4FD05370070313E12BB2A3DBA
:1039F00012BB2A3EFFFF7F3F7A3000005E3000009E
:103A0000423000000000A08570B514461D460E46E9
:103A1000002814BF01210021314321F00041C1F1F0
:103A20007F6101F1E041C90F16D1002C14BF0121C3
:103A30000021294321F00041C1F17F6101F1E04102
:103A4000C90F09D11449B1EB460F08BF00281CD09B
:103A5000690008BF002C18D0314601F061FE024613
:103A600040F2FF7030EA11500DD0F017B0EBE17F5B
:103A700009D0084665F31E0084460B462046614681
:103A800001F032FF0246104670BD0120FCF777FCC2
:103A9000BDE87040FFF73DB90000E0FF70B5054696
:103AA00020F00040C0F1FF400C46C00F05D124F0CB
:103AB0000040C0F1FF40C00F17D0284602F080FC44
:103AC0006FEAD05111F0FF0F08BF70BDE917B1EBDD
:103AD000E07F08BF70BD014664F31E01BDE8704081
:103AE0000A460146104602F01BBD4FF07F40B0EB86
:103AF000450F18BF5FEA4400DFD10120FCF73FFC0F
:103B0000BDE87040FFF724B92DE9F04106460C46A8
:103B100040F2FF75174635EA14502BD000221346A9
:103B2000304601F0F7FB25D03A463046214602F0F8
:103B300034FE06460C4635EA145010D000221346D7
:103B4000304601F0E7FB15D10220FCF718FCFFF727
:103B5000EDF80A46214662F31E01BDE8F08102201D
:103B6000FCF70DFCFFF7DBF80A46214662F31E0165
:103B7000BDE8F08130462146BDE8F0816FEAD052C1
:103B800012F0FF0F14BF30F00042704710B502F082
:103B900032FE04466FEAD45010F0FF0F0ED034F01E
:103BA00000401CBF204610BD0220FCF7E8FBFFF7D9
:103BB000D8F80146204661F31E0010BD0220FCF734
:103BC000DEFBFFF7C9F80146204661F31E0010BD79
:103BD0002DE9F04D1D460C4694B0174621F00041EA
:103BE00023F00043002814BF4FF0010C4FF0000CED
:103BF0000CEB440CFB4A0CEB02064FEA620C6645E8
:103C00002BD33E0018BF012606EB45061644F64AA4
:103C1000964222D3F54A53EA070C02D0944205D1CA
:103C200048B914B000201146BDE8F08D002808BF47
:103C30004FF0000C01D04FF0010C0CEB440212F5D8
:103C4000001F0AD8002F14BF4FF0010C4FF0000CDA
:103C50000CEB450212F5001F07D914B03A462B466B
:103C60002146BDE8F04DFFF752B80022DFF880A3EF
:103C7000002CB8BF534526DADFF878C36345A8BFE8
:103C8000022220DADFF864C39C451CDCDFF868C33D
:103C90000CEB235CBCF1140F08DDCCF1340627FAE1
:103CA00006FC0CFA06F6BE420DD108E05FB9CCF175
:103CB000140623FA06FC0CFA06F69E4203D10CF019
:103CC0000102C2F1020251EA000C19D1002D17DAEB
:103CD000002C18BF022A01D0012A07D00220FCF7CD
:103CE0004EFB14B0BDE8F04DFFF706B80220FCF71C
:103CF00046FBFFF701F814B081F00041BDE8F08DFC
:103D0000B7F1000C6CD1534525D104F1804212F576
:103D1000801201BF00280020B44914B008BFBDE8DC
:103D2000F08DB248884207DC002DA1BF60462946CD
:103D300014B0BDE8F08D07E0002DBFBF604685F0F0
:103D4000004114B0BDE8F08DAC497944D1E90001DF
:103D500014B0BDE8F08DDFF894C2634525D1002D85
:103D60001FDA19B1514512D1D8B909E0002840F045
:103D7000F6829F4A214614B062F31E01BDE8F08D21
:103D80000020214614B060F31E01BDE8F08D08DA72
:103D900014B02346BDE8F04D02460020614601F014
:103DA0005FB914B02146BDE8F08D514518DAB5F180
:103DB000804F0DD0A5F1005CBCF1FF5C10D1B4F1D7
:103DC000000C0DDB14B06146BDE8F04D00F006BFFD
:103DD000234614B00246BDE8F04D194601F0A8BBD9
:103DE000060024F0004C3BD1D9B1514533D1002C11
:103DF00006DD002DA1BF0020514614B0BDE8F08DB6
:103E0000002C01DD002D1BDB002C13DA002D11DB53
:103E1000012A4FF0000014BF7549794914B0BDE87C
:103E2000F08D022A18BF002C0AD0012A08D1002CDC
:103E300006DA0AE0002CB8BF002D11DA012A04D0FE
:103E4000002014B00146BDE8F08D14B000204FF002
:103E50000041BDE8F08DA1F14050B0F17F601AD073
:103E6000012000EBE47050EA020421D05F4C521EA6
:103E70004FF0000B104304BF4FF0000B614C624841
:103E800083427DDD614A6248934229DD884217DB27
:103E9000002D2FDB41E0002C00DA4AB1022A0CBFD2
:103EA00001204FF0FF3014B0BDE8F04D01F09DBA95
:103EB0000120FCF764FA14B0BDE8F04DFEF729BF0D
:103EC0004A4A8A420CDC002D14DC0220FCF757FA27
:103ED000FEF72CFF61F31E0414B02146BDE8F08DFF
:103EE000814202DA002D18DA04E0404B994220DDCD
:103EF000002D12DD0220FCF742FAFEF710FF054606
:103F00000E46002253465846214601F011FB14B0DC
:103F100066F31E012846BDE8F08D0220FCF72FFA5B
:103F2000FEF704FF0A46214614B062F31E01BDE805
:103F3000F08D00223046614601F0C8FD06468846F5
:103F40006FF0010202F029FC4FF05532314B01F0C5
:103F5000CBFC3246434601F0EBFA00222E4B01F037
:103F6000C3FC8A463246434602901046194601F089
:103F7000DFFA5346029A01F0DBFA8246324600E04D
:103F800054E0059143464FF0C040244901F0D0FA77
:103F9000CDE90C01224A214B5046059901F0C8FA9F
:103FA000824601911F4A204B3046414601F0C0FA3B
:103FB0005246019B01F08AFD82460B46024609915A
:103FC000DDE90C0100F090FFDDE90C2300268846B6
:103FD000304601F07BFD5246099B01F085FC02460C
:103FE00000F07EB9FFFF1F00FFFF0F000000F03F51
:103FF0000000F07F0000404301FCFFFF622E000044
:104000000000F0FF0000F0BF0000E0410000F043BE
:10401000FFFFEF3F5555D53F0000E03F4715F73F05
:10402000FE822B6544DF5DF80BAE543E0020B1F5F7
:10403000801F07DA35223046614602F0AEFB0646A5
:104040006FF0340000EB2150A0F2FF300190C1F37B
:10405000130040F07F6141F040510291FE498842D7
:10406000D8BF002004DDFD498142C8BF012001DD29
:104070000F9008E000200F900198401C01900298DA
:10408000A0F5801002900299F548784405910F99A7
:1040900000EBC1001290D0E900233046059901F0F1
:1040A00015FDCDE90C011298D0E9002330460599A1
:1040B00000F01AFF02460B460020EA4900F0D0FF4C
:1040C0000B46CDE908010246DDE90C0101F030FAAA
:1040D0000A90E5488A464FF0000878440299006843
:1040E00010904FF0005040EA61010F9801EB8040C2
:1040F00000F5002112981191D0E90023109801F0E9
:10410000E5FC3246059B01F0EFFB4246534601F0C9
:104110000FFADDE91023064603914046514601F0AF
:1041200007FADDE90C2301F0DFFB3246039B01F0C7
:10413000CDFCDDE9082301F0FBF903910A9A129006
:1041400053461046194601F0F3F906460246C748A1
:104150000B46029106217844FEF73AFC029B324658
:10416000059108901046194601F0E2F9059B089A5E
:1041700001F0DEF9064609915346404619460A9A6F
:1041800000F0B2FE039B129A01F0D2F93246099B6D
:1041900000F0AAFECDE908014246534610461946F2
:1041A00001F0C6F902460B46029104900020B04986
:1041B00000F09AFEDDE9082300F096FE0E46424626
:1041C000AB4B404601F082FC029B049A01F07EFC5E
:1041D000DDE9082301F088FB424604910290334652
:1041E0001046514601F0A4F9CDE90C0153460A9A54
:1041F0000499029801F09CF98246009133464246A8
:104200000399129801F094F95246009B00F06CFE5D
:1042100082460B4602460991DDE90C0100F064FE7E
:10422000DDE90C2300268846304601F04FFC52465B
:10423000099B01F059FBCDE90801434632464FF096
:1042400060408C4901F074F982460491DDE908016F
:10425000894A884B01F06CF902910090434632463E
:104260008648874901F064F9029B009A00F03CFE01
:10427000844B7B440F9A03EBC203D3E9002300F085
:1042800033FE00900291019801F0AFF80E90039177
:104290005046029B009A049900F026FE7A4A7A441E
:1042A0000F9B02EBC3030993D3E9002300F01CFE2C
:1042B000039B0E9A00F018FE88463046039B0E9A28
:1042C00001F004FC099BD3E9002301F0FFFB5246F7
:1042D000049B01F0FBFB029B009A01F005FB0246E8
:1042E00000200B4602903846294601F021F982460B
:1042F00003912B4638461946029A01F0E7FB3246F5
:10430000434601F015F95246039B00F0EDFD0746C8
:104310008A46324643462946029801F009F9054685
:104320000E463A46534600F0DFFD584A8846914211
:1043300021DBA8EB020353EA000210D12A463346E0
:1043400001F0C4FBCDE90310514A524B38465146A7
:1043500000F0CAFDDDE9033201F090FA21D202201B
:10436000FCF70DF8FEF7DBFC0A46214614B062F3B9
:104370001E01BDE8F08D484B28F000429A4210D350
:10438000464A08EB020353EA00027FF4C6AD2A4610
:10439000334601F09BFB3A46534601F06FFA7FF635
:1043A000BCAD0022019228F000403D493D4A01EB9E
:1043B0002051824223DA481C4FF4801121FA00F088
:1043C0004044394AC0F30A517A44384BA1F2FF31D4
:1043D000CB4020EA0303C0F3130040F48010C1F186
:1043E0001401C84012680190B8F1000FBCBF4042F0
:1043F00001902846314601F069FB05460E462A46E3
:1044000033463846514600F06FFD4FF000084246F3
:10441000274B4046039101F08BF8CDE90C01254A6A
:10442000254B4046039901F083F8029100902A46FB
:1044300033464046039901F049FB3A46534601F0A2
:1044400053FA1E4A1E4B01F073F8029B009A00F0CB
:104450004BFD0746884635E08E9803007AB60B0080
:10446000122900000000F03FD22A00007628000048
:104470000000084009C7EE3FFD033ADCF5015B147C
:10448000E02F3EBE4A2700000E27000000009040AB
:10449000FE822B654715973C00CC904000346F3F5F
:1044A00001FCFFFF0000E03FE4270000FFFF0F00DA
:1044B000432EE63F396CA80C615C20BEEF39FAFE52
:1044C000422EE63F02460B46DDE90C0100F00CFDF2
:1044D000DDE90C2305460E4601F0F8FA3A4643465C
:1044E00001F002FA07462A4633460591104619465E
:1044F00001F01EF8824602462E4888460B460521EA
:104500007844FEF765FA5246434601F011F82A4610
:10451000334601F0E9F980468A463A462846314654
:10452000059B01F005F83A46059B00F0DDFC05917E
:10453000009000224FF080434046514601F0C6FAF9
:1045400007460391424653462846314600F0F0FFA5
:104550003A46039B00F084FD059B009A01F0B6FAF1
:104560002A46334601F0B2FA0022134B01F0BCF99F
:10457000054601980E4601EB00510815002810DC95
:1045800028463146019A02F008F9FEF735F804286A
:1045900008BFFEF7CBFB28463146019A02F0FDF832
:1045A00005460B4614B02A4658462146BDE8F04D54
:1045B00000F0BEBFFC2400000000F03F2DE9F04DEC
:1045C0000E460023A0F5000C4FF00071354684B074
:1045D00002464FF07E5401EB45014FF07F48BCF19D
:1045E000FE4F80F09F81B1F1804FC0F0DB81FE492A
:1045F0000144B1F5005F40F2A78200F58021C90CAB
:1046000001F00F07C1F307117F39A2EBC15501EB90
:10461000030B384601F078FD6FF0030102F0EBF870
:104620004FF07E5101F06CFB01460290284602F0EB
:1046300009F801902846029901F062FB00F5006A32
:104640006FF30B0A00905146029801F0FBFF2946D8
:1046500001F056FB02904FF07E50009901F018FCDB
:1046600001460090019801F0E3FD00F500656FF34D
:104670000B052846029901F0DBFD029051462846C1
:1046800001F0D6FD019901F04BFF029901F0DAFF2C
:10469000009901F0CDFD01460190284601F030FB64
:1046A0000146029001F0C4FD8246D04901F0C0FDF0
:1046B000CF4901F025FB514601F0BAFD82460021A9
:1046C000284602F098F800905146029801F0B0FD9B
:1046D00005460021019802F08EF8294601F010FBF2
:1046E00082460146009801F00BFB00F500656FF370
:1046F0000B052946009801F0A5FF514601F000FB8B
:104700008246BC49284601F093FD0090BA495046C4
:1047100001F08EFD8246B949284601F089FD5146D7
:1047200001F0EEFA82460146009801F0E9FA00F540
:1047300000656FF30B052946009801F083FF514691
:1047400001F0DEFA8246AE48784450F8371000EBAC
:10475000C700019147684FEA0B1001F0D5FC0090AB
:104760003946504601F0CCFA294601F0C9FA0199C0
:1047700001F0C6FA009901F0C3FA00F5006B6FF37F
:104780000B0B5846009901F05DFF019901F05AFFAB
:10479000294601F057FF394601F054FF514601F018
:1047A000BFFE06F5006782466FF30B0739463046B9
:1047B00001F048FF0021009008464FF0000000F093
:1047C0000C063946584601F033FD054620F00040FE
:1047D000B0F18B4F0ADDB8EB400F07D34FF08B40A1
:1047E00060F31E052F464FF0000A1FE0384600997F
:1047F00001F086FA514601F01BFD07465846009924
:1048000001F016FD394601F07BFA82460146284642
:1048100001F076FA00F500676FF30B07394628467A
:1048200001F010FF514601F06BFA824631460C2030
:104830004FF000005146384601F062FA01F03AFCB0
:104840000646051101F060FC394601F069FE51464B
:1048500001F056FA07466B4901F0EAFC6A4901F09B
:104860004FFA394601F0E4FC684901F049FA39464B
:1048700001F0DEFC0146664806F00F06784450F869
:10488000260001F0D5FC6349794451F8261001F067
:1048900037FA6149794451F8261001F031FA05F1EF
:1048A0007D01FC2908D2294601F0A5FF04B021466C
:1048B000BDE8F04D01F0BCBC05F1BF01B1F5BF7F13
:1048C00016D8294601F097FF214601F0B1FC0546B4
:1048D000B8EB450F1AD068000CD02846FDF7A0FEB3
:1048E000042808BFFEF73DFA284604B0BDE8F08D65
:1048F000002D0BDA0220FBF742FDFEF732FA0146EB
:10490000204604B061F31E00BDE8F08D0220FBF7E5
:1049100036FDFEF721FA0146204604B061F31E0081
:10492000BDE8F08DB1F1804F3CD300BF00F1FF41F5
:10493000B1F1FE4F21D200BF20F00042C5F3C751B4
:1049400010467F290DDB9729BFF651AEC1F19601C4
:104950004FF0010C0CFA01F1A1F1010C1CEA050F5A
:1049600007D00120FBF70BFD04B0BDE8F04DFEF7CA
:10497000EFB9294218BF294C39E641001CBF4FF05E
:104980008071B1EB400F09D91B2101F034FF0246C1
:104990006FF01A0310F0004FCED128E6BCF1FE4FA5
:1049A00018D224E6B1F1007F0ED336F0004105D0D5
:1049B00006F0004141F0FC552E46B7E7410018BF14
:1049C000B8EB400F78D8B1E7B1F1807F38BFA5F5DB
:1049D0000006ABD320F000416FF0FF4C104C01EB10
:1049E0000C03A3422FD31DE0001080C07EE24C3E9A
:1049F000ABAAAA3E00B038423BAA3842D49AB8BB10
:104A0000DC220000FC596337C9FF753A1872313D4A
:104A1000A82200005C22000010220000000080BFDD
:104A2000FFFF3F0025F000439C44A4450BD3B0F1A9
:104A30007E5F18BF5FEA450C3ED0B1F1FF4F98BFD3
:104A4000B3F1FF4F05D904B03146BDE8F04DFEF794
:104A50007DB9B0F1FF4F0FD0C5F3C7517F2909DBF6
:104A6000972911DAC1F19601012202FA01F14A1ED9
:104A70002A4205D0002108E015F0004F55D128E06A
:104A8000294218BF012100D1022110F5000F14D0D6
:104A900020B3B0F1004F27D010F1814F4ED04FF02E
:104AA000FE41B1EB400F94BF01200020012101EB3A
:104AB000E571884239D10CE040E015F0004F02D09A
:104AC000012936D031E0012902BF3F4804B0BDE8DA
:104AD000F08D4FF0FF4004B0BDE8F08D15F00040C0
:104AE0000ED104B0BDE8F08DB5F1FF4F1DD015F526
:104AF000000F05D015F0004F14D009B1012907D0DF
:104B00000220FBF73CFC04B0BDE8F04DFEF716B9FF
:104B10000220FBF734FCFEF711F904B080F00040EE
:104B2000BDE8F08D09B1012903D004B00020BDE833
:104B3000F08D04B04FF00040BDE8F08D04B04FF0B0
:104B40007E50BDE8F08D00BF4FF07E5101F07AFD40
:104B500005466FF0010101F04EFE1C4901F0E0FC3A
:104B6000294601F065FB4FF07C5101F0D9FC074666
:104B70002946084601F05CFB80F00040394601F010
:104B800057FB82461249284601F052FB074611495D
:104B9000504601F04DFB82460F49284601F048FB84
:104BA000514601F0ADF805460146384601F0A8F837
:104BB00000F5006B6FF30B0B5946384601F042FDD0
:104BC000294601F09DF8ECE5000080FFABAAAA3E63
:104BD00000B0B8413BAAB841D49A38BB2DE9F041A6
:104BE00006460F4600F08CFE041E0D4618BF01203D
:104BF000284320F00040C0F17F6000F1E040C00F8A
:104C00000ED0301C18BF0120384320F00040C0F106
:104C10007F6000F1E040C00F04BF0120FBF7AFFB55
:104C200020462946BDE8F08170B5054601F082FCBA
:104C3000044620F00040C0F1FF40C00F08D025F02E
:104C40000040C0F1FF40C00F04BF0120FBF797FBFD
:104C5000204670BD10B5164B21F00042012486B0ED
:104C60009A4203DC0022134600941CE0114B9A4246
:104C700008D140B94FF00100FBF781FBFEF749F87E
:104C800006B010BD03DBFEF73FF806B010BD02AA68
:104C9000FDF7DAFC00F00100A4EB40000DF1080C78
:104CA00000909CE80F00FDF7E9FE06B010BD000083
:104CB000FB21E93F0000F07F2DE9F843044602465E
:104CC0004C486946B0EB420F09D94FF0E640B0EBD3
:104CD000420F94BF00204FF0FF30009030E0464B71
:104CE00022F00040834265D94449204601F0A0FAF1
:104CF00001F0E6FB804601F0C1F900F003000090EE
:104D00003F49404601F094FA05463E49404601F0CD
:104D10008FFA06463C49404601F08AFA07463B496D
:104D2000404601F085FA214601F0FAFB394601F0D0
:104D300089FC314601F086FC294601F083FC0446DB
:104D4000009D002D3ADB2146084601F071FA064627
:104D50002F4901F06DFA2F4900F0D2FF314601F0E2
:104D600067FA2D4900F0CCFF314601F061FA2B497A
:104D700000F0C6FF314601F05BFA294900F0C0FFA0
:104D8000314601F055FA274900F0BAFF314601F0EB
:104D90004FFA214601F04CFA214600F0B1FF15F020
:104DA000010F08BFBDE8F8830146BDE8F8431E487F
:104DB00001F06EB81046FDF7D9FFC0E76000B0F112
:104DC0007F4F09D22046FDF72BFC042808BFFDF7D2
:104DD000C8FF2046BDE8F88306D10120FBF7CFFAD3
:104DE000BDE8F843FDF7B4BF2046BDE8F843FDF742
:104DF000AABF0000B61F927E490E494683F9223FA2
:104E00001A61342C0020A23300A0FD390000C93FF4
:104E1000BCE9223C0B6D063B8A76CE3CACB5593DD5
:104E200035A1083E29AAAA3E000080BF10B500297E
:104E30000AD00878002807D005487844FCF72CFBF6
:104E4000002801D0002010BD0248784410BD0000A9
:104E5000322400002A24000010B500290AD0087866
:104E6000002807D005487844FCF716FB002801D03D
:104E7000002010BD0248784410BD0000222400002C
:104E80001A24000021F0004201F00043A2F1605218
:104E9000B2F5801F28BFD2F17F6C0BD95FEA001CEE
:104EA00043EAC20242EB507018BF704728BF20F09F
:104EB00001007047B2F5801FBCBF184670474FEA2B
:104EC000410C1CF5001F02D2084601F0F3BA70B580
:104ED00000F0D8FB00000089FFF7F6BF4FF000405C
:104EE000A0F580007047000010B591EA030F48BF9D
:104EF00083F0004300F1F285841A71EB030C05D2B4
:104F0000121943EB0C03001B61EB0C014FEA115427
:104F1000A4EB135CDFF81CE11EEA430F18BF9EEA06
:104F2000445F00F0748021EA045123EA0E0343F445
:104F30008013DCF1200E32D322FA0CFE10EB0E00AF
:104F400023FA0CFE41EB0E01CCF1200E03FA0EFE0B
:104F500010EB0E00CCF1200E51F10001B1F5801FD5
:104F600032D201EB045112FA0EF2BDE8104058BFE4
:104F70007047401C38BF5FEA420218BF70470028E4
:104F800014BF20F0010041F100014FEA410313F585
:104F9000001F38BF7047A1F1C04100F069BC012A71
:104FA00043EB0302ACF1200CDCF11F0E32BF4FF0DB
:104FB000000E23FA0CF310EB030041EB0451B4EBA9
:104FC000115FD0D0A1EB045101F58011490801EB2C
:104FD00004515FEA30000ED350F1000038BF12FADE
:104FE0000EFE08D1BDE81040C9E7401C38BF5FEA9B
:104FF0004202CAD1C3E7BDE810404FEA410313F5AE
:10500000001F38BF7047A1F1C04100F031BC9EEADB
:10501000445F08D011EA5E0FBDE8104004BF01F004
:10502000004100207047BDE8104070B500F02AFB39
:1050300064FBBE3E0000E0FF02494FF0000001F0BB
:105040007ABB00BF0000F87F491058BFC1F1404152
:105050005B1058BFC3F140438B42EFF300807047B1
:105060002DE9C04130B4DFF8A4C23CEA111418BFE6
:105070003CEA131400F0ED801CEA111481EA0305E8
:1050800044EAD57418BF1CEA131500F0C880A4EBDD
:10509000050404F17F7404F500344FF0004545EA3F
:1050A000C12145EAC32341EA505143EA52534FEA32
:1050B000C0204FEAC222994208BF904200F09D8072
:1050C0004FEA13650FF24416765D4FEA134506FB6F
:1050D00005F7C7F1807706FB07F74FEAD737A7FB3D
:1050E00003687642A7FB06CEC8F5803838BFA8F122
:1050F000010807FB08E6A6FB028C4FF0000EE6FB5A
:1051000003CEDCF1000CCEF1004E38BFAEF1010E43
:10511000A6FB0C584FF00007E6FB0E87A1FB08C664
:10512000A0FB07CE16EB0E064FF0000545F100057B
:10513000E1FB076515F1E04E7EBFA4F580345FEA20
:1051400046066D4116F1800745F100054FEA172725
:1051500047EA05674FEA15254FEA0666A6F1DE46DF
:10516000B6F1805F20D9384605EBC47124F0010CFC
:1051700001EB0C11BCF1FE6F02D8F0BCBDE8008160
:1051800024425CBF01F5801E9EEAC47F02D4F0BCBD
:10519000BDE80081244200F13980A1F1C041F0BC9A
:1051A000BDE8004100F064BB4FEAD02040EA415026
:1051B0004FEAD1214FEAD22242EA43524FEAD323A7
:1051C000A7FB028607FB036605FB02661EEA0E0FBD
:1051D00058BFA6EB0056B6EB00564FEA520E4EEA09
:1051E000C37E18EB0E0E56EB530EBCD518EB02081F
:1051F0005E417F1C55F10005B5E74FF480154FF077
:1052000000074FF000064FF00008ACE701F1C04185
:1052100001F000414FF00000F0BCBDE800810CEA55
:10522000131511EA0C1F00D00CE013EA0C1F00F05C
:1052300026804FF0000081EA030101F00041F0BC3C
:10524000BDE80081F0BCBDE8004181EA030100F047
:105250000FBBF0BCBDE8004170B500F013FA00BF11
:10526000097EFC3E00F007B84FF0000081EA030120
:1052700001F00041704781EA030100F0F9BAF0BC87
:10528000BDE8004122494FF000007047FFFDFBF9E7
:10529000F7F5F4F2F0EEEDEBE9E8E6E4E3E1E0DE69
:1052A000DDDBDAD8D7D5D4D3D1D0CFCDCCCBCAC8DB
:1052B000C7C6C5C4C2C1C0BFBEBDBCBBBAB9B8B702
:1052C000B6B5B4B3B2B1B0AFAEADACABAAA9A8A8F5
:1052D000A7A6A5A4A3A3A2A1A09F9F9E9D9C9C9BC3
:1052E0009A9999989797969595949393929191906E
:1052F0008F8F8E8E8D8C8C8B8B8A898988888787FF
:105300008685858484838382828181800000FF0773
:105310000000F87F51EA030C17D41CF5801F58BF1A
:10532000BCF5801F00F10680994218BF704708BF86
:105330009042704707D711F5801F58BF13F5801FA3
:1053400019D499427047894270471CF5801F08D5CF
:10535000BCF5801FF7D58B4218BF704708BF82424B
:1053600070474FF4001C1CEB410F38BF1CEB430F80
:1053700001D28B42704770B500F084F99224490045
:105380004FF000514FF08053FFF75EBE4FEA4103EC
:105390004FEA5353A3F58063D3F11E03C8BFD3F183
:1053A000210C0CDD4FF0004242EAC12242EA505289
:1053B00032FA03FC8CEAE17CACEBE1707047102B15
:1053C000C4BF0020704703F5787CBCF1FF3F04D0D8
:1053D0006FF0004282EA2100704770B500F052F988
:1053E0004992248000207047F2E710F0004248BF45
:1053F0004042B0FA80F310FA03F10AD0C3F11D0362
:1054000003F5806302EB03524FEA415002EBD121D6
:1054100070474FF000007047B0FA80F310FA03F1C4
:105420000AD0C3F11D0303F580634FEA03524FEA2C
:10543000415002EBD12170474FF00000704700004F
:1054400051EA030C17D41CF5801F58BFBCF5801F10
:1054500000F10680994218BF704708BF904270471C
:1054600007D711F5801F58BF13F5801F19D4994233
:105470007047894270471CF5801F08D5BCF5801F16
:10548000F7D58B4218BF704708BF824270474FF470
:10549000001C1CEB410F38BF1CEB430F01D28B42A9
:1054A000704770B500F0EEF8922449004FF080513B
:1054B0004FF00053FFF7C8BD51EA030C17D41CF599
:1054C000801F58BFBCF5801F00F10680994218BFAD
:1054D000704708BF9042704707D711F5801F58BF2B
:1054E00013F5801F19D499427047894270471CF503
:1054F000801F08D5BCF5801FF7D58B4218BF7047B9
:1055000008BF824270474FF4001C1CEB410F38BFAC
:105510001CEB430F01D28B42704770B500F0B2F81C
:10552000922449004FF000514FF08053FFF78CBD9B
:1055300070B5DFF848C11CEA111E1EBF1CEA131526
:105540009EEA0C0F95EA0C0F00F06F8081EA0304CD
:105550004EEAD47EAE4421EA4C1123EA4C1341F4C6
:10556000801143F48013AEF17F7EA1FB024CA0FBBF
:105570000365361955EB0C05A1FB034C4CF10003F8
:10558000A0FB021C16EB0C06654153F10003094217
:1055900018BF46F0010613F4007F0BD14FEA033128
:1055A0004FEA053041EA155140EA165034036FF0D6
:1055B00003020AE04FEAC3214FEAC52041EA5551F0
:1055C00040EA5650F4026FF0020202EB2E4201EB69
:1055D000025585EACE710AD05FEA440C18BF24F068
:1055E000004450F1000041F1000120EAD47040F283
:1055F000FE7C624500D270BDA84214BF4FF08044CB
:105600004FF04044002E08BF0024BEF1806FA8BFB9
:10561000A1F1C041BDE8704080F22A8101F1C04192
:1056200001F000414FF0000070470CEA13159EEAAC
:105630000C0F18BF95EA0C0F06D081EA030E4FF04D
:1056400000000EF0004170BD00F01CF88900013E22
:1056500000F007B800F009B84FEA430C5FEA5C5C61
:1056600008D081EA030100F003B94FEA410C5FEA78
:105670005C5CF6D102494FF0000070470000FF0764
:105680000000F87F0EF1020E2EF0030E5EF8046BA0
:10569000364205D4012A43EB030515F5001F12D845
:1056A000012841EB010C1CF5001F0CD80ED14FEA6C
:1056B000D17C0CEB4C0C0CF1020C15F5001F08BF53
:1056C0004CEBD37C04E04FF0080C01E04FEAD37CB4
:1056D0000CEB4C0526FA05F606F00706B6F1040CAD
:1056E00006D20EEB860CBDE870404CF0010C604712
:1056F000DFE80CF0090B02024FF00041A1F5002198
:105700004FF0000070BD19461046012851EB01040E
:1057100018BFD4F5001484BF002001F0004170BD13
:1057200070B5DFF844C13CEA111418BF3CEA131508
:1057300000F08F8011F1004F0CEA11141CEA1315D0
:1057400068BF45F0050518BF11EA0C1F00F079800D
:1057500021EA4C1123EA4C1341F4801143F48013E5
:105760002E46A5F58035AC423DDDA4F58036801A85
:10577000994109D54042C1F1000134BFB1F10101A5
:10578000B1F1000185F0010511F4F01F08D011F40A
:10579000801FE8D1400041EB0101A4F58034F6E719
:1057A00021F00041B1FA81F6202E04BFB0FA80FE4C
:1057B0000EF12006A6F10B06A4EB0644B6F1200E6E
:1057C0000CD2C6F1200E01FA06F120FA0EF641EADB
:1057D0000601CEF1200600FA06F003E000FA0EF111
:1057E0004FF00000BFE750EA410E23D04FEA244EAD
:1057F000BEEB254F0FDB994208BF904204D00AD37D
:10580000520043EB0303B0E74FEA1646B6EB144FE2
:1058100008BF85F00105B4F5803401EB041181EA7D
:10582000C57100DB70BD01F1C04101F000414FF0D6
:10583000000070BD4FEA45714FF0000001F00041DB
:1058400070BD1CEA131F09D04FF0000001F00041A9
:1058500070BDFFF717FF00BFEDFFFF3EBDE87040D2
:1058600002494FF0000070470000FF070000F87F7A
:105870000808A0F500114FEA3101704753EA010C06
:1058800017D41CF5801F58BFBCF5801F00F106809F
:105890008B4218BF704708BF8242704707D713F585
:1058A000801F58BF11F5801F19D48B4270479B424F
:1058B00070471CF5801F08D5BCF5801FF7D59942AD
:1058C00018BF704708BF904270474FF4001C1CEB94
:1058D000430F38BF1CEB410F01D2994270470FB400
:1058E0000CBC03BCFFF719BE10B591EA030F81F0A1
:1058F00000413FF501AB83F0004300F0EFB800003A
:105900002DE9F04101F5801CBCF5001FC0F2C380F9
:105910004FEA115C21EA0C5141F480110CF1FD0CAD
:105920005FEA5C0C0CF5C07C01D340004941890260
:1059300041EA905187023BA48E0EA45D0A0C04FB41
:1059400004F602FB06F6C6F14046A4FB0662F60D1D
:1059500046EA422606FB06F4A4FB01235242C3F1A9
:10596000404338BF5B1EA6FB02420024E6FB032433
:10597000D20B42EA4446A6FB0623A1FB02E2A3FBAC
:1059800007E4A4184FF0000252F10002E3FB0142C9
:105990006442C2F1404E38BFAEF1010EA6FB0423B3
:1059A0004FF00002E6FB0E32A2FB0346B6194FF0A1
:1059B000000454F10004E2FB0264A1FB06E6A4FB30
:1059C00007E816EB08064FF0000858F10008E4FB62
:1059D00001687642C8F1405838BFA8F10108A2FB1F
:1059E00006E4A3FB08E52D194FF0000454F1000470
:1059F000E2FB0854A1FB05E6A7FB04E818EB060848
:105A00004FF0000656F10006E1FB048618F1200570
:105A100056F10006A80940EA8660B109A8F11B0802
:105A200008F03F08B8F10A0F1CD901EB0C51BDE892
:105A3000F08100BFFCF5EEE8E2DDD8D3CFCBC7C3E1
:105A4000C0BDB9B6B4B1AEACA9A7A5A3A19F9D9B9B
:105A50009A9896959392908F8D8C8B89888786855E
:105A600084838281A0FB006800FB01F208EB4208FE
:105A7000B8EB872807D5341858EB0104D5D5401C5E
:105A800051F10001D1E7341A78EB0104CDD4401E66
:105A900071F10001C9E75FEA4C0C5FEA9C5C0DD133
:105AA00005D301F000414FF00000BDE8F081BDE8F2
:105AB000F04170B5FFF7E6FD6DDBFFBEBDE8F041DC
:105AC00001494FF0000070470000F87F10B591EADF
:105AD000030F48BF83F000433FF50EAA841A71EB11
