:020000040800F2
:10000000E8080020610200089D0200089F02000825
:10001000A1020008A3020008A502000800000000D9
:10002000000000000000000000000000A70200081F
:10003000A902000800000000AB020008AD020008A1
:10004000AF020008AF020008AF020008AF020008CC
:10005000AF020008AF020008AF020008AF020008BC
:10006000AF020008AF020008AF020008AF020008AC
:10007000AF020008AF020008AF020008AF0200089C
:10008000AF020008AF020008AF020008AF0200088C
:10009000AF020008AF020008AF020008AF0200087C
:1000A000AF020008AF020008AF020008AF0200086C
:1000B000AF020008AF020008AF020008AF0200085C
:1000C000AF020008AF020008AF020008AF0200084C
:1000D000AF020008AF020008AF020008AF0200083C
:1000E000AF020008AF020008AF02000800F002F8FB
:1000F00000F0A6F814A696E8000CB244B344DA4522
:1001000001D100F09DF8BAE80F000FA696E8300084
:10011000A5EB040504EB0607AAEB0704A7F101070A
:100120004FEA15154FEA3414A4F10104AC4201D38F
:1001300000F086F813F0010F18BFFB1A43F001031B
:1001400000F001F8DBE71847BC550000DC55000063
:10015000103A24BF78C878C1FAD8520724BF30C8F3
:1001600030C144BF04680C60704700007047000055
:100170000023002400250026103A28BF78C1FBD8B0
:10018000520728BF30C148BF0B6070476E2900F08E
:100190009B81702900F0D182662904F013866529BD
:1001A00004F01086672904F00D86612904F00C869E
:1001B00003681B0A28BF41F08001692900F04881CB
:1001C000642900F04581752900F042816F2900F013
:1001D0005F82782900F09D82E92900F0F981E42905
:1001E00000F0F681F52900F0F381EF2900F05C8240
:1001F000F82900F09C820368DB0928BF41F08001E8
:10020000632900F0CF87732900F0D487E32900F039
:10021000DF87F32900F0E487002070471FB501F065
:1002200045F804000020002103F07CFD401C6060C4
:100230000020002103F060FDE0601FBD10B510BD7F
:1002400001F006F81146FFF7E9FF01F003FA01F0AB
:10025000E3F803B4FFF7F2FF03BC01F073F9000009
:100260004FF000004FF000014FF000024FF000038C
:100270004FF000044FF000054FF000064FF000076C
:100280004FF000084FF000094FF0000A4FF0000B4C
:100290004FF0000C0948804709480047FEE7FEE799
:1002A000FEE7FEE7FEE7FEE7FEE7FEE7FEE7FEE726
:1002B00004480549034A054B70470000191500081A
:1002C000ED000008E8000020E8080020E800002019
:1002D000704700000FB4044910B503AA029800F05B
:1002E00007F910BC5DF814FB700000200EB5054640
:1002F00014460E4613A000F0FAFA284600F0F7FA6A
:1003000016A000F0F4FA304600F0F1FA15A000F063
:10031000EEFA00218DF80B100A210DF10A008DF87C
:100320000A1008E094FBF1F201FB124294FBF1F495
:10033000303200F8012D002CF4DC00F0D8FA00F087
:10034000CBFA00002A2A2A20617373657274696FE0
:100350006E206661696C65643A2000002C20666935
:100360006C6520002C206C696E652000704770471A
:100370007047704710B500F0C5FA006810BD10B5A1
:10038000044600F0BFFA046010BD70B504468569EC
:100390000068C10601D5302600E02026C00707D03E
:1003A00070BDD4E9012130469047206A401C20628C
:1003B0006D1EF6D570BD70B5044685690078C0071E
:1003C00007D170BDD4E9012120209047206A401C4C
:1003D00020626D1EF6D570BD09684A0501D540B290
:1003E0007047C905FCD500B2704709684A0501D5B8
:1003F000C0B27047C905FCD580B2704770B50C46D5
:100400000546012A05D02878800600D5EA69002330
:1004100002E0012305E05B1C934202D2E05C00286D
:10042000F9D1A869E618C01AA861286A1844286298
:100430002846FFF7AAFF04E0D5E9012114F8010BD3
:100440009047B442F8D32846FFF7B5FF70BD0000CF
:100450002DE9F0410646002410687529314616A59D
:1004600010D0FFF7B9FF002802DA404213A507E0D9
:1004700031688A0701D512A502E0490704D511A504
:10048000012401E0FFF7B1FF00210A2206F1240751
:1004900009E0B0FBF2FCB0FBF2F302FB1C003030D1
:1004A00078541846491C0028F3D123462A46304682
:1004B000BDE8F04100F06FBA000000002D00000020
:1004C0002B0000002000000011680268006A53053C
:1004D00001D508700AE0D30501D5088006E01306AF
:1004E00003D5C217C1E9000200E00860012070478F
:1004F000074B70B50D467B4400F037FE0446284696
:1005000000F072FE10B14FF0FF3070BD204670BD9C
:10051000F71000002DE9FF5F15468A460446DFF814
:10052000AC80F8440027D8E900103E46CDE9001021
:1005300010E03AF816106A4602A800F059FE411C75
:1005400007D02178890603D5E269391891420DD880
:100550000744761C2078800602D5E069B84205DDA4
:10056000AE42E6DB3AF816000028E2D1A069C01BD3
:10057000A0612046FFF709FFD8E90010CDE900107F
:10058000002017E03AF818106A4602A800F030FE82
:10059000B0F1FF3F81460BD000250DF1080B05E0BF
:1005A000D4E901211BF8050090476D1C4D45F7D398
:1005B00008F10100B0428046E4DB206A3844206242
:1005C0002046FFF7F8FEBDE8FF9F00001A4B000031
:1005D0002DE9F0418046D21D22F007020025D2E924
:1005E0000002F52915A614D0011E72F1000106DAE9
:1005F0000023D0EB030063EB020211A608E0D8F859
:1006000000108B0701D50FA602E0490701D50EA601
:1006100001251146002408F1240704E000F076F9D2
:1006200030323A55641C50EA0102F7D12B4632466B
:1006300021464046BDE8F04100F0ADB900000000A1
:100640002D0000002B0000002000000030B400212D
:1006500000F1240408E002F00705D208303542EA30
:100660004372DB086554491C52EA0305F3D1046860
:10067000002310A2250708D504F020040C4304D061
:10068000C46901230CA2641EC46130BC00F083B9AC
:1006900010B5044621461068FFF7A7FE0246204623
:1006A000BDE810400023D1E7D21D22F00701D1E9B7
:1006B0000023CBE70000000030000000F0B40D463E
:1006C0000188090502D5214C7C4402E01F4C7C4482
:1006D0000E34002100F1240608E002F00F07120991
:1006E000E75D42EA03721B097754491C52EA03078B
:1006F000F3D102780023120704D5702D06D009B17A
:10070000022311342246F0BC00F045B90123103415
:10071000F8E770B504460D4621461068FFF765FE00
:10072000024629462046BDE870400023C6E7D21D98
:1007300022F00703D3E90023C0E70368126843F0FF
:10074000200303600823C3610023B7E77C4900004E
:100750002DE9F05F894604464FF0000ADFF874B1D6
:10076000FB44C0F820A02046E1688847002874D0E8
:10077000252806D0D4E901219047206A401C206238
:10078000F1E700265F462046E168884720280546B5
:1007900007DB312D05D2781910F8200C08B106437B
:1007A000F1E7B00701D526F00406C4F81CA0002725
:1007B000C4F818A02A2D09D0284602F0F5F838B35D
:1007C00004EB8708303DC8F8185019E059F8041BAD
:1007D000204604EB87029161E1688847012F0546B6
:1007E00018D1E069002820DA26F020061DE0D8F8AC
:1007F000180000EB800005EB40003038C8F8180006
:100800002046E1688847054602F0CEF80028EED180
:10081000012F0AD02E2D08D12046E16888477F1C81
:100820000546022F46F02006C4DBA069002803DA43
:10083000404246F00106A061F00701D026F0100604
:100840006C2D0BD0682D09D04C2D39D06A2D35D0A8
:10085000742D35D07A2D33D016E038E0E1682F467C
:1008600020468847B842054609D16C2F26D04FF460
:100870008060E168064320468847054604E06C2F07
:100880001AD04FF4807006430DB3A5F1410019282A
:1008900002D8203546F400664A462946204626609E
:1008A0004E46FFF773FC80B101280BD0F61D26F0F1
:1008B000070000F1080956E74020E4E78020D8E768
:1008C0000020D6E706F104094DE7284652E7206AE2
:1008D000BDE8F09F0C49000010B5002000F0ACFC12
:1008E000FFF7ACFCBDE81040012000F02BBE10B5B6
:1008F000044602E0641C00F029FE20780028F9D1AB
:1009000010BD0000004870471000002030B5B0F165
:100910000A0271F100034FEA900E4EEA817EB0EBBD
:100920000E0061EB91014FEA101E4EEA017E10EBC2
:100930000E0041EB11114FEA102E4EEA016E10EB42
:100940000E0041EB11214FEA104E4EEA014E10EB22
:100950000E0041EB1141401841F100014FEAD00077
:1009600040EA41704FEAD1014FEA810444EA9074B1
:1009700010EB800544EB01046D1944EB0404521B99
:10098000A3414FF0000348BF0A3200D530BD401CE0
:1009900041F1000130BD2DE9F0470D4699469246E0
:1009A000044600F124080168880604D5E06921F0B6
:1009B0001001216000E00120A84201DD471B00E09A
:1009C0000027A1697A1902EB0900081AA0612078B2
:1009D000C00602D42046FFF7D8FC002608E0D4E980
:1009E00001211AF806009047206A401C761C2062FC
:1009F0004E45F4DB2078C0060AD52046FFF7C5FC3B
:100A000006E0D4E9012130209047206A401C206292
:100A1000381EA7F10107F4DC07E0D4E9012118F83A
:100A200005009047206A401C2062281EA5F10105A0
:100A3000F3DC2046FFF7BFFC2078000602D5022039
:100A4000BDE8F0870120FBE72DE9FF4F0C461E466D
:100A50004FF0FF378BB0D2E90001DDF860800A90DB
:100A60008A46C1F30A5505B93D46002108464FF0B4
:100A70000000BAF1000F00F4400005DA00EB80003E
:100A80004FF4400101EA50004FEA9059B9F1010FCB
:100A900000DDB9460A9850EA4A000ED044F61050DC
:100AA000A5F2FF3545432F14B8F1000F1ED0754253
:100AB000291E1EDDC9F100021CE0B8F1010F4FF044
:100AC000000001D0302103E0F24305E02154401C36
:100AD000B042FBDB30460022002121540B99C1F8C3
:100AE0000880C1E900200FB0BDE8F08FBD1B6D1C70
:100AF000DEE74A4600DA694206A800F01BFC06ABB6
:100B000093E8070003AB83E8070050460A9900F01A
:100B1000F4FF8DE80700A0F500501F3800900398FF
:100B2000002D0ADD42F21F014A460844002303A9B2
:100B30000390684601F05EFA09E0A0F500504A46CD
:100B40001F38002303A90390684601F068FA8DE876
:100B500007000004000C03D04FF0FF30410800E014
:100B60001046B8F1000F03D00022009215461EE097
:100B7000751E05D4FFF7CAFE303262556D1EF9D5D9
:100B8000B3460122084302D000227F1C04E02078F3
:100B9000302801D100227F1E002A099784D01DE051
:100BA000112D07DAFFF7B2FE303262556D1C50EAA4
:100BB0000102F5D1084302D00098C8B10EE000212F
:100BC000681E05E0235C625C63542254401E491C8D
:100BD0008142F7DBAB46A81B401E0990002004F8B9
:100BE0000B000B98099AC0F80880C0E9002B7AE73F
:100BF00011264FF0000857E72DE9F04F88460446CC
:100C0000D21D22F0070191B0D1E90001CDE90A011E
:100C100001F03CFB02460B98C00F01D02D2007E0ED
:100C20002068810701D52B2002E0202101EAC000C5
:100C3000032A099001D0072A05DB034641462046D6
:100C400000F038FB0BE12078800601D5E06900E078
:100C50000620B8F1650F814606D0B8F1660F18D0AE
:100C6000B8F1670F70D131E00020B9F1110F009099
:100C700001DB112301E009F101030AAA01A90CA873
:100C8000FFF7E2FEDDE90C70002609F1010583465D
:100C900047E001204B4600904FF000470AAA01A907
:100CA0000CA8FFF7D1FEDDE90DB00C995D460026DA
:100CB00010B909F101000D18B9EB050003D4C0F11A
:100CC000FF3609F10105A5EB09002BE0B9F1010F91
:100CD00001DA4FF001090020B9F1110F00904846E8
:100CE00001DD112300E003460AAA01A90CA8FFF7C1
:100CF000ABFEDDE90C704D460026834620780007E8
:100D00000AD4AB4500DA5D4601A8012D04DD411986
:100D100011F8011C302907D04F4502DA17F1040FF2
:100D200004DA012082460FE06D1EEEE7002F02DCA0
:100D3000ED1B3E4403E0781CA84200DD7D1CB81B7F
:100D400000F1010A4FF000472078000703D4AA45BC
:100D500001DB4FF0FF3A0021B7F1004F0DF14308DE
:100D60008DF8431024D002202B23002F01DA7F427C
:100D70002D230A21021EA0F1010000DC5FB197FBC8
:100D8000F1FC97FBF1F201FB1C7C17460CF1300CD7
:100D900008F801CDEEE7A8F10100037021880905EC
:100DA00001D5452100E06521A0F1010800F8011CF2
:100DB00009980FA9A1EB0807FF1D00B101204119F7
:100DC00001EBEA70A1693844081A401EA06120783E
:100DD000C00602D42046FFF7D8FA099828B1D4E912
:100DE00001219047206A401C20622078C00622D54D
:100DF0002046FFF7CAFA1EE0002E04DBB34502DDF1
:100E000001A8805D00E03020D4E901219047206AEC
:100E1000401C2062761CAAF101005FEA000A0AD198
:100E200000F044FAC0680168405CD4E901219047B1
:100E3000206A401C2062281EA5F10105DCDC07E0C9
:100E4000D4E9012118F8010B9047206A401C206268
:100E5000381EA7F10107F3DC2046FFF7ACFA0320A8
:100E600011B041E62DE9F04F04460D46D21D22F0A7
:100E7000070089B0D0E900974846394601F006FAE4
:100E80000246F80F01D02D2307E02068810701D525
:100E90002B2302E0202101EAC0038DF820300BB1A2
:100EA000012000E00020032A824601D0072A04DB4B
:100EB0002946204600F0FEF93FE12078800601D463
:100EC0000D2500E0E569C7F30A560D2D49DA00212A
:100ED0004FEA175B08464FF00000002F00F4400077
:100EE00007DA00EB80004FF4400100EBD07001EA1C
:100EF00060008115012901DD4FF0FF3100224FEA2A
:100F0000850CBCF1180F06D31346ACF118004FF056
:100F10008052C24003E04FF4801323FA0CF30CF12B
:100F20000C0CBCF1200F04D3ACF1200C09FA0CF02E
:100F300001E007FA0CF000294FF0004801DD18B974
:100F40000FE00ED140450CD319EB02095F4121B9E6
:100F5000404502D19F4329EA0209BBEB175F00D04D
:100F6000761C2088000502D57B48784402E07A4848
:100F70007844193808AA302302F80A30037C0AF1B1
:100F80000101002E0AF1020A53546A4602DC4FF0B6
:100F9000300101E04FF031014FF001088DF80010F1
:100FA00002D0A6F2FF3603E059EA470100D06B4EAB
:100FB000002D02DC2178090704D54FF002082E210C
:100FC0008DF80110C44600210BE0C7F303433F0135
:100FD000C35C491C6D1E02F80830052908F10108A0
:100FE00001DA002DF1DC00210CE000EB1973491C43
:100FF0001B786D1E082902F808304FEA091908F11C
:10100000010801DA002DF0DC21688B0602D516E01C
:10101000A8F10108E04505DD02EB080313F8013CE7
:10102000302BF5D0B8F1000F09DD02EB080313F8FF
:10103000013C2E2B03D1090701D4A8F10108002D92
:1010400005DD3E2102F808106D1E08F10108407C04
:10105000002E02F8080008F1010804DA2D2076427B
:1010600002F8080002E02B2002F808000A214FF4E1
:101070007A70864208F101080BDB96FBF0F33033FF
:1010800002F8083096FBF0F308F1010800FB136644
:1010900001E0642E0CDB642096FBF0F3303302F8A1
:1010A000083096FBF0F308F1010800FB136601E03D
:1010B0000A2E06DB96FBF1F0303002F8080008F14A
:1010C000010896FBF1F001FB1060303002F80800D7
:1010D000A16908F1010808EB050202EB0A00081AF1
:1010E000A0612078C00602D42046FFF74EF9216A9D
:1010F00008AE01EB0A00206204E0D4E9012116F8F1
:10110000010B9047BAF1010AF7D22078C00602D548
:101110002046FFF73AF96E4609E016F8010B3E2823
:101120000FD0D4E901219047206A401C2062B8F119
:101130000108F2D22046FFF73EF909B00320BDE8CE
:10114000F08F206A2844206203E0D4E90121302096
:1011500090476D1EEBD3F8E76542000002FCFFFFED
:1011600001694A1C02610878704700B58FB0CDE96B
:1011700001310021059105497944CDE9031011465B
:101180006846FFF7E5FA0FB000BD0000E5FFFFFF7E
:1011900010B5436913B1AFF3008001E0FFF72EF9FA
:1011A000012010BD127800F124010A7000224A705B
:1011B0000122EDE711684FF0FF32E9E710B543690E
:1011C00013B1AFF3008001E0FFF7A4F9012010BDD7
:1011D000128800F1240182840022C2840122EDE7FA
:1011E00011684FF0FF32E9E7007B00F080007047A4
:1011F0002DE9F04116460C46054600F04FF803680D
:1012000093F80101012807D0FF2C12D8185D80B196
:1012100001202C70BDE8F081D3F807013246214649
:1012200003F20713C7182846BC46BDE8F041002367
:1012300060474FF0FF30EDE710B500F0FBF8BDE878
:10124000104000F0F2B80000004870471000002085
:101250007546FFF7F9FFAE4605006946534620F094
:101260000700854618B020B5FFF722F8BDE82040FA
:101270004FF000064FF000074FF000084FF0000B52
:10128000AC46ACE8C009ACE8C009ACE8C009ACE8C1
:10129000C00921F007018D467047000010B500F02D
:1012A00005F8001D10BD00BF7D2A000000487047F2
:1012B000300000202DE9F0411F4604460326016856
:1012C000072A01F4006004DB08B116A505E016A5A5
:1012D00003E008B115A500E015A521F0100020607D
:1012E000A069C01EA0610FB1401EA0612046FFF79B
:1012F0004CF84FB1D4E9012138469047206A401C90
:101300002062C01C206206E0206AFAE7D4E90121CD
:1013100015F8010B9047761EF8D22046FFF74BF8E0
:10132000BDE8F0814E414E006E616E00494E4600B0
:10133000696E66002DE9F047814616468AB0354849
:1013400078440DC88DE80D0032487844801C03AC09
:101350000DC884E80D0041F69B300844372190FB0E
:10136000F1F290FBF1F5A5F1800501FB12041B3CA5
:1013700002D56442012000E00020DFF898A08046FA
:101380000027FA44AAF1BE0A0EE0E0070AD032466E
:10139000684607EB470101230AEB810100F03FFE9D
:1013A0008DE8070064107F1C002CEED1194F7F449C
:1013B000AE3F19E0E80715D007EB04100DF1180A4D
:1013C00090E80E008AE80E00C068F04201D198193A
:1013D00008903246012306A903A800F020FE03ABC3
:1013E00083E807006D10641C002DE3D14FF001036A
:1013F00032466946B8F1000F03A802D000F0FAFDAA
:1014000001E000F00CFEC9E90001C9F808200AB0AB
:10141000BDE8F087203F000010B50446AFF3008020
:101420002046BDE81040FEF714BF002801D000F0B0
:1014300089B8704710B5002102A000F013F8012010
:1014400010BD0000534947414252543A2041626E58
:101450006F726D616C207465726D696E6174696F15
:101460006E00000070B505460C460A2000E06D1CB9
:1014700000F06CF835B128780028F8D102E0641C3F
:1014800000F064F814B120780028F8D1BDE870406D
:101490000A2000F05BB800004FF0013C50F8042B2C
:1014A00051F8043B9A4221D1A2EB0C03934313EA77
:1014B000CC1317D150F8042B51F8043B9A4215D1A4
:1014C000A2EB0C03934313EACC130BD150F8042B7B
:1014D00051F8043B9A4209D1A2EB0C03934313EA5F
:1014E000CC13DBD04FF00000704700BFD01A01BA18
:1014F000B1FA81F101F0180122FA01F0CB40DBB220
:10150000C0B2C01AC1F120012CFA01F3D11A9143E3
:1015100011EAC311E6D1704780B582B04EF21000D7
:10152000CEF2000001900199086820F001000860E7
:1015300000F016F845F27C20C0F60000FEF7CAFE67
:1015400002B080BD81B0009001B0704780B582B01C
:1015500001909DF9040000F023F8019802B080BDCD
:1015600081B040F20030C4F20000009000980068A2
:1015700040F20221C2F22501884207D1FFE740F282
:10158000C401C2F200010120087006E040F2C4016B
:10159000C2F2000100200870FFE701B070470000B0
:1015A00080B584B08DF80F0040F20010C4F2000046
:1015B000019040F20410C4F20000009000F02EF8F8
:1015C0000290FFE7019800684006002809D4FFE771
:1015D00040F2C400C2F20000007808B9FFE700E062
:1015E000F0E79DF90F000099086004B080BD00008D
:1015F00080B582B0019000919DF90400FFF7D0FF03
:10160000019802B080BD000081B040F20420C4F215
:10161000000000900098006801B0704782B040F26E
:10162000C400C2F20000007850B9FFE740F2D000D9
:10163000C2F200000168013101600068019006E01B
:101640004FF080400090009800680190FFE70198FB
:1016500002B0704780B582B0002000900190FFF783
:101660007FFFFFF7D1FF014640F2C800C2F2000041
:10167000016040F2C401C2F200010A78036845F239
:10168000B240C0F600002C21FEF724FE00F034F832
:10169000642000F011F8009840F2CC01C2F2000181
:1016A000086045F20B50C0F6000045F24461C0F6F8
:1016B0000001ED22FEF71AFE80B582B0019001997B
:1016C00045F2F540C0F60000FEF704FEFFF7A6FF66
:1016D0000090FFE7FFF7A2FF0099401A01998842A6
:1016E00001D2FFE7F6E745F27F40C0F60000FEF7C3
:1016F000F1FD02B080BD000080B58AB040F200016B
:10170000C2F200010868496840F20803C2F200030F
:101710001A685B6802F072FE0A4640F2E001C2F20B
:1017200000014A600860086849684FF2E462CBF241
:10173000C25242F6C723C3F6E57303F046FA08B176
:10174000FFE70AE045F21050C0F6000045F24461A0
:10175000C0F60001A622FEF7C9FD40F2E000C2F289
:101760000000099045F2BF20C0F60000FEF7B2FD70
:1017700040F20001C2F200010868496840F2080323
:10178000C2F200031A685B6802F0D0FB0A460999AE
:101790004A600860086849683922CFF209624CF251
:1017A0008563C3F6DB7303F010FA08B1FFE70AE0C4
:1017B00045F24250C0F6000045F24461C0F6000117
:1017C000AA22FEF793FD40F2E000C2F2000008906A
:1017D00045F2E220C0F60000FEF77CFD089908689B
:1017E0004968192201F0EAFC0A4640F2D801C2F227
:1017F00000014A600860086849683922CFF209622E
:101800004CF28563C4F26B1303F0DFF908B1FFE714
:101810000AE045F2EC50C0F6000045F24461C0F623
:101820000001AE22FEF762FD40F2D800C2F20000D5
:10183000079045F22740C0F60000FEF74BFD40F24E
:10184000E001C2F20001086849684FF000524BF213
:101850000323C3F6977301F067FC0A4607994A60B1
:1018600008600868496840F29032C2F290024EF275
:101870002743C3F6917303F0A8F908B1FFE70AE024
:1018800045F22850C0F6000045F24461C0F6000160
:10189000B222FEF72BFD40F2D800C2F20000069003
:1018A00045F20530C0F60000FEF714FD40F2E001FD
:1018B000C2F200010868496801F0BCF90A460699BD
:1018C0004A600860086849684DF28B42CCF2595270
:1018D0004BF61633C3F6DC7303F077F908B1FFE774
:1018E0000AE045F27450C0F6000045F24461C0F6CB
:1018F0000001B622FEF7FAFC40F2D800C2F2000066
:10190000059045F2FE30C0F60000FEF7E3FC40F221
:10191000E001C2F200010868496801F04DF80A468A
:1019200005994A600860086849684BF2F672CAF285
:10193000ED224FF23533C3F6F17303F046F908B1E7
:10194000FFE70AE045F2D450C0F6000045F24461DA
:10195000C0F60001BA22FEF7C9FC40F2D800C2F27C
:101960000000049045F23C40C0F60000FEF7B2FCD7
:1019700040F2E001C2F200010868496802F08AF909
:101980000A4604994A600860086849684CF698025B
:10199000C2F6C6324AF65A13C3F6DD7303F015F9E0
:1019A00008B1FFE70AE045F25B50C0F6000045F2DF
:1019B0004461C0F60001BE22FEF798FC40F2D80058
:1019C000C2F20000039045F2EA30C0F60000FEF7D4
:1019D00081FC40F2E001C2F200010868496801F0B0
:1019E00061FA0A4603994A6008600868496843F644
:1019F000FB72CDF6AC724BF2CA13C3F6F87303F068
:101A0000E4F808B1FFE70AE045F28D50C0F60000A7
:101A100045F24461C0F60001C222FEF767FC40F2C5
:101A2000D800C2F20000029045F21340C0F6000058
:101A3000FEF750FC40F2E000C2F20000026843688A
:101A40001046194601F0F4FB0A4602994A60086004
:101A5000086849684BF68D42CEF28F2244F26D63DE
:101A6000C3F6E67303F0B1F808B1FFE70AE045F208
:101A7000A450C0F6000045F24461C0F60001C62241
:101A8000FEF734FC40F2D800C2F20000019045F2AB
:101A9000C130C0F60000FEF71DFC40F2E001C2F2CA
:101AA00000010868496802F053F902F0DDF803F01C
:101AB00061F80A4601994A600860086849684FF071
:101AC000005241F2BB43C3F6E57303F07EF808B160
:101AD000FFE70AE045F2BC50C0F6000045F2446161
:101AE000C0F60001CA22FEF701FC45F29630C0F6AE
:101AF0000000FEF7EFFB0AB080BD5FEA400C08BFB4
:101B000091F0000F4FEA8C234FEAC12243EA515172
:101B10004FEA1C5018BF00F5F0404FEA300018BFE4
:101B200041F000415FEA6C5C00F02980BCF1FF3FAE
:101B300008BF40F080407047130C06BF12044FF0FE
:101B4000100C4FF0000C130E04BF12020CF1080C25
:101B5000130F04BF12010CF1040C930F04BF920089
:101B60000CF1020CD30F04BF52000CF1010C114612
:101B70004FF00002A0F11F00A0EB0C00704711F025
:101B8000004F08BF704731F000413FF4D5AF0B0C58
:101B900006BF09044FF0100C4FF0000C0B0E04BFF1
:101BA00009020CF1080C0B0F04BF09010CF1040C25
:101BB0008B0F04BF89000CF1020CCB0F04BF49004E
:101BC0000CF1010CCCF1200322FA03F341EA0301EA
:101BD00002FA0CF2A0EB0C0000F1010070470000CB
:101BE00023F07F4720F07F4C80EA030000F00040A4
:101BF000ACEB070303F57C5303F1FF032DE98049A8
:101C000009B44FEA144324EA03484FEA154B25EA86
:101C10000B4E0FF2042606EB13273E7803FB0667F4
:101C2000C7F5000707FB06F64FEAD64606F102069F
:101C30004FEA543707FB066CCCF1005C4FEA1C47B7
:101C40002CEA074C0CFB06F507FB06F404EB1546E3
:101C50004FEA961649085FEA320234BF00204FF07F
:101C600000404FEAD13706FB07FC4FEA1C4C0CFB47
:101C70000BF7D21B03FB0CF761EB07010CFB0EF714
:101C8000B0EB074072EB17420CFB08F734BFA2EB36
:101C90000742B2EB074261EB17414FEA0C444FEAAF
:101CA000910706FB07FC4FEA1C4C0CFB0BF7B0EB53
:101CB000C74072EB573203FB0CF734BFA2EBC742AD
:101CC000B2EBC74261EB57310CFB0EF7B0EBC7002C
:101CD00072EB57720CFB08F734BFA2EBC702B2EBF2
:101CE000C70261EB57714FEA816141EA92114FEAF5
:101CF000826242EA90124FEA806004EBCC04039FB8
:101D00004FEAD13706FB07FC4FEA1C4C0CFB0BF7E4
:101D1000D21B03FB0CF761EB07010CFB0EF7B0EBDA
:101D2000074072EB17420CFB08F734BFA2EB0742E7
:101D3000B2EB074261EB17414FEA8C5504EB9C2450
:101D40004FEA910706FB07FC4FEA1C4C0CFB0BF714
:101D5000B0EBC74072EB573203FB0CF734BFA2EB7A
:101D6000C742B2EBC74261EB57310CFB0EF7B0EB49
:101D7000C70072EB57720CFB08F734BFA2EBC70227
:101D8000B2EBC70261EB57714FEA816141EA9211F0
:101D90004FEA826242EA90124FEA806015EB4C25CE
:101DA00044F100044FEAD13706FB07FC4FEA1C4C14
:101DB0000CFB0BF7D21B03FB0CF761EB07010CFBD1
:101DC0000EF7B0EB074072EB17420CFB08F734BF7D
:101DD000A2EB0742B2EB074261EB17414FEA8131B8
:101DE00041EA92414FEA823242EA90424FEA803021
:101DF0004FEA0C7615EB1C1544F1000448EA034346
:101E00004EEA0B484FF0000EB2EB080C71EB0307E3
:101E100024BF624639464EEB0E0E4FF0000B001801
:101E2000524149414BEB0B0BB2EB080C71EB030732
:101E30007BF1000B24BF624639464EEB0E0E4FF08D
:101E4000000B0018524149414BEB0B0BB2EB080C55
:101E500071EB03077BF1000B24BF624639464EEB62
:101E60000E0E51EA020718BF46F0010616EB0E7679
:101E700055F1000254F1000103D5BDE88901BDE828
:101E80000088BDE88901BDE80048B619524141EB20
:101E90000101A3F10103704780807F7E7D7C7B7A06
:101EA0007978777676757473727171706F6E6E6D06
:101EB0006C6C6B6A6A6968686766666564646363AC
:101EC00062616160605F5F5E5E5D5D5C5C5B5B5A32
:101ED0005A5959585857575656555555545453539F
:101EE00052525251515050504F4F4F4E4E4D4D4DFA
:101EF0004C4C4C4B4B4B4A4A4A4949494848484745
:101F00004747474646464545454444444443434382
:101F100043424242424141419C46002B30D477002B
:101F20002BD04FEA37071CB503B44FF010004FF029
:101F30001001BAF1000F06D0BCF1000FDCBF40F079
:101F4000080040F008014FF000000FBCBDE8104051
:101F50000BF1010BBBF1010F08BF5FEA170722BFAE
:101F600012F1010211F101014FF0004143F10003B0
:101F700000F0004043EA00007047F9D35708D0E76B
:101F800046EA06464FEA164613F1400F1FDD13F1ED
:101F9000200FDFBF16430A46002120335B42BED02C
:101FA000C3F1200746EA06464FEA164602FA07F74B
:101FB00046EA070622FA03F2C3F1200701FA07F7FF
:101FC00042EA070221FA03F14FF00003A7E746EACD
:101FD000020646EA06464FEA164646EA0106BCBF36
:101FE00046EA0646360C4FF000034FF000024FF071
:101FF000000194E72DE9804C70B49A46934691E82D
:10200000380007C831EA400C48BF34EA430C03D516
:10201000FFF7E6FDFFF780FFF0BCBDE8008C2DE97F
:10202000804C70B49A46934691E8380007C810F087
:10203000804F08BF13F0804F03D100F005F8FFF781
:102040006BFFF0BCBDE8008C20F07F4723F07F4C95
:1020500080EA030000F0004007EB0C03A3F57C537B
:10206000A3F1FE0392F0000F00F0B38095F0000F93
:1020700000F077802DE901494FEA114021EA00483C
:102080004FEA144624EA064700FB06FC08FB06F666
:1020900007FB08F818EB06484CEB164C00FB07F75B
:1020A00018EB07484CEB17404FEA124B22EA0B4E55
:1020B0004FEA154625EA06470BFB06FC0EFB06F623
:1020C00007FB0EFE1EEB064E4CEB164C0BFB07F708
:1020D0001EEB074E4CEB174B18EB0B0840F10000C2
:1020E00018EB0E0B58EB000840F100008F1A4FF070
:1020F00000014FF000063CBFC943661B14BFB5EB9F
:10210000040C00213CBFC943F61B4FEA174427EAE1
:1021100004454FEA1C472CEA074C04FB076205FB09
:1021200007F70CFB05F616EB074642EB174204FBDC
:102130000CFC16EB0C4642EB1C421BEB060658EB64
:10214000020241414EEA8E0E46EA9E0601D5BDE8E6
:102150000189B619524141EB0101A3F10103BDE828
:1021600001894FEA144524EA05464FEA114721EA5E
:10217000074C05FB07F406FB07F70CFB06F111EB18
:10218000074144EB174405FB0CFC11EB0C4144EBFD
:102190001C444FEA124722EA074C05FB07F206FBF4
:1021A00007F70CFB06F616EB074642EB174205FB5A
:1021B0000CFC16EB0C4642EB1C456A1854F100016E
:1021C00048BF7047B619524141EB0101A3F1010329
:1021D000704795F0000F37D04FEA114221EA0246CE
:1021E0004FEA144724EA074C02FB07F106FB07F706
:1021F0000CFB06F414EB074441EB174102FB0CFC0B
:1022000014EB0C4441EB1C414FEA154725EA074CFF
:1022100002FB07F506FB07F70CFB06F616EB074675
:1022200045EB174502FB0CFC16EB0C4645EB1C423C
:10223000121951F1000148BF7047B619524141EBE4
:102240000101A3F1010370474FEA144524EA054652
:102250004FEA114721EA074C05FB07F106FB07F798
:102260000CFB06F212EB074241EB174105FB0CFC9D
:1022700012EB0C4251EB1C414FF0000648BF704777
:10228000921841EB0101A3F101037047490050EAA4
:10229000C12018BF04204A0D18BF40F0010040F2D1
:1022A000FF72B2EB515F08BF40F00200012808BF87
:1022B000052070472DE9F74F144694B00021C4E97A
:1022C00002111599079121F00045C9498D4206DC9C
:1022D0001599C4E9000117B00020BDE8F08FC54989
:1022E000DFF814A3A9423CDD0799C44E0029C44F6E
:1022F000C44A1599534619DD02F04EFB554506D0E8
:10230000C14AC24B02F048FBC4E900010AE04FF0A9
:10231000D352BE4B02F040FB32463B4602F03CFB40
:10232000C4E9000117B00120BDE8F08F01F042FDC3
:10233000554506D0B44AB54B01F03CFDC4E9000157
:102340000AE04FF0D352B14B01F034FD32463B4628
:1023500001F030FDC4E9000117B04FF0FF30BDE8D7
:10236000F08FAB49A942159978DB21F000418346F3
:102370008846A84AA84B02F041F80022A74B01F07A
:1023800019FD01F069FF099001F095FF06460F461F
:102390009C4A534602F032F843465A4602F00AFA83
:1023A00080468A46984A994B3046394602F026F8CC
:1023B0002A0D01250B924246534602F0FBF9032DEC
:1023C000C4E9000139D00B98C1F30A51401A05EB5A
:1023D00045111139814230DA9148C346784400EB07
:1023E0000510CDF80CA00C90D0E9002330463946FA
:1023F00002F004F802460B460491069058460399F1
:1024000002F0CAFA80468A4602460B4658460399AD
:1024100002F0C2FA049B069A02F0BEFA83460C98B8
:1024200003913946D0E90223304601F0E7FF5A46CE
:10243000039B02F0B1FA6D1CBDE707980028A2BF0C
:10244000099817B0BDE8F08F616881F000416160C4
:10245000099817B04042BDE8F08FFFE78446159811
:10246000C1F31301C0F30A50A0F2F5304FEA60182F
:1024700000F01F06C6F12000139000200690079080
:1024800041F4801E05206D4676B1664A08EB0001D6
:102490007A4452F8213002EB8101B3404A68139923
:1024A00022FA01F1194305E05F4908EB0002794483
:1024B00051F82210A1FB0E27A1FB0C131A449A42DB
:1024C00034BF0123002303EB070A05EB8003D3E9A4
:1024D00001B70F448F4234BF0121002193448B4444
:1024E00011B1934502D903E0934501D2012100E0E7
:1024F0000021C3E901B7514445F82010011EA0F1A5
:102500000100C1DC0298059F00F10050800F12907D
:102510000298DDE90356800001F0CDFE834628468F
:102520000D9101F0DFFE6FF01D0202F081FCCDE99C
:102530000E01304601F0D6FE6FF03D0202F078FC4D
:1025400080468A46384601F0CDFE6FF05D0202F00B
:102550006FFC074642465346119101F02BFCDDE922
:102560000E2301F027FC5A460D9B01F023FC0025A9
:102570000E465A4628460D9B02F00EFADDE90E2360
:1025800002F00AFA4246534602F006FA3A46119B16
:1025900002F010F9DFF898A0244A534601F02EFF0C
:1025A00007468846234A244B3146284601F026FF39
:1025B0003A46434601F0FEFB074688464FF0A842E4
:1025C00053463146284601F019FF3A46434601F08A
:1025D000F1FB159A12F0004F04D0129A81F00041DD
:1025E00052421292C4E90001129817B0BDE8F08F70
:1025F000FB21E93F7CD90240FB21F93F7370032E98
:102600008A19A33B000040543163621A61B4D03D83
:10261000FB21394183C8C96D305FE43F0000E03FD2
:10262000B02C00002C2C00000E2C0000182D44545F
:10263000FB21F93D3326A611460B113C2DE9F04153
:102640004F1E00EBC7010446D1E9000115461E46A6
:1026500037F006020DD02A46334601F0CFFE7F1E2A
:1026600004EBC703D3E9002301F0A4FB37F0060213
:10267000F1D1022F25D0042F13D0062F18BFBDE8AB
:10268000F0812A46334601F0B9FED4E90A2301F06D
:1026900091FB2A46334601F0B1FED4E9082301F04C
:1026A00089FB2A46334601F0A9FED4E9062301F04E
:1026B00081FB2A46334601F0A1FED4E9042301F050
:1026C00079FB2A46334601F099FED4E9022301F052
:1026D00071FB2A46334601F091FED4E90023BDE8A0
:1026E000F04101F067BB00002DE9F04D04468CB0CD
:1026F000904821F00047164698460D4609918742BA
:1027000006DA2046294601F0A7FD002800F0AE8039
:102710008948B8421CDC09980028BCBF85F00045F8
:1027200088F00048854A864B2046294602F042F848
:1027300004460D46324643468248834902F02CF94E
:1027400022462B4601F036FB002604460D46B046D5
:1027500022462B461046194601F050FE8B46824613
:1027600002460B4601F04AFE0246089077480B46A7
:10277000009106217844FFF761FFCDE9031074480A
:1027800006217844009B089AFFF758FF52465B46A3
:1027900001F034FECDE9051052465B46204629463D
:1027A00001F02CFE07910090DDE90310DDE9053210
:1027B00001F000FB079B009A01F020FE32464346E1
:1027C00001F0F8FA52465B4601F018FE32464346E5
:1027D00001F0F0FA80460E465E4A5F4B079900987A
:1027E00001F00CFE4246334601F0E4FA82468B4685
:1027F00022462B4601F0DEFA80464F480E46B8428C
:1028000014985BDC01F057FD0746424633460591BC
:1028100001F0D0FACDE90110424633461046194680
:1028200001F0ECFDDDE9013201F080FB52465B4630
:1028300002F0B2F822462B4601F0BCFF012202F062
:10284000F7FA3A46059B01F0B5FF04460D46099894
:10285000022101EAA070C0F1010001F02CFD0CB0D2
:1028600022462B46BDE8F04D01F0C8BD1498401C2F
:10287000384320430BD01498012812D00CB02246C4
:102880002B46BDE8F04D0020344901F04FBB0CB0A1
:1028900025F000432246BDE8F04D0020304901F00C
:1028A00045BB20462946FFF7F1FC042808BF00F08D
:1028B00073F820460CB02946BDE8F08D012802BF10
:1028C00040460CB0BDE8F08D00270B463A46204646
:1028D000294601F06FFF52465B4601F06BFF04464C
:1028E0000D464246334600201C4901F01FFB83463B
:1028F0003A4688463346104601F080FD0022184BC8
:1029000001F058FA06468A4622462B46384641468A
:1029100001F074FD3246534601F04CFA5A464346E4
:1029200001F06CFD0CB03A464346BDE8F04D01F0B5
:1029300041BA00000000303E2894E53F182D445471
:10294000FB21E93F075C143326A6813CE8290000FF
:102950000A2A0000635555555555D53F0000F0BF74
:102960000000F03F002213461046014901F0DEBA94
:102970000000F03F012202F05BBA01F01BBA002216
:1029800013461046114601F0D1BA40F20132002040
:102990004FF0E04102F04CBA024A0020110702F069
:1029A00047BA000001FDFFFF30380A2801D201209C
:1029B00070470020704700002DE9F04D0546DFF814
:1029C000388221F000408D4F82B00C46404520DB1C
:1029D000A0EB080129430BD08949884201DC10D1C2
:1029E0007DB102B028462146BDE8F04DFFF7C2BFD9
:1029F000002CC7BF002001468248394602B0BDE81E
:102A0000F08D0120FDF7BBFC02B0BDE8F04DFFF7F3
:102A1000B6BF7D49884244DA7C498142A1BF7948EA
:102A20007B4902B0BDE8F08D2A4623461046194680
:102A300001F0E4FC8346024676480E460B4606212A
:102A40007844FFF7FBFD5A46334601F0D7FC0746B2
:102A500071488A465A46334604217844FFF7EEFD12
:102A60005A46334601F0CAFC0022434601F0A2F95F
:102A700002460B463846514601F058FA2A4623468C
:102A800001F0BCFC654A664B01F094FE2A462346E1
:102A900001F090FE02B05B4ABDE8F04D5C4B01F0E6
:102AA00089BE002C4FF000024BDA464643462846CA
:102AB000214601F07FF94FF0FF3202F0B9F90446E8
:102AC000024658480D460B4606217844FFF7B6FDEE
:102AD00022462B4601F092FC804653488A46224605
:102AE0002B4604217844FFF7A9FD22462B4601F02E
:102AF00085FC0022334601F05DF906468B462046F0
:102B0000294601F08BF804460D4632465B464046A6
:102B1000514601F00BFA22462B4601F06FFC3F4A6A
:102B20003F4B01F039FF22462B4601F043F90122C9
:102B300002F07EF902B03B46BDE8F04D314A01F0AB
:102B400039BE2D4B2846214601F034FE4FF0FF32AE
:102B500002F06EF905460E4601F060F800270C46BB
:102B600080463A460B4601F025F982468B463A46A6
:102B700023461046194601F041FC2A46334601F02F
:102B800019FE52465B4601F0D1F9824627488B4632
:102B90002A46334606217844FFF750FD2A4633463D
:102BA00001F02CFCCDE9000121482A4633460421DE
:102BB0007844FFF743FD2A46334601F01FFC00220C
:102BC0000D4B01F0F7F802460B46DDE9000101F07C
:102BD000ADF94246234601F011FC52465B4601F036
:102BE000E9F83A46234601F0E5F802B00122BDE8D3
:102BF000F04D02F01DB900000000F03FFB2109403C
:102C00000000F07F182D44540000E03F0000603CBD
:102C1000FB21F93F7C24000092240000075C143360
:102C200026A6913CF2230000082400002623000081
:102C30003C2300002DE9F04D8D4F21F0004A86B075
:102C400005460C46BA452ADBAAEB070028430AD002
:102C50008848824501DC1AD1CDB106B02846BDE8CE
:102C6000F04DFFF787BE844A844B284601F0C6FB2F
:102C700007460E46824A834B2846214601F0BEFB9A
:102C800006B03A463346BDE8F04D01F093B8012056
:102C9000FDF775FB06B0BDE8F04DFFF770BE7A4852
:102CA000824542DABAF1795F0BDA2846FFF7EEFA8D
:102CB000042808BFFFF770FE284606B02146BDE88D
:102CC000F08D2A460B46104601F098FB83460246DB
:102CD0006E480E460B4606217844FFF7AFFC5A4675
:102CE000334601F08BFB804669488A465A46334694
:102CF00004217844FFF7A2FC5A46334601F07EFBDC
:102D000000223B4601F056F802460B46404651462B
:102D100001F00CF92A46234601F070FB06B02A4662
:102D20002346BDE8F04D01F045B8284624F00041A7
:102D300000223D463B4601F03DFD4FF0FF3202F0E0
:102D400077F80646024653480F460B46062178445C
:102D5000FFF774FC32463B4601F050FBCDE9000121
:102D60004D4832463B4604217844FFF767FC324623
:102D70003B4601F043FB00222B4601F01BF8834643
:102D800002913046394600F049FF804643480D46DF
:102D9000504517DCDDE900015A46029B01F0C6F8F8
:102DA00042462B4601F02AFB42462B4601F002F830
:102DB000012202F03DF8304A304B01F0EDFD304A7F
:102DC000304B4CE04FF0000A52460B46404600F0B4
:102DD000F1FFCDE9031052462B461046194601F08B
:102DE0000DFB32463B4601F0E5FCDDE9033201F024
:102DF0009DF806460F46DDE900015A46029B01F0A8
:102E000095F88346009101223046394602F010F8C9
:102E1000194A1A4B01F0CEFC06460F4601224046E5
:102E2000294602F005F85A46009B01F0E7FA3246BF
:102E30003B4601F0B1FD06460F46012250462946A9
:102E400001F0F6FF0E4DDFF858802A46434601F0A8
:102E5000B1FC32463B4601F0ADFC2A46434601F048
:102E6000A9FC002CD8BF81F0004106B0BDE8F08D70
:102E70000000F03F0000F07F075C143326A6913C71
:102E8000182D4454FB21F93F0000E03F342200009C
:102E90004A220000BE210000D42100003333EF3F5E
:102EA000FB21E93F2DE9F04D894BCE0F21F0004782
:102EB00084B005460C469F4230D38648874211D3E2
:102EC000C7F31300284305D004B02846BDE8F04DF1
:102ED000FFF750BD002E1ABF00200146284604B05F
:102EE000BDE8F08D7C4A284601F02EFC07D2022076
:102EF000FDF745FA04B0BDE8F04DFFF746BD774A4F
:102F0000774B2846214601F03DFA07D20220FDF713
:102F100036FA04B0BDE8F04DFFF73EBD7148B84247
:102F200048D27148874215D27048784400EBC600F9
:102F30002146D0E90023284601F02EFDCDE900010D
:102F40006B48784400EBC600D0E900ABC6F1010045
:102F5000861B26E0674A684B2846214601F04EFA58
:102F6000664A7A4402EBC603D3E9002300F022FF4D
:102F700001F072F9064601F09EF907468846604A5C
:102F8000604B01F03BFA2A46234601F013FCCDE9E1
:102F900000015D4A5D4B3846414601F02FFA8246FA
:102FA0008B46DDE9000152465B4601F0F5FC054623
:102FB0000C4618E05648874214D2564A564B2846CB
:102FC000214600F0F7FE554E0022334601F0BCFBCF
:102FD00008D204B0334628462146BDE8F04D002211
:102FE00000F0E8BE00262A4623461046194601F0A6
:102FF00005FA804602464A480F460B4605217844AA
:10300000FFF71CFB42463B4601F0F8F92A462346EF
:1030100001F0D0FB07468846E6B302460B46002087
:103020004FF0804101F0B8FCCDE902013A46434639
:103030002846214601F0E2F9DDE9022300F076FF9F
:1030400052465B4601F0B6FBDDE9002301F0A4FC2B
:103050000022324B01F0AEFB6FF47F729642A2BFAA
:1030600001EB065104B0BDE8F08D4FF07A5202EB4F
:10307000065211442B4A01F0DBFE04460D46FFF7D1
:1030800005F9042808BFFFF787FC204604B029464D
:10309000BDE8F08DFFE700224FF0804301F07CFC9B
:1030A00082460E463A4643462846214601F0A6F996
:1030B0005246334600F03AFF2A46234601F06CFCA4
:1030C00004B00022BDE8F04D144B01F073BB0000CA
:1030D000422E86400000F07FEF39FAFE51302DD5A8
:1030E000104987C0422ED63FB2A2F03F42200000D6
:1030F0003A200000FE822B654715F73FFA1F0000BB
:103100000000E0FE422EE63F763C7935EF39EA3D9D
:103110000000303E9C7500883CE4377E0000F03FA4
:103120008E1F000018FCFFFF70B514461D460E46AA
:10313000002814BF01210021314321F00041C1F1D9
:103140007F6101F1E041C90F16D1002C14BF0121AC
:103150000021294321F00041C1F17F6101F1E041EB
:10316000C90F09D11449B1EB460F08BF00281CD084
:10317000690008BF002C18D0314601F037FA02462A
:1031800040F2FF7030EA11500DD0F017B0EBE17F44
:1031900009D0084665F31E0084460B46204661466A
:1031A00001F008FB0246104670BD0120FDF7E7F86C
:1031B000BDE87040FFF7E3BB0000E0FF2DE9F04100
:1031C00006460C4640F2FF75174635EA14502BD0E0
:1031D00000221346304601F003F825D03A46304627
:1031E000214601F025FE06460C4635EA145010D063
:1031F00000221346304600F0F3FF15D10220FDF700
:10320000BEF8FFF7C9FB0A46214662F31E01BDE87E
:10321000F0810220FDF7B3F8FFF7B7FB0A4621461D
:1032200062F31E01BDE8F08130462146BDE8F08121
:103230002DE9F04D1D460C4694B0174621F0004193
:1032400023F00043002814BF4FF0010C4FF0000C96
:103250000CEB440CFB4A0CEB02064FEA620C664591
:103260002BD33E0018BF012606EB45061644F64A4E
:10327000964222D3F54A53EA070C02D0944205D174
:1032800048B914B000201146BDE8F08D002808BFF1
:103290004FF0000C01D04FF0010C0CEB440212F582
:1032A000001F0AD8002F14BF4FF0010C4FF0000C84
:1032B0000CEB450212F5001F07D914B03A462B4615
:1032C0002146BDE8F04DFFF758BB0022DFF880A390
:1032D000002CB8BF534526DADFF878C36345A8BF92
:1032E000022220DADFF864C39C451CDCDFF868C3E7
:1032F0000CEB235CBCF1140F08DDCCF1340627FA8B
:1033000006FC0CFA06F6BE420DD108E05FB9CCF11E
:10331000140623FA06FC0CFA06F69E4203D10CF0C2
:103320000102C2F1020251EA000C19D1002D17DA94
:10333000002C18BF022A01D0012A07D00220FDF775
:103340001EF814B0BDE8F04DFFF70CBB0220FDF7EE
:1033500016F8FFF707FB14B081F00041BDE8F08DCF
:10336000B7F1000C6CD1534525D104F1804212F520
:10337000801201BF00280020B44914B008BFBDE886
:10338000F08DB248884207DC002DA1BF6046294677
:1033900014B0BDE8F08D07E0002DBFBF604685F09A
:1033A000004114B0BDE8F08DAC497944D1E9000189
:1033B00014B0BDE8F08DDFF894C2634525D1002D2F
:1033C0001FDA19B1514512D1D8B909E0002840F0EF
:1033D000F6829F4A214614B062F31E01BDE8F08DCB
:1033E0000020214614B060F31E01BDE8F08D08DA1C
:1033F00014B02346BDE8F04D02460020614600F0BF
:1034000095BD14B02146BDE8F08D514518DAB5F1EF
:10341000804F0DD0A5F1005CBCF1FF5C10D1B4F180
:10342000000C0DDB14B06146BDE8F04D00F0F6BBBA
:10343000234614B00246BDE8F04D194600F0DEBF49
:10344000060024F0004C3BD1D9B1514533D1002CBA
:1034500006DD002DA1BF0020514614B0BDE8F08D5F
:10346000002C01DD002D1BDB002C13DA002D11DBFD
:10347000012A4FF0000014BF7549794914B0BDE826
:10348000F08D022A18BF002C0AD0012A08D1002C86
:1034900006DA0AE0002CB8BF002D11DA012A04D0A8
:1034A000002014B00146BDE8F08D14B000204FF0AC
:1034B0000041BDE8F08DA1F14050B0F17F601AD01D
:1034C000012000EBE47050EA020421D05F4C521E50
:1034D0004FF0000B104304BF4FF0000B614C6248EB
:1034E00083427DDD614A6248934229DD884217DBD1
:1034F000002D2FDB41E0002C00DA4AB1022A0CBF7C
:1035000001204FF0FF3014B0BDE8F04D00F0D3BE05
:103510000120FCF734FF14B0BDE8F04DFFF72FBADF
:103520004A4A8A420CDC002D14DC0220FCF727FFFB
:10353000FFF732FA61F31E0414B02146BDE8F08DA6
:10354000814202DA002D18DA04E0404B994220DD76
:10355000002D12DD0220FCF712FFFFF716FA0546D8
:103560000E46002253465846214600F047FF14B04D
:1035700066F31E012846BDE8F08D0220FCF7FFFE31
:10358000FFF70AFA0A46214614B062F31E01BDE8AD
:10359000F08D00223046614601F0FEF9064688466D
:1035A0006FF0010201F044FC4FF05532314B01F055
:1035B00001F93246434600F021FF00222E4B01F074
:1035C000F9F88A463246434602901046194600F002
:1035D00015FF5346029A00F011FF8246324600E082
:1035E00054E0059143464FF0C040244900F006FFE7
:1035F000CDE90C01224A214B5046059900F0FEFE10
:10360000824601911F4A204B3046414600F0F6FEAB
:103610005246019B01F0C0F982460B4602460991D1
:10362000DDE90C0100F0C6FBDDE90C23002688462D
:10363000304601F0B1F95246099B01F0BBF8024651
:1036400000F07EB9FFFF1F00FFFF0F000000F03FFA
:103650000000F07F0000404301FCFFFFDA1C000087
:103660000000F0FF0000F0BF0000E0410000F04368
:10367000FFFFEF3F5555D53F0000E03F4715F73FAF
:10368000FE822B6544DF5DF80BAE543E0020B1F5A1
:10369000801F07DA35223046614601F0C9FB064635
:1036A0006FF0340000EB2150A0F2FF300190C1F325
:1036B000130040F07F6141F040510291FE49884281
:1036C000D8BF002004DDFD498142C8BF012001DDD3
:1036D0000F9008E000200F900198401C0190029884
:1036E000A0F5801002900299F548784405910F9951
:1036F00000EBC1001290D0E900233046059901F09B
:103700004BF9CDE90C011298D0E900233046059918
:1037100000F050FB02460B460020EA4900F006FC90
:103720000B46CDE908010246DDE90C0100F066FE1A
:103730000A90E5488A464FF00008784402990068EC
:1037400010904FF0005040EA61010F9801EB80406B
:1037500000F5002112981191D0E90023109801F092
:103760001BF93246059B01F025F84246534600F00E
:1037700045FEDDE91023064603914046514600F020
:103780003DFEDDE90C2301F015F83246039B01F004
:1037900003F9DDE9082300F031FE03910A9A129043
:1037A00053461046194600F029FE06460246C74811
:1037B0000B46029106217844FEF740FF029B3246F9
:1037C000059108901046194600F018FE059B089ACE
:1037D00000F014FE064609915346404619460A9ADF
:1037E00000F0E8FA039B129A00F008FE3246099BAB
:1037F00000F0E0FACDE9080142465346104619466A
:1038000000F0FCFD02460B46029104900020B049F6
:1038100000F0D0FADDE9082300F0CCFA0E4642466B
:10382000AB4B404601F0B8F8029B049A01F0B4F8A3
:10383000DDE9082300F0BEFF4246049102903346C2
:103840001046514600F0DAFDCDE90C0153460A9AC4
:103850000499029800F0D2FD824600913346424618
:103860000399129800F0CAFD5246009B00F0A2FA9C
:1038700082460B4602460991DDE90C0100F09AFAF6
:10388000DDE90C2300268846304601F085F85246D3
:10389000099B00F08FFFCDE90801434632464FF007
:1038A00060408C4900F0AAFD82460491DDE90801E0
:1038B000894A884B00F0A2FD0291009043463246AF
:1038C0008648874900F09AFD029B009A00F072FA40
:1038D000844B7B440F9A03EBC203D3E9002300F02F
:1038E00069FA00900291019800F0E5FC0E900391B6
:1038F0005046029B009A049900F05CFA7A4A7A4496
:103900000F9B02EBC3030993D3E9002300F052FAA3
:10391000039B0E9A00F04EFA88463046039B0E9A9F
:1039200001F03AF8099BD3E9002301F035F852463B
:10393000049B01F031F8029B009A00F03BFF024625
:1039400000200B4602903846294600F057FD82467B
:1039500003912B4638461946029A01F01DF832466B
:10396000434600F04BFD5246039B00F023FA074606
:103970008A46324643462946029800F03FFD0546F6
:103980000E463A46534600F015FA584A8846914288
:1039900021DBA8EB020353EA000210D12A4633468A
:1039A00000F0FAFFCDE90310514A524B3846514618
:1039B00000F000FADDE9033200F0C6FE21D2022059
:1039C000FCF7DDFCFEF7E1FF0A46214614B062F386
:1039D0001E01BDE8F08D484B28F000429A4210D3FA
:1039E000464A08EB020353EA00027FF4C6AD2A46BA
:1039F000334600F0D1FF3A46534600F0A5FE7FF66D
:103A0000BCAD0022019228F000403D493D4A01EB47
:103A10002051824223DA481C4FF4801121FA00F031
:103A20004044394AC0F30A517A44384BA1F2FF317D
:103A3000CB4020EA0303C0F3130040F48010C1F12F
:103A40001401C84012680190B8F1000FBCBF404299
:103A500001902846314600F09FFF05460E462A4653
:103A600033463846514600F0A5F94FF0000842466B
:103A7000274B4046039100F0C1FCCDE90C01254ADB
:103A8000254B4046039900F0B9FC029100902A466C
:103A900033464046039900F07FFF3A46534600F014
:103AA00089FE1E4A1E4B00F0A9FC029B009A00F002
:103AB00081F90746884635E08E9803007AB60B00F8
:103AC000CA1800000000F03F4A1900002E1800003C
:103AD0000000084009C7EE3FFD033ADCF5015B1426
:103AE000E02F3EBE02170000C61600000000904006
:103AF000FE822B654715973C00CC904000346F3F09
:103B000001FCFFFF0000E03F5C160000FFFF0F001C
:103B1000432EE63F396CA80C615C20BEEF39FAFEFB
:103B2000422EE63F02460B46DDE90C0100F042F969
:103B3000DDE90C2305460E4600F02EFF3A464346CB
:103B400000F038FE07462A463346059110461946CE
:103B500000F054FC824602462E4888460B4605215A
:103B60007844FEF76BFD5246434600F047FC2A4678
:103B7000334600F01FFE80468A463A4628463146C4
:103B8000059B00F03BFC3A46059B00F013F90591BC
:103B9000009000224FF080434046514600F0FCFE6A
:103BA00007460391424653462846314600F026FC1C
:103BB0003A46039B00F0BAF9059B009A00F0ECFE30
:103BC0002A46334600F0E8FE0022134B00F0F2FDD7
:103BD000054601980E4601EB00510815002810DC3F
:103BE00028463146019A01F023F9FEF74FFB0428DD
:103BF00008BFFEF7D1FE28463146019A01F018F9B8
:103C000005460B4614B02A4658462146BDE8F04DFD
:103C100000F0F4BBB41400000000F03F2DE9F041C7
:103C200006460F4600F0D2FD041E0D4618BF0120C7
:103C3000284320F00040C0F17F6000F1E040C00F59
:103C40000ED0301C18BF0120384320F00040C0F1D6
:103C50007F6000F1E040C00F04BF0120FCF78FFB44
:103C600020462946BDE8F08170B5054601F022F8EE
:103C7000044620F00040C0F1FF40C00F08D025F0FE
:103C80000040C0F1FF40C00F04BF0120FCF777FBEC
:103C9000204670BD10B5164B21F00042012486B0BD
:103CA0009A4203DC0022134600941CE0114B9A4216
:103CB00008D140B94FF00100FCF761FBFEF75FFE51
:103CC00006B010BD03DBFEF755FE06B010BD02AA1C
:103CD000FEF7F0FA00F00100A4EB40000DF1080C33
:103CE00000909CE80F00FEF7FFFC06B010BD00003E
:103CF000FB21E93F0000F07F10B500290AD00878C9
:103D0000002807D005487844FDF7C6FB002801D0FD
:103D1000002010BD0248784410BD00001E1A0000AB
:103D2000161A000010B500290AD00878002807D01C
:103D300005487844FDF7B0FB002801D0002010BDF5
:103D40000248784410BD00000E1A0000061A000058
:103D500021F0004201F00043A2F16052B2F5801F51
:103D600028BFD2F17F6C0BD95FEA001C43EAC20284
:103D700042EB507018BF704728BF20F00100704719
:103D8000B2F5801FBCBF184670474FEA410C1CF5C6
:103D9000001F02D2084600F088BF70B500F0D8FBC3
:103DA00000000089FFF7F6BF4FF00040A0F580004B
:103DB0007047000010B591EA030F48BF83F000433D
:103DC00000F1F285841A71EB030C05D2121943EB52
:103DD0000C03001B61EB0C014FEA1154A4EB135CC4
:103DE000DFF81CE11EEA430F18BF9EEA445F00F0B3
:103DF000748021EA045123EA0E0343F48013DCF1BA
:103E0000200E32D322FA0CFE10EB0E0023FA0CFE29
:103E100041EB0E01CCF1200E03FA0EFE10EB0E006A
:103E2000CCF1200E51F10001B1F5801F32D201EB2F
:103E3000045112FA0EF2BDE8104058BF7047401C02
:103E400038BF5FEA420218BF7047002814BF20F055
:103E5000010041F100014FEA410313F5001F38BF93
:103E60007047A1F1C04100F069BC012A43EB030295
:103E7000ACF1200CDCF11F0E32BF4FF0000E23FA24
:103E80000CF310EB030041EB0451B4EB115FD0D005
:103E9000A1EB045101F58011490801EB04515FEADF
:103EA00030000ED350F1000038BF12FA0EFE08D1D8
:103EB000BDE81040C9E7401C38BF5FEA4202CAD1E2
:103EC000C3E7BDE810404FEA410313F5001F38BFB8
:103ED0007047A1F1C04100F031BC9EEA445F08D0B8
:103EE00011EA5E0FBDE8104004BF01F00041002060
:103EF0007047BDE8104070B500F02AFB64FBBE3E81
:103F00000000E0FF02494FF0000000F05FBF00BF7B
:103F10000000F87F491058BFC1F140415B1058BF05
:103F2000C3F140438B42EFF3008070472DE9C0415D
:103F300030B4DFF8A4C23CEA111418BF3CEA1314F1
:103F400000F0ED801CEA111481EA030544EAD574FF
:103F500018BF1CEA131500F0C880A4EB050404F197
:103F60007F7404F500344FF0004545EAC12145EA6D
:103F7000C32341EA505143EA52534FEAC0204FEA6B
:103F8000C222994208BF904200F09D804FEA13651B
:103F90000FF24416765D4FEA134506FB05F7C7F1AD
:103FA000807706FB07F74FEAD737A7FB036876420F
:103FB000A7FB06CEC8F5803838BFA8F1010807FB7B
:103FC00008E6A6FB028C4FF0000EE6FB03CEDCF108
:103FD000000CCEF1004E38BFAEF1010EA6FB0C581E
:103FE0004FF00007E6FB0E87A1FB08C6A0FB07CE3B
:103FF00016EB0E064FF0000545F10005E1FB0765E5
:1040000015F1E04E7EBFA4F580345FEA46066D41AF
:1040100016F1800745F100054FEA172747EA0567C3
:104020004FEA15254FEA0666A6F1DE46B6F1805F37
:1040300020D9384605EBC47124F0010C01EB0C11BA
:10404000BCF1FE6F02D8F0BCBDE8008124425CBF29
:1040500001F5801E9EEAC47F02D4F0BCBDE8008159
:10406000244200F13980A1F1C041F0BCBDE800411B
:1040700000F064BB4FEAD02040EA41504FEAD12122
:104080004FEAD22242EA43524FEAD323A7FB0286E9
:1040900007FB036605FB02661EEA0E0F58BFA6EB80
:1040A0000056B6EB00564FEA520E4EEAC37E18EBAE
:1040B0000E0E56EB530EBCD518EB02085E417F1C6A
:1040C00055F10005B5E74FF480154FF000074FF0AC
:1040D00000064FF00008ACE701F1C04101F00041DB
:1040E0004FF00000F0BCBDE800810CEA131511EAA6
:1040F0000C1F00D00CE013EA0C1F00F026804FF0DC
:10410000000081EA030101F00041F0BCBDE800813C
:10411000F0BCBDE8004181EA030100F00FBBF0BC38
:10412000BDE8004170B500F013FA00BF097EFC3E07
:1041300000F007B84FF0000081EA030101F00041F0
:10414000704781EA030100F0F9BAF0BCBDE8004114
:1041500022494FF000007047FFFDFBF9F7F5F4F23C
:10416000F0EEEDEBE9E8E6E4E3E1E0DEDDDBDAD812
:10417000D7D5D4D3D1D0CFCDCCCBCAC8C7C6C5C470
:10418000C2C1C0BFBEBDBCBBBAB9B8B7B6B5B4B387
:10419000B2B1B0AFAEADACABAAA9A8A8A7A6A5A472
:1041A000A3A3A2A1A09F9F9E9D9C9C9B9A99999836
:1041B0009797969595949393929191908F8F8E8ED9
:1041C0008D8C8C8B8B8A8989888887878685858466
:1041D00084838382828181800000FF070000F87F52
:1041E00051EA030C17D41CF5801F58BFBCF5801F83
:1041F00000F10680994218BF704708BF904270478F
:1042000007D711F5801F58BF13F5801F19D49942A5
:104210007047894270471CF5801F08D5BCF5801F88
:10422000F7D58B4218BF704708BF824270474FF4E2
:10423000001C1CEB410F38BF1CEB430F01D28B421B
:10424000704770B500F084F9922449004FF0005196
:104250004FF08053FFF75EBE4FEA41034FEA5353DE
:10426000A3F58063D3F11E03C8BFD3F1210C0CDD8D
:104270004FF0004242EAC12242EA505232FA03FCB5
:104280008CEAE17CACEBE1707047102BC4BF0020DE
:10429000704703F5787CBCF1FF3F04D06FF000421B
:1042A00082EA2100704770B500F052F949922480EB
:1042B00000207047F2E710F0004248BF4042B0FAD9
:1042C00080F310FA03F10AD0C3F11D0303F58063F4
:1042D00002EB03524FEA415002EBD12170474FF0FD
:1042E00000007047B0FA80F310FA03F10AD0C3F16E
:1042F0001D0303F580634FEA03524FEA415002EB7E
:10430000D12170474FF000007047000051EA030CC4
:1043100017D41CF5801F58BFBCF5801F00F1068024
:10432000994218BF704708BF9042704707D711F5F0
:10433000801F58BF13F5801F19D4994270478942D6
:1043400070471CF5801F08D5BCF5801FF7D58B4240
:1043500018BF704708BF824270474FF4001C1CEB27
:10436000410F38BF1CEB430F01D28B42704770B531
:1043700000F0EEF8922449004FF080514FF00053C6
:10438000FFF7C8BD51EA030C17D41CF5801F58BFB6
:10439000BCF5801F00F10680994218BF704708BF26
:1043A0009042704707D711F5801F58BF13F5801F43
:1043B00019D499427047894270471CF5801F08D56F
:1043C000BCF5801FF7D58B4218BF704708BF8242EB
:1043D00070474FF4001C1CEB410F38BF1CEB430F20
:1043E00001D28B42704770B500F0B2F892244900B8
:1043F0004FF000514FF08053FFF78CBD70B5DFF8E0
:1044000048C11CEA111E1EBF1CEA13159EEA0C0FC0
:1044100095EA0C0F00F06F8081EA03044EEAD47E27
:10442000AE4421EA4C1123EA4C1341F4801143F4C9
:104430008013AEF17F7EA1FB024CA0FB0365361911
:1044400055EB0C05A1FB034C4CF10003A0FB021C37
:1044500016EB0C06654153F10003094218BF46F004
:10446000010613F4007F0BD14FEA03314FEA053008
:1044700041EA155140EA165034036FF003020AE096
:104480004FEAC3214FEAC52041EA555140EA565050
:10449000F4026FF0020202EB2E4201EB025585EAB4
:1044A000CE710AD05FEA440C18BF24F0004450F1EA
:1044B000000041F1000120EAD47040F2FE7C624528
:1044C00000D270BDA84214BF4FF080444FF040446A
:1044D000002E08BF0024BEF1806FA8BFA1F1C0412B
:1044E000BDE8704080F22A8101F1C04101F0004135
:1044F0004FF0000070470CEA13159EEA0C0F18BF2E
:1045000095EA0C0F06D081EA030E4FF000000EF082
:10451000004170BD00F01CF88900013E00F007B8B2
:1045200000F009B84FEA430C5FEA5C5C08D081EA0E
:10453000030100F003B94FEA410C5FEA5C5CF6D17D
:1045400002494FF0000070470000FF070000F87FAD
:104550000EF1020E2EF0030E5EF8046B364205D407
:10456000012A43EB030515F5001F12D8012841EB82
:10457000010C1CF5001F0CD80ED14FEAD17C0CEBBE
:104580004C0C0CF1020C15F5001F08BF4CEBD37C52
:1045900004E04FF0080C01E04FEAD37C0CEB4C0533
:1045A00026FA05F606F00706B6F1040C06D20EEB65
:1045B000860CBDE870404CF0010C6047DFE80CF061
:1045C000090B02024FF00041A1F500214FF000005D
:1045D00070BD19461046012851EB010418BFD4F5EF
:1045E000001484BF002001F0004170BD70B5DFF8F9
:1045F00044C13CEA111418BF3CEA131500F08F8047
:1046000011F1004F0CEA11141CEA131568BF45F0B4
:10461000050518BF11EA0C1F00F0798021EA4C1142
:1046200023EA4C1341F4801143F480132E46A5F580
:104630008035AC423DDDA4F58036801A994109D51C
:104640004042C1F1000134BFB1F10101B1F10001FB
:1046500085F0010511F4F01F08D011F4801FE8D196
:10466000400041EB0101A4F58034F6E721F0004160
:10467000B1FA81F6202E04BFB0FA80FE0EF12006BA
:10468000A6F10B06A4EB0644B6F1200E0CD2C6F13F
:10469000200E01FA06F120FA0EF641EA0601CEF1EB
:1046A000200600FA06F003E000FA0EF14FF00000D9
:1046B000BFE750EA410E23D04FEA244EBEEB254F10
:1046C0000FDB994208BF904204D00AD3520043EB5B
:1046D0000303B0E74FEA1646B6EB144F08BF85F068
:1046E0000105B4F5803401EB041181EAC57100DBEA
:1046F00070BD01F1C04101F000414FF0000070BDFC
:104700004FEA45714FF0000001F0004170BD1CEA16
:10471000131F09D04FF0000001F0004170BDFFF7FA
:1047200017FF00BFEDFFFF3EBDE8704002494FF0AC
:10473000000070470000FF070000F87F0808A0F5A0
:1047400000114FEA3101704753EA010C17D41CF5F0
:10475000801F58BFBCF5801F00F106808B4218BF38
:10476000704708BF8242704707D713F5801F58BFB4
:1047700011F5801F19D48B4270479B4270471CF57E
:10478000801F08D5BCF5801FF7D5994218BF704728
:1047900008BF904270474FF4001C1CEB430F38BF1A
:1047A0001CEB410F01D2994270470FB40CBC03BC03
:1047B000FFF719BE10B591EA030F81F000413FF5F4
:1047C00001AB83F0004300F0EFB800002DE9F041A9
:1047D00001F5801CBCF5001FC0F2C3804FEA115CDC
:1047E00021EA0C5141F480110CF1FD0C5FEA5C0CE4
:1047F0000CF5C07C01D340004941890241EA905147
:1048000087023BA48E0EA45D0A0C04FB04F602FB97
:1048100006F6C6F14046A4FB0662F60D46EA4226BD
:1048200006FB06F4A4FB01235242C3F1404338BF08
:104830005B1EA6FB02420024E6FB0324D20B42EAE5
:104840004446A6FB0623A1FB02E2A3FB07E4A4184F
:104850004FF0000252F10002E3FB01426442C2F158
:10486000404E38BFAEF1010EA6FB04234FF000020C
:10487000E6FB0E32A2FB0346B6194FF0000454F1DA
:104880000004E2FB0264A1FB06E6A4FB07E816EBCA
:1048900008064FF0000858F10008E4FB0168764272
:1048A000C8F1405838BFA8F10108A2FB06E4A3FBF9
:1048B00008E52D194FF0000454F10004E2FB085400
:1048C000A1FB05E6A7FB04E818EB06084FF000067D
:1048D00056F10006E1FB048618F1200556F10006AA
:1048E000A80940EA8660B109A8F11B0808F03F0852
:1048F000B8F10A0F1CD901EB0C51BDE8F08100BFE3
:10490000FCF5EEE8E2DDD8D3CFCBC7C3C0BDB9B666
:10491000B4B1AEACA9A7A5A3A19F9D9B9A9896956B
:104920009392908F8D8C8B898887868584838281F2
:10493000A0FB006800FB01F208EB4208B8EB8728F7
:1049400007D5341858EB0104D5D5401C51F10001AE
:10495000D1E7341A78EB0104CDD4401E71F1000187
:10496000C9E75FEA4C0C5FEA9C5C0DD105D301F00E
:1049700000414FF00000BDE8F081BDE8F04170B5A6
:10498000FFF7E6FD6DDBFFBEBDE8F04101494FF0EA
:10499000000070470000F87F10B591EA030F48BF90
:1049A00083F000433FF50EAA841A71EB030C07D283
:1049B0008CF0004C121943EB0C03001B61EB0C0153
:1049C0004FEA1154A4EB135CDFF8A4E11EEA430F95
:1049D00018BF9EEA445F00F0B48021EA045123EA44
:1049E0006E035242C3EB6E0338BF5B1EDCF1200E38
:1049F00025D322FA0CFE10EB0E0043FA0CFE41EB1D
:104A00000E01CCF1200E03FA0EFE10EB0E00CCF1DD
:104A1000200E51F1000129D401EB045112FA0EF2DB
:104A2000BDE8104058BF7047401C1CBFB2F1004F9A
:104A3000704700280CBF491C20F00100704712EBA2
:104A4000020E43EB030218BF4FF0010E4EEA420282
:104A5000ACF1200CDCF11E0E56D943FA0CFE10EB23
:104A60000E00CCF11E0E51F1FF31D5D50EF1010E25
:104A700012FA0EFE404141EB010101EB445C5FEA9A
:104A80005C5C10D901EB045110EBDE7038BFBEF155
:104A9000004FBDE8104018BF704700280CBF491CEC
:104AA00020F00100704734D24FEAD42C24F4006483
:104AB00011F500111BD0B1FA81F20B3AA41AA41E11
:104AC000D2F12003914030FA03F31943904001EBF7
:104AD000CC7101EB0451002CBDE81040A8BF704719
:104AE00001F1C04101F000414FF000007047B0FA01
:104AF00080F310FA03F102D1BDE810407047E41AC8
:104B0000173C4805C90AE2E701EB0451BDE8104033
:104B1000704749104FEA300001EB0451BDE81040E6
:104B200002E04FF0000170474A0008BF0042F8D091
:104B3000B2F5001F28BF704701F000414FF00000A0
:104B400070479EEA445F07D011EA5E0FBDE810404F
:104B500004BF002100207047BDE8104070B5FFF78A
:104B6000F7FC00BF40DFF63E104683F0004170477F
:104B70000000E0FF43004FEAD30C4FEA3C0C4340F7
:104B80001FBF40070CF1605113F0FE4F70471CF03F
:104B9000006F03D10CF00041002070470CF000437F
:104BA00043EA507040EACC0010B500F038F800BF7E
:104BB000000000924FEA0001FFF7C0BD4FF0004136
:104BC000A1F500214FF00000704710B5FFF708FB7A
:104BD0000CBF0120002010BD10B5FFF701FB14BF72
:104BE0000120002010BD10B5FFF790FB8CBF012005
:104BF000002010BD10B5FFF789FB2CBF012000205D
:104C000010BD10B5FFF7BEFB94BF0120002010BD02
:104C100010B5FFF7B7FB34BF0120002010BD0EF127
:104C2000020E2EF0030E5EF8044B244204D44FEA29
:104C30004102B2F17F4F11D84FEA4003B3F17F4FE9
:104C40000CD80ED14FEAD07C0CEB4C0C0CF1020CC2
:104C5000B2F17F4F08BF4CEBD17C04E04FF0080C61
:104C600001E04FEAD17C0CEB4C0324FA03F404F08E
:104C70000704B4F1040C06D20EEB840CBDE810401E
:104C80004CF0010C6047DFE80CF0070802024FF01F
:104C90000040A0F5800010BD0846420018BFD2F1C8
:104CA000807288BF00F0004010BDFF2141EAD05063
:104CB000C00570474FEAD051002988BFD1F1FF02EB
:104CC00040F275804FEA002040F0004070B501F1DD
:104CD0007D01490838BF40080EA2430ED25C040C87
:104CE00002FB02F304FB03F3C3F14043A3FB0254B2
:104CF000ED0D45EA442202FB02F3A0FB03546D4292
:104D0000C4F1404438BF641EA2FB05350023E2FB1A
:104D10000453EA0B42EA4342A0FB023212F1400480
:104D2000E409A2F1210303F07F031F2B32D904EB26
:104D3000C15070BDFEFAF7F3F0ECE9E6E4E1DEDC29
:104D4000D9D7D4D2D0CECCCAC8C6C4C2C1BFBDBCCC
:104D5000BAB9B7B6B4B3B2B0AFAEACABAAA9A8A754
:104D6000A6A4A3A2A1A09F9E9E9D9C9B9A99989762
:104D7000979695949393929190908F8E8E8D8C8C24
:104D80008B8A8A89898887878686858484838382BB
:104D90008281818004FB04F6B6EB004603D5E6422F
:104DA00048BF641CC3E7A64258BF641CBFE711F0AC
:104DB000FF0F02D100F00040704710B5FFF72FFF42
:104DC0007FDBFFBEFBF718BFFCF74CB80CF00F03FE
:104DD000092B08BF082000F059800A2B0BD0082BA4
:104DE00018BF704708BF1CF0400F0AD04FF00000FA
:104DF0004FF0000170471CF0400F18BF4FF000400B
:104E000070471CF0100F08D000F07F4220F0704374
:104E100042EAD3014FEA4370704700F0604021F04E
:104E20007F4242EA000201F07F4040EA7270704720
:104E30004FF0FF0C4CF4E06C1CEA11531CBF9CEAD1
:104E4000030C9445C2BFDA4201EB02517047002BBC
:104E50000DD0BCF1000F0FD001F00041002AA4BF1B
:104E600041F0E04141F07F614FF00000704701F0F8
:104E700000414FF00000704750EA01334FF09B0CA7
:104E800018BF4CF0806C7FF43DA870471CF4801F65
:104E900011D01CF4E02F03D06FEACC3149007047E9
:104EA0004FF04050EFF3008222F0704242EA0002DD
:104EB00082F3008870474FF0000070470000000048
:104EC000555555555555C53F7D6FEB0312D6D4BF8B
:104ED0005544880E55C1C93F3B8F68B52882A4BF91
:104EE00088B20175E0EF493F09F7FD0DE13D023F52
:104EF0004B2D8A1C273A03C0C88A599CE52A0040DA
:104F000059018D1B6C06E6BF82922EB1C5B8B33F26
:104F1000555555555555C53F7D6FEB0312D6D4BF3A
:104F20005544880E55C1C93F3B8F68B52882A4BF40
:104F300088B20175E0EF493F09F7FD0DE13D023F01
:104F40004B2D8A1C273A03C0C88A599CE52A004089
:104F500059018D1B6C06E6BF82922EB1C5B8B33FD6
:104F6000000000000000E03F000000000000E0BF83
:104F70000000E0FE422EE63F0000E0FE422EE6BFCB
:104F8000763C7935EF39EA3D763C7935EF39EABD43
:104F90003E5555555555C53F93BDBE166CC166BFB0
:104FA0002CDE25AF6A56113FF16BD2C541BDBBBEA9
:104FB000D0A4BE726937663E000000000000F03FDA
:104FC000000000000000F83F0000000000000000AA
:104FD0000000004003B8E23F0000000000000000B5
:104FE00006D0CF43EBFD4C3E033333333333E33F43
:104FF000FFAB6FDBB66DDB3F4D268F515555D53F6F
:1050000001411DA96074D13F65DBC9934A86CD3F3C
:10501000EF4E454A287ECA3F3E5555555555C53F2A
:1050200093BDBE166CC166BF2CDE25AF6A56113F1C
:10503000F16BD2C541BDBBBED0A4BE726937663E1E
:1050400000000000000000003031323334353637C4
:1050500038394142434445464030580030313233BC
:1050600034353637383961626364656640307800BC
:105070000400000800000000000000020001000021
:105080001000000000000000000000000000000010
:1050900000004054FB21F93F3163621A61B4D03DF6
:1050A0000000601A61B4D03D7370032E8A19A33BCF
:1050B0000000002E8A19A33BC14920259A837B3921
:1050C00000000000000000006E83F9A22915444E84
:1050D000D15727FCC0DD34F5999562DB4190433C04
:1050E000AB6351FE61C5BBDE3A6E24B7E0D24D42E0
:1050F000EA2E49061C92D1091CEB1DFE3EA729B1E0
:10510000F53582E88444BB2E26709CE9417E5FB46D
:1051100039D69139F43953838B5F849C3B28F9BD90
:10512000FF97F81F0F9805DE8B112FEF1F6D0A5A9E
:10513000CF7E366DB709CB27663F464F2DEA5F9E7F
:10514000C7BA27757BF1E5EBF739073DEA92528A3A
:10515000B15FFB6B085D8D1F4630035600000000F9
:105160007AFE10111111C13F37D60684F464963FC0
:10517000280356C9226D6D3F0165F2F2D844433FC2
:10518000A69237A0887E143F735360DBCB75F3BEC5
:10519000FE41B31BBAA1AB3F93846EE9E326823F85
:1051A0001583E0FEC8DB573F68108D1AF726303FA5
:1051B000E9A7F0320FB8123FD47ABF74702AFB3ED1
:1051C000303132333435363738396162636465667D
:1051D0007870003031323334353637383941424314
:1051E000444546585000000002400000000000A066
:1051F0000000000005400000000000C800000000A2
:105200000C4000000000409C00000000194000001D
:105210000020BCBE0000000034400000BFC91B8E4F
:1052200000000004B5400000504BCFD06607E2CF2D
:10523000010000006C4100003E8251AADFEEA7345D
:1052400001000000D9420000DCB5A0E23A301F970F
:10525000FFFFFFFFB4450000FD25A0C8E9A3C14F33
:10526000FFFFFFFFFF3F0000000000800000000084
:10527000FF3F0000000000800000000053797374BD
:10528000656D496E697420656E64210A00706C65F5
:1052900061736520696E70757420666C6F6174202F
:1052A0002B2D2A2F3D0A00706C6561736520696E95
:1052B00070757420696E74202B2D2A2F3D0A00749E
:1052C00065737420646F75626C65202A204F4B0AE9
:1052D000007465737420666C6F6174202A204F4BD4
:1052E0000A007465737420646F75626C65202F20EA
:1052F0004F4B0A007465737420666C6F6174202FC5
:10530000204F4B0A007465737420666C6F617420C3
:10531000666D6F64204F4B0A007465737420666C71
:105320006F617420666D6F6466204F4B0A00746570
:10533000737420666C6F61742074616E66204F4BCD
:105340000A007465737420666C6F61742061736900
:105350006E66204F4B0A007465737420666C6F6133
:10536000742065787066204F4B0A00746573742052
:10537000666C6F6174206C6465787066204F4B0AB0
:10538000007465737420666C6F61742061636F7361
:1053900066204F4B0A007465737420646F75626CED
:1053A00065207371727466204F4B0A0074657374C4
:1053B00020666C6F6174207371727466204F4B0AA3
:1053C000007465737420646F75626C6520706F770C
:1053D00066204F4B0A007465737420666C6F6174AD
:1053E00020706F7766204F4B0A00746573742064D9
:1053F0006F75626C652074616E204F4B0A00746596
:10540000737420646F75626C65206173696E204FE0
:105410004B0A007465737420646F75626C65206557
:105420007870204F4B0A007465737420666C6F614E
:1054300074206C64657870204F4B0A007465737437
:1054400020646F75626C652061636F73204F4B0A37
:105450000025642F25643D25642025252025640A28
:105460000025642A25643D25640A0025642B2564F3
:105470003D25640A0025642D25643D25640A0073DA
:105480006C65657020656E640A0025662A25663D98
:1054900025660A0025662B25663D25660A002566D9
:1054A0002D25663D25660A0025662F25663D256665
:1054B0000A00736F66745F7665723A2575206370B3
:1054C000755F7665723A257520666C6173685F76E4
:1054D00065723A25780A0025782625783D25780AD0
:1054E0000025785E25783D25780A0025787C25788A
:1054F0003D25780A00736C656570202575206D73F5
:10550000207374617274203E3E2000313D3D3000B6
:10551000645F763D3D302E363631343732313832A5
:105520003237363830373300645F633D3D302E30DC
:10553000313734373138393635313732333931381C
:105540003300645F763D3D302E34333339393138A2
:105550003939373436363138383400645F633D3D8D
:10556000302E3436333436313433393834383431FC
:1055700030323600645F633D3D302E34343839318B
:1055800039303033323234383337393600645F6380
:105590003D3D312E353433343036333636303833C2
:1055A00032313700645F633D3D302E363936303955
:1055B000373331393132383836383700645F633D3C
:1055C0003D302E3635383738303633343430333298
:1055D00032383800645F633D3D312E313231383727
:1055E000373332333537303035383800645F633D18
:1055F0003D31343536323335312E36383835393859
:10560000373339006E6F745F737570706F72743AF0
:105610003C25753E203C25643E3C25633E3C25648C
:105620003E3D002564256325643D00723A256620D1
:105630006E6F7420737570706F72743A256625638F
:1056400025663D002E2E2F2E2E2F55736572732F3B
:105650006D61696E2E6300665F633D3D34313934A0
:105660003330342E306600665F633D3D302E30307F
:1056700039323939393939316600665F633D3D3039
:105680002E31323536353531336600665F763D3D35
:10569000302E3132313933323633336600665F6350
:1056A0003D3D312E31333331343834336600665F5B
:1056B000633D3D312E34343534363835346600663A
:1056C0005F763D3D302E3132356600665F633D3D8D
:1056D000302E3335333535333338356600665F6306
:1056E0003D3D302E31323533323738323666006642
:1056F0005F633D3D302E37373131303534303966D8
:105700000025730050580008000000201000000021
:10571000500100086058000810000020D808000060
:10572000700100081C00000043000000F8FFFFFFAC
:105730000C0000000E0000000F0000002E00000012
:105740001001000043000000F8FFFFFF0040404050
:105750004040404040404141414141404040404044
:1057600040404040404040404040404040050202F0
:1057700002020202020202020202020202202020AF
:10578000202020202020200202020202020290900B
:105790009090909010101010101010101010101009
:1057A000101010101010101002020202020288885D
:1057B0008888888808080808080808080808080869
:1057C0000808080808080808020202024000000051
:1057D00000000000000000000000000000000000C9
:1057E00000000000000000000000000000000000B9
:1057F00000000000000000000000000000000000A9
:105800000000000000000000000000000000000098
:105810000000000000000000000000000000000088
:105820000000000000000000000000000000000078
:105830000000000000000000000000000000000068
:105840000000000000000000000000000000000058
:10585000AF34103F3625E13F82932A45CAC0F33F5B
:04000005080000ED02
:00000001FF
