:020000040800F2
:10000000F8080020610200089D0200089F02000815
:10001000A1020008A3020008A502000800000000D9
:10002000000000000000000000000000A70200081F
:10003000A902000800000000AB020008AD020008A1
:10004000AF020008AF020008AF020008AF020008CC
:10005000AF020008AF020008AF020008AF020008BC
:10006000AF020008AF020008AF020008AF020008AC
:10007000AF020008AF020008AF020008AF0200089C
:10008000AF020008AF020008AF020008AF0200088C
:10009000AF020008AF020008AF020008AF0200087C
:1000A000AF020008AF020008AF020008AF0200086C
:1000B000AF020008AF020008AF020008AF0200085C
:1000C000AF020008AF020008AF020008AF0200084C
:1000D000AF020008AF020008AF020008AF0200083C
:1000E000AF020008AF020008AF02000800F002F8FB
:1000F00000F0A6F814A696E8000CB244B344DA4522
:1001000001D100F09DF8BAE80F000FA696E8300084
:10011000A5EB040504EB0607AAEB0704A7F101070A
:100120004FEA15154FEA3414A4F10104AC4201D38F
:1001300000F086F813F0010F18BFFB1A43F001031B
:1001400000F001F8DBE71847C04F0000E04F000067
:10015000103A24BF78C878C1FAD8520724BF30C8F3
:1001600030C144BF04680C60704700007047000055
:100170000023002400250026103A28BF78C1FBD8B0
:10018000520728BF30C148BF0B6070476E2900F08E
:100190009B81702900F0D182662904F01C846529B6
:1001A00004F01984672904F01684612904F0158489
:1001B00003681B0A28BF41F08001692900F04881CB
:1001C000642900F04581752900F042816F2900F013
:1001D0005F82782900F09D82E92900F0F981E42905
:1001E00000F0F681F52900F0F381EF2900F05C8240
:1001F000F82900F09C820368DB0928BF41F08001E8
:10020000632900F0CF87732900F0D487E32900F039
:10021000DF87F32900F0E487002070471FB501F065
:1002200045F804000020002103F04CF9401C6060F8
:100230000020002103F030F9E0601FBD10B510BDB3
:1002400001F006F81146FFF7E9FF01F003FA01F0AB
:10025000E3F803B4FFF7F2FF03BC01F073F9000009
:100260004FF000004FF000014FF000024FF000038C
:100270004FF000044FF000054FF000064FF000076C
:100280004FF000084FF000094FF0000A4FF0000B4C
:100290004FF0000C0948804709480047FEE7FEE799
:1002A000FEE7FEE7FEE7FEE7FEE7FEE7FEE7FEE726
:1002B00004480549034A054B70470000191500081A
:1002C000ED000008F8000020F8080020F8000020E9
:1002D000704700000FB4044910B503AA029800F05B
:1002E00007F910BC5DF814FB780000200EB5054638
:1002F00014460E4613A000F0FAFA284600F0F7FA6A
:1003000016A000F0F4FA304600F0F1FA15A000F063
:10031000EEFA00218DF80B100A210DF10A008DF87C
:100320000A1008E094FBF1F201FB124294FBF1F495
:10033000303200F8012D002CF4DC00F0D8FA00F087
:10034000CBFA00002A2A2A20617373657274696FE0
:100350006E206661696C65643A2000002C20666935
:100360006C6520002C206C696E652000704770471A
:100370007047704710B500F0C5FA006810BD10B5A1
:10038000044600F0BFFA046010BD70B504468569EC
:100390000068C10601D5302600E02026C00707D03E
:1003A00070BDD4E9012130469047206A401C20628C
:1003B0006D1EF6D570BD70B5044685690078C0071E
:1003C00007D170BDD4E9012120209047206A401C4C
:1003D00020626D1EF6D570BD09684A0501D540B290
:1003E0007047C905FCD500B2704709684A0501D5B8
:1003F000C0B27047C905FCD580B2704770B50C46D5
:100400000546012A05D02878800600D5EA69002330
:1004100002E0012305E05B1C934202D2E05C00286D
:10042000F9D1A869E618C01AA861286A1844286298
:100430002846FFF7AAFF04E0D5E9012114F8010BD3
:100440009047B442F8D32846FFF7B5FF70BD0000CF
:100450002DE9F0410646002410687529314616A59D
:1004600010D0FFF7B9FF002802DA404213A507E0D9
:1004700031688A0701D512A502E0490704D511A504
:10048000012401E0FFF7B1FF00210A2206F1240751
:1004900009E0B0FBF2FCB0FBF2F302FB1C003030D1
:1004A00078541846491C0028F3D123462A46304682
:1004B000BDE8F04100F06FBA000000002D00000020
:1004C0002B0000002000000011680268006A53053C
:1004D00001D508700AE0D30501D5088006E01306AF
:1004E00003D5C217C1E9000200E00860012070478F
:1004F000074B70B50D467B4400F037FE0446284696
:1005000000F072FE10B14FF0FF3070BD204670BD9C
:10051000F71000002DE9FF5F15468A460446DFF814
:10052000AC80F8440027D8E900103E46CDE9001021
:1005300010E03AF816106A4602A800F059FE411C75
:1005400007D02178890603D5E269391891420DD880
:100550000744761C2078800602D5E069B84205DDA4
:10056000AE42E6DB3AF816000028E2D1A069C01BD3
:10057000A0612046FFF709FFD8E90010CDE900107F
:10058000002017E03AF818106A4602A800F030FE82
:10059000B0F1FF3F81460BD000250DF1080B05E0BF
:1005A000D4E901211BF8050090476D1C4D45F7D398
:1005B00008F10100B0428046E4DB206A3844206242
:1005C0002046FFF7F8FEBDE8FF9F00009A460000B6
:1005D0002DE9F0418046D21D22F007020025D2E924
:1005E0000002F52915A614D0011E72F1000106DAE9
:1005F0000023D0EB030063EB020211A608E0D8F859
:1006000000108B0701D50FA602E0490701D50EA601
:1006100001251146002408F1240704E000F076F9D2
:1006200030323A55641C50EA0102F7D12B4632466B
:1006300021464046BDE8F04100F0ADB900000000A1
:100640002D0000002B0000002000000030B400212D
:1006500000F1240408E002F00705D208303542EA30
:100660004372DB086554491C52EA0305F3D1046860
:10067000002310A2250708D504F020040C4304D061
:10068000C46901230CA2641EC46130BC00F083B9AC
:1006900010B5044621461068FFF7A7FE0246204623
:1006A000BDE810400023D1E7D21D22F00701D1E9B7
:1006B0000023CBE70000000030000000F0B40D463E
:1006C0000188090502D5214C7C4402E01F4C7C4482
:1006D0000E34002100F1240608E002F00F07120991
:1006E000E75D42EA03721B097754491C52EA03078B
:1006F000F3D102780023120704D5702D06D009B17A
:10070000022311342246F0BC00F045B90123103415
:10071000F8E770B504460D4621461068FFF765FE00
:10072000024629462046BDE870400023C6E7D21D98
:1007300022F00703D3E90023C0E70368126843F0FF
:10074000200303600823C3610023B7E7FC440000D3
:100750002DE9F05F894604464FF0000ADFF874B1D6
:10076000FB44C0F820A02046E1688847002874D0E8
:10077000252806D0D4E901219047206A401C206238
:10078000F1E700265F462046E168884720280546B5
:1007900007DB312D05D2781910F8200C08B106437B
:1007A000F1E7B00701D526F00406C4F81CA0002725
:1007B000C4F818A02A2D09D0284602F0A7F938B3AA
:1007C00004EB8708303DC8F8185019E059F8041BAD
:1007D000204604EB87029161E1688847012F0546B6
:1007E00018D1E069002820DA26F020061DE0D8F8AC
:1007F000180000EB800005EB40003038C8F8180006
:100800002046E1688847054602F080F90028EED1CD
:10081000012F0AD02E2D08D12046E16888477F1C81
:100820000546022F46F02006C4DBA069002803DA43
:10083000404246F00106A061F00701D026F0100604
:100840006C2D0BD0682D09D04C2D39D06A2D35D0A8
:10085000742D35D07A2D33D016E038E0E1682F467C
:1008600020468847B842054609D16C2F26D04FF460
:100870008060E168064320468847054604E06C2F07
:100880001AD04FF4807006430DB3A5F1410019282A
:1008900002D8203546F400664A462946204626609E
:1008A0004E46FFF773FC80B101280BD0F61D26F0F1
:1008B000070000F1080956E74020E4E78020D8E768
:1008C0000020D6E706F104094DE7284652E7206AE2
:1008D000BDE8F09F8C44000010B5002000F0ACFC97
:1008E000FFF7ACFCBDE81040012000F02BBE10B5B6
:1008F000044602E0641C00F029FE20780028F9D1AB
:1009000010BD0000004870471800002030B5B0F15D
:100910000A0271F100034FEA900E4EEA817EB0EBBD
:100920000E0061EB91014FEA101E4EEA017E10EBC2
:100930000E0041EB11114FEA102E4EEA016E10EB42
:100940000E0041EB11214FEA104E4EEA014E10EB22
:100950000E0041EB1141401841F100014FEAD00077
:1009600040EA41704FEAD1014FEA810444EA9074B1
:1009700010EB800544EB01046D1944EB0404521B99
:10098000A3414FF0000348BF0A3200D530BD401CE0
:1009900041F1000130BD2DE9F0470D4699469246E0
:1009A000044600F124080168880604D5E06921F0B6
:1009B0001001216000E00120A84201DD471B00E09A
:1009C0000027A1697A1902EB0900081AA0612078B2
:1009D000C00602D42046FFF7D8FC002608E0D4E980
:1009E00001211AF806009047206A401C761C2062FC
:1009F0004E45F4DB2078C0060AD52046FFF7C5FC3B
:100A000006E0D4E9012130209047206A401C206292
:100A1000381EA7F10107F4DC07E0D4E9012118F83A
:100A200005009047206A401C2062281EA5F10105A0
:100A3000F3DC2046FFF7BFFC2078000602D5022039
:100A4000BDE8F0870120FBE72DE9FF4F0C461E466D
:100A50004FF0FF378BB0D2E90001DDF860800A90DB
:100A60008A46C1F30A5505B93D46002108464FF0B4
:100A70000000BAF1000F00F4400005DA00EB80003E
:100A80004FF4400101EA50004FEA9059B9F1010FCB
:100A900000DDB9460A9850EA4A000ED044F61050DC
:100AA000A5F2FF3545432F14B8F1000F1ED0754253
:100AB000291E1EDDC9F100021CE0B8F1010F4FF044
:100AC000000001D0302103E0F24305E02154401C36
:100AD000B042FBDB30460022002121540B99C1F8C3
:100AE0000880C1E900200FB0BDE8F08FBD1B6D1C70
:100AF000DEE74A4600DA694206A800F01BFC06ABB6
:100B000093E8070003AB83E8070050460A9900F01A
:100B1000E2FF8DE80700A0F500501F380090039811
:100B2000002D0ADD42F21F014A460844002303A9B2
:100B30000390684601F04CFA09E0A0F500504A46DF
:100B40001F38002303A90390684601F056FA8DE888
:100B500007000004000C03D04FF0FF30410800E014
:100B60001046B8F1000F03D00022009215461EE097
:100B7000751E05D4FFF7CAFE303262556D1EF9D5D9
:100B8000B3460122084302D000227F1C04E02078F3
:100B9000302801D100227F1E002A099784D01DE051
:100BA000112D07DAFFF7B2FE303262556D1C50EAA4
:100BB0000102F5D1084302D00098C8B10EE000212F
:100BC000681E05E0235C625C63542254401E491C8D
:100BD0008142F7DBAB46A81B401E0990002004F8B9
:100BE0000B000B98099AC0F80880C0E9002B7AE73F
:100BF00011264FF0000857E72DE9F04F88460446CC
:100C0000D21D22F0070191B0D1E90001CDE90A011E
:100C100001F02AFB02460B98C00F01D02D2007E0FF
:100C20002068810701D52B2002E0202101EAC000C5
:100C3000032A099001D0072A05DB034641462046D6
:100C400000F038FB0BE12078800601D5E06900E078
:100C50000620B8F1650F814606D0B8F1660F18D0AE
:100C6000B8F1670F70D131E00020B9F1110F009099
:100C700001DB112301E009F101030AAA01A90CA873
:100C8000FFF7E2FEDDE90C70002609F1010583465D
:100C900047E001204B4600904FF000470AAA01A907
:100CA0000CA8FFF7D1FEDDE90DB00C995D460026DA
:100CB00010B909F101000D18B9EB050003D4C0F11A
:100CC000FF3609F10105A5EB09002BE0B9F1010F91
:100CD00001DA4FF001090020B9F1110F00904846E8
:100CE00001DD112300E003460AAA01A90CA8FFF7C1
:100CF000ABFEDDE90C704D460026834620780007E8
:100D00000AD4AB4500DA5D4601A8012D04DD411986
:100D100011F8011C302907D04F4502DA17F1040FF2
:100D200004DA012082460FE06D1EEEE7002F02DCA0
:100D3000ED1B3E4403E0781CA84200DD7D1CB81B7F
:100D400000F1010A4FF000472078000703D4AA45BC
:100D500001DB4FF0FF3A0021B7F1004F0DF14308DE
:100D60008DF8431024D002202B23002F01DA7F427C
:100D70002D230A21021EA0F1010000DC5FB197FBC8
:100D8000F1FC97FBF1F201FB1C7C17460CF1300CD7
:100D900008F801CDEEE7A8F10100037021880905EC
:100DA00001D5452100E06521A0F1010800F8011CF2
:100DB00009980FA9A1EB0807FF1D00B101204119F7
:100DC00001EBEA70A1693844081A401EA06120783E
:100DD000C00602D42046FFF7D8FA099828B1D4E912
:100DE00001219047206A401C20622078C00622D54D
:100DF0002046FFF7CAFA1EE0002E04DBB34502DDF1
:100E000001A8805D00E03020D4E901219047206AEC
:100E1000401C2062761CAAF101005FEA000A0AD198
:100E200000F044FAC0680168405CD4E901219047B1
:100E3000206A401C2062281EA5F10105DCDC07E0C9
:100E4000D4E9012118F8010B9047206A401C206268
:100E5000381EA7F10107F3DC2046FFF7ACFA0320A8
:100E600011B041E62DE9F04F04460D46D21D22F0A7
:100E7000070089B0D0E900974846394601F0F4F9F7
:100E80000246F80F01D02D2307E02068810701D525
:100E90002B2302E0202101EAC0038DF820300BB1A2
:100EA000012000E00020032A824601D0072A04DB4B
:100EB0002946204600F0FEF93FE12078800601D463
:100EC0000D2500E0E569C7F30A560D2D49DA00212A
:100ED0004FEA175B08464FF00000002F00F4400077
:100EE00007DA00EB80004FF4400100EBD07001EA1C
:100EF00060008115012901DD4FF0FF3100224FEA2A
:100F0000850CBCF1180F06D31346ACF118004FF056
:100F10008052C24003E04FF4801323FA0CF30CF12B
:100F20000C0CBCF1200F04D3ACF1200C09FA0CF02E
:100F300001E007FA0CF000294FF0004801DD18B974
:100F40000FE00ED140450CD319EB02095F4121B9E6
:100F5000404502D19F4329EA0209BBEB175F00D04D
:100F6000761C2088000502D57B48784402E07A4848
:100F70007844193808AA302302F80A30037C0AF1B1
:100F80000101002E0AF1020A53546A4602DC4FF0B6
:100F9000300101E04FF031014FF001088DF80010F1
:100FA00002D0A6F2FF3603E059EA470100D06B4EAB
:100FB000002D02DC2178090704D54FF002082E210C
:100FC0008DF80110C44600210BE0C7F303433F0135
:100FD000C35C491C6D1E02F80830052908F10108A0
:100FE00001DA002DF1DC00210CE000EB1973491C43
:100FF0001B786D1E082902F808304FEA091908F11C
:10100000010801DA002DF0DC21688B0602D516E01C
:10101000A8F10108E04505DD02EB080313F8013CE7
:10102000302BF5D0B8F1000F09DD02EB080313F8FF
:10103000013C2E2B03D1090701D4A8F10108002D92
:1010400005DD3E2102F808106D1E08F10108407C04
:10105000002E02F8080008F1010804DA2D2076427B
:1010600002F8080002E02B2002F808000A214FF4E1
:101070007A70864208F101080BDB96FBF0F33033FF
:1010800002F8083096FBF0F308F1010800FB136644
:1010900001E0642E0CDB642096FBF0F3303302F8A1
:1010A000083096FBF0F308F1010800FB136601E03D
:1010B0000A2E06DB96FBF1F0303002F8080008F14A
:1010C000010896FBF1F001FB1060303002F80800D7
:1010D000A16908F1010808EB050202EB0A00081AF1
:1010E000A0612078C00602D42046FFF74EF9216A9D
:1010F00008AE01EB0A00206204E0D4E9012116F8F1
:10110000010B9047BAF1010AF7D22078C00602D548
:101110002046FFF73AF96E4609E016F8010B3E2823
:101120000FD0D4E901219047206A401C2062B8F119
:101130000108F2D22046FFF73EF909B00320BDE8CE
:10114000F08F206A2844206203E0D4E90121302096
:1011500090476D1EEBD3F8E7FD3D000002FCFFFF5A
:1011600001694A1C02610878704700B58FB0CDE96B
:1011700001310021059105497944CDE9031011465B
:101180006846FFF7E5FA0FB000BD0000E5FFFFFF7E
:1011900010B5436913B1AFF3008001E0FFF72EF9FA
:1011A000012010BD127800F124010A7000224A705B
:1011B0000122EDE711684FF0FF32E9E710B543690E
:1011C00013B1AFF3008001E0FFF7A4F9012010BDD7
:1011D000128800F1240182840022C2840122EDE7FA
:1011E00011684FF0FF32E9E7007B00F080007047A4
:1011F0002DE9F04116460C46054600F04FF803680D
:1012000093F80101012807D0FF2C12D8185D80B196
:1012100001202C70BDE8F081D3F807013246214649
:1012200003F20713C7182846BC46BDE8F041002367
:1012300060474FF0FF30EDE710B500F0FBF8BDE878
:10124000104000F0F2B8000000487047180000207D
:101250007546FFF7F9FFAE4605006946534620F094
:101260000700854618B020B5FFF722F8BDE82040FA
:101270004FF000064FF000074FF000084FF0000B52
:10128000AC46ACE8C009ACE8C009ACE8C009ACE8C1
:10129000C00921F007018D467047000010B500F02D
:1012A00005F8001D10BD00BF1D220000004870475A
:1012B000380000202DE9F0411F460446032601684E
:1012C000072A01F4006004DB08B116A505E016A5A5
:1012D00003E008B115A500E015A521F0100020607D
:1012E000A069C01EA0610FB1401EA0612046FFF79B
:1012F0004CF84FB1D4E9012138469047206A401C90
:101300002062C01C206206E0206AFAE7D4E90121CD
:1013100015F8010B9047761EF8D22046FFF74BF8E0
:10132000BDE8F0814E414E006E616E00494E4600B0
:10133000696E66002DE9F047814616468AB0354849
:1013400078440DC88DE80D0032487844801C03AC09
:101350000DC884E80D0041F69B300844372190FB0E
:10136000F1F290FBF1F5A5F1800501FB12041B3CA5
:1013700002D56442012000E00020DFF898A08046FA
:101380000027FA44AAF1BE0A0EE0E0070AD032466E
:10139000684607EB470101230AEB810100F02DFEAF
:1013A0008DE8070064107F1C002CEED1194F7F449C
:1013B000AE3F19E0E80715D007EB04100DF1180A4D
:1013C00090E80E008AE80E00C068F04201D198193A
:1013D00008903246012306A903A800F00EFE03ABD5
:1013E00083E807006D10641C002DE3D14FF001036A
:1013F00032466946B8F1000F03A802D000F0E8FDBC
:1014000001E000F0FAFDC9E90001C9F808200AB0BE
:10141000BDE8F087B83A000010B50446AFF300808D
:101420002046BDE81040FEF714BF002801D000F0B0
:1014300089B8704710B5002102A000F013F8012010
:1014400010BD0000534947414252543A2041626E58
:101450006F726D616C207465726D696E6174696F15
:101460006E00000070B505460C460A2000E06D1CB9
:1014700000F06CF835B128780028F8D102E0641C3F
:1014800000F064F814B120780028F8D1BDE870406D
:101490000A2000F05BB800004FF0013C50F8042B2C
:1014A00051F8043B9A4221D1A2EB0C03934313EA77
:1014B000CC1317D150F8042B51F8043B9A4215D1A4
:1014C000A2EB0C03934313EACC130BD150F8042B7B
:1014D00051F8043B9A4209D1A2EB0C03934313EA5F
:1014E000CC13DBD04FF00000704700BFD01A01BA18
:1014F000B1FA81F101F0180122FA01F0CB40DBB220
:10150000C0B2C01AC1F120012CFA01F3D11A9143E3
:1015100011EAC311E6D1704780B582B04EF21000D7
:10152000CEF2000001900199086820F001000860E7
:1015300000F016F844F61460C0F60000FEF7CAFE8C
:1015400002B080BD81B0009001B0704780B582B01C
:1015500001909DF9040000F023F8019802B080BDCD
:1015600081B040F20030C4F20000009000980068A2
:1015700040F20221C2F22501884207D1FFE740F282
:10158000CC01C2F200010120087006E040F2CC015B
:10159000C2F2000100200870FFE701B070470000B0
:1015A00080B584B08DF80F0040F20010C4F2000046
:1015B000019040F20410C4F20000009000F02EF8F8
:1015C0000290FFE7019800684006002809D4FFE771
:1015D00040F2CC00C2F20000007808B9FFE700E05A
:1015E000F0E79DF90F000099086004B080BD00008D
:1015F00080B582B0019000919DF90400FFF7D0FF03
:10160000019802B080BD000081B040F20420C4F215
:10161000000000900098006801B0704782B040F26E
:10162000CC00C2F20000007850B9FFE740F2D800C9
:10163000C2F200000168013101600068019006E01B
:101640004FF080400090009800680190FFE70198FB
:1016500002B0704780B582B0002000900190FFF783
:101660007FFFFFF7D1FF014640F2D000C2F2000039
:10167000016040F2CC01C2F200010A78036844F62E
:101680007A70C0F600002B21FEF724FE00F040F92E
:1016900000F036F8642000F013F8009840F2D4010E
:1016A000C2F20001086044F6D570C0F6000045F2B1
:1016B0009F01C0F6000140F2AF12FEF717FE0000D6
:1016C00080B582B00190019944F6BD70C0F600006B
:1016D000FEF700FEFFF7A2FF0090FFE7FFF79EFF77
:1016E0000099401A0199884201D2FFE7F6E744F6D3
:1016F0004770C0F60000FEF7EDFD02B080BD0000AF
:1017000080B584B040F20001C2F200010868496867
:1017100040F20803C2F200031A685B6802F00CFA98
:101720000A4640F2E801C2F200014A600860086817
:1017300049684FF2E462CBF2C25242F6C723C3F6C5
:10174000E57302F03FFD08B1FFE70BE044F6DA7005
:10175000C0F6000045F29F01C0F600014FF4BE72D2
:10176000FEF7C4FD40F2E800C2F20000039044F628
:101770005760C0F60000FEF7ADFD40F20001C2F276
:1017800000010868496840F20803C2F200031A68C1
:101790005B6801F069FF0A4603994A6008600868BF
:1017A00049683922CFF209624CF28563C3F6DB73D4
:1017B00002F008FD08B1FFE70BE044F6F270C0F656
:1017C000000045F29F01C0F600014FF4C072FEF721
:1017D0008DFD40F2E800C2F20000029044F67A600B
:1017E000C0F60000FEF776FD02990868496801F02E
:1017F00061FB0A4640F2E001C2F200014A60086063
:10180000086849684DF28B42CCF259524BF61633B8
:10181000C3F6DC7302F0D6FC08B1FFE70BE045F23B
:101820002400C0F6000045F29F01C0F600014FF40D
:10183000C272FEF75BFD40F2E000C2F200000190D0
:1018400044F6EF60C0F60000FEF744FD40F2E80108
:10185000C2F200010868496801F060F90A4601997E
:101860004A600860086849684BF2F672CAF2ED22D5
:101870004FF23533C3F6F17302F0A4FC08B1FFE771
:101880000BE045F23D00C0F6000045F29F01C0F6B6
:1018900000014FF4C472FEF729FD40F2E000C2F2ED
:1018A0000000009044F60470C0F60000FEF712FD40
:1018B00040F2E801C2F200010868496801F000FD49
:1018C0000A4600994A600860086849684CF6980220
:1018D000C2F6C6324AF65A13C3F6DD7302F072FC42
:1018E00008B1FFE70BE045F20B00C0F6000045F23F
:1018F0009F01C0F600014FF4C672FEF7F7FC44F6F4
:10190000DB60C0F60000FEF7E5FC04B080BD00001F
:1019100080B586B00020059040F21000C2F20000B1
:10192000006840F21401C2F20001096802F050FEA2
:10193000014640F2F400C2F20000016000684BF280
:10194000D171C3F6F95102F067FC08B1FFE70BE073
:1019500045F2C300C0F6000045F29F01C0F6000149
:101960004FF4B072FEF7C2FC40F2F400C2F2000085
:10197000049044F66960C0F60000FEF7ABFC40F24C
:101980001000C2F20000006840F21401C2F200012F
:10199000096802F077FC01460498016000684FF086
:1019A000785102F039FC08B1FFE70BE045F2E600A0
:1019B000C0F6000045F29F01C0F600014FF4B2727C
:1019C000FEF794FC40F2F400C2F20000039044F6EB
:1019D0008C60C0F60000FEF77DFC0398006801F003
:1019E000A1FB014640F2F000C2F200000160006875
:1019F00045F2F051C3F6006102F00EFC08B1FFE7BA
:101A00000BE045F2F200C0F6000045F29F01C0F67F
:101A100000014FF4B472FEF769FC40F2F000C2F22C
:101A20000000029044F6B160C0F60000FEF752FCE0
:101A300040F2F400C2F20000006801F0ADF9014686
:101A400002980160006840F21D51C3F6B97102F0BE
:101A5000E3FB08B1FFE70BE045F2D500C0F600005C
:101A600045F29F01C0F600014FF4B672FEF73EFC4E
:101A700040F2F000C2F20000019044F6C660C0F6E9
:101A80000000FEF727FC40F2F400C2F200000068FC
:101A900001F048FC01460198016000684AF6BD313A
:101AA000C3F6006102F0B8FB08B1FFE70BE045F2B6
:101AB000B200C0F6000045F29F01C0F600014FF4ED
:101AC000B872FEF713FC44F69D60C0F60000FEF706
:101AD00001FC06B080BD5FEA400C08BF91F0000F2A
:101AE0004FEA8C234FEAC12243EA51514FEA1C507E
:101AF00018BF00F5F0404FEA300018BF41F0004138
:101B00005FEA6C5C00F02980BCF1FF3F08BF40F049
:101B100080407047130C06BF12044FF0100C4FF0BA
:101B2000000C130E04BF12020CF1080C130F04BFBB
:101B300012010CF1040C930F04BF92000CF1020C83
:101B4000D30F04BF52000CF1010C11464FF00002FC
:101B5000A0F11F00A0EB0C00704711F0004F08BF70
:101B6000704731F000413FF4D5AF0B0C06BF0904BC
:101B70004FF0100C4FF0000C0B0E04BF09020CF1DB
:101B8000080C0B0F04BF09010CF1040C8B0F04BFF0
:101B900089000CF1020CCB0F04BF49000CF1010CC1
:101BA000CCF1200322FA03F341EA030102FA0CF21A
:101BB000A0EB0C0000F101007047000023F07F470C
:101BC00020F07F4C80EA030000F00040ACEB0703FC
:101BD00003F57C5303F1FF032DE9804909B44FEA73
:101BE000144324EA03484FEA154B25EA0B4E0FF243
:101BF000042606EB13273E7803FB0667C7F50007AC
:101C000007FB06F64FEAD64606F102064FEA5437BE
:101C100007FB066CCCF1005C4FEA1C472CEA074C32
:101C20000CFB06F507FB06F404EB15464FEA961687
:101C300049085FEA320234BF00204FF000404FEA0B
:101C4000D13706FB07FC4FEA1C4C0CFB0BF7D21BF1
:101C500003FB0CF761EB07010CFB0EF7B0EB074041
:101C600072EB17420CFB08F734BFA2EB0742B2EB52
:101C7000074261EB17414FEA0C444FEA910706FB1C
:101C800007FC4FEA1C4C0CFB0BF7B0EBC74072EBA8
:101C9000573203FB0CF734BFA2EBC742B2EBC7428B
:101CA00061EB57310CFB0EF7B0EBC70072EB5772CC
:101CB0000CFB08F734BFA2EBC702B2EBC70261EB23
:101CC00057714FEA816141EA92114FEA826242EA1A
:101CD00090124FEA806004EBCC04039F4FEAD137A7
:101CE00006FB07FC4FEA1C4C0CFB0BF7D21B03FB5B
:101CF0000CF761EB07010CFB0EF7B0EB074072EB42
:101D000017420CFB08F734BFA2EB0742B2EB0742C5
:101D100061EB17414FEA8C5504EB9C244FEA910785
:101D200006FB07FC4FEA1C4C0CFB0BF7B0EBC74063
:101D300072EB573203FB0CF734BFA2EBC742B2EB96
:101D4000C74261EB57310CFB0EF7B0EBC70072EBEB
:101D500057720CFB08F734BFA2EBC702B2EBC70205
:101D600061EB57714FEA816141EA92114FEA826259
:101D700042EA90124FEA806015EB4C2544F10004D2
:101D80004FEAD13706FB07FC4FEA1C4C0CFB0BF764
:101D9000D21B03FB0CF761EB07010CFB0EF7B0EB5A
:101DA000074072EB17420CFB08F734BFA2EB074267
:101DB000B2EB074261EB17414FEA813141EA9241B0
:101DC0004FEA823242EA90424FEA80304FEA0C7684
:101DD00015EB1C1544F1000448EA03434EEA0B4896
:101DE0004FF0000EB2EB080C71EB030724BF624604
:101DF00039464EEB0E0E4FF0000B00185241494190
:101E00004BEB0B0BB2EB080C71EB03077BF1000BF8
:101E100024BF624639464EEB0E0E4FF0000B001801
:101E2000524149414BEB0B0BB2EB080C71EB030732
:101E30007BF1000B24BF624639464EEB0E0E51EA91
:101E4000020718BF46F0010616EB0E7655F10002A8
:101E500054F1000103D5BDE88901BDE80088BDE863
:101E60008901BDE80048B619524141EB0101A3F1D7
:101E70000103704780807F7E7D7C7B7A79787776DE
:101E800076757473727171706F6E6E6D6C6C6B6A57
:101E90006A696868676666656464636362616160F5
:101EA000605F5F5E5E5D5D5C5C5B5B5A5A59595872
:101EB00058575756565555555454535352525251DC
:101EC000515050504F4F4F4E4E4D4D4D4C4C4C4B32
:101ED0004B4B4A4A4A494949484848474747474679
:101EE00046464545454444444443434343424242B5
:101EF000424141419C46002B30D477002BD04FEA21
:101F000037071CB503B44FF010004FF01001BAF1C1
:101F1000000F06D0BCF1000FDCBF40F0080040F01D
:101F200008014FF000000FBCBDE810400BF1010BA1
:101F3000BBF1010F08BF5FEA170722BF12F10102D0
:101F400011F101014FF0004143F1000300F00040A6
:101F500043EA00007047F9D35708D0E746EA06463F
:101F60004FEA164613F1400F1FDD13F1200FDFBFBC
:101F700016430A46002120335B42BED0C3F120073E
:101F800046EA06464FEA164602FA07F746EA070609
:101F900022FA03F2C3F1200701FA07F742EA070227
:101FA00021FA03F14FF00003A7E746EA020646EAEA
:101FB00006464FEA164646EA0106BCBF46EA064612
:101FC000360C4FF000034FF000024FF0000194E791
:101FD0002DE9804C70B49A46934691E8380007C8C2
:101FE00031EA400C48BF34EA430C03D5FFF7E6FD65
:101FF000FFF780FFF0BCBDE8008C2DE9804C70B489
:102000009A46934691E8380007C810F0804F08BF01
:1020100013F0804F03D100F005F8FFF76BFFF0BC21
:10202000BDE8008C20F07F4723F07F4C80EA03005E
:1020300000F0004007EB0C03A3F57C53A3F1FE0373
:1020400092F0000F00F0B38095F0000F00F0778061
:102050002DE901494FEA114021EA00484FEA1446B0
:1020600024EA064700FB06FC08FB06F607FB08F817
:1020700018EB06484CEB164C00FB07F718EB07482B
:102080004CEB17404FEA124B22EA0B4E4FEA154633
:1020900025EA06470BFB06FC0EFB06F607FB0EFEC9
:1020A0001EEB064E4CEB164C0BFB07F71EEB074ED8
:1020B0004CEB174B18EB0B0840F1000018EB0E0B24
:1020C00058EB000840F100008F1A4FF000014FF06C
:1020D00000063CBFC943661B14BFB5EB040C0021CE
:1020E0003CBFC943F61B4FEA174427EA04454FEAB1
:1020F0001C472CEA074C04FB076205FB07F70CFBA7
:1021000005F616EB074642EB174204FB0CFC16EBF8
:102110000C4642EB1C421BEB060658EB0202414107
:102120004EEA8E0E46EA9E0601D5BDE80189B61933
:10213000524141EB0101A3F10103BDE801894FEADE
:10214000144524EA05464FEA114721EA074C05FBEE
:1021500007F406FB07F70CFB06F111EB074144EB14
:10216000174405FB0CFC11EB0C4144EB1C444FEAFB
:10217000124722EA074C05FB07F206FB07F70CFBA8
:1021800006F616EB074642EB174205FB0CFC16EB76
:102190000C4642EB1C456A1854F1000148BF7047D9
:1021A000B619524141EB0101A3F10103704795F0CB
:1021B000000F37D04FEA114221EA02464FEA144796
:1021C00024EA074C02FB07F106FB07F70CFB06F4B9
:1021D00014EB074441EB174102FB0CFC14EB0C44DD
:1021E00041EB1C414FEA154725EA074C02FB07F576
:1021F00006FB07F70CFB06F616EB074645EB174503
:1022000002FB0CFC16EB0C4645EB1C42121951F17B
:10221000000148BF7047B619524141EB0101A3F1DB
:10222000010370474FEA144524EA05464FEA114777
:1022300021EA074C05FB07F106FB07F70CFB06F24A
:1022400012EB074241EB174105FB0CFC12EB0C4271
:1022500051EB1C414FF0000648BF7047921841EB0C
:102260000101A3F101037047490050EAC12018BFE2
:1022700004204A0D18BF40F0010040F2FF72B2EB9B
:10228000515F08BF40F00200012808BF05207047D9
:102290004100080218BF04200A0E18BF40F00100D8
:1022A0004FF07F4232EA010108BF40F002000128EE
:1022B00008BF0520704700002DE9F74F144694B081
:1022C0000021C4E902111599079121F00045C9497F
:1022D0008D4206DC1599C4E9000117B00020BDE865
:1022E000F08FC549DFF814A3A9423CDD0799C44E1D
:1022F0000029C44FC44A1599534619DD01F00CFE5C
:10230000554506D0C14AC24B01F006FEC4E90001A2
:102310000AE04FF0D352BE4B01F0FEFD32463B4681
:1023200001F0FAFDC4E9000117B00120BDE8F08F0B
:1023300001F0DEF8554506D0B44AB54B01F0D8F8A7
:10234000C4E900010AE04FF0D352B14B01F0D0F8DC
:1023500032463B4601F0CCF8C4E9000117B04FF01B
:10236000FF30BDE8F08FAB49A942159978DB21F029
:10237000004183468846A84AA84B01F0DDFB0022B5
:10238000A74B01F0B5F801F005FB099001F031FB16
:1023900006460F469C4A534601F0CEFB43465A463A
:1023A00001F0C8FC80468A46984A994B3046394627
:1023B00001F0C2FB2A0D01250B924246534601F063
:1023C000B9FC032DC4E9000139D00B98C1F30A51BF
:1023D000401A05EB45111139814230DA9148C34664
:1023E000784400EB0510CDF80CA00C90D0E9002348
:1023F0003046394601F0A0FB02460B460491069098
:102400005846039901F088FD80468A4602460B46ED
:102410005846039901F080FD049B069A01F07CFD6B
:1024200083460C9803913946D0E90223304601F0E7
:1024300083FB5A46039B01F06FFD6D1CBDE70798B7
:102440000028A2BF099817B0BDE8F08F616881F03D
:1024500000416160099817B04042BDE8F08FFFE786
:1024600084461598C1F31301C0F30A50A0F2F53069
:102470004FEA601800F01F06C6F1200013900020FC
:102480000690079041F4801E05206D4676B1664A9D
:1024900008EB00017A4452F8213002EB8101B3408D
:1024A0004A68139922FA01F1194305E05F4908EBE4
:1024B0000002794451F82210A1FB0E27A1FB0C1356
:1024C0001A449A4234BF0123002303EB070A05EBA9
:1024D0008003D3E901B70F448F4234BF01210021AB
:1024E00093448B4411B1934502D903E0934501D243
:1024F000012100E00021C3E901B7514445F8201053
:10250000011EA0F10100C1DC0298059F00F10050FE
:10251000800F12900298DDE90356800001F069FAFD
:10252000834628460D9101F07BFA6FF01D0202F000
:1025300088FACDE90E01304601F072FA6FF03D02E3
:1025400002F07FFA80468A46384601F069FA6FF059
:102550005D0202F076FA074642465346119100F0BA
:10256000C7FFDDE90E2300F0C3FF5A460D9B00F0C4
:10257000BFFF00250E465A4628460D9B01F0CCFCB5
:10258000DDE90E2301F0C8FC4246534601F0C4FCCD
:102590003A46119B01F0CEFBDFF898A0244A53463F
:1025A00001F0CAFA07468846234A244B314628469A
:1025B00001F0C2FA3A46434600F09AFF07468846C1
:1025C0004FF0A84253463146284601F0B5FA3A4644
:1025D000434600F08DFF159A12F0004F04D0129A76
:1025E00081F0004152421292C4E90001129817B0E2
:1025F000BDE8F08FFB21E93F7CD90240FB21F93F88
:102600007370032E8A19A33B000040543163621A91
:1026100061B4D03DFB21394183C8C96D305FE43FCF
:102620000000E03F24280000A027000082270000CF
:10263000182D4454FB21F93D3326A611460B113CBD
:102640002DE9F0414F1E00EBC7010446D1E900011E
:1026500015461E4637F006020DD02A46334601F0D5
:102660006BFA7F1E04EBC703D3E9002300F040FFA1
:1026700037F00602F1D1022F25D0042F13D0062FF8
:1026800018BFBDE8F0812A46334601F055FAD4E977
:102690000A2300F02DFF2A46334601F04DFAD4E913
:1026A000082300F025FF2A46334601F045FAD4E915
:1026B000062300F01DFF2A46334601F03DFAD4E917
:1026C000042300F015FF2A46334601F035FAD4E919
:1026D000022300F00DFF2A46334601F02DFAD4E91B
:1026E0000023BDE8F04100F003BF00002DE9F04DEC
:1026F00004468CB0904821F00047164698460D4697
:102700000991874206DA2046294601F043F900285C
:1027100000F0AE808948B8421CDC09980028BCBF94
:1027200085F0004588F00048854A864B20462946BA
:1027300001F000FB04460D46324643468248834979
:1027400001F0EAFB22462B4600F0D2FE00260446AA
:102750000D46B04622462B461046194601F0ECF9CC
:102760008B46824602460B4601F0E6F90246089087
:1027700077480B46009106217844FFF761FFCDE9C9
:102780000310744806217844009B089AFFF758FF0D
:1027900052465B4601F0D0F9CDE9051052465B4642
:1027A0002046294601F0C8F907910090DDE90310A1
:1027B000DDE9053200F09CFE079B009A01F0BCF9B0
:1027C0003246434600F094FE52465B4601F0B4F9AF
:1027D0003246434600F08CFE80460E465E4A5F4B12
:1027E0000799009801F0A8F94246334600F080FEB0
:1027F00082468B4622462B4600F07AFE80464F48A2
:102800000E46B84214985BDC01F0F3F807464246E6
:102810003346059100F06CFECDE901104246334687
:102820001046194601F088F9DDE9013200F01CFF7D
:1028300052465B4601F070FB22462B4601F07AFAC5
:10284000012202F0FEF83A46059B01F073FA0446B5
:102850000D460998022101EAA070C0F1010001F0C3
:10286000C8F80CB022462B46BDE8F04D01F064B923
:102870001498401C384320430BD01498012812D0E0
:102880000CB022462B46BDE8F04D0020344900F044
:10289000EBBE0CB025F000432246BDE8F04D002011
:1028A000304900F0E1BE20462946FFF7DDFC042850
:1028B00008BF00F063F820460CB02946BDE8F08D53
:1028C000012802BF40460CB0BDE8F08D00270B4642
:1028D0003A462046294601F02DFA52465B4601F061
:1028E00029FA04460D464246334600201C4900F0B2
:1028F000BBFE83463A4688463346104601F01CF933
:102900000022184B00F0F4FD06468A4622462B466C
:102910003846414601F010F93246534600F0E8FDD2
:102920005A46434601F008F90CB03A464346BDE822
:10293000F04D00F0DDBD00000000303E2894E53F82
:10294000182D4454FB21E93F075C143326A6813C33
:102950007C2500009E250000635555555555D53FF3
:102960000000F0BF0000F03F012202F06AB8002230
:1029700013461046114600F077BE0000024A0020C0
:10298000110702F05EB8000001FDFFFF012102F017
:1029900086B80021084601F075BC6FF05E0108079B
:1029A00002F07DB82DE9F04D0D4614464FF07F4101
:1029B000B1EB440F9EBF4FF0FF312960BDE8F08DB1
:1029C0004FF0004040EA0421C4F3C750783810F0BB
:1029D0001F024A4B4FEA601CC2F120067B44C4F33D
:1029E000C750A0F178004FEA601003EB800053F865
:1029F0002C3008BFD0E901C612D0D0F804C09340F3
:102A00002CFA06F73B4387680CFA02FC27FA06F813
:102A1000C06807FA02F2F0404CEA080C42EA0006ED
:102A2000A3FB0132ACFB01C0A6FB016101EB0C066C
:102A30008E4234BF4FF0010C4FF0000CC1186144BE
:102A4000BCF1000F02D0814202D903E0814201D2E1
:102A5000012000E00020104400F120024FEA92180B
:102A60008006CA0C40EA42304F03C5F8008001F0EE
:102A70001BFD8246384601F02FFD6FF0120102F077
:102A80000EF80746304601F027FD6FF0250102F0F1
:102A900006F883463946504601F02CFB594601F0B2
:102AA00029FB00F500666FF30B065146304601F036
:102AB0001DFF394601F01AFF594601F085FE104905
:102AC00001F086FD07460F49304601F081FD394689
:102AD00001F010FB07460C49304601F079FD3946FC
:102AE00001F008FB14F0004F08BFBDE8F08DC8F1FD
:102AF000805180F000402960BDE8F08DF422000094
:102B0000DB0FC92F22AAFD290000C92F30380A285F
:102B100001D2012070470020704700002DE9F04DE0
:102B20000546DFF8388221F000408D4F82B00C4618
:102B3000404520DBA0EB080129430BD0894988429E
:102B400001DC10D17DB102B028462146BDE8F04D30
:102B5000FFF70ABF002CC7BF002001468248394654
:102B600002B0BDE8F08D0120FDF709FC02B0BDE820
:102B7000F04DFFF7FCBE7D49884244DA7C49814232
:102B8000A1BF79487B4902B0BDE8F08D2A462346B3
:102B90001046194600F0D0FF8346024676480E469E
:102BA0000B4606217844FFF74BFD5A46334600F0AA
:102BB000C3FF074671488A465A4633460421784483
:102BC000FFF73EFD5A46334600F0B6FF002243466B
:102BD00000F08EFC02460B463846514600F044FD9C
:102BE0002A46234600F0A8FF654A664B01F0A2F88A
:102BF0002A46234601F09EF802B05B4ABDE8F04D3C
:102C00005C4B01F097B8002C4FF000024BDA4646BF
:102C100043462846214600F06BFC4FF0FF3201F09E
:102C200010FF0446024658480D460B4606217844DC
:102C3000FFF706FD22462B4600F07EFF80465348F4
:102C40008A4622462B4604217844FFF7F9FC2246A7
:102C50002B4600F071FF0022334600F049FC064687
:102C60008B462046294600F0EFFA04460D463246D0
:102C70005B464046514600F0F7FC22462B4600F0EA
:102C80005BFF3F4A3F4B01F047F922462B4600F0DD
:102C90002FFC012201F0D5FE02B03B46BDE8F04D0D
:102CA000314A01F047B82D4B2846214601F042F841
:102CB0004FF0FF3201F0C5FE05460E4600F0C4FAA3
:102CC00000270C4680463A460B4600F011FC82462F
:102CD0008B463A4623461046194600F02DFF2A46F9
:102CE000334601F027F852465B4600F0BDFC8246B1
:102CF00027488B462A46334606217844FFF7A0FC36
:102D00002A46334600F018FFCDE9000121482A4643
:102D1000334604217844FFF793FC2A46334600F0FB
:102D20000BFF00220D4B00F0E3FB02460B46DDE9F2
:102D3000000100F099FC4246234600F0FDFE524699
:102D40005B4600F0D5FB3A46234600F0D1FB02B0CB
:102D50000122BDE8F04D01F074BE00000000F03F1C
:102D6000FB2109400000F07F182D44540000E03F93
:102D70000000603CFB21F93F781F00008E1F00001F
:102D8000075C143326A6913CEE1E0000041F0000D1
:102D9000221E0000381E00002DE9F04104464FF0CD
:102DA0001A4000EB4400B0F1C85F204655D84FF000
:102DB000FC41B1EB440F1CD224F000404FF07E5197
:102DC00001F002FD4FF0FF3101F069FE054600F011
:102DD00061FA14F0004F1DBF2C4F2D4E80F00040C3
:102DE000002708BF3E464FF0404101F0F1FB04468A
:102DF00005E0284F284E014601F0EAFB0546274929
:102E0000284601F0E5FB264901F074F9294601F056
:102E1000DFFB244901F06EF9294601F0D9FB224974
:102E200001F068F9294601F0D3FB204901F062F96D
:102E300080462946204601F0CBFB414601F0C8FB05
:102E400005463146204601F0BFFC294601F04EFD03
:102E50003946BDE8F04101F04DB94FF0CC41B1EB3E
:102E6000440F84BF1248BDE8F0814FF07F41B1EBC1
:102E7000440F03D2BDE8F041FFF788BD0120FDF704
:102E80007EFABDE8F041FFF784BD00000000494034
:102E900022AA7D3A0000C93F22AAFD3924FE1C3D2A
:102EA000C78AD83C1E67383D1B93993DAFAA2A3E7E
:102EB000DB0FC93F2DE9F04D8D4F21F0004A86B060
:102EC00005460C46BA452ADBAAEB070028430AD080
:102ED0008848824501DC1AD1CDB106B02846BDE84C
:102EE000F04DFFF741BD844A844B284600F024FE94
:102EF00007460E46824A834B2846214600F01CFEB8
:102F000006B03A463346BDE8F04D00F0F1BA012074
:102F1000FDF735FA06B0BDE8F04DFFF728BD7A4859
:102F2000824542DABAF1795F0BDA2846FFF79CF95D
:102F3000042808BFFFF722FD284606B02146BDE859
:102F4000F08D2A460B46104600F0F6FD83460246F9
:102F50006E480E460B4606217844FFF771FB5A4631
:102F6000334600F0E9FD804669488A465A463346B2
:102F700004217844FFF764FB5A46334600F0DCFD39
:102F800000223B4600F0B4FA02460B46404651464A
:102F900000F06AFB2A46234600F0CEFD06B02A4622
:102FA0002346BDE8F04D00F0A3BA284624F00041C6
:102FB00000223D463B4600F0BDFE4FF0FF3201F0DF
:102FC00040FD0646024653480F460B46062178440C
:102FD000FFF736FB32463B4600F0AEFDCDE900017F
:102FE0004D4832463B4604217844FFF729FB3246E0
:102FF0003B4600F0A1FD00222B4600F079FA834603
:1030000002913046394600F01FF9804643480D468C
:10301000504517DCDDE900015A46029B00F024FB15
:1030200042462B4600F088FD42462B4600F060FAEF
:10303000012201F006FD304A304B00F06DFF304AAE
:10304000304B4CE04FF0000A52460B46404600F031
:103050004FFACDE9031052462B461046194600F0B0
:103060006BFD32463B4600F065FEDDE9033200F0C1
:10307000FBFA06460F46DDE900015A46029B00F0C6
:10308000F3FA8346009101223046394601F0D9FC1B
:10309000194A1A4B00F04EFE06460F4601224046E2
:1030A000294601F0CEFC5A46009B00F045FD324611
:1030B0003B4600F031FF06460F46012250462946A6
:1030C00001F0BFFC0E4DDFF858802A46434600F061
:1030D00031FE32463B4600F02DFE2A46434600F0C4
:1030E00029FE002CD8BF81F0004106B0BDE8F08D6C
:1030F0000000F03F0000F07F075C143326A6913CEF
:10310000182D4454FB21F93F0000E03F141C00003F
:103110002A1C00009E1B0000B41B00003333EF3F4D
:10312000FB21E93F2DE9F04104464FF00E4000EB52
:103130004400B0F1506F204655D84FF0FC41B1EB40
:10314000440F1CD224F000404FF07E5101F03CFBB4
:103150004FF0FF3101F0A3FC054600F09BF814F09E
:10316000004F1DBF2F4F304E80F000402F4F08BF43
:103170002F4E4FF0404101F02BFA044605E00027A6
:103180003E46014601F024FA05462A49284601F048
:103190001FFA294900F0AEFF294601F019FA274924
:1031A00000F0A8FF294601F013FA254900F0A2FF1C
:1031B000294601F00DFA234900F09CFF804629467C
:1031C000204601F005FA414601F002FA0546314673
:1031D000204600F08FFF294600F08CFF3946BDE8FD
:1031E000F04100F087BF4FF0E441B1EB440F08D944
:1031F000FFF74EF8042808BFFFF7CFFB2046BDE8D5
:10320000F0814FF07F41B1EB440F03D2BDE8F041B4
:10321000FFF7BCBB0120FDF7B2F8BDE8F041FFF7B6
:10322000B8BB00000000C9BF22AAFDB90000C93F19
:1032300022AAFD3924FE1C3DC78AD83C1E67383DB2
:103240001B93993DAFAA2A3E2DE9F04106460F4651
:1032500000F07CFD041E0D4618BF0120284320F01D
:103260000040C0F17F6000F1E040C00F0ED0301C84
:1032700018BF0120384320F00040C0F17F6000F10A
:10328000E040C00F04BF0120FDF779F82046294631
:10329000BDE8F08170B5054601F0A0FA044620F0C3
:1032A0000040C0F1FF40C00F08D025F00040C0F141
:1032B000FF40C00F04BF0120FDF761F8204670BD3C
:1032C00010B5164B21F00042012486B09A4203DC6F
:1032D0000022134600941CE0114B9A4208D140B9D9
:1032E0004FF00100FDF74BF8FFF741FB06B010BDB2
:1032F00003DBFFF739FB06B010BD02AAFEF7DCFFC7
:1033000000F00100A4EB40000DF1080C00909CE8D7
:103310000F00FFF7EBF906B010BD0000FB21E93FFD
:103320000000F07F2DE9F843044602464C48694608
:10333000B0EB420F09D94FF0E640B0EB420F94BF1B
:1033400000204FF0FF30009030E0464B22F000406C
:10335000834265D94449204601F03AF901F004FA64
:10336000804601F085F800F0030000903F49404698
:1033700001F02EF905463E49404601F029F906467E
:103380003C49404601F024F907463B49404601F0DC
:103390001FF9214601F018FA394601F0A7FA314623
:1033A00001F0A4FA294601F0A1FA0446009D002D7F
:1033B0003ADB2146084601F00BF906462F4901F099
:1033C00007F92F4900F096FE314601F001F92D4929
:1033D00000F090FE314601F0FBF82B4900F08AFE28
:1033E000314601F0F5F8294900F084FE314601F03C
:1033F000EFF8274900F07EFE314601F0E9F821465A
:1034000001F0E6F8214600F075FE15F0010F08BF47
:10341000BDE8F8830146BDE8F8431E4800F032BF1E
:103420001046FFF7BFFAC0E76000B0F17F4F09D246
:103430002046FEF72DFF042808BFFFF7AEFA20460E
:10344000BDE8F88306D10120FCF799FFBDE8F843F9
:10345000FFF79FBA2046BDE8F843FFF797BA000090
:10346000B61F927E490E494683F9223F1A61342CD9
:103470000020A23300A0FD390000C93FBCE9223C76
:103480000B6D063B8A76CE3CACB5593D35A1083E66
:1034900029AAAA3E000080BF10B500290AD00878EA
:1034A000002807D005487844FDF7F6FF002801D032
:1034B000002010BD0248784410BD0000821C0000AE
:1034C0007A1C000010B500290AD00878002807D01F
:1034D00005487844FDF7E0FF002801D0002010BD2A
:1034E0000248784410BD0000721C00006A1C0000F5
:1034F00010B591EA030F48BF83F0004300F1148533
:10350000841A71EB030C05D2121943EB0C03001B58
:1035100061EB0C014FEA1154A4EB135CDFF81CE1E2
:103520001EEA430F18BF9EEA445F00F0748021EA50
:10353000045123EA0E0343F48013DCF1200E32D34E
:1035400022FA0CFE10EB0E0023FA0CFE41EB0E01EA
:10355000CCF1200E03FA0EFE10EB0E00CCF1200E83
:1035600051F10001B1F5801F32D201EB045112FA82
:103570000EF2BDE8104058BF7047401C38BF5FEAEC
:10358000420218BF7047002814BF20F0010041F12B
:1035900000014FEA410313F5001F38BF7047A1F146
:1035A000C04100F0C1BB012A43EB0302ACF1200C87
:1035B000DCF11F0E32BF4FF0000E23FA0CF310EBBC
:1035C000030041EB0451B4EB115FD0D0A1EB0451E7
:1035D00001F58011490801EB04515FEA30000ED378
:1035E00050F1000038BF12FA0EFE08D1BDE81040BD
:1035F000C9E7401C38BF5FEA4202CAD1C3E7BDE851
:1036000010404FEA410313F5001F38BF7047A1F186
:10361000C04100F089BB9EEA445F08D011EA5E0F0A
:10362000BDE8104004BF01F0004100207047BDE834
:10363000104070B500F02AFB64FBBE3E0000E0FFC6
:1036400002494FF0000001F0CAB900BF0000F87F46
:10365000491058BFC1F140415B1058BFC3F140430E
:103660008B42EFF3008070472DE9C04130B4DFF8A2
:10367000A4C23CEA111418BF3CEA131400F0ED8018
:103680001CEA111481EA030544EAD57418BF1CEA48
:10369000131500F0C880A4EB050404F17F7404F551
:1036A00000344FF0004545EAC12145EAC32341EA11
:1036B000505143EA52534FEAC0204FEAC222994286
:1036C00008BF904200F09D804FEA13650FF2441648
:1036D000765D4FEA134506FB05F7C7F1807706FBD9
:1036E00007F74FEAD737A7FB03687642A7FB06CE5A
:1036F000C8F5803838BFA8F1010807FB08E6A6FB2B
:10370000028C4FF0000EE6FB03CEDCF1000CCEF194
:10371000004E38BFAEF1010EA6FB0C584FF000076B
:10372000E6FB0E87A1FB08C6A0FB07CE16EB0E0634
:103730004FF0000545F10005E1FB076515F1E04E8E
:103740007EBFA4F580345FEA46066D4116F180071E
:1037500045F100054FEA172747EA05674FEA1525A7
:103760004FEA0666A6F1DE46B6F1805F20D93846FC
:1037700005EBC47124F0010C01EB0C11BCF1FE6FE0
:1037800002D8F0BCBDE8008124425CBF01F5801E78
:103790009EEAC47F02D4F0BCBDE80081244200F15F
:1037A0003980A1F1C041F0BCBDE8004100F0BCBAD5
:1037B0004FEAD02040EA41504FEAD1214FEAD222CD
:1037C00042EA43524FEAD323A7FB028607FB036674
:1037D00005FB02661EEA0E0F58BFA6EB0056B6EBBD
:1037E00000564FEA520E4EEAC37E18EB0E0E56EB11
:1037F000530EBCD518EB02085E417F1C55F1000545
:10380000B5E74FF480154FF000074FF000064FF07A
:103810000008ACE701F1C04101F000414FF00000A9
:10382000F0BCBDE800810CEA131511EA0C1F00D0B2
:103830000CE013EA0C1F00F026804FF0000081EA34
:10384000030101F00041F0BCBDE80081F0BCBDE81F
:10385000004181EA030100F067BAF0BCBDE8004115
:1038600070B500F013FA00BF097EFC3E00F007B807
:103870004FF0000081EA030101F00041704781EA46
:10388000030100F051BAF0BCBDE8004122494FF0FD
:1038900000007047FFFDFBF9F7F5F4F2F0EEEDEBF9
:1038A000E9E8E6E4E3E1E0DEDDDBDAD8D7D5D4D33E
:1038B000D1D0CFCDCCCBCAC8C7C6C5C4C2C1C0BF8A
:1038C000BEBDBCBBBAB9B8B7B6B5B4B3B2B1B0AF90
:1038D000AEADACABAAA9A8A8A7A6A5A4A3A3A2A174
:1038E000A09F9F9E9D9C9C9B9A999998979796952F
:1038F00095949393929191908F8F8E8E8D8C8C8BCB
:103900008B8A898988888787868585848483838252
:10391000828181800000FF070000F87F51EA030CDC
:1039200017D41CF5801F58BFBCF5801F00F106801E
:10393000994218BF704708BF9042704707D711F5EA
:10394000801F58BF13F5801F19D4994270478942D0
:1039500070471CF5801F08D5BCF5801FF7D58B423A
:1039600018BF704708BF824270474FF4001C1CEB21
:10397000410F38BF1CEB430F01D28B42704770B52B
:1039800000F084F9922449004FF000514FF0805329
:10399000FFF75EBE4FEA41034FEA5353A3F580633E
:1039A000D3F11E03C8BFD3F1210C0CDD4FF0004250
:1039B00042EAC12242EA505232FA03FC8CEAE17C2C
:1039C000ACEBE1707047102BC4BF0020704703F5CB
:1039D000787CBCF1FF3F04D06FF0004282EA210006
:1039E000704770B500F052F949922480002070476A
:1039F000F2E710F0004248BF4042B0FA80F310FAFC
:103A000003F10AD0C3F11D0303F5806302EB0352F7
:103A10004FEA415002EBD12170474FF00000704750
:103A2000B0FA80F310FA03F10AD0C3F11D0303F5D5
:103A300080634FEA03524FEA415002EBD1217047B5
:103A40004FF000007047000051EA030C17D41CF53A
:103A5000801F58BFBCF5801F00F10680994218BF37
:103A6000704708BF9042704707D711F5801F58BFB5
:103A700013F5801F19D499427047894270471CF58D
:103A8000801F08D5BCF5801FF7D58B4218BF704743
:103A900008BF824270474FF4001C1CEB410F38BF37
:103AA0001CEB430F01D28B42704770B500F0EEF86B
:103AB000922449004FF080514FF00053FFF7C8BDEA
:103AC00051EA030C17D41CF5801F58BFBCF5801FAA
:103AD00000F10680994218BF704708BF90427047B6
:103AE00007D711F5801F58BF13F5801F19D49942CD
:103AF0007047894270471CF5801F08D5BCF5801FB0
:103B0000F7D58B4218BF704708BF824270474FF409
:103B1000001C1CEB410F38BF1CEB430F01D28B4242
:103B2000704770B500F0B2F8922449004FF0005190
:103B30004FF08053FFF78CBD70B5DFF848C11CEA29
:103B4000111E1EBF1CEA13159EEA0C0F95EA0C0FFE
:103B500000F06F8081EA03044EEAD47EAE4421EA8D
:103B60004C1123EA4C1341F4801143F48013AEF15D
:103B70007F7EA1FB024CA0FB0365361955EB0C05BB
:103B8000A1FB034C4CF10003A0FB021C16EB0C063E
:103B9000654153F10003094218BF46F0010613F4D2
:103BA000007F0BD14FEA03314FEA053041EA15514E
:103BB00040EA165034036FF003020AE04FEAC321D3
:103BC0004FEAC52041EA555140EA5650F4026FF0E1
:103BD000020202EB2E4201EB025585EACE710AD0B9
:103BE0005FEA440C18BF24F0004450F1000041F19A
:103BF000000120EAD47040F2FE7C624500D270BD24
:103C0000A84214BF4FF080444FF04044002E08BF3C
:103C10000024BEF1806FA8BFA1F1C041BDE8704093
:103C200080F2828001F1C04101F000414FF00000BC
:103C300070470CEA13159EEA0C0F18BF95EA0C0F9B
:103C400006D081EA030E4FF000000EF0004170BD77
:103C500000F01CF88900013E00F007B800F009B838
:103C60004FEA430C5FEA5C5C08D081EA030100F094
:103C70005BB84FEA410C5FEA5C5CF6D102494FF059
:103C8000000070470000FF070000F87F0EF1020EF1
:103C90002EF0030E5EF8046B364205D4012A43EB86
:103CA000030515F5001F12D8012841EB010C1CF586
:103CB000001F0CD80ED14FEAD17C0CEB4C0C0CF150
:103CC000020C15F5001F08BF4CEBD37C04E04FF04D
:103CD000080C01E04FEAD37C0CEB4C0526FA05F604
:103CE00006F00706B6F1040C06D20EEB860CBDE812
:103CF00070404CF0010C6047DFE80CF0090B020249
:103D00004FF00041A1F500214FF0000070BD1946B1
:103D10001046012851EB010418BFD4F5001484BFEC
:103D2000002001F0004170BD0808A0F500114FEA25
:103D30003101704710B591EA030F81F000413FF562
:103D4000DFAB83F0004300F0EFB800002DE9F04155
:103D500001F5801CBCF5001FC0F2C3804FEA115C66
:103D600021EA0C5141F480110CF1FD0C5FEA5C0C6E
:103D70000CF5C07C01D340004941890241EA9051D1
:103D800087023BA48E0EA45D0A0C04FB04F602FB22
:103D900006F6C6F14046A4FB0662F60D46EA422648
:103DA00006FB06F4A4FB01235242C3F1404338BF93
:103DB0005B1EA6FB02420024E6FB0324D20B42EA70
:103DC0004446A6FB0623A1FB02E2A3FB07E4A418DA
:103DD0004FF0000252F10002E3FB01426442C2F1E3
:103DE000404E38BFAEF1010EA6FB04234FF0000297
:103DF000E6FB0E32A2FB0346B6194FF0000454F165
:103E00000004E2FB0264A1FB06E6A4FB07E816EB54
:103E100008064FF0000858F10008E4FB01687642FC
:103E2000C8F1405838BFA8F10108A2FB06E4A3FB83
:103E300008E52D194FF0000454F10004E2FB08548A
:103E4000A1FB05E6A7FB04E818EB06084FF0000607
:103E500056F10006E1FB048618F1200556F1000634
:103E6000A80940EA8660B109A8F11B0808F03F08DC
:103E7000B8F10A0F1CD901EB0C51BDE8F08100BF6D
:103E8000FCF5EEE8E2DDD8D3CFCBC7C3C0BDB9B6F1
:103E9000B4B1AEACA9A7A5A3A19F9D9B9A989695F6
:103EA0009392908F8D8C8B8988878685848382817D
:103EB000A0FB006800FB01F208EB4208B8EB872882
:103EC00007D5341858EB0104D5D5401C51F1000139
:103ED000D1E7341A78EB0104CDD4401E71F1000112
:103EE000C9E75FEA4C0C5FEA9C5C0DD105D301F099
:103EF00000414FF00000BDE8F081BDE8F04170B531
:103F0000FFF7C4FE6DDBFFBEBDE8F04101494FF095
:103F1000000070470000F87F10B591EA030F48BF1A
:103F200083F000433FF5ECAA841A71EB030C07D22F
:103F30008CF0004C121943EB0C03001B61EB0C01DD
:103F40004FEA1154A4EB135CDFF8A4E11EEA430F1F
:103F500018BF9EEA445F00F0B48021EA045123EACE
:103F60006E035242C3EB6E0338BF5B1EDCF1200EC2
:103F700025D322FA0CFE10EB0E0043FA0CFE41EBA7
:103F80000E01CCF1200E03FA0EFE10EB0E00CCF168
:103F9000200E51F1000129D401EB045112FA0EF266
:103FA000BDE8104058BF7047401C1CBFB2F1004F25
:103FB000704700280CBF491C20F00100704712EB2D
:103FC000020E43EB030218BF4FF0010E4EEA42020D
:103FD000ACF1200CDCF11E0E56D943FA0CFE10EBAE
:103FE0000E00CCF11E0E51F1FF31D5D50EF1010EB0
:103FF00012FA0EFE404141EB010101EB445C5FEA25
:104000005C5C10D901EB045110EBDE7038BFBEF1DF
:10401000004FBDE8104018BF704700280CBF491C76
:1040200020F00100704734D24FEAD42C24F400640D
:1040300011F500111BD0B1FA81F20B3AA41AA41E9B
:10404000D2F12003914030FA03F31943904001EB81
:10405000CC7101EB0451002CBDE81040A8BF7047A3
:1040600001F1C04101F000414FF000007047B0FA8B
:1040700080F310FA03F102D1BDE810407047E41A52
:10408000173C4805C90AE2E701EB0451BDE81040BE
:10409000704749104FEA300001EB0451BDE8104071
:1040A00002E04FF0000170474A0008BF0042F8D01C
:1040B000B2F5001F28BF704701F000414FF000002B
:1040C00070479EEA445F07D011EA5E0FBDE81040DA
:1040D00004BF002100207047BDE8104070B5FFF715
:1040E000D5FD00BF40DFF63E104683F0004170472B
:1040F0000000E0FF90EA010F48BF81F0004100F1AD
:10410000FC83421A3CBF801A89184FEAD052A2EBB6
:10411000D1534FF07F4C1CEA410F18BF9CEA026F4D
:1041200000F03B804FF0004C4CEA00204CEA0121AB
:1041300021FA03FC10EB0C0C1ED202F1FF325FEAF5
:104140001C2040EBC25038BF70471CF07F0F4FEA75
:10415000400C18BFBCF17F4F38BF7047C3F120033C
:10416000994008BF20F00100BCF17F4F38BF704775
:10417000A0F1C04000F0F3BA4FEA3C00000A40EB67
:10418000C25028BF1CF0FF0F4FEA400CE6D018BF0A
:10419000BCF17F4F38BF7047EAE79CEA026F05D059
:1041A00010EA5C0F08BF00F00040704710B500F047
:1041B00090FA00BF64FBBE3E014800F010BC00BF97
:1041C0000000C07F10B5FFF7A9FB0CBF0120002045
:1041D00010BD10B5FFF7A2FB14BF0120002010BDD9
:1041E00010B5FFF731FC8CBF0120002010BD10B5C9
:1041F000FFF72AFC2CBF0120002010BD10B5FFF7EF
:104200005FFC94BF0120002010BD10B5FFF758FCE3
:1042100034BF0120002010BD10B500F0F5F80CBF30
:104220000120002010BD10B500F0EEF814BF0120F1
:10423000002010BD10B500F063F98CBF01200020F4
:1042400010BD10B500F05CF92CBF0120002010BD9E
:1042500010B500F089F994BF0120002010BD10B501
:1042600000F082F934BF0120002010BD401058BF7B
:10427000C0F14040491058BFC1F140418142EFF3C5
:10428000008070474FF47F0C1CEAD0121EBF1CEA5E
:10429000D11392EA0C0F93EA0C0F00F0858090EA9C
:1042A000010F48BF42F4807240F4000C41F400005A
:1042B0002CF07F4120F07F4000B5A2EB0302814249
:1042C0000FF2081CACEB504E9EF800E0C0F100006D
:1042D0004FEA4E0E00FB0EFC38BF49004FEA2C1C83
:1042E0000CFB0EF34FEACE1E0EEB635E4FEA112C71
:1042F0000EFB0CFC4FEAC1214FEA1C5300FB0311DB
:1043000002F5FA024FEA112C0EFB0CFC4FEA0131C8
:104310004FEADC4C00FB0C1142EB2242C14228BFA9
:1043200009184CEB03335DF804EB10EB410143EB50
:10433000C250B2F57C0F38BF704729D512F0F00F8C
:104340001CBF00F1C04000F0004070470081828334
:104350008485868788898B8C8D8E8F919293959694
:1043600097999A9C9D9FA0A2A3A5A7A8AAACAEB01E
:10437000B2B3B5B7B9BCBEC0C2C5C7C9CCCED1D423
:10438000D7D9DCDFE2E6E9ECF0F3F7FAFE00000053
:104390004FEA400C0CF1807CBCF17E4F28BF704787
:1043A000B0F1C04000F0DBB90CEAD11390EA010F84
:1043B00048BF42F48072624538BF634507D213F4A8
:1043C0007F0F16D080EA010000F00040704710B562
:1043D00000F07FF9097EFC3E00F005B880EA01009C
:1043E00000F00040704780EA010000F0004000F05B
:1043F000B6B912F47F0F04BF0248704780EA01008B
:1044000000F0ADB90000C07F50EA010C00F113804C
:104410001CF5000F58BFBCF5000F01D4884270474F
:1044200007D710F5000F58BF11F5000F15D48842BB
:104430007047894270471CF5000F04D5BCF5000F8A
:10444000F7D5814270474FF0807C1CEB400F38BF9E
:104450001CEB410F01D28142704710B500F039F9D1
:10446000922449004FF000504FF08051FFF7FEBEFC
:1044700041000B0ED3F19E0208D950F400034FEA1D
:10448000032323FA02F048BF4042704710B500F002
:1044900020F900BF49922480002070476FF000424D
:1044A00082EA20007047000010F0004148BF4042FF
:1044B000B0FA80F310FA03F2C3F19D030BD051EA76
:1044C000C35101EB1220530638BF704700F10100C1
:1044D00008BF20F001007047B0FA80F310FA03F231
:1044E000C3F19D030AD0D90501EB1220530638BF52
:1044F000704700F1010008BF20F001007047000084
:1045000050EA010C00F113801CF5000F58BFBCF5F8
:10451000000F01D48842704707D710F5000F58BF2D
:1045200011F5000F15D488427047894270471CF579
:10453000000F04D5BCF5000FF7D5814270474FF04E
:10454000807C1CEB400F38BF1CEB410F01D2814235
:10455000704710B500F0BDF8922449004FF080502C
:104560004FF00051FFF782BE50EA010C00F11380BA
:104570001CF5000F58BFBCF5000F01D488427047EE
:1045800007D710F5000F58BF11F5000F15D488425A
:104590007047894270471CF5000F04D5BCF5000F29
:1045A000F7D5814270474FF0807C1CEB400F38BF3D
:1045B0001CEB410F01D28142704710B500F089F821
:1045C000922449004FF000504FF08051FFF74EBE4B
:1045D0004FF47F0C1CEAD0121EBF1CEAD11392EAE2
:1045E0000C0F93EA0C0F00F0478090EA010F48BFD0
:1045F00042F480724FF0004C4CEA00204CEA01215A
:1046000002EB0302A0FB0113A2F50002002918BF70
:1046100043F001035B0028BF4FEA330342EB224221
:104620005FEA132C4CEBC2502EBFBCEB436FB2F5CC
:104630007C0F70474FEA036CBCF1004F08BF20F0BD
:104640000100B2F57C0F38BF70470BD582F0FF0236
:1046500012F5803FC8BF704700F1C040D8BF00F0DE
:104660000040704700F5000C5FEA4C0C48BF7047F3
:10467000B0F1C04000F073B80CEAD11390EA010F1A
:1046800048BF42F48072624538BF634504D280EA75
:10469000010000F00040704710B500F01AF800BFAC
:1046A0008900013E00F007B800F009B85FEA410C4C
:1046B0005FEA1C6C08D080EA010000F050B85FEAA5
:1046C000400C5FEA1C6CF6D14FF00040A0F5800072
:1046D00070470EF1020E2EF0030E5EF8044B2442DA
:1046E00004D44FEA4102B2F17F4F11D84FEA4003A0
:1046F000B3F17F4F0CD80ED14FEAD07C0CEB4C0CB1
:104700000CF1020CB2F17F4F08BF4CEBD17C04E0FE
:104710004FF0080C01E04FEAD17C0CEB4C0324FA7B
:1047200003F404F00704B4F1040C06D20EEB840C7D
:10473000BDE810404CF0010C6047DFE80CF00708C2
:1047400002024FF00040A0F5800010BD0846420074
:1047500018BFD2F1807288BF00F0004010BDFF2169
:1047600041EAD050C00570475FEA400C5FEA1C6C1C
:10477000BCF17F0314D4D3F1170240F31C804FF037
:10478000010C0CFA02FCACF10103034020EA030027
:10479000B3EB5C0208BF10EA0C0F88BF604470479F
:1047A000B3F1FF3F28BF5FEA002C00F0004088BF54
:1047B00040F07E507047BCF1FF0FB8BF704710B596
:1047C000FFF787FF40DBB6BE80F0004090EA010FA4
:1047D0007FF597AC81F0004100F08FB84FEAD051DF
:1047E000002988BFD1F1FF0240F275804FEA002016
:1047F00040F0004070B501F17D01490838BF400824
:104800000EA2430ED25C040C02FB02F304FB03F382
:10481000C3F14043A3FB0254ED0D45EA442202FBE1
:1048200002F3A0FB03546D42C4F1404438BF641E40
:10483000A2FB05350023E2FB0453EA0B42EA4342A4
:10484000A0FB023212F14004E409A2F1210303F0BB
:104850007F031F2B32D904EBC15070BDFEFAF7F372
:10486000F0ECE9E6E4E1DEDCD9D7D4D2D0CECCCA94
:10487000C8C6C4C2C1BFBDBCBAB9B7B6B4B3B2B082
:10488000AFAEACABAAA9A8A7A6A4A3A2A1A09F9EC5
:104890009E9D9C9B9A9998979796959493939291A5
:1048A00090908F8E8E8D8C8C8B8A8A898988878751
:1048B00086868584848383828281818004FB04F6DA
:1048C000B6EB004603D5E64248BF641CC3E7A642E8
:1048D00058BF641CBFE711F0FF0F02D100F0004089
:1048E000704710B5FFF7F5FE7FDBFFBE90EA010FC2
:1048F00048BF81F000413FF504AC421A04D882F071
:104900000042A0EB020011444FEAD052A2EBD15377
:104910004FF07F4C1CEA410F18BF9CEA026F4AD04F
:104920004FF0004C4CEA00204CEA012121FA03FC34
:10493000B0EB0C0C0FD412F0FE0F36D05FEA4C0037
:104940001DD5001240EBC25038BF70471CF03F0F1E
:1049500018BF70470BE05FEA1C20A2F1010240EB98
:10496000C25038BF70471CF07F0F18BF7047C3F1AB
:104970002003994014BF401E20F0010070474FEA09
:104980001223800808BF7047B0FA80FCA2EB0C022B
:10499000CCF1280C60FA0CF093EA122F04BF00EB64
:1049A000C25070474FEAC3707047130A5FEADC10C9
:1049B00008BF7047F6E79CEA026F04D010EA5C0F6C
:1049C00008BF0020704710B5FFF783FE40DFF63EBA
:1049D00081F000407047FCF70FB9FCF743BA0CF0C8
:1049E0000F03092B08BF082000F07F800A2B0BD093
:1049F000082B18BF704708BF1CF0400F0AD04FF0BB
:104A000000004FF0000170471CF0400F18BF4FF03E
:104A1000004070471CF0100F08D000F07F4220F0DB
:104A2000704342EAD3014FEA4370704700F06040A0
:104A300021F07F4242EA000201F07F4040EA7270BA
:104A400070474FF0FF0C4CF4E06C1CEA11531CBF94
:104A50009CEA030C9445C2BFDA4201EB0251704755
:104A6000002B0DD0BCF1000F0FD001F00041002A47
:104A7000A4BF41F0E04141F07F614FF0000070477A
:104A800001F000414FF00000704750EA01334FF051
:104A90009B0C18BF4CF0806C7EF4D2AD70474FF089
:104AA000FF0212EAD0521CBF92F0FF038B42C2BF3A
:104AB000D14200EBC1507047002A0AD0002B0BD026
:104AC00000F000400029A4BF40F0FE4040F4000088
:104AD000704700F00040704743024FF00B0C18BFC6
:104AE0004CF0806C7FF468AB70471CF4801F11D0D1
:104AF0001CF4E02F03D06FEACC31490070474FF02F
:104B00004050EFF3008222F0704242EA000282F34A
:104B1000008870474FF00000704700000000000060
:104B2000555555555555C53F7D6FEB0312D6D4BF2E
:104B30005544880E55C1C93F3B8F68B52882A4BF34
:104B400088B20175E0EF493F09F7FD0DE13D023FF5
:104B50004B2D8A1C273A03C0C88A599CE52A00407D
:104B600059018D1B6C06E6BF82922EB1C5B8B33FCA
:104B7000555555555555C53F7D6FEB0312D6D4BFDE
:104B80005544880E55C1C93F3B8F68B52882A4BFE4
:104B900088B20175E0EF493F09F7FD0DE13D023FA5
:104BA0004B2D8A1C273A03C0C88A599CE52A00402D
:104BB00059018D1B6C06E6BF82922EB1C5B8B33F7A
:104BC0000000000000000000303132333435363749
:104BD0003839414243444546403058003031323341
:104BE0003435363738396162636465664030780041
:104BF00004000008000000000000000200010000A6
:104C0000100000000000000000004054FB21F93FAC
:104C10003163621A61B4D03D0000601A61B4D03DC6
:104C20007370032E8A19A33B0000002E8A19A33B40
:104C3000C14920259A837B39000000000000000054
:104C40006E83F9A22915444ED15727FCC0DD34F5F7
:104C5000999562DB4190433CAB6351FE61C5BBDE7D
:104C60003A6E24B7E0D24D42EA2E49061C92D10991
:104C70001CEB1DFE3EA729B1F53582E88444BB2E0E
:104C800026709CE9417E5FB439D69139F43953835B
:104C90008B5F849C3B28F9BDFF97F81F0F9805DEBA
:104CA0008B112FEF1F6D0A5ACF7E366DB709CB27B8
:104CB000663F464F2DEA5F9EC7BA27757BF1E5EB4D
:104CC000F739073DEA92528AB15FFB6B085D8D1F91
:104CD00046300356000000006E83F9A22915444EA9
:104CE000D15727FCC0DD34F5999562DB4190433CF8
:104CF000AB6351FE000000007AFE10111111C13F9C
:104D000037D60684F464963F280356C9226D6D3F5A
:104D10000165F2F2D844433FA69237A0887E143F43
:104D2000735360DBCB75F3BEFE41B31BBAA1AB3F3F
:104D300093846EE9E326823F1583E0FEC8DB573F8C
:104D400068108D1AF726303FE9A7F0320FB8123FEE
:104D5000D47ABF74702AFB3E303132333435363763
:104D6000383961626364656678700030313233349B
:104D700035363738394142434445465850000000E3
:104D800002400000000000A00000000005400000FC
:104D9000000000C8000000000C4000000000409C23
:104DA00000000000194000000020BCBE0000000010
:104DB00034400000BFC91B8E00000004B540000055
:104DC000504BCFD06607E2CF010000006C410000DD
:104DD0003E8251AADFEEA73401000000D942000054
:104DE000DCB5A0E23A301F97FFFFFFFFB44500009B
:104DF000FD25A0C8E9A3C14FFFFFFFFFFF3F000053
:104E00000000008000000000FF3F00000000008064
:104E10000000000053797374656D496E69742065F4
:104E20006E64210A00706C6561736520696E70752F
:104E30007420666C6F6174202B2D2A2F3D0A007040
:104E40006C6561736520696E70757420696E74207D
:104E50002B2D2A2F3D0A007465737420646F7562D0
:104E60006C65202A204F4B0A007465737420666CB1
:104E70006F6174202A204F4B0A007465737420649C
:104E80006F75626C65202F204F4B0A007465737438
:104E900020666C6F6174202F204F4B0A007465737D
:104EA0007420666C6F61742074616E66204F4B0ACB
:104EB000007465737420666C6F6174206173696E31
:104EC00066204F4B0A007465737420666C6F6174C2
:104ED0002061636F7366204F4B0A00746573742002
:104EE000646F75626C652074616E204F4B0A0074AC
:104EF00065737420646F75626C65206173696E20E0
:104F00004F4B0A007465737420646F75626C652082
:104F100061636F73204F4B0A0025642F25643D2584
:104F2000642025252025640A0025642A25643D2562
:104F3000640A0025642B25643D25640A0025642D40
:104F400025643D25640A00736C65657020656E6498
:104F50000A0025662A25663D25660A0025662B255A
:104F6000663D25660A0025662D25663D25660A00F4
:104F700025662F25663D25660A00736F66745F7689
:104F800065723A2575206370755F7665723A25758E
:104F900020666C6173685F7665723A25780A002531
:104FA000782625783D25780A0025785E25783D25E8
:104FB000780A0025787C25783D25780A00736C6591
:104FC0006570202575206D73207374617274203EA6
:104FD0003E20002500313D3D3000645F763D3D3090
:104FE0002E36363134373231383232373638303780
:104FF0003300645F763D3D302E34333339393138F8
:105000003939373436363138383400645F633D3DE2
:10501000302E343633343631343339383438343151
:1050200030323600645F633D3D302E3434383931E0
:1050300039303033323234383337393600645F63D5
:105040003D3D312E31323138373733323335373019
:1050500030353838006E6F745F737570706F7274AE
:105060003A3C25753E203C25643E3C25633E3C256C
:10507000643E3D002564256325643D00723A256643
:10508000206E6F7420737570706F72743A25662588
:105090006325663D003C256572726F72253E002EC9
:1050A0002E2F2E2E2F55736572732F6D61696E2E04
:1050B0006300665F633D3D302E3132353635353124
:1050C000336600665F763D3D302E31323139333202
:1050D0003633336600665F633D3D312E34343534FC
:1050E000363835346600665F763D3D302E313235D8
:1050F0006600665F633D3D302E31323533323738DE
:105100003236660025730000585200080000002067
:10511000180000005001000870520008180000201C
:10512000E0080000700100081C00000043000000BF
:10513000F8FFFFFF0C0000000E0000000F00000051
:105140002E0000001001000043000000F8FFFFFFE8
:10515000004040404040404040404141414141408A
:10516000404040404040404040404040404040403F
:1051700040050202020202020202020202020202CE
:1051800002202020202020202020200202020202D3
:10519000020290909090909010101010101010102B
:1051A0001010101010101010101010100202020237
:1051B000020288888888888808080808080808087B
:1051C0000808080808080808080808080202020277
:1051D000400000000000000000000000000000008F
:1051E00000000000000000000000000000000000BF
:1051F00000000000000000000000000000000000AF
:10520000000000000000000000000000000000009E
:10521000000000000000000000000000000000008E
:10522000000000000000000000000000000000007E
:10523000000000000000000000000000000000006E
:10524000000000000000000000000000000000005E
:105250000000000000000000AF34103F3625E13FA1
:1052600082932A45CAC0F33FEAD6FC3DEAD67C3F8A
:04000005080000ED02
:00000001FF
