:020000040800F2
:10000000F0140020ED010008290200082B0200086E
:100010002D0200082F020008310200080000000035
:100020000000000000000000000000003302000893
:1000300035020008000000003702000839020008FD
:100040003B0200083B0200083B0200083B0200089C
:100050003B0200083B0200083B0200083B0200088C
:100060003B0200083B0200083B0200083B0200087C
:100070003B0200083B0200083B0200083B0200086C
:100080003B0200083B0200083B0200083B0200085C
:100090003B0200083B0200083B0200083B0200084C
:1000A0003B0200083B0200083B0200083B0200083C
:1000B0003B0200083B0200083B0200083B0200082C
:1000C0003B0200083B0200083B0200083B0200081C
:1000D0003B0200083B0200083B0200083B0200080C
:1000E0003B0200083B0200083B02000800F002F857
:1000F00000F06CF814A696E8000CB244B344DA455C
:1001000001D100F063F8BAE80F000FA696E83000BE
:10011000A5EB040504EB0607AAEB0704A7F101070A
:100120004FEA15154FEA3414A4F10104AC4201D38F
:1001300000F04CF813F0010F18BFFB1A43F0010355
:1001400000F001F8DBE71847781A0000981A000061
:10015000103A24BF78C878C1FAD8520724BF30C8F3
:1001600030C144BF04680C60704700007047000055
:100170000023002400250026103A28BF78C1FBD8B0
:10018000520728BF30C148BF0B607047662901F095
:100190009984642900F0CE80752900F0CB807829FD
:1001A00000F00481632900F0FC83732900F00184CE
:1001B000002070471FB500F07FF9040000200021E7
:1001C00001F06AFCE0601FBD10B510BD00F07EFDBF
:1001D0001146FFF7EFFF00F093FF00F09CFD03B422
:1001E000FFF7F2FF03BC00F03BFF00004FF0000000
:1001F0004FF000014FF000024FF000034FF00004F9
:100200004FF000054FF000064FF000074FF00008D8
:100210004FF000094FF0000A4FF0000B4FF0000CB8
:100220000948804709480047FEE7FEE7FEE7FEE78A
:10023000FEE7FEE7FEE7FEE7FEE7FEE704480549C6
:10024000034A054B70470000F10D0008ED0000085F
:10025000F00C0020F0140020F00C0020704700008B
:100260000FB4044910B503AA029800F0A7FB10BC14
:100270005DF814FB680000202DE9F0410E460446AD
:10028000002020622046E168884730B3252805D049
:10029000D4E901219047206A401CF2E7E16820463A
:1002A00000278847050018D0A5F14100192802D879
:1002B00020354FF400673246294620462760FFF775
:1002C00065FF40B1012804D0F61D26F00706083668
:1002D000D8E7361DD6E72846DAE7206ABDE8F08180
:1002E00070B50C460546012A05D02878800600D551
:1002F000EA69002302E0012305E05B1C934202D27D
:10030000E05C0028F9D1A869E618C01AA861286A3B
:10031000184428622846AFF3008004E0D5E90121A3
:1003200014F8010B9047B442F8D32846AFF300808D
:1003300070BD00002DE9F0410646002410687529C3
:10034000314616A510D0AFF30080002802DA4042F3
:1003500013A507E031688A0701D512A502E0490715
:1003600004D511A5012401E0AFF3008000210A2289
:1003700006F1240709E0B0FBF2FCB0FBF2F302FB4C
:100380001C00303078541846491C0028F3D123460D
:100390002A463046BDE8F04100F092B80000000067
:1003A0002D0000002B0000002000000070B5044666
:1003B0000D4621461068AFF300802188090502D55B
:1003C0000F4A7A4402E00E4A7A440E32002104F1C8
:1003D000240305E000F00F060009965D5E54491CF9
:1003E0000028F7D120780023000704D5702D02D013
:1003F00009B1022311322046BDE8704000F060B818
:100400000217000010B5044603E000F049FE401C4E
:1004100009D014F8010B05490028F6D1BDE81040B9
:100420000A2000F03DBE4FF0FF3010BD68000020F4
:100430000EB5054614460E4613A000F0DCFA284619
:1004400000F0D9FA16A000F0D6FA304600F0D3FA40
:1004500015A000F0D0FA00218DF80B100A210DF143
:100460000A008DF80A1008E094FBF1F201FB124239
:1004700094FBF1F4303200F8012D002CF4DC00F094
:10048000BAFA00F0ADFA00002A2A2A2061737365D7
:100490007274696F6E206661696C65643A20000051
:1004A0002C2066696C6520002C206C696E6520002C
:1004B0007047704770477047004870472800002019
:1004C0002DE9F0470D4699469246044600F124086E
:1004D0000168880604D5E06921F01001216000E080
:1004E0000120A84201DD471B00E00027A1697A191D
:1004F00002EB0900081AA0612078C00602D4204649
:10050000AFF30080002608E0D4E901211AF80600C4
:100510009047206A401C761C20624E45F4DB207810
:10052000C0060AD52046AFF3008006E0D4E90121D9
:1005300030209047206A401C2062381EA7F1010736
:10054000F4DC07E0D4E9012118F805009047206A9F
:10055000401C2062281EA5F10105F3DC2046AFF304
:1005600000802078000602D50220BDE8F087012037
:10057000FBE72DE9FF4F0C461E464FF0FF378BB0CF
:10058000D2E90001DDF860800A908A46C1F30A557D
:1005900005B93D46002108464FF00000BAF1000FB2
:1005A00000F4400005DA00EB80004FF4400101EA5E
:1005B00050004FEA9059B9F1010F00DDB9460A9891
:1005C00050EA4A000ED044F61050A5F2FF354543DC
:1005D0002F14B8F1000F1ED07542291E1EDDC9F17F
:1005E00000021CE0B8F1010F4FF0000001D03021F3
:1005F00003E0F24305E02154401CB042FBDB3046EF
:100600000022002121540B99C1F80880C1E9002083
:100610000FB0BDE8F08FBD1B6D1CDEE74A4600DA67
:10062000694206A800F094FA06AB93E8070003AB12
:1006300083E8070050460A9900F052FE8DE8070053
:10064000A0F500501F3800900398002D0ADD42F2FB
:100650001F014A460844002303A90390684601F09D
:10066000BBF809E0A0F500504A461F38002303A953
:100670000390684601F0C5F88DE807000004000CFF
:1006800003D04FF0FF30410800E01046B8F1000FF2
:1006900003D00022009215461EE0751E05D400F01E
:1006A000B9F9303262556D1EF9D5B34601220843BF
:1006B00002D000227F1C04E02078302801D10022E3
:1006C0007F1E002A099784D01DE0112D07DA00F063
:1006D000A1F9303262556D1C50EA0102F5D1084390
:1006E00002D00098C8B10EE00021681E05E0235C2E
:1006F000625C63542254401E491C8142F7DBAB46C6
:10070000A81B401E0990002004F80B000B98099AC2
:10071000C0F80880C0E9002B7AE711264FF00008E6
:1007200057E72DE9F04F88460446D21D22F0070115
:1007300091B0D1E90001CDE90A0101F099F9024631
:100740000B98C00F01D02D2007E02068810701D54C
:100750002B2002E0202101EAC000032A099001D0E9
:10076000072A05DB03464146204600F0B1F90BE1BC
:100770002078800601D5E06900E00620B8F1650F19
:10078000814606D0B8F1660F18D0B8F1670F70D166
:1007900031E00020B9F1110F009001DB112301E0DD
:1007A00009F101030AAA01A90CA8FFF7E2FEDDE99D
:1007B0000C70002609F10105834647E001204B46F5
:1007C00000904FF000470AAA01A90CA8FFF7D1FE3C
:1007D000DDE90DB00C995D46002610B909F1010064
:1007E0000D18B9EB050003D4C0F1FF3609F101057E
:1007F000A5EB09002BE0B9F1010F01DA4FF0010977
:100800000020B9F1110F0090484601DD112300E0EE
:1008100003460AAA01A90CA8FFF7ABFEDDE90C709C
:100820004D4600268346207800070AD4AB4500DAFF
:100830005D4601A8012D04DD411911F8011C302984
:1008400007D04F4502DA17F1040F04DA012082467F
:100850000FE06D1EEEE7002F02DCED1B3E4403E0CF
:10086000781CA84200DD7D1CB81B00F1010A4FF086
:1008700000472078000703D4AA4501DB4FF0FF3A78
:100880000021B7F1004F0DF143088DF8431024D03B
:1008900002202B23002F01DA7F422D230A21021E82
:1008A000A0F1010000DC5FB197FBF1FC97FBF1F2D6
:1008B00001FB1C7C17460CF1300C08F801CDEEE76B
:1008C000A8F1010003702188090501D5452100E048
:1008D0006521A0F1010800F8011C09980FA9A1EBFE
:1008E0000807FF1D00B10120411901EBEA70A16961
:1008F0003844081A401EA0612078C00602D4204661
:10090000AFF30080099828B1D4E901219047206A0B
:10091000401C20622078C00622D52046AFF300801C
:100920001EE0002E04DBB34502DD01A8805D00E07F
:100930003020D4E901219047206A401C2062761CB7
:10094000AAF101005FEA000A0AD1FFF7B5FDC0680D
:100950000168405CD4E901219047206A401C206274
:10096000281EA5F10105DCDC07E0D4E9012118F817
:10097000010B9047206A401C2062381EA7F1010736
:10098000F3DC2046AFF30080032011B041E610B540
:10099000436913B1AFF3008001E0FFF7A1FC012030
:1009A00010BD127800F124010A7000224A70012261
:1009B000EDE711684FF0FF32E9E70000074B70B533
:1009C0000D467B4400F071F80446284600F032F9E9
:1009D00010B14FF0FF3070BD204670BDDB06000047
:1009E00010B5002000F02AF9FFF7EEFBBDE810403B
:1009F000012000F035BB10B5044602E0641C00F095
:100A000031FB20780028F9D110BD00000048704764
:100A10000800002030B5B0F10A0271F100034FEA7E
:100A2000900E4EEA817EB0EB0E0061EB91014FEA31
:100A3000101E4EEA017E10EB0E0041EB11114FEA41
:100A4000102E4EEA016E10EB0E0041EB11214FEA21
:100A5000104E4EEA014E10EB0E0041EB11414018D2
:100A600041F100014FEAD00040EA41704FEAD10164
:100A70004FEA810444EA907410EB800544EB0104D2
:100A80006D1944EB0404521BA3414FF0000348BF0F
:100A90000A3200D530BD401C41F1000130BD0000DC
:100AA00001694A1C02610878704700B58FB0CDE932
:100AB00001310021059105497944CDE90310114622
:100AC0006846FFF7D9FB0FB000BD0000E5FFFFFF50
:100AD0002DE9F0411F46044603260168072A01F468
:100AE000006004DB08B116A505E016A503E008B117
:100AF00015A500E015A521F010002060A069C01E1A
:100B0000A0610FB1401EA0612046AFF300804FB13D
:100B1000D4E9012138469047206A401C2062C01C5D
:100B2000206206E0206AFAE7D4E9012115F8010BFA
:100B30009047761EF8D22046AFF30080BDE8F081E2
:100B40004E414E006E616E00494E4600696E660071
:100B50002DE9F047814616468AB0354878440DC8DD
:100B60008DE80D0032487844801C03AC0DC884E841
:100B70000D0041F69B300844372190FBF1F290FBC9
:100B8000F1F5A5F1800501FB12041B3C02D564427E
:100B9000012000E00020DFF898A080460027FA44FA
:100BA000AAF1BE0A0EE0E0070AD03246684607EB1B
:100BB000470101230AEB810100F023FE8DE80700C5
:100BC00064107F1C002CEED1194F7F44AE3F19E01A
:100BD000E80715D007EB04100DF1180A90E80E0095
:100BE0008AE80E00C068F04201D198190890324698
:100BF000012306A903A800F004FE03AB83E8070065
:100C00006D10641C002DE3D14FF00103324669469C
:100C1000B8F1000F03A802D000F0DEFD01E000F003
:100C2000F0FDC9E90001C9F808200AB0BDE8F08765
:100C30000C100000007B00F08000704710B500F041
:100C400079F8BDE8104000F06FB800004FF0013CAB
:100C500050F8042B51F8043B9A4221D1A2EB0C032B
:100C6000934313EACC1317D150F8042B51F8043BEB
:100C70009A4215D1A2EB0C03934313EACC130BD188
:100C800050F8042B51F8043B9A4209D1A2EB0C0313
:100C9000934313EACC13DBD04FF00000704700BF42
:100CA000D01A01BAB1FA81F101F0180122FA01F06B
:100CB000CB40DBB2C0B2C01AC1F120012CFA01F363
:100CC000D11A914311EAC311E6D170477546FFF777
:100CD0009DFEAE4605006946534620F00700854656
:100CE00018B020B5FFF7AAFABDE820404FF0000683
:100CF0004FF000074FF000084FF0000BAC46ACE897
:100D0000C009ACE8C009ACE8C009ACE8C00921F0F2
:100D100007018D46704710B50446AFF300802046AA
:100D2000BDE81040FFF75BBA002801D000F098B989
:100D30007047000010B5002102A000F013F8012058
:100D400010BD0000534947414252543A2041626E5F
:100D50006F726D616C207465726D696E6174696F1C
:100D60006E00000070B505460C460A2000E06D1CC0
:100D700000F078F935B128780028F8D102E0641C39
:100D800000F070F914B120780028F8D1BDE8704067
:100D90000A2000F067B900000120704780B50328E1
:100DA00023D840F2D00CC2F2000C40F2C0030CF188
:100DB000140E0021C2F20003DFE800F00F02091850
:100DC00040F2C8030CF11C0EC2F2000305E040F231
:100DD000C4030CF1180EC2F200031868DEF800100C
:100DE00001301860481CCEF800000121084680BD83
:100DF0004EF21000CEF20000016840F2BC0221F079
:100E00000101016040F20030C4F2000000684FF6BA
:100E1000FE51CDF6DA710844B0FA80F04109C2F211
:100E2000000202A01170FFF7EDBA00BF537973748E
:100E3000656D496E697420656E64210041F68430E9
:100E4000C0F600002A305F210122BFF35F8F00F05F
:100E5000D9B8000041F68430C0F600002A30532192
:100E60000122BFF34F8F00F0CDB8000041F684306F
:100E7000C0F600002A3047210122BFF36F8F00F037
:100E8000C1B8000041F68430C0F600002A302321AA
:100E9000012200BF00F0B6B810B582B040F61500D0
:100EA000C4F21170019001984EF6B96100BA009039
:100EB0000098CEF6F7210844B0FA80F0420941F6D6
:100EC0008430C0F6000000F12A042046862100F09C
:100ED00099F84FF00040019001988A2100BA0090E3
:100EE00000988038B0FA80F04209204600F08AF875
:100EF0008020019001988E2100BA0090009800F1A6
:100F00000040B0FA80F04209204602B0BDE810402F
:100F100000F078B810B582B040F61500C4F2117038
:100F2000019001984EF6F82140BA00900098CEF654
:100F3000B8610844B0FA80F0420941F68430C0F646
:100F4000000000F12A0420469D2100F05BF841F2E8
:100F500034200190019843F2124140BA0090009869
:100F6000401AB0FA80F042092046A12102B0BDE843
:100F7000104000F047B8000010B582B00020ADF876
:100F8000060044F21170ADF80600BDF80610081A0C
:100F9000B0FA80F0420941F68430C0F6000000F15A
:100FA0002A042046B02100F02DF84FF40040ADF89F
:100FB0000600BDF80600B421A0F50040B0FA80F0AC
:100FC0004209204600F01EF88020ADF80600BDF86A
:100FD0000600B8218038B0FA80F04209204600F0BF
:100FE00011F84EF6CC50ADF80600BDF80610081A00
:100FF000B0FA80F042092046BC2102B0BDE81040A2
:10100000AFF30080B0B50B460146B2FA82F040095A
:10101000440040F2D000C2F200003AB145697F2D91
:101020000ED800EBC5000162243008E085697F2DF1
:1010300006D800EBC500C0F8201400F2244003607D
:1010400040F20005C2F200052AB9D5F804C02046D6
:101050001A460023E0472968204688472046B0BD4D
:101060007047000040F2BC01C2F20001097819B1DA
:101070004FF08042126806E040F2CC02C2F2000259
:1010800013680133136040F20012C4F2000200BF83
:10109000136811B113F04003FAD041B251607047A8
:1010A00040F2BC01C2F20001097819B14FF0804250
:1010B000126806E040F2CC02C2F20002136801336B
:1010C000136040F20012C4F2000200BF136811B1B5
:1010D00013F04003FAD041B25160704740F2BC00B7
:1010E000C2F20000007818B14FF0804000687047ED
:1010F00040F2CC01C2F2000108680130086070477C
:1011000040F20420C4F20000D0F8FC104FF6FE526A
:10111000CDF6DA721144B1FA81F14A0940F2BC010C
:10112000C2F200010A70036813A03321FFF798F898
:101130004FF000004FF000014FF000024FF00003AD
:101140004FF000044FF000054FF000064FF000078D
:101150004FF000084FF000094FF0000A4FF0000B6D
:101160004FF0000C00F050F8642000F027F80CA0BD
:101170000DA1D722FFF75CF9736F66745F76657215
:101180003A2575206370755F7665723A257520661D
:101190006C6173685F7665723A25780A000000001A
:1011A000313D3D30000000002E2E2F2E2E2F557386
:1011B0006572732F6D61696E2E630000B0B50446D1
:1011C00008A02146FFF74CF8FFF788FF054600BF4F
:1011D000FFF784FF401BA042FAD308A0BDE8B0404F
:1011E000FFF710B9736C656570202575206D73204D
:1011F0007374617274203E3E20000000736C65655C
:101200007020656E6400000080B5FFF73BFE11A002
:10121000FFF7F8F8FFF72AFE13A0FFF7F3F8FFF740
:1012200019FE16A0FFF7EEF8FFF708FE18A0FFF76B
:10123000E9F8FFF731FE1BA0FFF7E4F8FFF76AFEBD
:101240001DA0FFF7DFF8FFF797FE20A0BDE8804064
:10125000FFF7D8B854435F436F7265496E73747279
:101260005F4E4F500000000054435F436F7265496A
:101270006E7374725F4953420000000054435F4331
:101280006F7265496E7374725F44534200000000D0
:1012900054435F436F7265496E7374725F444D428D
:1012A0000000000054435F436F7265496E737472AF
:1012B0005F5245560000000054435F436F7265491A
:1012C0006E7374725F5245563136000054435F436B
:1012D0006F7265496E7374725F52455653480000D1
:1012E0005FEA400C08BF91F0000F4FEA8C234FEAF1
:1012F000C12243EA51514FEA1C5018BF00F5F0409B
:101300004FEA300018BF41F000415FEA6C5C00F02A
:101310002980BCF1FF3F08BF40F080407047130CAC
:1013200006BF12044FF0100C4FF0000C130E04BF58
:1013300012020CF1080C130F04BF12010CF1040C83
:10134000930F04BF92000CF1020CD30F04BF5200A4
:101350000CF1010C11464FF00002A0F11F00A0EBB0
:101360000C00704711F0004F08BF704731F000418A
:101370003FF4D5AF0B0C06BF09044FF0100C4FF033
:10138000000C0B0E04BF09020CF1080C0B0F04BF7C
:1013900009010CF1040C8B0F04BF89000CF1020C45
:1013A000CB0F04BF49000CF1010CCCF1200322FA51
:1013B00003F341EA030102FA0CF2A0EB0C0000F186
:1013C0000100704723F07F4720F07F4C80EA030044
:1013D00000F00040ACEB070303F57C5303F1FF037F
:1013E0002DE9804909B44FEA144324EA03484FEA3F
:1013F000154B25EA0B4E0FF2042606EB13273E7819
:1014000003FB0667C7F5000707FB06F64FEAD6465B
:1014100006F102064FEA543707FB066CCCF1005C7C
:101420004FEA1C472CEA074C0CFB06F507FB06F4B9
:1014300004EB15464FEA961649085FEA320234BFBC
:1014400000204FF000404FEAD13706FB07FC4FEA7F
:101450001C4C0CFB0BF7D21B03FB0CF761EB0701D9
:101460000CFB0EF7B0EB074072EB17420CFB08F7D2
:1014700034BFA2EB0742B2EB074261EB17414FEAE0
:101480000C444FEA910706FB07FC4FEA1C4C0CFB8F
:101490000BF7B0EBC74072EB573203FB0CF734BFCE
:1014A000A2EBC742B2EBC74261EB57310CFB0EF720
:1014B000B0EBC70072EB57720CFB08F734BFA2EB1E
:1014C000C702B2EBC70261EB57714FEA816141EA93
:1014D00092114FEA826242EA90124FEA806004EB76
:1014E000CC04039F4FEAD13706FB07FC4FEA1C4CA4
:1014F0000CFB0BF7D21B03FB0CF761EB07010CFB9A
:101500000EF7B0EB074072EB17420CFB08F734BF45
:10151000A2EB0742B2EB074261EB17414FEA8C5551
:1015200004EB9C244FEA910706FB07FC4FEA1C4C96
:101530000CFB0BF7B0EBC74072EB573203FB0CF719
:1015400034BFA2EBC742B2EBC74261EB57310CFB91
:101550000EF7B0EBC70072EB57720CFB08F734BF05
:10156000A2EBC702B2EBC70261EB57714FEA816190
:1015700041EA92114FEA826242EA90124FEA806099
:1015800015EB4C2544F100044FEAD13706FB07FC6C
:101590004FEA1C4C0CFB0BF7D21B03FB0CF761EB67
:1015A00007010CFB0EF7B0EB074072EB17420CFB88
:1015B00008F734BFA2EB0742B2EB074261EB1741D9
:1015C0004FEA813141EA92414FEA823242EA904247
:1015D0004FEA80304FEA0C7615EB1C1544F10004FD
:1015E00048EA03434EEA0B484FF0000EB2EB080CFA
:1015F00071EB030724BF624639464EEB0E0E4FF0E7
:10160000000B0018524149414BEB0B0BB2EB080C9D
:1016100071EB03077BF1000B24BF624639464EEBAA
:101620000E0E4FF0000B0018524149414BEB0B0BD3
:10163000B2EB080C71EB03077BF1000B24BF624691
:1016400039464EEB0E0E51EA020718BF46F001066E
:1016500016EB0E7655F1000254F1000103D5BDE8FA
:101660008901BDE80088BDE88901BDE80048B619D8
:10167000524141EB0101A3F10103704780807F7E5D
:101680007D7C7B7A797877767675747372717170F8
:101690006F6E6E6D6C6C6B6A6A69686867666665AA
:1016A0006464636362616160605F5F5E5E5D5D5C38
:1016B0005C5B5B5A5A5959585857575656555555A9
:1016C0005454535352525251515050504F4F4F4E09
:1016D0004E4D4D4D4C4C4C4B4B4B4A4A4A49494957
:1016E0004848484747474746464645454544444499
:1016F0004443434343424242424141419C46002BC2
:1017000030D477002BD04FEA37071CB503B44FF025
:1017100010004FF01001BAF1000F06D0BCF1000F1D
:10172000DCBF40F0080040F008014FF000000FBCA3
:10173000BDE810400BF1010BBBF1010F08BF5FEAE0
:10174000170722BF12F1010211F101014FF0004110
:1017500043F1000300F0004043EA00007047F9D372
:101760005708D0E746EA06464FEA164613F1400FFF
:101770001FDD13F1200FDFBF16430A46002120337F
:101780005B42BED0C3F1200746EA06464FEA164642
:1017900002FA07F746EA070622FA03F2C3F1200726
:1017A00001FA07F742EA070221FA03F14FF00003BA
:1017B000A7E746EA020646EA06464FEA164646EA22
:1017C0000106BCBF46EA0646360C4FF000034FF058
:1017D00000024FF0000194E72DE9804C70B49A4666
:1017E000934691E8380007C831EA400C48BF34EA14
:1017F000430C03D5FFF7E6FDFFF780FFF0BCBDE823
:10180000008C2DE9804C70B49A46934691E83800DC
:1018100007C810F0804F08BF13F0804F03D100F0CD
:1018200005F8FFF76BFFF0BCBDE8008C20F07F47A8
:1018300023F07F4C80EA030000F0004007EB0C032C
:10184000A3F57C53A3F1FE0392F0000F00F0B380E8
:1018500095F0000F00F077802DE901494FEA114023
:1018600021EA00484FEA144624EA064700FB06FC3A
:1018700008FB06F607FB08F818EB06484CEB164C7D
:1018800000FB07F718EB07484CEB17404FEA124BE9
:1018900022EA0B4E4FEA154625EA06470BFB06FCEB
:1018A0000EFB06F607FB0EFE1EEB064E4CEB164C2F
:1018B0000BFB07F71EEB074E4CEB174B18EB0B0817
:1018C00040F1000018EB0E0B58EB000840F100004F
:1018D0008F1A4FF000014FF000063CBFC943661B52
:1018E00014BFB5EB040C00213CBFC943F61B4FEA03
:1018F000174427EA04454FEA1C472CEA074C04FB2F
:10190000076205FB07F70CFB05F616EB074642EBF3
:10191000174204FB0CFC16EB0C4642EB1C421BEB83
:10192000060658EB020241414EEA8E0E46EA9E063A
:1019300001D5BDE80189B619524141EB0101A3F17E
:101940000103BDE801894FEA144524EA05464FEA40
:10195000114721EA074C05FB07F406FB07F70CFBD0
:1019600006F111EB074144EB174405FB0CFC11EBAE
:101970000C4144EB1C444FEA124722EA074C05FB9A
:1019800007F206FB07F70CFB06F616EB074642EBE1
:10199000174205FB0CFC16EB0C4642EB1C456A1883
:1019A00054F1000148BF7047B619524141EB0101A3
:1019B000A3F10103704795F0000F37D04FEA1142B1
:1019C00021EA02464FEA144724EA074C02FB07F1DA
:1019D00006FB07F70CFB06F414EB074441EB174139
:1019E00002FB0CFC14EB0C4441EB1C414FEA154785
:1019F00025EA074C02FB07F506FB07F70CFB06F68A
:101A000016EB074645EB174502FB0CFC16EB0C46A4
:101A100045EB1C42121951F1000148BF7047B6193D
:101A2000524141EB0101A3F1010370474FEA144514
:101A300024EA05464FEA114721EA074C05FB07F166
:101A400006FB07F70CFB06F212EB074241EB1741CE
:101A500005FB0CFC12EB0C4251EB1C414FF0000655
:101A600048BF7047921841EB0101A3F10103704791
:101A7000490050EAC12018BF04204A0D18BF40F0A9
:101A8000010040F2FF72B2EB515F08BF40F002006C
:101A9000012808BF0520704710B500290AD0087832
:101AA000002807D005487844FFF7D0F8002801D077
:101AB000002010BD0248784410BD00003A0100002B
:101AC00032010000FEF72DBE303132333435363767
:101AD0003839414243444546403058003031323372
:101AE0003435363738396162636465664030780072
:101AF00002400000000000A00000000005400000BF
:101B0000000000C8000000000C4000000000409CE5
:101B100000000000194000000020BCBE00000000D2
:101B200034400000BFC91B8E00000004B540000017
:101B3000504BCFD06607E2CF010000006C4100009F
:101B40003E8251AADFEEA73401000000D942000016
:101B5000DCB5A0E23A301F97FFFFFFFFB44500005D
:101B6000FD25A0C8E9A3C14FFFFFFFFFFF3F000015
:101B70000000008000000000FF3F00000000008027
:101B8000000000002E2E2F2E2E2F447269766572D3
:101B9000732F434D5349532F436F726556616C69E0
:101BA000646174696F6E2F536F757263652F43564E
:101BB0005F436F7265496E7374722E63000000009C
:101BC000001C000800000020080000005001000870
:101BD000081C000808000020E8140000700100083C
:101BE0001C00000043000000F8FFFFFF0C00000095
:101BF0000E0000000F0000002E000000000000009A
:081C00009D0D0008990D00087C
:04000005080000ED02
:00000001FF
