:020000040800F2
:10000000C8080020DD010008190200081B020008D2
:100010001D0200081F020008210200080000000065
:1000200000000000000000000000000023020008A3
:10003000250200080000000027020008290200082D
:100040002B0200082B0200082B0200082B020008DC
:100050002B0200082B0200082B0200082B020008CC
:100060002B0200082B0200082B0200082B020008BC
:100070002B0200082B0200082B0200082B020008AC
:100080002B0200082B0200082B0200082B0200089C
:100090002B0200082B0200082B0200082B0200088C
:1000A0002B0200082B0200082B0200082B0200087C
:1000B0002B0200082B0200082B0200082B0200086C
:1000C0002B0200082B0200082B0200082B0200085C
:1000D0002B0200082B0200082B0200082B0200084C
:1000E0002B0200082B0200082B02000800F002F887
:1000F00000F064F814A696E8000CB244B344DA4564
:1001000001D100F05BF8BAE80F000FA696E83000C6
:10011000A5EB040504EB0607AAEB0704A7F101070A
:100120004FEA15154FEA3414A4F10104AC4201D38F
:1001300000F044F813F0010F18BFFB1A43F001035D
:1001400000F001F8DBE71847C04B0000D04B00007F
:10015000704700000023002400250026103A28BF25
:1001600078C1FBD8520728BF30C148BF0B60704729
:10017000662904F02E82642900F0F880752900F0C9
:10018000F580782900F02E81632900F031847329ED
:1001900000F03684002070471FB500F0A9F9040074
:1001A0000020002103F0CAFC401C606000200021F8
:1001B00003F0DAFCE0601FBD10B510BD00F0B0FD2B
:1001C0001146FFF7E9FF00F087FE00F0CEFD03B413
:1001D000FFF7F2FF03BC00F02FFE00004FF000001D
:1001E0004FF000014FF000024FF000034FF0000409
:1001F0004FF000054FF000064FF000074FF00008E9
:100200004FF000094FF0000A4FF0000B4FF0000CC8
:100210000948804709480047FEE7FEE7FEE7FEE79A
:10022000FEE7FEE7FEE7FEE7FEE7FEE704480549D6
:10023000034A054B70470000ED0D0008ED00000873
:10024000C8000020C8080020C80000207047000037
:1002500010B500F04DF9001D10BD00BFE1380000E1
:1002600010B50446FFF7F4FF0068005DC00602D534
:1002700004F1200010BD204610BD10B50446FFF764
:10028000E7FF0068005D000704D5DF2C02D0A4F171
:10029000200010BD204610BD0FB4044910B503AABC
:1002A000029800F0B1FB10BC5DF814FB6000002068
:1002B0002DE9F0410E460446002020622046E16808
:1002C000884730B3252805D0D4E901219047206A1A
:1002D000401CF2E7E168204600278847050018D057
:1002E000A5F14100192802D820354FF400673246A5
:1002F000294620462760FFF73BFF40B1012804D084
:10030000F61D26F007060836D8E7361DD6E728463C
:10031000DAE7206ABDE8F08170B50C460546012A8F
:1003200005D02878800600D5EA69002302E0012381
:1003300005E05B1C934202D2E05C0028F9D1A86979
:10034000E618C01AA861286A184428622846AFF344
:10035000008004E0D5E9012114F8010B9047B44274
:10036000F8D32846AFF3008070BD00002DE9F041BE
:100370000646002410687529314616A510D0AFF343
:100380000080002802DA404213A507E031688A079E
:1003900001D512A502E0490704D511A5012401E009
:1003A000AFF3008000210A2206F1240709E0B0FB28
:1003B000F2FCB0FBF2F302FB1C003030785418461C
:1003C000491C0028F3D123462A463046BDE8F041B7
:1003D00000F09DB8000000002D0000002B00000080
:1003E0002000000070B504460D4621461068AFF3AA
:1003F00000802188090502D50F4A7A4402E00E4A9E
:100400007A440E32002104F1240305E000F00F06C7
:100410000009965D5E54491C0028F7D1207800231E
:10042000000704D5702D02D009B1022311322046F5
:10043000BDE8704000F06BB8B842000010B504464B
:1004400003E000F019FD401C09D014F8010B054928
:100450000028F6D1BDE810400A2000F00DBD4FF095
:10046000FF3010BD600000200EB5054614460E4654
:1004700013A000F0E6FA284600F0E3FA16A000F018
:10048000E0FA304600F0DDFA15A000F0DAFA0021BB
:100490008DF80B100A210DF10A008DF80A1008E002
:1004A00094FBF1F201FB124294FBF1F4303200F8BC
:1004B000012D002CF4DC00F0C4FA00F0B7FA0000C3
:1004C0002A2A2A20617373657274696F6E206661CF
:1004D000696C65643A2000002C2066696C65200018
:1004E0002C206C696E65200070477047704770471C
:1004F000004870472000002010B500F0B1FA0068F5
:1005000010BD10B5044600F0ABFA046010BD2DE933
:10051000F0470D4699469246044600F124080168CA
:10052000880604D5E06921F01001216000E0012077
:10053000A84201DD471B00E00027A1697A1902EB00
:100540000900081AA0612078C00602D42046AFF343
:100550000080002608E0D4E901211AF8060090473F
:10056000206A401C761C20624E45F4DB2078C006D1
:100570000AD52046AFF3008006E0D4E901213020FF
:100580009047206A401C2062381EA7F10107F4DC66
:1005900007E0D4E9012118F805009047206A401CC3
:1005A0002062281EA5F10105F3DC2046AFF3008090
:1005B0002078000602D50220BDE8F0870120FBE785
:1005C0002DE9FF4F0C461E464FF0FF378BB0D2E9A6
:1005D0000001DDF860800A908A46C1F30A5505B92A
:1005E0003D46002108464FF00000BAF1000F00F42C
:1005F000400005DA00EB80004FF4400101EA5000B2
:100600004FEA9059B9F1010F00DDB9460A9850EA56
:100610004A000ED044F61050A5F2FF3545432F1482
:10062000B8F1000F1ED07542291E1EDDC9F100026F
:100630001CE0B8F1010F4FF0000001D0302103E0C1
:10064000F24305E02154401CB042FBDB304600225F
:10065000002121540B99C1F80880C1E900200FB096
:10066000BDE8F08FBD1B6D1CDEE74A4600DA69422B
:1006700006A800F097FA06AB93E8070003AB83E8FF
:10068000070050460A9901F08DF88DE80700A0F5A3
:1006900000501F3800900398002D0ADD42F21F0120
:1006A0004A460844002303A90390684601F0F6FA7D
:1006B00009E0A0F500504A461F38002303A9039023
:1006C000684601F000FB8DE807000004000C03D031
:1006D0004FF0FF30410800E01046B8F1000F03D0A2
:1006E0000022009215461EE0751E05D400F0BCF9EC
:1006F000303262556D1EF9D5B3460122084302D04F
:1007000000227F1C04E02078302801D100227F1EC7
:10071000002A099784D01DE0112D07DA00F0A4F912
:10072000303262556D1C50EA0102F5D1084302D007
:100730000098C8B10EE00021681E05E0235C625CF1
:1007400063542254401E491C8142F7DBAB46A81B70
:10075000401E0990002004F80B000B98099AC0F87D
:100760000880C0E9002B7AE711264FF0000857E710
:100770002DE9F04F88460446D21D22F0070191B0C2
:10078000D1E90001CDE90A0101F0D4FB02460B9842
:10079000C00F01D02D2007E02068810701D52B2054
:1007A00002E0202101EAC000032A099001D0072AB3
:1007B00005DB03464146204600F0B4F90BE1207802
:1007C000800601D5E06900E00620B8F1650F81469A
:1007D00006D0B8F1660F18D0B8F1670F70D131E0CC
:1007E0000020B9F1110F009001DB112301E009F1A4
:1007F00001030AAA01A90CA8FFF7E2FEDDE90C70CB
:10080000002609F10105834647E001204B46009090
:100810004FF000470AAA01A90CA8FFF7D1FEDDE9B5
:100820000DB00C995D46002610B909F101000D18B4
:10083000B9EB050003D4C0F1FF3609F10105A5EBC2
:1008400009002BE0B9F1010F01DA4FF00109002096
:10085000B9F1110F0090484601DD112300E0034675
:100860000AAA01A90CA8FFF7ABFEDDE90C704D4602
:1008700000268346207800070AD4AB4500DA5D469F
:1008800001A8012D04DD411911F8011C302907D000
:100890004F4502DA17F1040F04DA012082460FE017
:1008A0006D1EEEE7002F02DCED1B3E4403E0781CDA
:1008B000A84200DD7D1CB81B00F1010A4FF0004783
:1008C0002078000703D4AA4501DB4FF0FF3A00214E
:1008D000B7F1004F0DF143088DF8431024D00220EA
:1008E0002B23002F01DA7F422D230A21021EA0F1C3
:1008F000010000DC5FB197FBF1FC97FBF1F201FB1B
:100900001C7C17460CF1300C08F801CDEEE7A8F17D
:10091000010003702188090501D5452100E065210A
:10092000A0F1010800F8011C09980FA9A1EB080724
:10093000FF1D00B10120411901EBEA70A1693844A3
:10094000081A401EA0612078C00602D42046AFF3EA
:100950000080099828B1D4E901219047206A401C01
:1009600020622078C00622D52046AFF300801EE02A
:10097000002E04DBB34502DD01A8805D00E03020DD
:10098000D4E901219047206A401C2062761CAAF11C
:1009900001005FEA000A0AD1FFF7AAFDC0680168FA
:1009A000405CD4E901219047206A401C2062281E47
:1009B000A5F10105DCDC07E0D4E9012118F8010B01
:1009C0009047206A401C2062381EA7F10107F3DC23
:1009D0002046AFF30080032011B041E610B5436913
:1009E00013B1AFF3008001E0FFF796FC012010BDCA
:1009F000127800F124010A7000224A700122EDE70A
:100A000011684FF0FF32E9E7074B70B50D467B44A4
:100A100000F075F80446284600F036F910B14FF0A2
:100A2000FF3070BD204670BD6704000010B5002087
:100A300000F02EF9FFF7C0FBBDE81040012000F0E8
:100A4000FBB910B5044602E0641C00F0F7F9207809
:100A50000028F9D110BD00000048704700000020B8
:100A6000004870470000002030B5B0F10A0271F173
:100A700000034FEA900E4EEA817EB0EB0E0061EB70
:100A800091014FEA101E4EEA017E10EB0E0041EB81
:100A900011114FEA102E4EEA016E10EB0E0041EBE1
:100AA00011214FEA104E4EEA014E10EB0E0041EBC1
:100AB0001141401841F100014FEAD00040EA417075
:100AC0004FEAD1014FEA810444EA907410EB8005AB
:100AD00044EB01046D1944EB0404521BA3414FF095
:100AE000000348BF0A3200D530BD401C41F100016F
:100AF00030BD000001694A1C02610878704700B5EA
:100B00008FB0CDE901310021059105497944CDE946
:100B1000031011466846FFF7CBFB0FB000BD000085
:100B2000E5FFFFFF2DE9F0411F460446032601685B
:100B3000072A01F4006004DB08B116A505E016A53C
:100B400003E008B115A500E015A521F01000206014
:100B5000A069C01EA0610FB1401EA0612046AFF386
:100B600000804FB1D4E9012138469047206A401CEB
:100B70002062C01C206206E0206AFAE7D4E9012165
:100B800015F8010B9047761EF8D22046AFF300808F
:100B9000BDE8F0814E414E006E616E00494E460048
:100BA000696E66002DE9F047814616468AB03548E1
:100BB00078440DC88DE80D0032487844801C03ACA1
:100BC0000DC884E80D0041F69B300844372190FBA6
:100BD000F1F290FBF1F5A5F1800501FB12041B3C3D
:100BE00002D56442012000E00020DFF898A0804692
:100BF0000027FA44AAF1BE0A0EE0E0070AD0324606
:100C0000684607EB470101230AEB810101F05BF81D
:100C10008DE8070064107F1C002CEED1194F7F4433
:100C2000AE3F19E0E80715D007EB04100DF1180AE4
:100C300090E80E008AE80E00C068F04201D19819D1
:100C400008903246012306A903A801F03CF803AB43
:100C500083E807006D10641C002DE3D14FF0010301
:100C600032466946B8F1000F03A802D001F016F829
:100C700001E001F028F8C9E90001C9F808200AB02C
:100C8000BDE8F087B83D0000007B00F080007047B1
:100C900010B500F079F8BDE8104000F06FB8000022
:100CA0004FF0013C50F8042B51F8043B9A4221D1FB
:100CB000A2EB0C03934313EACC1317D150F8042B87
:100CC00051F8043B9A4215D1A2EB0C03934313EA6B
:100CD000CC130BD150F8042B51F8043B9A4209D1A4
:100CE000A2EB0C03934313EACC13DBD04FF00000CC
:100CF000704700BFD01A01BAB1FA81F101F01801B2
:100D000022FA01F0CB40DBB2C0B2C01AC1F120011F
:100D10002CFA01F3D11A914311EAC311E6D17047BD
:100D20007546FFF799FEAE4605006946534620F02A
:100D30000700854618B020B5FFF778FABDE82040D7
:100D40004FF000064FF000074FF000084FF0000B87
:100D5000AC46ACE8C009ACE8C009ACE8C009ACE8F6
:100D6000C00921F007018D46704710B50446AFF366
:100D700000802046BDE81040FFF729BA002801D0C6
:100D800000F05AB87047000010B5002102A000F032
:100D900013F8012010BD0000534947414252543A14
:100DA0002041626E6F726D616C207465726D696E48
:100DB0006174696F6E00000070B505460C460A202C
:100DC00000E06D1C00F03AF835B128780028F8D121
:100DD00002E0641C00F032F814B120780028F8D149
:100DE000BDE870400A2000F029B800004EF2100063
:100DF000CEF20000016840F2B40221F0010101606E
:100E000040F20030C4F2000000684FF6FE51CDF60B
:100E1000DA710844B0FA80F04109C2F2000202A07F
:100E20001170FFF70BBB00BF53797374656D496E8A
:100E3000697420656E6421007047000040F2B401BF
:100E4000C2F20001097819B14FF08042126806E041
:100E500040F2BC02C2F2000213680133136040F298
:100E60000012C4F2000200BF136811B113F0400376
:100E7000FAD041B25160704740F2B401C2F20001B1
:100E8000097819B14FF08042126806E040F2BC02C6
:100E9000C2F2000213680133136040F20012C4F280
:100EA000000200BF136811B113F04003FAD041B241
:100EB0005160704740F2B400C2F20000007818B1EF
:100EC0004FF080400068704740F2BC01C2F2000160
:100ED000086801300860704740F20420C4F2000046
:100EE000D0F8FC104FF6FE52CDF6DA721144B1FA8A
:100EF00081F14A0940F2B401C2F200010A700368AC
:100F000008A02D21FFF7C8F900F054F800F066F8AA
:100F100000F06CF9642000F027F80CA00DA18D22E0
:100F2000FFF7A2FA736F66745F7665723A257520D3
:100F30006370755F7665723A257520666C617368BB
:100F40005F7665723A25780A00000000313D3D3039
:100F5000000000002E2E2F2E2E2F55736572732F3A
:100F60006D61696E2E630000B0B5044608A021468D
:100F7000FFF792F9FFF79EFF054600BFFFF79AFFC4
:100F8000401BA042FAD308A0BDE8B040FFF756BA14
:100F9000736C656570202575206D732073746172A4
:100FA00074203E3E20000000736C65657020656E05
:100FB0006400000040F2B801C2F2000141F2850273
:100FC00001A00A60FFF73ABA74657374206269740D
:100FD000206669656C64204F4B00000080B5FFF708
:100FE00037F9006890F8371011F0380F3AD090F8C0
:100FF000421011F0980F40D0817A490648D590F8F8
:10100000351020294FD190F87A1011F0BA0F52D034
:1010100090F87610090759D590F8401011F03E0F5E
:101020005FD090F82E10890763D590F82010C9077B
:1010300067D090F85610C9066BD590F8460080EA44
:10104000800000066DD55620FFF70AF9762870D18A
:101050007620FFF712F9562873D14CA0BDE88040E6
:10106000FFF71AB944F6841044F6C611C0F6000022
:10107000C0F600011922FFF7F7F944F6911044F683
:10108000C611C0F60000C0F600011A22FFF7ECF905
:1010900044F69E1044F6C611C0F60000C0F60001EA
:1010A0001B22FFF7E1F944F6C6112AA0C0F60001A1
:1010B0001C22FFF7D9F944F6B91044F6C611C0F660
:1010C0000000C0F600011D22FFF7CEF944F6AC1077
:1010D00044F6C611C0F60000C0F600011E22FFF75C
:1010E000C3F944F6C6113DA0C0F600011F22FFF768
:1010F000BBF944F6C61135A0C0F600012022FFF767
:10110000B3F944F6C6112DA0C0F600012122FFF765
:10111000ABF944F6C61125A0C0F600012222FFF764
:10112000A3F944F6C6111DA0C0F600012322FFF763
:101130009BF944F6C6110BA0C0F600012422FFF76C
:1011400093F944F6C6110CA0C0F600012522FFF762
:101150008BF900BF6973646967697428273527298B
:10116000000000002776273D3D746F6C6F77657235
:1011700028275627290000002756273D3D746F7504
:1011800070706572282776272900000074657374D3
:10119000206374797065204F4B2100006973786477
:1011A00069676974282746272900000069737570EC
:1011B0007065722827562729000000006973737034
:1011C0006163652827202729000000006973707576
:1011D0006E637428272E272900000000697370723F
:1011E000696E74282740272900000000B0B540F23E
:1011F000C4044BF2D170C2F20004C3F6F95020606F
:101200000FF20850FFF71AF94FF0785020600FF2F4
:101210000C50FFF713F9206800F080FF40F2C00582
:1012200040F21D51C2F20005C3F6B971286002F008
:101230004BFD002800F096810FF20450FFF7FEF8F6
:10124000206800F0F9FF45F2F051C3F60061286014
:1012500002F03AFD002800F08D810FF20C50FFF7EC
:10126000EDF8206801F0CCF94AF6D551C3F6FE51ED
:10127000286002F029FD002800F084810FF2105050
:10128000FFF7DCF8206842F62401C3F69E7101F0F6
:1012900065F847F6FB31C3F6CE51286002F014FD25
:1012A000002800F0778144F69F20C0F60000FFF789
:1012B000C5F8206801F09EFAAB21C3F67E71286064
:1012C00002F002FD002800F0708144F6C530C0F63F
:1012D0000000FFF7B3F8206801F04AFB5521C3F680
:1012E0008171286002F0F0FC002800F0698144F66A
:1012F0008C30C0F60000FFF7A1F8206802F08AF9F0
:1013000045F27751C3F6FF51286002F0DDFC00285A
:1013100000F0618144F69F30C0F60000FFF78EF8C0
:10132000206802F03BFA45F26651C3F6006128607E
:1013300002F0CAFC002800F0598144F67930C0F66A
:101340000000FFF77BF8206802F0CEFA4AF6BD31C4
:10135000C3F60061286002F0B7FC002800F051815C
:1013600044F60330C0F60000FFF768F8206802F08A
:1013700075FB4AF6C941C3F6FE51286002F0A4FC91
:10138000002800F0498144F6DB20C0F60000FFF79A
:1013900055F8206801F034FB40F60231C3F6917134
:1013A000286002F091FC002800F0418144F61630DC
:1013B000C0F60000FFF742F82068192101F04EFC4A
:1013C0004FF09541286002F07FFC002800F03A8140
:1013D00044F62930C0F60000FFF730F8206801F02D
:1013E00041FD286002F0DCFB024644F6EF30C0F617
:1013F00000000B46FEF750FF286841F29251CCF2F4
:10140000050102F061FC002800F0278144F6C820A5
:10141000C0F60000FFF712F8206801F049FC43F223
:10142000E801CBF66771286002F04EFC002800F05E
:101430001F8144F68A20C0F60000FEF7FFFF2068F7
:10144000014601F0D7FD46F22A71C3F645712860C6
:1014500002F03AFC002800F0168144F66630C0F62F
:101460000000FEF7EBFF206802F028FA40F2F3419B
:10147000C3F6B561286002F027FC002800F00E8159
:1014800044F65230C0F60000FEF7D8FF206801F0A5
:1014900075F9286002F084FB024644F6EF30C0F68E
:1014A00000000B46FEF7F8FE28684FF07E5102F070
:1014B0000BFC002800F0FD8044F6EF20C0F6000091
:1014C000FEF7BCFF206820F00040286002F068FBB7
:1014D000024644F6EF30C0F600000B46FEF7DCFE95
:1014E00028684FF0785102F0EFFB002800F0EC8004
:1014F00044F63E30C0F60000FEF7A0FF206801F081
:1015000039FB286002F04CFB024644F6EF30C0F68F
:1015100000000B46FEF7C0FE2868002102F0D4FB55
:10152000002800F0DC8044F6B130C0F60000FEF781
:1015300085FF206849F21901C3F6BD4101F058FB4F
:1015400045F60671C3F61841286002F0BDFB00287D
:1015500000F0D08044F6B420C0F60000BDE8B040F2
:10156000FEF76CBF44F6D73170A0C0F6000114221C
:10157000FEF77AFF44F6D73176A0C0F600011822B4
:10158000FEF772FF44F6D7317CA0C0F600011C22A2
:10159000FEF76AFF44F6164044F6D731C0F6000065
:1015A000C0F600012022FEF75FFF44F63B4044F600
:1015B000D731C0F60000C0F600012422FEF754FF28
:1015C00044F66F4044F6D731C0F60000C0F6000183
:1015D0002822FEF749FF44F6804044F6D731C0F692
:1015E0000000C0F600012C22FEF73EFF44F6E24068
:1015F00044F6D731C0F60000C0F600013022FEF7F5
:1016000033FF44F64D4044F6D731C0F60000C0F633
:1016100000013422FEF728FF44F6F44044F6D731A7
:10162000C0F60000C0F600013822FEF71DFF44F6A8
:101630005E4044F6D731C0F60000C0F600013C22FF
:10164000FEF712FF44F6064044F6D731C0F600001C
:10165000C0F600014022FEF707FF44F69D4044F625
:10166000D731C0F60000C0F600014522FEF7FCFEAF
:1016700044F6C14044F6D731C0F60000C0F6000180
:101680004922FEF7F1FE44F6D04044F6D731C0F6C9
:101690000000C0F600014D22FEF7E6FE44F6AF4022
:1016A00044F6D731C0F60000C0F600015122FEF723
:1016B000DBFE44F6FC3044F6D731C0F60000C0F63D
:1016C00000015622FEF7D0FE44F6914044F6D73191
:1016D000C0F60000C0F600015B22FEF7C5FE44F62E
:1016E000F23044F6D731C0F60000C0F600016022A7
:1016F000FEF7BAFE44F6284044F6D731C0F60000A3
:10170000C0F600016422FEF7AFFE00BF746573747B
:1017100020666C6F6174202A204F4B0074657374CF
:1017200020666C6F6174202F204F4B00665F633D15
:101730003D312E34343534363835346600000000FF
:101740007465737420666C6F61742061636F736677
:10175000204F4B00665F633D3D302E3132353332D2
:1017600037383236660000007465737420666C6F1B
:101770006174206173696E66204F4B00665F633D44
:101780003D302E313234333534393936660000007D
:101790007465737420666C6F6174206174616E6629
:1017A000204F4B005FEA400C08BF91F0000F4FEA5A
:1017B0008C234FEAC12243EA51514FEA1C5018BF13
:1017C00000F5F0404FEA300018BF41F000415FEAF9
:1017D0006C5C00F02980BCF1FF3F08BF40F0804006
:1017E0007047130C06BF12044FF0100C4FF0000CA2
:1017F000130E04BF12020CF1080C130F04BF1201E8
:101800000CF1040C930F04BF92000CF1020CD30FE7
:1018100004BF52000CF1010C11464FF00002A0F180
:101820001F00A0EB0C00704711F0004F08BF70477D
:1018300031F000413FF4D5AF0B0C06BF09044FF067
:10184000100C4FF0000C0B0E04BF09020CF1080C39
:101850000B0F04BF09010CF1040C8B0F04BF8900AE
:101860000CF1020CCB0F04BF49000CF1010CCCF1C0
:10187000200322FA03F341EA030102FA0CF2A0EB7F
:101880000C0000F10100704723F07F4720F07F4CEF
:1018900080EA030000F00040ACEB070303F57C5343
:1018A00003F1FF032DE9804909B44FEA144324EA08
:1018B00003484FEA154B25EA0B4E0FF2042606EBC0
:1018C00013273E7803FB0667C7F5000707FB06F6FC
:1018D0004FEAD64606F102064FEA543707FB066C7C
:1018E000CCF1005C4FEA1C472CEA074C0CFB06F5D8
:1018F00007FB06F404EB15464FEA961649085FEA23
:10190000320234BF00204FF000404FEAD13706FBCF
:1019100007FC4FEA1C4C0CFB0BF7D21B03FB0CF72C
:1019200061EB07010CFB0EF7B0EB074072EB1742BF
:101930000CFB08F734BFA2EB0742B2EB074261EBA6
:1019400017414FEA0C444FEA910706FB07FC4FEAA8
:101950001C4C0CFB0BF7B0EBC74072EB573203FB90
:101960000CF734BFA2EBC742B2EBC74261EB573171
:101970000CFB0EF7B0EBC70072EB57720CFB08F7CD
:1019800034BFA2EBC702B2EBC70261EB57714FEA5B
:10199000816141EA92114FEA826242EA90124FEA73
:1019A000806004EBCC04039F4FEAD13706FB07FCB1
:1019B0004FEA1C4C0CFB0BF7D21B03FB0CF761EB43
:1019C00007010CFB0EF7B0EB074072EB17420CFB64
:1019D00008F734BFA2EB0742B2EB074261EB1741B5
:1019E0004FEA8C5504EB9C244FEA910706FB07FC59
:1019F0004FEA1C4C0CFB0BF7B0EBC74072EB5732B5
:101A000003FB0CF734BFA2EBC742B2EBC74261EB5A
:101A100057310CFB0EF7B0EBC70072EB57720CFBA3
:101A200008F734BFA2EBC702B2EBC70261EB5771F4
:101A30004FEA816141EA92114FEA826242EA9012D2
:101A40004FEA806015EB4C2544F100044FEAD13792
:101A500006FB07FC4FEA1C4C0CFB0BF7D21B03FBED
:101A60000CF761EB07010CFB0EF7B0EB074072EBD4
:101A700017420CFB08F734BFA2EB0742B2EB074258
:101A800061EB17414FEA813141EA92414FEA8232DC
:101A900042EA90424FEA80304FEA0C7615EB1C1573
:101AA00044F1000448EA03434EEA0B484FF0000EAD
:101AB000B2EB080C71EB030724BF624639464EEBCC
:101AC0000E0E4FF0000B0018524149414BEB0B0B2F
:101AD000B2EB080C71EB03077BF1000B24BF6246ED
:101AE00039464EEB0E0E4FF0000B001852414941A3
:101AF0004BEB0B0BB2EB080C71EB03077BF1000B0C
:101B000024BF624639464EEB0E0E51EA020718BF5B
:101B100046F0010616EB0E7655F1000254F1000175
:101B200003D5BDE88901BDE80088BDE88901BDE8AD
:101B30000048B619524141EB0101A3F1010370477E
:101B400080807F7E7D7C7B7A7978777676757473FA
:101B5000727171706F6E6E6D6C6C6B6A6A696868B9
:101B6000676666656464636362616160605F5F5E4F
:101B70005E5D5D5C5C5B5B5A5A59595858575756C5
:101B8000565555555454535352525251515050502A
:101B90004F4F4F4E4E4D4D4D4C4C4C4B4B4B4A4A7C
:101BA0004A494949484848474747474646464545C0
:101BB00045444444444343434342424242414141F9
:101BC0009C46002B30D477002BD04FEA37071CB54A
:101BD00003B44FF010004FF01001BAF1000F06D01F
:101BE000BCF1000FDCBF40F0080040F008014FF0EE
:101BF00000000FBCBDE810400BF1010BBBF1010F61
:101C000008BF5FEA170722BF12F1010211F10101BB
:101C10004FF0004143F1000300F0004043EA0000B0
:101C20007047F9D35708D0E746EA06464FEA16460A
:101C300013F1400F1FDD13F1200FDFBF16430A46DB
:101C4000002120335B42BED0C3F1200746EA06469E
:101C50004FEA164602FA07F746EA070622FA03F2A7
:101C6000C3F1200701FA07F742EA070221FA03F15C
:101C70004FF00003A7E746EA020646EA06464FEAA7
:101C8000164646EA0106BCBF46EA0646360C4FF049
:101C900000034FF000024FF0000194E72DE9804C63
:101CA00070B49A46934691E8380007C831EA400C70
:101CB00048BF34EA430C03D5FFF7E6FDFFF780FF8A
:101CC000F0BCBDE8008C2DE9804C70B49A46934678
:101CD00091E8380007C810F0804F08BF13F0804F1C
:101CE00003D100F005F8FFF76BFFF0BCBDE8008CF6
:101CF00020F07F4723F07F4C80EA030000F0004093
:101D000007EB0C03A3F57C53A3F1FE0392F0000F45
:101D100000F0B38095F0000F00F077802DE90149C5
:101D20004FEA114021EA00484FEA144624EA0647E8
:101D300000FB06FC08FB06F607FB08F818EB064854
:101D40004CEB164C00FB07F718EB07484CEB174021
:101D50004FEA124B22EA0B4E4FEA154625EA064798
:101D60000BFB06FC0EFB06F607FB0EFE1EEB064EFB
:101D70004CEB164C0BFB07F71EEB074E4CEB174BCF
:101D800018EB0B0840F1000018EB0E0B58EB0008A5
:101D900040F100008F1A4FF000014FF000063CBFE9
:101DA000C943661B14BFB5EB040C00213CBFC943FB
:101DB000F61B4FEA174427EA04454FEA1C472CEA72
:101DC000074C04FB076205FB07F70CFB05F616EB57
:101DD000074642EB174204FB0CFC16EB0C4642EBA9
:101DE0001C421BEB060658EB020241414EEA8E0EE6
:101DF00046EA9E0601D5BDE80189B619524141EB7C
:101E00000101A3F10103BDE801894FEA144524EA69
:101E100005464FEA114721EA074C05FB07F406FB8C
:101E200007F70CFB06F111EB074144EB174405FBE8
:101E30000CFC11EB0C4144EB1C444FEA124722EA24
:101E4000074C05FB07F206FB07F70CFB06F616EB43
:101E5000074642EB174205FB0CFC16EB0C4642EB27
:101E60001C456A1854F1000148BF7047B619524129
:101E700041EB0101A3F10103704795F0000F37D04A
:101E80004FEA114221EA02464FEA144724EA074C7E
:101E900002FB07F106FB07F70CFB06F414EB074403
:101EA00041EB174102FB0CFC14EB0C4441EB1C41D1
:101EB0004FEA154725EA074C02FB07F506FB07F733
:101EC0000CFB06F616EB074645EB174502FB0CFC30
:101ED00016EB0C4645EB1C42121951F1000148BFAC
:101EE0007047B619524141EB0101A3F1010370475C
:101EF0004FEA144524EA05464FEA114721EA074C08
:101F000005FB07F106FB07F70CFB06F212EB074295
:101F100041EB174105FB0CFC12EB0C4251EB1C4151
:101F20004FF0000648BF7047921841EB0101A3F142
:101F300001037047490050EAC12018BF04204A0D30
:101F400018BF40F0010040F2FF72B2EB515F08BFD2
:101F500040F00200012808BF052070474100080238
:101F600018BF04200A0E18BF40F001004FF07F4256
:101F700032EA010108BF40F00200012808BF052035
:101F8000704700214FF07E5001F0D4BE012102F0D5
:101F900054BB01F031BE0021084601F0CBBE6121E7
:101FA0004FF0E04002F049BB6FF05E01080702F01D
:101FB00044BB00002DE9F04D0D4614464FF07F4123
:101FC000B1EB440F9EBF4FF0FF312960BDE8F08DAB
:101FD0004FF0004040EA0421C4F3C750783810F0B5
:101FE0001F024A4B4FEA601CC2F120067B44C4F337
:101FF000C750A0F178004FEA601003EB800053F85F
:102000002C3008BFD0E901C612D0D0F804C09340EC
:102010002CFA06F73B4387680CFA02FC27FA06F80D
:10202000C06807FA02F2F0404CEA080C42EA0006E7
:10203000A3FB0132ACFB01C0A6FB016101EB0C0666
:102040008E4234BF4FF0010C4FF0000CC1186144B8
:10205000BCF1000F02D0814202D903E0814201D2DB
:10206000012000E00020104400F120024FEA921805
:102070008006CA0C40EA42304F03C5F8008001F0E8
:1020800095FF8246384601F0A9FF6FF0120102F079
:10209000D4FA0746304601F0A1FF6FF0250102F0A7
:1020A000CCFA83463946504601F0A6FD594601F068
:1020B000A3FD00F500666FF30B065146304602F0B3
:1020C00013FA394602F010FA594602F07BF910492A
:1020D00002F000F807460F49304601F0FBFF394691
:1020E00001F08AFD07460C49304601F0F3FF3946FE
:1020F00001F082FD14F0004F08BFBDE8F08DC8F17B
:10210000805180F000402960BDE8F08DE02800009B
:10211000DB0FC92F22AAFD290000C92F2DE9F041AC
:1021200004464FF01A4000EB4400B0F1C85F20466F
:1021300055D84FF0FC41B1EB440F1CD224F00040C5
:102140004FF07E5102F03EF94FF0FF3102F075FA88
:10215000054601F0B3FB14F0004F1DBF2C4F2D4E70
:1021600080F00040002708BF3E464FF0404101F09C
:10217000B1FF044605E0284F284E014601F0AAFFB2
:1021800005462749284601F0A5FF264901F034FD00
:10219000294601F09FFF244901F02EFD294601F058
:1021A00099FF224901F028FD294601F093FF2049BB
:1021B00001F022FD80462946204601F08BFF414672
:1021C00001F088FF05463146204602F0FBF829461B
:1021D00002F08AF93946BDE8F04101F00DBD4FF03B
:1021E000CC41B1EB440F84BF1248BDE8F0814FF001
:1021F0007F41B1EB440F03D2BDE8F041FFF7C6BE0B
:102200000120FEF77EF9BDE8F041FFF7C4BE0000F3
:102210000000494022AA7D3A0000C93F22AAFD39A8
:1022200024FE1C3DC78AD83C1E67383D1B93993D50
:10223000AFAA2A3EDB0FC93F2DE9F04104464FF01B
:102240000E4000EB4400B0F1506F204655D84FF0DF
:10225000FC41B1EB440F1CD224F000404FF07E5102
:1022600002F0B0F84FF0FF3102F0E7F9054601F057
:1022700025FB14F0004F1DBF2F4F304E80F0004063
:102280002F4F08BF2F4E4FF0404101F023FF04466F
:1022900005E000273E46014601F01CFF05462A499D
:1022A000284601F017FF294901F0A6FC294601F054
:1022B00011FF274901F0A0FC294601F00BFF254939
:1022C00001F09AFC294601F005FF234901F094FC36
:1022D00080462946204601F0FDFE414601F0FAFE07
:1022E00005463146204601F087FC294601F084FC72
:1022F0003946BDE8F04101F07FBC4FF0E441B1EB5D
:10230000440F08D9FFF72AFE042808BFFFF74CFE48
:102310002046BDE8F0814FF07F41B1EB440F03D27E
:10232000BDE8F041FFF732BE0120FEF7EAF8BDE854
:10233000F041FFF730BE00000000C9BF22AAFDB97E
:102340000000C93F22AAFD3924FE1C3DC78AD83CA3
:102350001E67383D1B93993DAFAA2A3E2DE9F047F1
:102360004FF0684202EB40030C460546B3F1654F5F
:102370003CBF02EB4102B2F1654F80F0CD8000BF5F
:10238000C0F3C752C1F3C753D21A1B2A06DD10F09F
:10239000004F14BF87488848BDE8F08712F11A0F34
:1023A0002FDA11F0004F06D010F0004F0CBF834819
:1023B0008348BDE8F0872146284601F0BBFC06466D
:1023C000FFF7CCFD042808BFFFF7EEFD2846FFF716
:1023D000C5FD05462046FFF7C1FD04463046FFF720
:1023E000BDFD042D18BF052D08D1042C18BF052CE8
:1023F00004D1002804BF0220FEF783F83046BDE870
:10240000F0874200B2EB410F25D910F0004F19BF01
:102410006C4F6D4E6D4F6E4E224685F00044154652
:102420000A4680F0004110460A1A5200B2F1807F3D
:102430003ED248406749DFF8A0A110F0004F18D005
:102440004FF03F48384602F04FF8074651463046B5
:1024500002F04AF817E011F0004F04BF002637469B
:10246000E2D010F0004F19BF5C4F5D4E5D4F5E4EE5
:10247000DAE74FF07C58384601F0BEFB074651467C
:10248000304601F0B9FB06464146284601F022FEDF
:10249000214601F0B1FB82462146404601F01AFE7A
:1024A000294601F08FFF514601F044FC044604E048
:1024B0002146284601F03EFC0446014601F00AFE92
:1024C00080464A4901F006FE494901F095FB414624
:1024D00001F000FE474901F08FFB414601F0FAFD93
:1024E000454901F089FB414601F0F4FD434901F003
:1024F00083FB05464146204601F0ECFD294601F0EC
:10250000E9FD314601F078FB214601F075FB3946C3
:10251000BDE8F04701F070BB4FF07F42B2EB400FD7
:1025200028BFB2EB410F03D2BDE8F047FFF731BD42
:1025300040EA01035B0008BF44F0FF410AD0B2EB60
:10254000400F08BFB2EB410F06D125F0804024F0C8
:10255000804105460C4613E7B2EB400F12BF5FEA1D
:10256000410345F0FF4004F000413FF409AFB2EBF6
:10257000410F12BF5FEA400205F0004044F0FF4106
:102580003FF4FEAE4A0092EA40033FF5F9AE002A5E
:10259000ACBF4FF09F464FF03E56314601F09AFDDA
:1025A00005463146204601F095FD04462846214661
:1025B000E6E60000DB0FC9BFDB0FC93FDB0F494078
:1025C000DB0F49C00000C9BF22AAFDB90000C93F06
:1025D00022AAFD390060ED3EC30ACE37000049C093
:1025E00022AA7DBA0000494022AA7D3A2DAD65BDE0
:1025F0008FB8D53D0FB511BE61C84C3EA8AAAABE82
:102600002DE9F041054604464FF00E4000EB440032
:10261000B0F1145F76D24FF0FE40B0EB440F24BF10
:10262000002637460CD214F0004F19BF454F464ED6
:10263000464F474E2146474801F07CFB054604467D
:102640004FF0FC40B0EB440F2CD24349DFF80C8133
:1026500014F0004F0AD04FF03F44384601F044FFD9
:1026600007464146304601F03FFF09E04FF07C54F9
:10267000384601F0C1FA07464146304601F0BCFA3F
:1026800006462146284601F025FD4FF07E5101F017
:10269000B3FA80462146284601F026FF414601F064
:1026A00049FB05462946084601F014FD80462C49A1
:1026B00001F010FD2B4901F09FFA414601F00AFD9F
:1026C000294901F099FA414601F004FD274901F03A
:1026D00093FA414601F0FEFC254901F08DFA0446CB
:1026E0004146284601F0F6FC214601F0F3FC314654
:1026F00001F082FA294601F07FFA3946BDE8F0413F
:1027000001F07ABA4FF0E440B0EB440F09D9284603
:10271000FFF724FC042808BFFFF746FC2846BDE865
:10272000F0814FF07F40B0EB440F04D22046BDE86B
:10273000F041FFF72BBC14F0004F14BF0D480E48BA
:10274000BDE8F0810000C9BF22AAFDB90000C93F61
:1027500022AAFD39000080BF0060ED3EC30ACE37DB
:102760002DAD65BD8FB8D53D0FB511BE61C84C3ECE
:10277000A8AAAABEDB0FC9BFDB0FC93F2DE9F041F4
:10278000C0F3C751A1F17F050446172DA8BFBDE8CE
:10279000F0814FF07F471549002D0EDA01F02CFA39
:1027A000B7EB400F1ED300281CDD002CC8BF4FF034
:1027B0007E54B8BF4FF0004414E00D4A22FA05F6EB
:1027C000344208BFBDE8F08101F016FAB7EB400FC4
:1027D00008D3002806DD002C03DD4FF40000E8409C
:1027E0000444B4432046BDE8F0810000CAF24971B8
:1027F000FFFF7F002DE9F843044602464F48694633
:10280000B0EB420F09D94FF0E640B0EB420F94BF56
:1028100000204FF0FF30009030E0494B22F00040A4
:10282000834271D94749204601F054FC01F09AFDDA
:10283000804601F075FB00F00300009042494046DD
:1028400001F048FC05464149404601F043FC06467C
:102850003F49404601F03EFC07463E49404601F0F4
:1028600039FC214601F0AEFD394601F03DFE31460E
:1028700001F03AFE294601F037FE04462546009C49
:10288000002C45DB294614F0010F08461CD001F04E
:1028900021FC0646304901F01DFC304901F0ACF93D
:1028A000314601F017FC2E4901F0A6F9314601F03E
:1028B00011FC294601F00EFC294601F09DF914F0A7
:1028C000020F1CD0BDE8F88301F004FC0546254941
:1028D00001F000FC244901F08FF9294601F0FAFBD0
:1028E000224901F089F9294601F0F4FB4FF07E51AD
:1028F00001F082F914F0020F08BFBDE8F88380F000
:102900000040BDE8F883FFE71046FFF753FBB4E74C
:102910006800B0F17F4F3CBF4FF07E50BDE8F883B8
:1029200007D14FF00100FDF7ECFDBDE8F843FFF7DC
:1029300032BB2846BDE8F843FFF728BBB61F927E9E
:10294000490E494683F9223F1A61342C0020A233F4
:1029500000A0FD390000C93F336D4CB9DA82083C54
:10296000A0AA2ABEB93AB2BACA9F2A3DDDFFFFBE6D
:10297000204910B520F00042B1EB400F11D31046B2
:1029800000F03EF8044601464FF07E5001F0D2F9C7
:10299000214601F031F9BDE810404FF0FF3101F060
:1029A0004CBE4FF07F43B3EB400F17D9124910468E
:1029B00001F09AFD00F024F80446104901F08AFB6A
:1029C000214601F019F9B0F1FF4F18BF10BD0220E8
:1029D000FDF797FDBDE81040FFF7E1BA4FF07F43E8
:1029E000B3EB400F04BF104610BDBDE81040FFF729
:1029F000CDBA00009E585D850073313F9708683757
:102A00002DE9F04104464FF019404F49002500EBF5
:102A1000440088424AD84D49204601F05BFB01F052
:102A2000A1FC804601F07CFA06464949404601F087
:102A300051FB07464749404601F04CFB214601F057
:102A4000C1FC394601F050FD0446434901F042FB08
:102A5000424901F0D1F8214601F03CFB6FF04141C1
:102A600001F0CAF8214601F035FB3D4901F0C4F8F8
:102A7000214601F02FFB01463A4806F00304784452
:102A800050F8240001F026FB3749794451F824100E
:102A900001F0B2F83549794451F8241001F0ACF84E
:102AA000B11095BBBDE8F04101F0C7BD4FF0FF414B
:102AB00031EA040020460AD04FF0CE41B1EB440F7A
:102AC0000FD9BDE8F0414FF07E5101F095B814F5F3
:102AD000000F04BF0020BDE8F081BDE8F041FFF722
:102AE00055BA2349B1EB440F28BF012593D20220E8
:102AF000FDF707FD14F0004F03D0BDE8F041FFF7EC
:102B000053BABDE8F041FFF74ABA01F096FD040060
:102B10000BD0B4F1FF4F0FD0FFF720FA042808BF05
:102B2000FFF742FA2046BDE8F0810220FDF7E9FCFC
:102B3000BDE8F041FFF738BA0220FDF7E2FCBDE83E
:102B4000F041FFF72CBA00000000501E3BAAB8402D
:102B5000F4FD05370070313E12BB2A3D12BB2A3E00
:102B6000FFFF7F3F7E1C0000621C0000461C00002F
:102B70000000A0852DE9F041C0F3C751A1F17F0508
:102B80000446172DA8BFBDE8F0814FF07F471549D7
:102B9000002D0FDA01F030F8B7EB400F1FD30028FB
:102BA0001DDD002CA8BF002419DAB4F1004F18BFB6
:102BB0000D4C14E00D4A22FA05F6344208BFBDE878
:102BC000F08101F019F8B7EB400F08D3002806DDBB
:102BD000002C03DA4FF40000E8400444B4432046DC
:102BE000BDE8F081CAF24971000080BFFFFF7F009D
:102BF00070B5054620F00040C0F1FF400C46C00F04
:102C000005D124F00040C0F1FF40C00F17D0284686
:102C100001F028FB6FEAD05111F0FF0F08BF70BD23
:102C2000E917B1EBE07F08BF70BD014664F31E01F8
:102C3000BDE870400A460146104601F0C3BB4FF0A4
:102C40007F40B0EB450F18BF5FEA4400DFD10120A1
:102C5000FDF757FCBDE87040FFF79DB96FEAD05211
:102C600012F0FF0F14BF30F00042704710B501F0B2
:102C7000E4FC04466FEAD45010F0FF0F0ED034F09D
:102C800000401CBF204610BD0220FDF73AFCFFF7B4
:102C90008BF90146204661F31E0010BD0220FDF7AE
:102CA00030FCFFF77CF90146204661F31E0010BDA1
:102CB0002DE9F0410026A0F50001B1F1FE4F7DD2D3
:102CC00000F500226FF07E0101EBE251C2F30254E5
:102CD00077184FF07E52A0EBC15602EB045557EA2D
:102CE000040047D02946304600F086FF804629463A
:102CF000304601F0F9FB414601F01CF8054601465B
:102D000001F0E8F980464A4901F0E4F9494900F048
:102D100073FF06464146284601F0DCF9314601F0D2
:102D2000D9F90646384601F041F90746424901F013
:102D3000D1F94249794451F8241000F05DFF314641
:102D400000F05AFF06463E49284601F0C3F93146D5
:102D500000F052FF054638463A4901F0BBF93A49BE
:102D6000794451F8241000F047FF2946BDE8F041AE
:102D700000F042BF4FF07E51304601F0B5FB0546F2
:102D8000324901F0A7F9324900F036FF294601F037
:102D9000A1F9304900F030FF294601F09BF92E4996
:102DA00000F02AFF04462946084601F093F921461F
:102DB00001F090F904462949284600E00EE001F0B0
:102DC00089F9214600F018FF04462549284601F0FC
:102DD00081F92146BDE8F04100F00EBF4FF07F427F
:102DE000B2EB400F03D2BDE8F041FFF7CFB8B0F12E
:102DF000FF4F08BFBDE8F081B0F1004F06D90120B8
:102E0000FDF77FFBBDE8F041FFF7C5B830F00041AA
:102E100005D06FF01606172101F00FFC50E70220D5
:102E2000FDF76FFBFFF7ADF880F00040BDE8F081E3
:102E3000DE02323E3B3D943EFC849A36F819000097
:102E4000D95B5E3F00209A3EAC190000924FA93D2D
:102E50007279DEBD2D3E143ED85B5EBE157B4B3CC9
:102E60000000D83E2DE9F0410026A0F50001B1F1A7
:102E7000FE4F7DD200F500226FF07E0101EBE251A2
:102E8000C2F3025477184FF07E52A0EBC15602EB0A
:102E9000045557EA040047D02946304600F0ACFEFE
:102EA00080462946304601F01FFB414600F042FFB4
:102EB0000546014601F00EF98046454901F00AF940
:102EC000444900F099FE06464146284601F002F9C1
:102ED000314601F0FFF80646384601F067F807462C
:102EE0003D4901F0F7F83D49794451F8241000F0CC
:102EF00083FE314600F080FE06460121284601F09F
:102F00009CFB314600F078FE05463846344901F016
:102F1000E1F83449794451F8241000F06DFE294657
:102F2000BDE8F04100F068BE4FF07E51304601F040
:102F3000DBFA05462C4901F0CDF82C4900F05CFE87
:102F4000294601F0C7F82A4900F056FE294601F04B
:102F5000C1F86FF0824100F04FFE04462946084652
:102F600001F0B8F8214601F0B5F80146284600E026
:102F700003E0BDE8F04100F03FBE4FF07F42B2EB0E
:102F8000400F03D2BDE8F041FFF700B8B0F1FF4FAA
:102F900008BFBDE8F081B0F1004F06D90120FDF770
:102FA000B0FABDE8F041FEF7F6BF30F0004105D0C1
:102FB0006FF01606172101F040FB5BE70220FDF7DA
:102FC000A0FAFEF7DEFF80F00040BDE8F0810000CF
:102FD00066F1CC3EAAAA2A3FF4FD05388418000009
:102FE0000070313F3818000021ED423E0A1180BECA
:102FF000C1ABAA3E2DE9F04D0E460023A0F5000C12
:103000004FF00071354684B002464FF07E5401EB1C
:1030100045014FF07F48BCF1FE4F80F09F81B1F138
:10302000804FC0F0DB81FE490144B1F5005F40F202
:10303000A78200F58021C90C01F00F07C1F3071129
:103040007F39A2EBC15501EB030B384600F0AEFF10
:103050006FF0030101F0F1FA4FF07E5100F0CCFD6A
:1030600001460290284601F03FFA01902846029955
:1030700000F0C2FD00F5006A6FF30B0A00905146A4
:10308000029801F031FA294600F0B6FD02904FF0A7
:103090007E50009900F04EFE01460090019801F02C
:1030A00019F800F500656FF30B052846029901F049
:1030B00011F802905146284601F00CF8019901F0F0
:1030C00081F9029901F010FA009901F003F8014624
:1030D0000190284600F090FD0146029000F0FAFFB2
:1030E0008246D04900F0F6FFCF4900F085FD5146F9
:1030F00000F0F0FF82460021284601F09EFA009081
:103100005146029800F0E6FF05460021019801F0C3
:1031100094FA294600F070FD82460146009800F0BE
:103120006BFD00F500656FF30B052946009801F073
:10313000DBF9514600F060FD8246BC49284600F0AC
:10314000C9FF0090BA49504600F0C4FF8246B94911
:10315000284600F0BFFF514600F04EFD8246014672
:10316000009800F049FD00F500656FF30B05294656
:10317000009801F0B9F9514600F03EFD8246AE4894
:10318000784450F8371000EBC700019147684FEAC8
:103190000B1000F00BFF00903946504600F02CFD5C
:1031A000294600F029FD019900F026FD009900F064
:1031B00023FD00F5006B6FF30B0B5846009901F0EF
:1031C00093F9019901F090F9294601F08DF93946FA
:1031D00001F08AF9514601F0F5F806F500678246DC
:1031E0006FF30B073946304601F07EF9002100905D
:1031F00008464FF0000000F00C063946584600F033
:1032000069FF054620F00040B0F18B4F0ADDB8EBB6
:10321000400F07D34FF08B4060F31E052F464FF051
:10322000000A1FE03846009900F0E6FC514600F025
:1032300051FF07465846009900F04CFF394600F010
:10324000DBFC82460146284600F0D6FC00F500670C
:103250006FF30B073946284601F046F9514600F056
:10326000CBFC824631460C204FF0000051463846D8
:1032700000F0C2FC00F070FE0646051100F096FE5C
:10328000394601F09FF8514600F0B6FC07466B49FD
:1032900000F020FF6A4900F0AFFC394600F01AFF49
:1032A000684900F0A9FC394600F014FF0146664861
:1032B00006F00F06784450F8260000F00BFF634933
:1032C000794451F8261000F097FC6149794451F88F
:1032D000261000F091FC05F17D01FC2908D2294659
:1032E00001F0ABF904B02146BDE8F04D00F0F2BEAC
:1032F00005F1BF01B1F5BF7F16D8294601F09DF950
:10330000214600F0E7FE0546B8EB450F1AD06800ED
:103310000CD02846FEF722FE042808BFFEF744FE24
:10332000284604B0BDE8F08D002D0BDA0220FDF731
:10333000E8F8FEF739FE0146204604B061F31E00AE
:10334000BDE8F08D0220FDF7DCF8FEF728FE01460F
:10335000204604B061F31E00BDE8F08DB1F1804F4E
:103360003CD300BF00F1FF41B1F1FE4F21D200BFBD
:1033700020F00042C5F3C75110467F290DDB972985
:10338000BFF651AEC1F196014FF0010C0CFA01F1FC
:10339000A1F1010C1CEA050F07D00120FDF7B1F8DF
:1033A00004B0BDE8F04DFEF7F6BD294218BF294C28
:1033B00039E641001CBF4FF08071B1EB400F09D9D5
:1033C0001B2101F03AF902466FF01A0310F0004F8A
:1033D000CED128E6BCF1FE4F18D224E6B1F1007F31
:1033E0000ED336F0004105D006F0004141F0FC5507
:1033F0002E46B7E7410018BFB8EB400F78D8B1E7C9
:10340000B1F1807F38BFA5F50006ABD320F00041B5
:103410006FF0FF4C104C01EB0C03A3422FD31DE0C7
:10342000001080C07EE24C3EABAAAA3E00B03842FB
:103430003BAA3842D49AB8BB0C160000FC5963373B
:10344000C9FF753A1872313DD81500008C1500007F
:1034500040150000000080BFFFFF3F0025F0004343
:103460009C44A4450BD3B0F17E5F18BF5FEA450CC6
:103470003ED0B1F1FF4F98BFB3F1FF4F05D904B073
:103480003146BDE8F04DFEF784BDB0F1FF4F0FD0DF
:10349000C5F3C7517F2909DB972911DAC1F19601DC
:1034A000012202FA01F14A1E2A4205D0002108E059
:1034B00015F0004F55D128E0294218BF012100D155
:1034C000022110F5000F14D020B3B0F1004F27D027
:1034D00010F1814F4ED04FF0FE41B1EB400F94BF41
:1034E00001200020012101EBE571884239D10CE077
:1034F00040E015F0004F02D0012936D031E001291B
:1035000002BF3F4804B0BDE8F08D4FF0FF4004B06B
:10351000BDE8F08D15F000400ED104B0BDE8F08D8F
:10352000B5F1FF4F1DD015F5000F05D015F0004F78
:1035300014D009B1012907D00220FCF7E2FF04B042
:10354000BDE8F04DFEF71DBD0220FCF7DAFFFEF7E7
:1035500018FD04B080F00040BDE8F08D09B10129EC
:1035600003D004B00020BDE8F08D04B04FF000405F
:10357000BDE8F08D04B04FF07E50BDE8F08D00BF87
:103580004FF07E5100F0B0FF05466FF0010101F0F1
:1035900054F81C4900F016FF294600F09BFD4FF03F
:1035A0007C5100F00FFF07462946084600F092FDC7
:1035B00080F00040394600F08DFD824612492846D1
:1035C00000F088FD07461149504600F083FD824611
:1035D0000F49284600F07EFD514600F00DFB0546E0
:1035E0000146384600F008FB00F5006B6FF30B0B4B
:1035F0005946384600F078FF294600F0FDFAECE520
:10360000000080FFABAAAA3E00B0B8413BAAB84177
:10361000D49A38BB2DE9F84304460246524869461D
:10362000B0EB420F09D94FF0E640B0EB420F94BF28
:1036300000204FF0FF30009030E04C4B22F0004073
:10364000834271D94A49204600F044FD00F08AFEC9
:10365000804600F065FC00F00300009045494046BC
:1036600000F038FD05464449404600F033FD06466B
:103670004249404600F02EFD07464149404600F0D1
:1036800029FD214600F09EFE394600F02DFF31460F
:1036900000F02AFF294600F027FF04462546009C3B
:1036A000002C45DB294614F0010F08461ED000F01F
:1036B00011FD0546334900F00DFD334900F09CFA39
:1036C000294600F007FD314900F096FA294600F03E
:1036D00001FD4FF07E5100F08FFA14F0020F08BF89
:1036E000BDE8F88380F00040BDE8F88300F0F2FC0C
:1036F0000646274900F0EEFC264900F07DFA3146E7
:1037000000F0E8FC244900F077FA314600F0E2FCD2
:10371000294600F0DFFC294600F06EFA14F0020F93
:10372000E0D1BDE8F883FFE71046FEF743FCB4E7BD
:103730006800B0F17F4F09D22846FEF70FFC04283D
:1037400008BFFEF731FC2846BDE8F88306D101200A
:10375000FCF7D7FEBDE8F843FEF71DBC2846BDE8E0
:10376000F843FEF713BC0000B61F927E490E49468F
:1037700083F9223F1A61342C0020A23300A0FD39C6
:103780000000C93FB93AB2BACA9F2A3DDDFFFFBE69
:10379000336D4CB9DA82083CA0AA2ABE2DE9F0416B
:1037A000054604464FF07F4120F00040B1EB450F45
:1037B00049D94FF0FE41B1EB450F19D83849B1EB6B
:1037C000450F45D3FFF71CF9044601464FF07E50E4
:1037D00000F0B0FA214600F0F5FD4FF0FF3100F0A7
:1037E0002CFF044615F0004F18BF84F0004427E07A
:1037F0004FF0E640B0EB450F49D82146294DDFF8A0
:10380000A8802A4F084600F065FC0646414600F0B5
:1038100061FC294600F0F0F905463946304600F0D3
:10382000EBF90146284600F085FA314600F052FCDB
:103830000146204600F04EFC214600F0DDF904462A
:103840002046BDE8F0812846BDE8F041FEF79EBB6A
:10385000174900F049FEFFF7D3F80446154900F078
:1038600039FC214600F0C8F90446B0F1FF4FB9D148
:1038700015F0004F18BF104C0220FCF742FEFEF777
:103880008EFB0146204661F31E00BDE8F081204614
:10389000FEF764FB042808BFFEF786FBD0E70000B4
:1038A0009E585D85F069E4C0C2E642BE934F2BC2CC
:1038B0000073313F97086837000080FF70B50546F8
:1038C00000F08AFD044620F00040C0F1FF40C00F28
:1038D00008D025F00040C0F1FF40C00F04BF012018
:1038E000FCF70FFE204670BD2DE9F8430446024662
:1038F0004C486946B0EB420F09D94FF0E640B0EBB7
:10390000420F94BF00204FF0FF30009030E0464B54
:1039100022F00040834265D94449204600F0DAFB9A
:1039200000F020FD804600F0FBFA00F0030000905C
:103930003F49404600F0CEFB05463E49404600F078
:10394000C9FB06463C49404600F0C4FB07463B49DC
:10395000404600F0BFFB214600F034FD394600F040
:10396000C3FD314600F0C0FD294600F0BDFD044610
:10397000009D002D3ADB2146084600F0ABFB0646D1
:103980002F4900F0A7FB2F4900F036F9314600F02F
:10399000A1FB2D4900F030F9314600F09BFB2B498B
:1039A00000F02AF9314600F095FB294900F024F98E
:1039B000314600F08FFB274900F01EF9314600F038
:1039C00089FB214600F086FB214600F015F915F031
:1039D000010F08BFBDE8F8830146BDE8F8431E4863
:1039E00000F0A8B91046FEF7E5FAC0E76000B0F1B4
:1039F0007F4F09D22046FEF7B1FA042808BFFEF730
:103A0000D3FA2046BDE8F88306D10120FCF779FD02
:103A1000BDE8F843FEF7BFBA2046BDE8F843FEF71D
:103A2000B5BA0000B61F927E490E494683F9223F7F
:103A30001A61342C0020A23300A0FD390000C93FD8
:103A4000BCE9223C0B6D063B8A76CE3CACB5593DB9
:103A500035A1083E29AAAA3E000080BF2DE9F04703
:103A6000314A324B05464FF07F4120F00044B1EB24
:103A7000450F54D39C421BDDB1EB440F18D3944245
:103A8000C8BF4FF07E5044DC0121204600F0D5FD38
:103A9000FEF7B6FF4FF07E5100F0AEF801464FF052
:103AA000804000F047F94FF07E5100F08BFC30E091
:103AB000B4F1665F0BDAB1EB440F08D32046FEF792
:103AC0004DFA042808BFFEF76FFA204621E0214690
:103AD000174EDFF860A0184F084600F0FBFA80464A
:103AE000514600F0F7FA314600F086F8414600F002
:103AF000F1FA06463946404600F07EF80146304667
:103B000000F018F90146204600F0E4FA214600F0E2
:103B100073F8002DB8BF80F00040BDE8F087BDE825
:103B2000F047FEF733BA0000B32C1041549F0C3F0E
:103B3000C6E252BFB2117BBB1A2A1E4010B5002943
:103B40000AD00878002807D005487844FDF7A8F87F
:103B5000002801D0002010BD0248784410BD0000AC
:103B6000CE110000C611000010B500290AD0087857
:103B7000002807D005487844FDF792F8002801D0C6
:103B8000002010BD0248784410BD0000B2120000B1
:103B9000AA1200000808A0F500114FEA3101704791
:103BA00043004FEAD30C4FEA3C0C43401FBF400791
:103BB0000CF1605113F0FE4F70471CF0006F03D101
:103BC0000CF00041002070470CF0004343EA5070B5
:103BD00040EACC0010B500F0FEFA00BF00000092F1
:103BE0004FEA0001FFF7D6BF4FF00041A1F50021D9
:103BF0004FF000007047000090EA010F48BF81F0CD
:103C0000004100F17884421A3CBF801A89184FEABB
:103C1000D052A2EBD1534FF07F4C1CEA410F18BF9A
:103C20009CEA026F00F03B804FF0004C4CEA002011
:103C30004CEA012121FA03FC10EB0C0C1ED202F11C
:103C4000FF325FEA1C2040EBC25038BF70471CF0C7
:103C50007F0F4FEA400C18BFBCF17F4F38BF704751
:103C6000C3F12003994008BF20F00100BCF17F4F51
:103C700038BF7047A0F1C04000F06EBB4FEA3C0077
:103C8000000A40EBC25028BF1CF0FF0F4FEA400C67
:103C9000E6D018BFBCF17F4F38BF7047EAE79CEA17
:103CA000026F05D010EA5C0F08BF00F000407047BB
:103CB00010B500F090FA00BF64FBBE3E014800F072
:103CC0008ABC00BF0000C07F10B500F0F5F80CBF43
:103CD0000120002010BD10B500F0EEF814BF012047
:103CE000002010BD10B500F08DF98CBF0120002020
:103CF00010BD10B500F086F92CBF0120002010BDCA
:103D000010B500F0B3F994BF0120002010BD10B52C
:103D100000F0ACF934BF0120002010BD401058BFA6
:103D2000C0F14040491058BFC1F140418142EFF31A
:103D3000008070474FF47F0C1CEAD0121EBF1CEAB3
:103D4000D11392EA0C0F93EA0C0F00F0858090EAF1
:103D5000010F48BF42F4807240F4000C41F40000AF
:103D60002CF07F4120F07F4000B5A2EB030281429E
:103D70000FF2081CACEB504E9EF800E0C0F10000C2
:103D80004FEA4E0E00FB0EFC38BF49004FEA2C1CD8
:103D90000CFB0EF34FEACE1E0EEB635E4FEA112CC6
:103DA0000EFB0CFC4FEAC1214FEA1C5300FB031130
:103DB00002F5FA024FEA112C0EFB0CFC4FEA01311E
:103DC0004FEADC4C00FB0C1142EB2242C14228BFFF
:103DD00009184CEB03335DF804EB10EB410143EBA6
:103DE000C250B2F57C0F38BF704729D512F0F00FE2
:103DF0001CBF00F1C04000F000407047008182838A
:103E00008485868788898B8C8D8E8F9192939596E9
:103E100097999A9C9D9FA0A2A3A5A7A8AAACAEB073
:103E2000B2B3B5B7B9BCBEC0C2C5C7C9CCCED1D478
:103E3000D7D9DCDFE2E6E9ECF0F3F7FAFE000000A8
:103E40004FEA400C0CF1807CBCF17E4F28BF7047DC
:103E5000B0F1C04000F080BA0CEAD11390EA010F33
:103E600048BF42F48072624538BF634507D213F4FD
:103E70007F0F16D080EA010000F00040704710B5B7
:103E800000F0A9F9097EFC3E00F005B880EA0100C7
:103E900000F00040704780EA010000F0004000F0B0
:103EA0005BBA12F47F0F04BF0248704780EA01003A
:103EB00000F052BA0000C07F50EA010C00F11380FC
:103EC0001CF5000F58BFBCF5000F01D488427047A5
:103ED00007D710F5000F58BF11F5000F15D4884211
:103EE0007047894270471CF5000F04D5BCF5000FE0
:103EF000F7D5814270474FF0807C1CEB400F38BFF4
:103F00001CEB410F01D28142704710B500F063F9FC
:103F1000922449004FF000504FF08051FFF7FEBE51
:103F200041000B0ED3F19E0208D950F400034FEA72
:103F3000032323FA02F048BF4042704710B500F057
:103F40004AF900BF49922480002070476FF0004278
:103F500082EA20007047000041000B0ED3F19E0260
:103F600016D950F400034FEA032333FA02FC0AD3B4
:103F700063FA02F383EA0C030CF1010C93F0004F97
:103F800008BF2CF0010C5CEA100028BF40427047CB
:103F900010B500F020F900BF49922480002070473E
:103FA0006FF0004282EA20007047000010F00041EC
:103FB00048BF4042B0FA80F310FA03F2C3F19D0308
:103FC0000BD051EAC35101EB1220530638BF7047A2
:103FD00000F1010008BF20F001007047B0FA80F343
:103FE00010FA03F2C3F19D030AD0D90501EB1220A8
:103FF000530638BF704700F1010008BF20F00100F0
:104000007047000050EA010C00F113801CF5000F0E
:1040100058BFBCF5000F01D48842704707D710F590
:10402000000F58BF11F5000F15D488427047894220
:1040300070471CF5000F04D5BCF5000FF7D5814281
:1040400070474FF0807C1CEB400F38BF1CEB410FDA
:1040500001D28142704710B500F0BDF892244900AA
:104060004FF080504FF00051FFF758BE50EA010C5E
:1040700000F113801CF5000F58BFBCF5000F01D4F0
:104080008842704707D710F5000F58BF11F5000F91
:1040900015D488427047894270471CF5000F04D53B
:1040A000BCF5000FF7D5814270474FF0807C1CEBC8
:1040B000400F38BF1CEB410F01D28142704710B551
:1040C00000F089F8922449004FF000504FF08051E1
:1040D000FFF724BE4FF47F0C1CEAD0121EBF1CEA6F
:1040E000D11392EA0C0F93EA0C0F00F0478090EA8C
:1040F000010F48BF42F480724FF0004C4CEA0020A0
:104100004CEA012102EB0302A0FB0113A2F500021D
:10411000002918BF43F001035B0028BF4FEA3303B7
:1041200042EB22425FEA132C4CEBC2502EBFBCEB99
:10413000436FB2F57C0F70474FEA036CBCF1004F40
:1041400008BF20F00100B2F57C0F38BF70470BD5D7
:1041500082F0FF0212F5803FC8BF704700F1C040F7
:10416000D8BF00F00040704700F5000C5FEA4C0C2F
:1041700048BF7047B0F1C04000F0EEB80CEAD11370
:1041800090EA010F48BF42F48072624538BF634530
:1041900004D280EA010000F00040704710B500F042
:1041A0001AF800BF8900013E00F007B800F009B816
:1041B0005FEA410C5FEA1C6C08D080EA010000F065
:1041C000CBB85FEA400C5FEA1C6CF6D14FF00040C0
:1041D000A0F5800070470EF1020E2EF0030E5EF87F
:1041E000044B244204D44FEA4102B2F17F4F11D86C
:1041F0004FEA4003B3F17F4F0CD80ED14FEAD07C89
:104200000CEB4C0C0CF1020CB2F17F4F08BF4CEBE5
:10421000D17C04E04FF0080C01E04FEAD17C0CEBBC
:104220004C0324FA03F404F00704B4F1040C06D29E
:104230000EEB840CBDE810404CF0010C6047DFE849
:104240000CF0070802024FF00040A0F5800010BDFE
:104250000846420018BFD2F1807288BF00F00040CB
:1042600010BD00004FF07F4C3CEA410318BF3CEA10
:10427000400200F062804FF47F0C0CEAD11310F082
:10428000004F18BF43F005031CEAD01218BF13EA11
:104290000C0F00F057804FF0004C4CEA00204CEA25
:1042A0000121A3F580339A4210DD23F00203B0F11F
:1042B000004F06D343F00203401ABCBF404283F0D4
:1042C00001034FEA4000A2F58032ECE74FEA224CAE
:1042D000BCEB234F08DB884206D31CD0A0EB410087
:1042E000C0F1000083F0010340001DD217D40DD0AF
:1042F000B0FA80FC0CF1010C00FA0CF0A2EB0C42BD
:10430000D2F1000C12DB4FEAC37070474FEA4370E2
:1043100000F00040704713F0020FE5D0DEE74FEAEF
:104320004000B2F58032EBDD002AE9DD4FEAC2122F
:1043300042EA502040EAC370704710B5FFF74BFFC8
:10434000EDFFFF3E1CEAD11F02D000F00040704795
:10435000004870470000C07FFF2141EAD050C005EF
:10436000704700005FEA400C5FEA1C6CBCF17F0301
:1043700014D4D3F1170240F31C804FF0010C0CFA57
:1043800002FCACF10103034020EA0300B3EB5C0242
:1043900008BF10EA0C0F88BF60447047B3F1FF3FBD
:1043A00028BF5FEA002C00F0004088BF40F07E503C
:1043B0007047BCF1FF0FB8BF704710B5FFF70BFF98
:1043C00040DBB6BE80F0004090EA010F7FF51BACE9
:1043D00081F0004100F08FB84FEAD051002988BF2A
:1043E000D1F1FF0240F275804FEA002040F000401A
:1043F00070B501F17D01490838BF40080EA2430E97
:10440000D25C040C02FB02F304FB03F3C3F1404350
:10441000A3FB0254ED0D45EA442202FB02F3A0FB8C
:1044200003546D42C4F1404438BF641EA2FB0535FD
:104430000023E2FB0453EA0B42EA4342A0FB0232B0
:1044400012F14004E409A2F1210303F07F031F2BC2
:1044500032D904EBC15070BDFEFAF7F3F0ECE9E697
:10446000E4E1DEDCD9D7D4D2D0CECCCAC8C6C4C22F
:10447000C1BFBDBCBAB9B7B6B4B3B2B0AFAEACABE6
:10448000AAA9A8A7A6A4A3A2A1A09F9E9E9D9C9B0B
:104490009A999897979695949393929190908F8EDE
:1044A0008E8D8C8C8B8A8A8989888787868685847D
:1044B000848383828281818004FB04F6B6EB00460C
:1044C00003D5E64248BF641CC3E7A64258BF641C3C
:1044D000BFE711F0FF0F02D100F00040704710B5A8
:1044E000FFF779FE7FDBFFBE90EA010F48BF81F046
:1044F00000413FF588AB421A04D882F00042A0EB9D
:10450000020011444FEAD052A2EBD1534FF07F4C3E
:104510001CEA410F18BF9CEA026F4AD04FF0004CD2
:104520004CEA00204CEA012121FA03FCB0EB0C0C10
:104530000FD412F0FE0F36D05FEA4C001DD50012EA
:1045400040EBC25038BF70471CF03F0F18BF704798
:104550000BE05FEA1C20A2F1010240EBC25038BF21
:1045600070471CF07F0F18BF7047C3F120039940BC
:1045700014BF401E20F0010070474FEA122380084C
:1045800008BF7047B0FA80FCA2EB0C02CCF1280CFB
:1045900060FA0CF093EA122F04BF00EBC250704790
:1045A0004FEAC3707047130A5FEADC1008BF704718
:1045B000F6E79CEA026F04D010EA5C0F08BF002007
:1045C000704710B5FFF707FE40DFF63E81F0004070
:1045D0007047FCF7CDB80CF00F03092B08BF08207B
:1045E00000F051800A2B0BD0082B18BF704708BF72
:1045F0001CF0400F0AD04FF000004FF00001704750
:104600001CF0400F18BF4FF0004070471CF0100F17
:1046100008D000F07F4220F0704342EAD3014FEA15
:104620004370704700F0604021F07F4242EA000290
:1046300001F07F4040EA727070474FF0FF0212EACB
:10464000D0521CBF92F0FF038B42C2BFD14200EB9D
:10465000C1507047002A0AD0002B0BD000F0004058
:104660000029A4BF40F0FE4040F40000704700F075
:104670000040704743024FF00B0C18BF4CF0806CA9
:104680007FF41CAB70471CF4801F11D01CF4E02F8A
:1046900003D06FEACC31490070474FF04050EFF340
:1046A000008222F0704242EA000282F300887047E2
:1046B0004FF00000704730313233343536373839F7
:1046C000414243444546403058003031323334355E
:1046D00036373839616263646566403078000000BF
:1046E0000000803F0030983F0000B53F0040D73FBA
:1046F00000000000320A7E397F661E395B991F393F
:104700000000803FF037983FF304B53FFD44D73FAA
:10471000000000000080513D0070C63D00900D3E3D
:104720000050343E00E0573E00D0783E00C08B3E43
:10473000000000000AD6A936431C8C37658F7338F9
:10474000832DA236121D1F38B3756F38D2535A38D5
:10475000000000000030F13D0070643E0000A33E08
:104760000090CF3E0090F83E00400F3F00E0203F19
:104770000000000015B78337CDE37B380EE1C53864
:1047800060F69138AF5F0F38E1BC3E3823F447390B
:1047900000000000000000000000B33FB2BE7D3A00
:1047A00000002E40DFCF513800007E40BF51FABAE2
:1047B00000E0A44019DAC3BA00E0C840C2ED8AB9EB
:1047C0000040EB40CD1F2CBA001006412AFFFABA78
:1047D00000C01541DFCFD13700D024419A97703AFD
:1047E0000050334189478E3600404141E75B9D3898
:1047F00000B04E41C00A98B900A05B41558F943A71
:1048000000306841DA92C0BA0040744162B3C63ADF
:104810000000803F00A0853F00908B3F00C0913F8B
:104820000030983F00F09E3F00F0A53F0050AD3FA4
:104830000000B53F0000BD3F0060C53F0020CE3FF7
:104840000040D73F00C0E03F00C0EA3F0020F53FF6
:10485000000000007D36AC397D3C3839EBDCF438A3
:10486000320A7E39124C26399B6AED39A4EE83391F
:104870007F661E39F6398A392B426539A48211398F
:104880005B991F39C3EECD39DDE7C637A5A22F39B5
:104890000000803FC3AA853FC2958B3FD3C3913FA1
:1048A000F037983F32F59E3FD7FEA53F3F58AD3FCA
:1048B000F304B53FA408BD3F2A67C53F8C24CE3F13
:1048C000FD44D73FDFCCE03FC7C0EA3F7D25F53F41
:1048D000000000006E83F9A22915444ED15727FC31
:1048E000C0DD34F5999562DB4190433CAB6351FEEA
:1048F00002400000000000A0000000000540000091
:10490000000000C8000000000C4000000000409CB7
:1049100000000000194000000020BCBE00000000A4
:1049200034400000BFC91B8E00000004B5400000E9
:10493000504BCFD06607E2CF010000006C41000071
:104940003E8251AADFEEA73401000000D9420000E8
:10495000DCB5A0E23A301F97FFFFFFFFB44500002F
:10496000FD25A0C8E9A3C14FFFFFFFFFFF3F0000E7
:104970000000008000000000FF3F000000000080F9
:10498000000000006973616C6E756D282737272958
:10499000006973616C706861282742272900697378
:1049A000636E74726C28275C6E27290069736C6FC4
:1049B00077657228277627290069736772617068A6
:1049C00028277A2729002E2E2F2E2E2F5573657219
:1049D000732F746573742D63747970652E6300642E
:1049E0005F633D3D302E303137343731383936351D
:1049F000313732333931383300645F633D3D302E17
:104A00003436333436313433393834383431303263
:104A10003600645F633D3D302E34343839313930EF
:104A20003033323234383337393600645F633D3DDA
:104A3000312E353433343036333636303833323144
:104A40003700645F633D3D302E36393630393733B9
:104A500031393132383836383700645F633D3D30A4
:104A60002E36353837383036333434303332323806
:104A70003800645F633D3D312E3132313837373392
:104A8000323335373030353838007465737420660A
:104A90006C6F6174206C6F67313066204F4B00740F
:104AA00065737420666C6F6174206174616E326628
:104AB000204F4B007465737420666C6F61742066C0
:104AC0006D6F6466204F4B007465737420666C6F65
:104AD0006174206C6F6766204F4B0074657374209F
:104AE000666C6F61742074616E6866204F4B007451
:104AF00065737420666C6F6174206365696C6620F1
:104B00004F4B007465737420666C6F617420746120
:104B10006E66204F4B007465737420666C6F617411
:104B20002065787066204F4B007465737420666C46
:104B30006F6174206C6465787066204F4B007465FB
:104B4000737420666C6F6174206661627366204FB7
:104B50004B007465737420666C6F6174207371729E
:104B60007466204F4B007465737420666C6F6174BB
:104B700020706F7766204F4B007465737420666CED
:104B80006F61742073696E68204F4B007465737495
:104B900020666C6F617420636F7368204F4B0074E4
:104BA00065737420666C6F61742073696E204F4B5F
:104BB000007465737420666C6F617420666C6F6F2F
:104BC00072204F4B007465737420666C6F617420A3
:104BD000636F73204F4B002E2E2F2E2E2F55736593
:104BE00072732F746573742D6D6174682E63002564
:104BF0006600665F633D3D302E306600665F633D54
:104C00003D312E306600665F633D3D3431393433CB
:104C100030342E306600665F633D3D302E313030DB
:104C20003832323431316600665F633D3D302E30BC
:104C30003039323939393939316600665F633D3D83
:104C4000302E3939323139373639326600665F6392
:104C50003D3D302E31323536353531336600665FB5
:104C6000633D3D312E3133333134383433660066A1
:104C70005F633D3D312E3030373832323633660097
:104C8000665F633D3D302E3132343637343733661C
:104C900000665F633D3D302E3132356600665F63EE
:104CA0003D3D2D322E30373934343135356600668E
:104CB0005F633D3D302E333533353533333835661C
:104CC00000665F633D3D2D302E393033303966004C
:104CD000665F633D3D302E37373131303534303902
:104CE0006600665F633D3D302E31323533323537F5
:104CF00036396600665F633D3D302E3132343335E0
:104D00003239393966000000444E000800000020A6
:104D1000C808000054010008100100004300000012
:104D2000F8FFFFFF004040404040404040404141CC
:104D30004141414040404040404040404040404070
:104D4000404040404005020202020202020202020A
:104D50000202020202202020202020202020200207
:104D60000202020202029090909090901010101097
:104D70001010101010101010101010101010101033
:104D800002020202020288888888888808080808C7
:104D90000808080808080808080808080808080893
:104DA00002020202400000000000000000000000BB
:104DB00000000000000000000000000000000000F3
:104DC00000000000000000000000000000000000E3
:104DD00000000000000000000000000000000000D3
:104DE00000000000000000000000000000000000C3
:104DF00000000000000000000000000000000000B3
:104E000000000000000000000000000000000000A2
:104E10000000000000000000000000000000000092
:104E200000000000000000001C0000004300000023
:104E3000F8FFFFFF0C0000000E0000000F00000054
:044E40002E00000040
:04000005080000ED02
:00000001FF
